{
  "contractName": "EIP20",
  "abi": [
    {
      "constant": true,
      "inputs": [],
      "name": "name",
      "outputs": [
        {
          "name": "",
          "type": "string"
        }
      ],
      "payable": false,
      "stateMutability": "view",
      "type": "function"
    },
    {
      "constant": true,
      "inputs": [],
      "name": "decimals",
      "outputs": [
        {
          "name": "",
          "type": "uint8"
        }
      ],
      "payable": false,
      "stateMutability": "view",
      "type": "function"
    },
    {
      "constant": true,
      "inputs": [],
      "name": "symbol",
      "outputs": [
        {
          "name": "",
          "type": "string"
        }
      ],
      "payable": false,
      "stateMutability": "view",
      "type": "function"
    },
    {
      "anonymous": false,
      "inputs": [
        {
          "indexed": false,
          "name": "_senderAddress",
          "type": "address"
        },
        {
          "indexed": false,
          "name": "_toAddress",
          "type": "address"
        },
        {
          "indexed": false,
          "name": "_amount",
          "type": "uint256"
        }
      ],
      "name": "IssuedNewTokens",
      "type": "event"
    },
    {
      "anonymous": false,
      "inputs": [
        {
          "indexed": true,
          "name": "from",
          "type": "address"
        },
        {
          "indexed": true,
          "name": "to",
          "type": "address"
        },
        {
          "indexed": false,
          "name": "value",
          "type": "uint256"
        }
      ],
      "name": "Transfer",
      "type": "event"
    },
    {
      "anonymous": false,
      "inputs": [
        {
          "indexed": true,
          "name": "owner",
          "type": "address"
        },
        {
          "indexed": true,
          "name": "spender",
          "type": "address"
        },
        {
          "indexed": false,
          "name": "value",
          "type": "uint256"
        }
      ],
      "name": "Approval",
      "type": "event"
    },
    {
      "constant": true,
      "inputs": [],
      "name": "totalSupply",
      "outputs": [
        {
          "name": "",
          "type": "uint256"
        }
      ],
      "payable": false,
      "stateMutability": "view",
      "type": "function"
    },
    {
      "constant": true,
      "inputs": [
        {
          "name": "_owner",
          "type": "address"
        }
      ],
      "name": "balanceOf",
      "outputs": [
        {
          "name": "",
          "type": "uint256"
        }
      ],
      "payable": false,
      "stateMutability": "view",
      "type": "function"
    },
    {
      "constant": true,
      "inputs": [
        {
          "name": "_owner",
          "type": "address"
        },
        {
          "name": "_spender",
          "type": "address"
        }
      ],
      "name": "allowance",
      "outputs": [
        {
          "name": "",
          "type": "uint256"
        }
      ],
      "payable": false,
      "stateMutability": "view",
      "type": "function"
    },
    {
      "constant": false,
      "inputs": [
        {
          "name": "_to",
          "type": "address"
        },
        {
          "name": "_value",
          "type": "uint256"
        }
      ],
      "name": "transfer",
      "outputs": [
        {
          "name": "",
          "type": "bool"
        }
      ],
      "payable": false,
      "stateMutability": "nonpayable",
      "type": "function"
    },
    {
      "constant": false,
      "inputs": [
        {
          "name": "_spender",
          "type": "address"
        },
        {
          "name": "_value",
          "type": "uint256"
        }
      ],
      "name": "approve",
      "outputs": [
        {
          "name": "",
          "type": "bool"
        }
      ],
      "payable": false,
      "stateMutability": "nonpayable",
      "type": "function"
    },
    {
      "constant": false,
      "inputs": [
        {
          "name": "_from",
          "type": "address"
        },
        {
          "name": "_to",
          "type": "address"
        },
        {
          "name": "_value",
          "type": "uint256"
        }
      ],
      "name": "transferFrom",
      "outputs": [
        {
          "name": "",
          "type": "bool"
        }
      ],
      "payable": false,
      "stateMutability": "nonpayable",
      "type": "function"
    },
    {
      "constant": false,
      "inputs": [
        {
          "name": "_senderAddress",
          "type": "address"
        },
        {
          "name": "_toAddress",
          "type": "address"
        },
        {
          "name": "_amount",
          "type": "uint256"
        }
      ],
      "name": "issueNewTokens",
      "outputs": [
        {
          "name": "",
          "type": "uint256"
        }
      ],
      "payable": false,
      "stateMutability": "nonpayable",
      "type": "function"
    }
  ],
  "bytecode": "0x6080604052600060025534801561001557600080fd5b5061070b806100256000396000f3006080604052600436106100a35763ffffffff7c010000000000000000000000000000000000000000000000000000000060003504166306fdde0381146100a8578063095ea7b31461013257806318160ddd1461016a57806323b872dd14610191578063313ce567146101bb57806370a08231146101e657806395d89b4114610207578063a9059cbb1461021c578063bca82f9714610240578063dd62ed3e1461026a575b600080fd5b3480156100b457600080fd5b506100bd610291565b6040805160208082528351818301528351919283929083019185019080838360005b838110156100f75781810151838201526020016100df565b50505050905090810190601f1680156101245780820380516001836020036101000a031916815260200191505b509250505060405180910390f35b34801561013e57600080fd5b50610156600160a060020a03600435166024356102c8565b604080519115158252519081900360200190f35b34801561017657600080fd5b5061017f610316565b60408051918252519081900360200190f35b34801561019d57600080fd5b50610156600160a060020a036004358116906024351660443561031c565b3480156101c757600080fd5b506101d0610413565b6040805160ff9092168252519081900360200190f35b3480156101f257600080fd5b5061017f600160a060020a0360043516610418565b34801561021357600080fd5b506100bd610433565b34801561022857600080fd5b50610156600160a060020a036004351660243561046a565b34801561024c57600080fd5b5061017f600160a060020a0360043581169060243516604435610570565b34801561027657600080fd5b5061017f600160a060020a03600435811690602435166105e5565b60408051808201909152601381527f4f6e6c696e65204d61726b657420506c61636500000000000000000000000000602082015281565b604080518281529051600091600160a060020a0385169133917f8c5be1e5ebec7d5bd14f71427d1e84f3dd0314c0f7b2291e5b200ac8c7c3b925919081900360200190a35060015b92915050565b60025490565b600160a060020a03831660009081526020819052604081205482111561034157600080fd5b600160a060020a038316151561035657600080fd5b600160a060020a03841660009081526020819052604090205461037f908363ffffffff61061016565b600160a060020a0380861660009081526020819052604080822093909355908516815220546103b4908363ffffffff61062516565b600160a060020a038085166000818152602081815260409182902094909455805186815290519193928816927fddf252ad1be2c89b69c2b068fc378daa952ba7f163c4a11628f55a4df523b3ef92918290030190a35060019392505050565b600381565b600160a060020a031660009081526020819052604090205490565b60408051808201909152600381527f4f4d500000000000000000000000000000000000000000000000000000000000602082015281565b3360009081526020819052604081205482111561048657600080fd5b600160a060020a038316151561049b57600080fd5b600160a060020a03831660009081526020819052604090205482810110156104c257600080fd5b336000908152602081905260409020546104e2908363ffffffff61061016565b3360009081526020819052604080822092909255600160a060020a03851681522054610514908363ffffffff61062516565b600160a060020a038416600081815260208181526040918290209390935580518581529051919233927fddf252ad1be2c89b69c2b068fc378daa952ba7f163c4a11628f55a4df523b3ef9281900390910190a350600192915050565b600061057c8383610635565b60408051600160a060020a0380871682528516602082015280820184905290517f28304351f4cb68edab8682e94ff67c7f896c010f2b576db48f5503611d8ae6be9181900360600190a15050600160a060020a0316600090815260208190526040902054919050565b600160a060020a03918216600090815260016020908152604080832093909416825291909152205490565b60008282111561061f57600080fd5b50900390565b8181018281101561031057600080fd5b600160a060020a038216151561064a57600080fd5b60025461065d908263ffffffff61062516565b600255600160a060020a038216600090815260208190526040902054610689908263ffffffff61062516565b600160a060020a0383166000818152602081815260408083209490945583518581529351929391927fddf252ad1be2c89b69c2b068fc378daa952ba7f163c4a11628f55a4df523b3ef9281900390910190a350505600a165627a7a72305820afae509884004730eedc8688ce70c7f409b0d8e3a5446039f8bece62d9e033ee0029",
  "source": "pragma solidity ^0.4.23;\n\nimport \"./EIP20Interface.sol\";\nimport \"./library/SafeMath.sol\";\n\ncontract EIP20 is EIP20Interface {\n using SafeMath for uint256;\n\n string constant public name = \"Online Market Place\";\n string constant public symbol = \"OMP\";\n uint8 constant public decimals = 3;\n\n mapping (address => uint256) private balances;\n\n /**\n * Ideally this mapping of the mapping shall be used. However, in this contract, I don't see\n * a need yet.\n */\n mapping (address => mapping(address => uint256)) private allowed;\n\n/**\n* Initially the total supply will be zero. However, based on the store's loyalty\n* policy the store can issue a token, which will be valid across the market place.\n*/\n uint256 private totalSupply_ = 0;\n\nevent IssuedNewTokens(\n      address _senderAddress,\n      address _toAddress,\n      uint256 _amount );\n\n /**\n * @dev Total number of tokens in existence\n */\n function totalSupply() public view returns (uint256) {\n   return totalSupply_;\n }\n\n /**\n * @dev Gets the balance of the specified address.\n * @param _owner The address to query the the balance of.\n * @return An uint256 representing the amount owned by the passed address.\n */\n function balanceOf(address _owner) public view returns (uint256) {\n   return balances[_owner];\n }\n\n /**\n  * @dev Function to check the amount of tokens that an owner allowed to a spender.\n  * @param _owner address The address which owns the funds.\n  * @param _spender address The address which will spend the funds.\n  * @return A uint256 specifying the amount of tokens still available for the spender.\n  */\n function allowance(\n   address _owner,\n   address _spender\n  )\n   public\n   view\n   returns (uint256)\n {\n   return allowed[_owner][_spender];\n }\n\n /**\n * @dev Transfer token for a specified address\n * @param _to The address to transfer to.\n * @param _value The amount to be transferred.\n */\n function transfer(address _to, uint256 _value) public returns (bool) {\n   require(_value <= balances[msg.sender]);\n   require(_to != address(0));\n   require(balances[_to] + _value >= balances[_to]);\n\n   balances[msg.sender] = balances[msg.sender].sub(_value);\n   balances[_to] = balances[_to].add(_value);\n   emit Transfer(msg.sender, _to, _value);\n   return true;\n }\n\n /**\n  * @dev Approve the passed address to spend the specified amount of tokens on behalf of msg.sender.\n  * TODO: Currently, I am not using the allowed mapping. Which means I am partially fullfilling the\n  *       ERC20 token standard.\n  *\n  * @param _spender The address which will spend the funds.\n  * @param _value The amount of tokens to be spent.\n  */\n function approve(address _spender, uint256 _value) public returns (bool) {\n   // allowed[msg.sender][_spender] = _value;\n   emit Approval(msg.sender, _spender, _value);\n   return true;\n }\n\n /**\n  * @dev Transfer tokens from one address to another\n  * @param _from address The address which you want to send tokens from\n  * @param _to address The address which you want to transfer to\n  * @param _value uint256 the amount of tokens to be transferred\n  */\n function transferFrom(\n   address _from,\n   address _to,\n   uint256 _value\n )\n   public\n   returns (bool)\n {\n   require(_value <= balances[_from]);\n   // require(_value <= allowed[_from][msg.sender]);\n   require(_to != address(0));\n\n   balances[_from] = balances[_from].sub(_value);\n   balances[_to] = balances[_to].add(_value);\n   // allowed[_from][msg.sender] = allowed[_from][msg.sender].sub(_value);\n   emit Transfer(_from, _to, _value);\n   return true;\n }\n\n /**\n * @dev this function will issue new tokens to the to address.\n * @param _senderAddress - the smart contract using this method should know that the sender is ultimately\n *      responsible for honoring all the tokens created in this system\n * @param _toAddress - this accont will be credited with certain tokens\n * @param _amount - the amount\n * @return the balance of the account to whom the token is being issued\n */\n function issueNewTokens(\n              address _senderAddress,\n              address _toAddress,\n              uint256 _amount ) public returns (uint256){\n\n    _mint(_toAddress, _amount);\n    emit IssuedNewTokens(_senderAddress, _toAddress, _amount);\n    return balances[_toAddress];\n }\n\n /**\n  *\n  * @dev Internal function that mints an amount of the token and assigns it to\n  * an account. This encapsulates the modification of balances such that the\n  * proper events are emitted.\n  * @param _account The account that will receive the created tokens.\n  * @param _amount The amount that will be created.\n  */\n function _mint(address _account, uint256 _amount) internal {\n   require(_account != 0);\n   totalSupply_ = totalSupply_.add(_amount);\n   balances[_account] = balances[_account].add(_amount);\n   emit Transfer(address(0), _account, _amount);\n }\n\n /**\n  * @dev Internal function that burns an amount of the token of a given\n  * account.\n  * @param _account The account whose tokens will be burnt.\n  * @param _amount The amount that will be burnt.\n  */\n function _burn(address _account, uint256 _amount) internal {\n   require(_account != 0);\n   require(_amount <= balances[_account]);\n\n   totalSupply_ = totalSupply_.sub(_amount);\n   balances[_account] = balances[_account].sub(_amount);\n   emit Transfer(_account, address(0), _amount);\n }\n\n}\n",
  "sourcePath": "/Users/alokranjan/blockchain/ethereum/consensys/ethmarket/contracts/EIP20.sol",
  "compiler": {
    "name": "solc",
    "version": "0.4.24+commit.e67f0147.Emscripten.clang"
  },
  "schemaVersion": "2.0.1",
  "updatedAt": "2018-08-31T18:17:22.168Z"
}