{
  "contractName": "EIP20",
  "abi": [
    {
      "constant": true,
      "inputs": [],
      "name": "name",
      "outputs": [
        {
          "name": "",
          "type": "string"
        }
      ],
      "payable": false,
      "stateMutability": "view",
      "type": "function"
    },
    {
      "constant": true,
      "inputs": [],
      "name": "decimals",
      "outputs": [
        {
          "name": "",
          "type": "uint8"
        }
      ],
      "payable": false,
      "stateMutability": "view",
      "type": "function"
    },
    {
      "constant": true,
      "inputs": [],
      "name": "symbol",
      "outputs": [
        {
          "name": "",
          "type": "string"
        }
      ],
      "payable": false,
      "stateMutability": "view",
      "type": "function"
    },
    {
      "anonymous": false,
      "inputs": [
        {
          "indexed": false,
          "name": "_senderAddress",
          "type": "address"
        },
        {
          "indexed": false,
          "name": "_toAddress",
          "type": "address"
        },
        {
          "indexed": false,
          "name": "_amount",
          "type": "uint256"
        }
      ],
      "name": "IssuedNewTokens",
      "type": "event"
    },
    {
      "anonymous": false,
      "inputs": [
        {
          "indexed": true,
          "name": "from",
          "type": "address"
        },
        {
          "indexed": true,
          "name": "to",
          "type": "address"
        },
        {
          "indexed": false,
          "name": "value",
          "type": "uint256"
        }
      ],
      "name": "Transfer",
      "type": "event"
    },
    {
      "anonymous": false,
      "inputs": [
        {
          "indexed": true,
          "name": "owner",
          "type": "address"
        },
        {
          "indexed": true,
          "name": "spender",
          "type": "address"
        },
        {
          "indexed": false,
          "name": "value",
          "type": "uint256"
        }
      ],
      "name": "Approval",
      "type": "event"
    },
    {
      "constant": true,
      "inputs": [],
      "name": "totalSupply",
      "outputs": [
        {
          "name": "",
          "type": "uint256"
        }
      ],
      "payable": false,
      "stateMutability": "view",
      "type": "function"
    },
    {
      "constant": true,
      "inputs": [
        {
          "name": "_owner",
          "type": "address"
        }
      ],
      "name": "balanceOf",
      "outputs": [
        {
          "name": "",
          "type": "uint256"
        }
      ],
      "payable": false,
      "stateMutability": "view",
      "type": "function"
    },
    {
      "constant": true,
      "inputs": [
        {
          "name": "_owner",
          "type": "address"
        },
        {
          "name": "_spender",
          "type": "address"
        }
      ],
      "name": "allowance",
      "outputs": [
        {
          "name": "",
          "type": "uint256"
        }
      ],
      "payable": false,
      "stateMutability": "view",
      "type": "function"
    },
    {
      "constant": false,
      "inputs": [
        {
          "name": "_to",
          "type": "address"
        },
        {
          "name": "_value",
          "type": "uint256"
        }
      ],
      "name": "transfer",
      "outputs": [
        {
          "name": "",
          "type": "bool"
        }
      ],
      "payable": false,
      "stateMutability": "nonpayable",
      "type": "function"
    },
    {
      "constant": false,
      "inputs": [
        {
          "name": "_spender",
          "type": "address"
        },
        {
          "name": "_value",
          "type": "uint256"
        }
      ],
      "name": "approve",
      "outputs": [
        {
          "name": "",
          "type": "bool"
        }
      ],
      "payable": false,
      "stateMutability": "nonpayable",
      "type": "function"
    },
    {
      "constant": false,
      "inputs": [
        {
          "name": "_from",
          "type": "address"
        },
        {
          "name": "_to",
          "type": "address"
        },
        {
          "name": "_value",
          "type": "uint256"
        }
      ],
      "name": "transferFrom",
      "outputs": [
        {
          "name": "",
          "type": "bool"
        }
      ],
      "payable": false,
      "stateMutability": "nonpayable",
      "type": "function"
    },
    {
      "constant": false,
      "inputs": [
        {
          "name": "_senderAddress",
          "type": "address"
        },
        {
          "name": "_toAddress",
          "type": "address"
        },
        {
          "name": "_amount",
          "type": "uint256"
        }
      ],
      "name": "issueNewTokens",
      "outputs": [
        {
          "name": "",
          "type": "uint256"
        }
      ],
      "payable": false,
      "stateMutability": "nonpayable",
      "type": "function"
    }
  ],
  "bytecode": "0x6080604052600060025534801561001557600080fd5b50610d5a806100256000396000f3006080604052600436106100a4576000357c0100000000000000000000000000000000000000000000000000000000900463ffffffff16806306fdde03146100a9578063095ea7b31461013957806318160ddd1461019e57806323b872dd146101c9578063313ce5671461024e57806370a082311461027f57806395d89b41146102d6578063a9059cbb14610366578063bca82f97146103cb578063dd62ed3e1461044c575b600080fd5b3480156100b557600080fd5b506100be6104c3565b6040518080602001828103825283818151815260200191508051906020019080838360005b838110156100fe5780820151818401526020810190506100e3565b50505050905090810190601f16801561012b5780820380516001836020036101000a031916815260200191505b509250505060405180910390f35b34801561014557600080fd5b50610184600480360381019080803573ffffffffffffffffffffffffffffffffffffffff169060200190929190803590602001909291905050506104fc565b604051808215151515815260200191505060405180910390f35b3480156101aa57600080fd5b506101b361056d565b6040518082815260200191505060405180910390f35b3480156101d557600080fd5b50610234600480360381019080803573ffffffffffffffffffffffffffffffffffffffff169060200190929190803573ffffffffffffffffffffffffffffffffffffffff16906020019092919080359060200190929190505050610577565b604051808215151515815260200191505060405180910390f35b34801561025a57600080fd5b50610263610798565b604051808260ff1660ff16815260200191505060405180910390f35b34801561028b57600080fd5b506102c0600480360381019080803573ffffffffffffffffffffffffffffffffffffffff16906020019092919050505061079d565b6040518082815260200191505060405180910390f35b3480156102e257600080fd5b506102eb6107e5565b6040518080602001828103825283818151815260200191508051906020019080838360005b8381101561032b578082015181840152602081019050610310565b50505050905090810190601f1680156103585780820380516001836020036101000a031916815260200191505b509250505060405180910390f35b34801561037257600080fd5b506103b1600480360381019080803573ffffffffffffffffffffffffffffffffffffffff1690602001909291908035906020019092919050505061081e565b604051808215151515815260200191505060405180910390f35b3480156103d757600080fd5b50610436600480360381019080803573ffffffffffffffffffffffffffffffffffffffff169060200190929190803573ffffffffffffffffffffffffffffffffffffffff16906020019092919080359060200190929190505050610a3e565b6040518082815260200191505060405180910390f35b34801561045857600080fd5b506104ad600480360381019080803573ffffffffffffffffffffffffffffffffffffffff169060200190929190803573ffffffffffffffffffffffffffffffffffffffff169060200190929190505050610b31565b6040518082815260200191505060405180910390f35b6040805190810160405280601381526020017f4f6e6c696e65204d61726b657420506c6163650000000000000000000000000081525081565b60008273ffffffffffffffffffffffffffffffffffffffff163373ffffffffffffffffffffffffffffffffffffffff167f8c5be1e5ebec7d5bd14f71427d1e84f3dd0314c0f7b2291e5b200ac8c7c3b925846040518082815260200191505060405180910390a36001905092915050565b6000600254905090565b60008060008573ffffffffffffffffffffffffffffffffffffffff1673ffffffffffffffffffffffffffffffffffffffff1681526020019081526020016000205482111515156105c657600080fd5b600073ffffffffffffffffffffffffffffffffffffffff168373ffffffffffffffffffffffffffffffffffffffff161415151561060257600080fd5b610653826000808773ffffffffffffffffffffffffffffffffffffffff1673ffffffffffffffffffffffffffffffffffffffff16815260200190815260200160002054610bb890919063ffffffff16565b6000808673ffffffffffffffffffffffffffffffffffffffff1673ffffffffffffffffffffffffffffffffffffffff168152602001908152602001600020819055506106e6826000808673ffffffffffffffffffffffffffffffffffffffff1673ffffffffffffffffffffffffffffffffffffffff16815260200190815260200160002054610bd490919063ffffffff16565b6000808573ffffffffffffffffffffffffffffffffffffffff1673ffffffffffffffffffffffffffffffffffffffff168152602001908152602001600020819055508273ffffffffffffffffffffffffffffffffffffffff168473ffffffffffffffffffffffffffffffffffffffff167fddf252ad1be2c89b69c2b068fc378daa952ba7f163c4a11628f55a4df523b3ef846040518082815260200191505060405180910390a3600190509392505050565b600381565b60008060008373ffffffffffffffffffffffffffffffffffffffff1673ffffffffffffffffffffffffffffffffffffffff168152602001908152602001600020549050919050565b6040805190810160405280600381526020017f4f4d50000000000000000000000000000000000000000000000000000000000081525081565b60008060003373ffffffffffffffffffffffffffffffffffffffff1673ffffffffffffffffffffffffffffffffffffffff16815260200190815260200160002054821115151561086d57600080fd5b600073ffffffffffffffffffffffffffffffffffffffff168373ffffffffffffffffffffffffffffffffffffffff16141515156108a957600080fd5b6108fa826000803373ffffffffffffffffffffffffffffffffffffffff1673ffffffffffffffffffffffffffffffffffffffff16815260200190815260200160002054610bb890919063ffffffff16565b6000803373ffffffffffffffffffffffffffffffffffffffff1673ffffffffffffffffffffffffffffffffffffffff1681526020019081526020016000208190555061098d826000808673ffffffffffffffffffffffffffffffffffffffff1673ffffffffffffffffffffffffffffffffffffffff16815260200190815260200160002054610bd490919063ffffffff16565b6000808573ffffffffffffffffffffffffffffffffffffffff1673ffffffffffffffffffffffffffffffffffffffff168152602001908152602001600020819055508273ffffffffffffffffffffffffffffffffffffffff163373ffffffffffffffffffffffffffffffffffffffff167fddf252ad1be2c89b69c2b068fc378daa952ba7f163c4a11628f55a4df523b3ef846040518082815260200191505060405180910390a36001905092915050565b6000610a4a8383610bf0565b7f28304351f4cb68edab8682e94ff67c7f896c010f2b576db48f5503611d8ae6be848484604051808473ffffffffffffffffffffffffffffffffffffffff1673ffffffffffffffffffffffffffffffffffffffff1681526020018373ffffffffffffffffffffffffffffffffffffffff1673ffffffffffffffffffffffffffffffffffffffff168152602001828152602001935050505060405180910390a16000808473ffffffffffffffffffffffffffffffffffffffff1673ffffffffffffffffffffffffffffffffffffffff1681526020019081526020016000205490509392505050565b6000600160008473ffffffffffffffffffffffffffffffffffffffff1673ffffffffffffffffffffffffffffffffffffffff16815260200190815260200160002060008373ffffffffffffffffffffffffffffffffffffffff1673ffffffffffffffffffffffffffffffffffffffff16815260200190815260200160002054905092915050565b6000828211151515610bc957600080fd5b818303905092915050565b60008183019050828110151515610bea57600080fd5b92915050565b60008273ffffffffffffffffffffffffffffffffffffffff1614151515610c1657600080fd5b610c2b81600254610bd490919063ffffffff16565b600281905550610c82816000808573ffffffffffffffffffffffffffffffffffffffff1673ffffffffffffffffffffffffffffffffffffffff16815260200190815260200160002054610bd490919063ffffffff16565b6000808473ffffffffffffffffffffffffffffffffffffffff1673ffffffffffffffffffffffffffffffffffffffff168152602001908152602001600020819055508173ffffffffffffffffffffffffffffffffffffffff16600073ffffffffffffffffffffffffffffffffffffffff167fddf252ad1be2c89b69c2b068fc378daa952ba7f163c4a11628f55a4df523b3ef836040518082815260200191505060405180910390a350505600a165627a7a723058204b8bf6a05166f0cc927b27b3e09390fa1c9e6d6ac147630568d041c57fbe09220029",
  "source": "pragma solidity ^0.4.22;\n// produced by the Solididy File Flattener (c) David Appleton 2018\n// contact : dave@akomba.com\n// released under Apache 2.0 licence\nlibrary Utils {\n    /**\n     * Move this function into a library and call that library in this contract\n    */\n    function existInTheArray(address[] arrayOfEntities, address entity) public pure returns(bool) {\n\n        for (uint arrayIndex = 0; arrayIndex < arrayOfEntities.length; arrayIndex++) {\n            if ( arrayOfEntities[arrayIndex] == entity ) {\n                return true;\n            }\n        }\n\n        return false;\n    }\n}\n\nlibrary SafeMath {\n    function add(uint a, uint b) internal pure returns (uint c) {\n        c = a + b;\n        require(c >= a);\n    }\n    function sub(uint a, uint b) internal pure returns (uint c) {\n        require(b <= a);\n        c = a - b;\n    }\n    function mul(uint a, uint b) internal pure returns (uint c) {\n        c = a * b;\n        require(a == 0 || c / a == b);\n    }\n    function div(uint a, uint b) internal pure returns (uint c) {\n        require(b > 0);\n        c = a / b;\n    }\n}\n\ncontract EIP20Interface {\n\n  function totalSupply() public view returns (uint256);\n\n  function balanceOf(address _who) public view returns (uint256);\n\n  function allowance(address _owner, address _spender)\n    public view returns (uint256);\n\n  function transfer(address _to, uint256 _value) public returns (bool);\n\n  function approve(address _spender, uint256 _value)\n    public returns (bool);\n\n  function transferFrom(address _from, address _to, uint256 _value)\n    public returns (bool);\n\n  event Transfer(\n    address indexed from,\n    address indexed to,\n    uint256 value\n  );\n\n  event Approval(\n    address indexed owner,\n    address indexed spender,\n    uint256 value\n  );\n}\n\ncontract EIP20 is EIP20Interface {\n using SafeMath for uint256;\n\n string constant public name = \"Online Market Place\";\n string constant public symbol = \"OMP\";\n uint8 constant public decimals = 3;\n\n mapping (address => uint256) private balances;\n\n /**\n * Ideally this mapping of the mapping shall be used. However, in this contract, I don't see\n * a need yet.\n */\n mapping (address => mapping(address => uint256)) private allowed;\n\n/**\n* Initially the total supply will be zero. However, based on the store's loyalty\n* policy the store can issue a token, which will be valid across the market place.\n*/\n uint256 private totalSupply_ = 0;\n\nevent IssuedNewTokens(\n      address _senderAddress,\n      address _toAddress,\n      uint256 _amount );\n\n /**\n * @dev Total number of tokens in existence\n */\n function totalSupply() public view returns (uint256) {\n   return totalSupply_;\n }\n\n /**\n * @dev Gets the balance of the specified address.\n * @param _owner The address to query the the balance of.\n * @return An uint256 representing the amount owned by the passed address.\n */\n function balanceOf(address _owner) public view returns (uint256) {\n   return balances[_owner];\n }\n\n /**\n  * @dev Function to check the amount of tokens that an owner allowed to a spender.\n  * @param _owner address The address which owns the funds.\n  * @param _spender address The address which will spend the funds.\n  * @return A uint256 specifying the amount of tokens still available for the spender.\n  */\n function allowance(\n   address _owner,\n   address _spender\n  )\n   public\n   view\n   returns (uint256)\n {\n   return allowed[_owner][_spender];\n }\n\n /**\n * @dev Transfer token for a specified address\n * @param _to The address to transfer to.\n * @param _value The amount to be transferred.\n */\n function transfer(address _to, uint256 _value) public returns (bool) {\n   require(_value <= balances[msg.sender]);\n   require(_to != address(0));\n\n   balances[msg.sender] = balances[msg.sender].sub(_value);\n   balances[_to] = balances[_to].add(_value);\n   emit Transfer(msg.sender, _to, _value);\n   return true;\n }\n\n /**\n  * @dev Approve the passed address to spend the specified amount of tokens on behalf of msg.sender.\n  * TODO: Currently, I am not using the allowed mapping. Which means I am partially fullfilling the\n  *       ERC20 token standard.\n  *\n  * @param _spender The address which will spend the funds.\n  * @param _value The amount of tokens to be spent.\n  */\n function approve(address _spender, uint256 _value) public returns (bool) {\n   // allowed[msg.sender][_spender] = _value;\n   emit Approval(msg.sender, _spender, _value);\n   return true;\n }\n\n /**\n  * @dev Transfer tokens from one address to another\n  * @param _from address The address which you want to send tokens from\n  * @param _to address The address which you want to transfer to\n  * @param _value uint256 the amount of tokens to be transferred\n  */\n function transferFrom(\n   address _from,\n   address _to,\n   uint256 _value\n )\n   public\n   returns (bool)\n {\n   require(_value <= balances[_from]);\n   // require(_value <= allowed[_from][msg.sender]);\n   require(_to != address(0));\n\n   balances[_from] = balances[_from].sub(_value);\n   balances[_to] = balances[_to].add(_value);\n   // allowed[_from][msg.sender] = allowed[_from][msg.sender].sub(_value);\n   emit Transfer(_from, _to, _value);\n   return true;\n }\n\n /**\n * @dev this function will issue new tokens to the to address.\n * @param _senderAddress - the smart contract using this method should know that the sender is ultimately\n *      responsible for honoring all the tokens created in this system\n * @param _toAddress - this accont will be credited with certain tokens\n * @param _amount - the amount\n */\n function issueNewTokens(\n              address _senderAddress,\n              address _toAddress,\n              uint256 _amount ) public returns (uint256){\n\n    _mint(_toAddress, _amount);\n    emit IssuedNewTokens(_senderAddress, _toAddress, _amount);\n    return balances[_toAddress];\n }\n\n /**\n  *\n  * @dev Internal function that mints an amount of the token and assigns it to\n  * an account. This encapsulates the modification of balances such that the\n  * proper events are emitted.\n  * @param _account The account that will receive the created tokens.\n  * @param _amount The amount that will be created.\n  */\n function _mint(address _account, uint256 _amount) internal {\n   require(_account != 0);\n   totalSupply_ = totalSupply_.add(_amount);\n   balances[_account] = balances[_account].add(_amount);\n   emit Transfer(address(0), _account, _amount);\n }\n\n /**\n  * @dev Internal function that burns an amount of the token of a given\n  * account.\n  * @param _account The account whose tokens will be burnt.\n  * @param _amount The amount that will be burnt.\n  */\n function _burn(address _account, uint256 _amount) internal {\n   require(_account != 0);\n   require(_amount <= balances[_account]);\n\n   totalSupply_ = totalSupply_.sub(_amount);\n   balances[_account] = balances[_account].sub(_amount);\n   emit Transfer(_account, address(0), _amount);\n }\n\n}\n\ncontract Store {\n    using SafeMath for uint256;\n\n    // Onwer is the actual store owner who is creating the store.\n    address private owner;\n    string private storeName;\n    string private description;\n    uint private storeId;\n    uint private productCount;\n    uint private nextProductId;\n    Product[] private products;\n    EIP20 private eip20Token;\n\n    /**\n    * At some stage we can oraclize the token price. However, for now let's consider this\n    * for the sake of any calculation.\n    */\n    uint256 constant private tokenPriceInWei = 10000000000000;\n\n    enum ProductStatus {\n        ACTIVE,\n        REMOVED\n    }\n\n    struct Product {\n        uint productId;\n        string productName;\n        string description;\n        uint price;\n        uint quantity;\n        ProductStatus status;\n        uint256 discountPercentage;\n    }\n\n    event NewProduct(\n      uint productId,\n      string productName,\n      string description,\n      uint price,\n      uint quantity\n      );\n\n    event PurchaseOfProduct(\n        uint productId,\n        uint quantity,\n        address indexed storeAddress,\n        address indexed storeOwner,\n        address indexed buyerAddress,\n        uint senderBalance,\n        uint weiToTransfer\n      );\n\n    event TokensCouldNotBeTransferred(\n        address _tokenFrom,\n        address _tokenTo,\n        uint256 tokensToBeTransferred );\n\n    event LogAsEvent(address param1, address param2, string param3);\n    /**\n    * @dev Creates a Store Contract which holds the associated products and the balance corresponding to the\n    *      sales of such products.\n    * @param _storeName - the name of the stores\n    * @param _description - the description about the stores\n    * @param _storeId - the store id of the store, which will be unique across the market place\n    * @param _storeOwner - the actual owner of the store (will be an externally owned accounts)\n    */\n    constructor(\n            string _storeName,\n            string _description,\n            uint _storeId,\n            address _storeOwner,\n            EIP20 _eip20Token ) public {\n\n        owner = _storeOwner;\n        storeName = _storeName;\n        storeId = _storeId;\n        description = _description;\n        productCount = 0;\n        nextProductId = 1;\n        eip20Token = _eip20Token;\n    }\n\n    /**\n    * Since this contract needs to accept ether, declare an anonymous payable function.\n    */\n    function() public payable { }\n\n    /**\n     * Only (store) owners shall be allowed to add or update the store specific details - e.g. product.\n     *\n    */\n    modifier onlyOwner {\n        require( (owner == msg.sender), \"Only a store owner can invoke this function!\");\n        _;\n    }\n\n    /**\n    * A function to return the state details for a given store contract\n    * @return a list of values with the following details\n    *   - Owner Address\n    *   - Store name\n    *   - Store identifier\n    *   - Store description\n    */\n    function getStoreDetails() public view returns( address, string, uint, string ) {\n      return (owner, storeName, storeId, description);\n    }\n\n     /**\n     * A store owner will use this function to add a new product to his / her store.\n     *\n     * Whenever a new product is added, the product map will be updated to hold all the product and their details\n     * across all the store and store owners.\n     *\n     * TODO: Add expiry feature and use the Auto Deprecation pattern to expire a product. Also, implement the use case\n     *      that will prevent the shoppers from buying an expired product!\n     *\n    */\n    function addProductToTheStore(\n            string productName,\n            string productDesc,\n            uint price,\n            uint quantity ) public onlyOwner returns(uint) {\n\n            uint256 discountPercentage = 10;\n            products.length += 1;\n\n            products[productCount] = Product(\n                nextProductId,\n                productName,\n                productDesc,\n                price,\n                quantity,\n                ProductStatus.ACTIVE,\n                discountPercentage );\n\n            emit NewProduct(\n              nextProductId,\n              productName,\n              productDesc,\n              price,\n              quantity\n              );\n\n            productCount++;\n\n            return nextProductId++;\n    }\n\n    /**\n     * The update product function will be called to update the details of an existing function.\n     *\n     * In a regular course of a business, the following amounts may get updated.\n     * - quantity\n     * - productName\n     * - price\n     * - description\n     *\n     * TODO : Add an additional parameter for discountPercentage\n     *\n    */\n    function updateProduct(\n            uint productId,\n            string productName,\n            string productDesc,\n            uint price,\n            uint quantity ) public onlyOwner returns(bool) {\n        uint productIndex = productId - 1;\n        require( products[productIndex].productId != 0 , \"Product for the given store id and product id combination does not exist!\");\n\n        products[productIndex].productName = productName;\n        products[productIndex].description = productDesc;\n        products[productIndex].price = price;\n        products[productIndex].quantity = quantity;\n\n        return true;\n    }\n\n    /**\n     * A store owner can decide to remove a product from his/her store.\n     * A removed product will not be visible to shoppers!\n     *\n    */\n    function removeProduct(uint _productId ) public onlyOwner returns(bool){\n        uint productIndex = _productId - 1;\n\n        require( products[productIndex].status == ProductStatus.ACTIVE, \"Only the active product can be be removed from the store!\");\n        products[productIndex].status = ProductStatus.REMOVED;\n\n        return true;\n    }\n\n    /**\n     * A store owner can decide to remove a product from his/her store.\n     * A removed product will not be visible to shoppers!\n     *\n    */\n    function reActivateProduct(uint _productId ) public onlyOwner returns(bool){\n        uint productIndex = _productId - 1;\n\n        require( products[productIndex].status == ProductStatus.REMOVED, \"Only the Inactive product can be activated!\");\n        products[productIndex].status = ProductStatus.ACTIVE;\n\n        return true;\n    }\n\n    /**\n    * getProducts will return all the products of this store.\n    */\n    function getProducts( bool activeOnlyFlag ) public view returns( uint[] ) {\n\n      uint numOfProducts = 0;\n\n      if ( activeOnlyFlag == true) {\n        for (uint8 prodCount=0; prodCount<products.length; prodCount++) {\n            if (products[prodCount].status == ProductStatus.ACTIVE) {\n                numOfProducts++;\n            }\n        }\n      } else {\n        numOfProducts = products.length;\n      }\n\n\n      uint[] memory productIds = new uint[](numOfProducts);\n\n      if ( numOfProducts > 0 ) {\n\n        uint8 tmpCount = 0;\n\n        for (prodCount=0; prodCount<products.length; prodCount++) {\n            if ( activeOnlyFlag == true ) {\n              if (products[prodCount].status == ProductStatus.ACTIVE) {\n                productIds[tmpCount] = products[prodCount].productId;\n                tmpCount++;\n              }\n            } else {\n              productIds[tmpCount] = products[prodCount].productId;\n              tmpCount++;\n            }\n\n        }\n      }\n\n      return productIds;\n    }\n\n\n    /*\n    * For a given product identifier of the store, this method will return the product details.\n    */\n    function getProductDetails(uint _productId) public view returns(string, string, uint, uint, ProductStatus, uint256 ) {\n        uint productIndex = _productId - 1;\n\n        return ( products[productIndex].productName,\n                 products[productIndex].description,\n                 products[productIndex].price,\n                 products[productIndex].quantity,\n                 products[productIndex].status,\n                 products[productIndex].discountPercentage );\n    }\n\n    /**\n     * The shopper can buy this product using this function.\n     *   // owner.transfer( weiToTransfer );\n       // address(this).transfer( msg.value );\n       // owner.transfer( msg.value );\n    */\n    function buyProductFromStore(uint _productId, uint _quantity) public payable returns (bool){\n        uint productIndex = _productId - 1;\n        uint256 weiToTransfer = _quantity * products[productIndex].price;\n\n        require( products[productIndex].status == ProductStatus.ACTIVE, \"Only the active product can be bought!\");\n        require( owner != msg.sender, \"The owner cannot buy its own product!\");\n        require( _quantity <= products[productIndex].quantity, \"The store does not have sufficient quantity of the product\");\n        require( msg.value <= msg.sender.balance, \"The buyer does not have sufficient balance in his / her account!\");\n        // require( msg.value == weiToTransfer, \"The supplied value is lesser than the actual price of the items!\");\n\n        //Reduce the corresponding quantity from the inventory\n        products[productIndex].quantity = products[productIndex].quantity - _quantity;\n\n        emit PurchaseOfProduct(_productId, _quantity, address(this), owner, msg.sender, msg.sender.balance, weiToTransfer);\n\n        // Redeem tokens by transferring the equivalent amount of tokens to the store owners\n        uint256 discountValue = 0;\n\n        if (eip20Token.balanceOf(msg.sender) > 0) {\n          uint256 tokenValue = eip20Token.balanceOf(msg.sender) * tokenPriceInWei;\n\n          if ( tokenValue <= weiToTransfer ) {\n            // Transfer all the tokens of the shopper to the store owner and\n            // set the discounted value to be same as the token values\n            discountValue = tokenValue;\n            eip20Token.transferFrom( msg.sender, owner, eip20Token.balanceOf(msg.sender) );\n          } else {\n            discountValue = weiToTransfer;\n            eip20Token.transferFrom( msg.sender, owner, weiToTransfer.div(tokenPriceInWei) );\n          }\n        }\n\n        // Transfer fund from the shopper's acount into the store's account\n        uint256 finalAmountToBePaid = weiToTransfer.sub(discountValue);\n        if ( finalAmountToBePaid > 0 ) {\n          address myAddress = address(this);\n          myAddress.transfer( finalAmountToBePaid );\n        }\n\n        // Transfer loyalty tokens to the shoppers\n        if ( products[productIndex].discountPercentage > 0 ) {\n          uint256 tokensToBeTransferred = (weiToTransfer * products[productIndex].discountPercentage) / (tokenPriceInWei * 100);\n          if ( eip20Token.balanceOf(owner) >= tokensToBeTransferred ) {\n            eip20Token.transferFrom( owner,\n                                     msg.sender,\n                                     tokensToBeTransferred\n                                   );\n          } else {\n            // Just create an event which will indicate that certain number of tokens could not be Transferred\n            emit TokensCouldNotBeTransferred(owner, msg.sender, tokensToBeTransferred);\n          }\n\n        }\n\n\n        return true;\n    }\n\n    /**\n     * A store owner can withdraw fund from a given store\n     *\n     * BP1: Fail early and fail loud\n     *  - Fail early and fail loud pattern has been used to ensure that zero amount withdrwal doesn't take place.\n    */\n    function withdrawFund(uint withdrawAmount) public payable onlyOwner returns(bool) {\n        require(withdrawAmount > 0, \"The withdrwal amount must be a positive number!\");\n        require(address(this).balance >= withdrawAmount, \"The current store balance amount must be greater than the withdrawal amount!\");\n        owner.transfer(withdrawAmount);\n\n        return true;\n    }\n\n    /**\n    * Return the balance owned by this store\n    */\n    function getBalanceOfStore() constant public returns(uint){\n        return address(this).balance;\n    }\n\n}\n\ncontract MarketPlace {\n    using SafeMath for uint256;\n\n    address superAdmin;\n    address[] public adminUsers;\n    address[] public storeOwners;\n    uint private nextStoreId;\n    EIP20 private eip20Token;\n\n    // mapping of stores of a given store owner\n    mapping (address => address[]) public storeFrontMap;\n\n    /**\n     * Initialize state variables, specifically, the Super Administrator!\n     * Also, add that address in the Admin list.\n     */\n    constructor() public {\n        superAdmin = msg.sender;\n        adminUsers.push(msg.sender);\n        nextStoreId = 1;\n        eip20Token = new EIP20();\n    }\n\n    event NewStore (\n      string storeName,\n      string storeDescription,\n      address storeOwner,\n      address storeAddress\n    );\n\n    event AccessingStore(Store currentStore);\n\n    /**\n     * Only SuperAdmin shall be able to create an Admin user\n    */\n    modifier onlySuperAdmin {\n        require( msg.sender == superAdmin, \"Only Super Administrator can invoke this function.\");\n        _;\n    }\n\n    /**\n     * Only Admin shall be allowed to create a store\n    */\n    modifier onlyAdmin {\n        require( Utils.existInTheArray(adminUsers, msg.sender), \"Only an Administrator can invoke this function.\");\n        _;\n    }\n\n    /**\n     * Only store owners shall be allowed to add stores.\n     *\n    */\n    modifier onlyStoreOwner {\n        require( Utils.existInTheArray(storeOwners, msg.sender), \"Only an Administrator can invoke this function.\");\n        _;\n    }\n\n    /**\n     * A super administrator can create one or more administrator, who will have same access, except that\n     * they cannot create another administrator\n     */\n    function createAdminUser(address newAdminUser) public onlySuperAdmin returns(address){\n        require(!Utils.existInTheArray(adminUsers, newAdminUser), \"The address is already in the Admin group!\");\n\n        adminUsers.push(newAdminUser);\n\n        return newAdminUser;\n    }\n\n    /**\n    * This function shall return all the admin address in the market place\n    */\n    function getAdminUsers() public view returns(address[]) {\n      return adminUsers;\n    }\n\n    /**\n    * This function verifies if an address has the following accesses or not\n    * - Super Admin\n    * - Admins\n    * - Store Owner\n    */\n    function checkAccess(address addressToVerify) view public returns(bool, bool, bool) {\n      bool isAdmin = Utils.existInTheArray(adminUsers, addressToVerify);\n      bool isStoreOwner = Utils.existInTheArray(storeOwners, addressToVerify);\n      bool isSuperAdmin = false;\n\n      if ( addressToVerify == superAdmin ) {\n        isSuperAdmin = true;\n      }\n\n      return (isSuperAdmin, isAdmin, isStoreOwner);\n    }\n\n    /**\n     * Any Admin shall be able to add a store owner.\n     * Of course, we need to make sure that a given address is added only once.\n    */\n    function createStoreOwner(address newStoreOwnerAddress) public onlyAdmin returns(bool){\n        require( !Utils.existInTheArray(storeOwners, newStoreOwnerAddress), \"The store owner with the same address already exist!\");\n\n        storeOwners.push(newStoreOwnerAddress);\n\n        return true;\n    }\n\n\n    /**\n    * This function shall return all the store owners address in the market place\n    */\n    function getStoreOwners() public view returns(address[]) {\n      return storeOwners;\n    }\n\n    /**\n     * A store owner shall be able to create one or more stores.\n     * The created store will be associated with the store owner using storeFrontMap, where the store owner's\n     * address is a key and the value is a map of storeId and Store.\n     *\n    */\n    function createStoreFront( string storeName, string storeDescription ) public onlyStoreOwner returns(address){\n        uint storeCount = storeFrontMap[msg.sender].length;\n\n        if (storeCount == 0) {\n          storeFrontMap[msg.sender].length = 1;\n        } else {\n          storeFrontMap[msg.sender].length = storeCount + 1;\n        }\n\n        storeFrontMap[msg.sender][storeCount] = address(new Store(\n                                                            storeName,\n                                                            storeDescription,\n                                                            nextStoreId,\n                                                            msg.sender,\n                                                            eip20Token ));\n\n        nextStoreId++;\n\n        emit NewStore(\n                storeName,\n                storeDescription,\n                msg.sender,\n                storeFrontMap[msg.sender][storeCount] );\n\n        return storeFrontMap[msg.sender][storeCount];\n    }\n\n    /**\n     * this function will be used for retriving all the stores of a given store owner\n     *\n     */\n    function getStores(address storeOwnerAddress) public view returns(address[]) {\n        if ( storeOwnerAddress != 0 ) {\n            return storeFrontMap[storeOwnerAddress];\n        }\n        else {\n            //\n            // The caller is looking for all the stores in the market place\n            //\n            uint totalStoreCount = 0;\n            uint storeOwnersCount;\n\n            for (storeOwnersCount = 0; storeOwnersCount < storeOwners.length; storeOwnersCount++) {\n                totalStoreCount += storeFrontMap[storeOwners[storeOwnersCount]].length;\n            }\n\n            address[] memory allStores = new address[](totalStoreCount);\n            uint tempStoreCount = 0;\n\n            for ( storeOwnersCount = 0; storeOwnersCount < storeOwners.length; storeOwnersCount++ ) {\n                address[] memory storesOfOwner = storeFrontMap[storeOwners[storeOwnersCount]];\n\n                for ( uint storeFrontCountOfOwner = 0;\n                      storeFrontCountOfOwner < storesOfOwner.length;\n                      storeFrontCountOfOwner++) {\n                  allStores[tempStoreCount] = storesOfOwner[storeFrontCountOfOwner];\n                  tempStoreCount++;\n                }\n            }\n\n            return allStores;\n        }\n    }\n\n    /**\n     * Any Admin shall be able to allocate certain number of new tokens to a store owner.\n     * Of course, we need to make sure that a given address is indeed a store owner\n    */\n    function allocateNewTokens(address storeOwnerAddress, uint256 numberOfTokens) public onlySuperAdmin returns(uint256){\n        require( Utils.existInTheArray(storeOwners, storeOwnerAddress), \"The provided address is not a store owner!\");\n        return eip20Token.issueNewTokens(superAdmin, storeOwnerAddress, numberOfTokens);\n    }\n\n    /**\n     * @dev This method returns the token balance of a given account.\n     * @param accountAddress is the address whose balance is being queried\n     */\n     function getTokenBalance(address accountAddress) public view returns(uint256 tokenBalance) {\n       return eip20Token.balanceOf(accountAddress);\n     }\n\n    /**\n     * The market place can be destructed by only the super admin, that too when we have at least 75% of the store owners\n     * agreeing to this decision.\n    */\n    function closeMarketPlace() public onlySuperAdmin {\n        bool haveConsentOfStoreOwners = getConsentForClosure();\n\n        require(haveConsentOfStoreOwners, \"You do not have the sufficient consensus to close the market place!\");\n\n        selfdestruct(superAdmin);\n    }\n\n    /**\n     * In case we want to allow the closure of the Market Place then implement this function\n     * with proper logic.\n    */\n    function getConsentForClosure() private pure returns(bool) {\n        return false;\n    }\n\n}\n",
  "sourcePath": "/Users/alokranjan/blockchain/ethereum/consensys/ethmarket/contracts/MarketPlace_Consolidated.sol.sol",
  "compiler": {
    "name": "solc",
    "version": "0.4.24+commit.e67f0147.Emscripten.clang"
  },
  "schemaVersion": "2.0.1",
  "updatedAt": "2018-08-27T02:53:05.766Z"
}