{
  "contractName": "MarketPlace",
  "abi": [
    {
      "constant": true,
      "inputs": [
        {
          "name": "",
          "type": "uint256"
        }
      ],
      "name": "adminUsers",
      "outputs": [
        {
          "name": "",
          "type": "address"
        }
      ],
      "payable": false,
      "stateMutability": "view",
      "type": "function"
    },
    {
      "constant": true,
      "inputs": [
        {
          "name": "",
          "type": "uint256"
        }
      ],
      "name": "storeOwners",
      "outputs": [
        {
          "name": "",
          "type": "address"
        }
      ],
      "payable": false,
      "stateMutability": "view",
      "type": "function"
    },
    {
      "constant": true,
      "inputs": [
        {
          "name": "",
          "type": "address"
        },
        {
          "name": "",
          "type": "uint256"
        }
      ],
      "name": "storeFrontMap",
      "outputs": [
        {
          "name": "",
          "type": "address"
        }
      ],
      "payable": false,
      "stateMutability": "view",
      "type": "function"
    },
    {
      "inputs": [],
      "payable": false,
      "stateMutability": "nonpayable",
      "type": "constructor"
    },
    {
      "anonymous": false,
      "inputs": [
        {
          "indexed": false,
          "name": "storeName",
          "type": "string"
        },
        {
          "indexed": false,
          "name": "storeDescription",
          "type": "string"
        },
        {
          "indexed": false,
          "name": "storeOwner",
          "type": "address"
        },
        {
          "indexed": false,
          "name": "storeAddress",
          "type": "address"
        }
      ],
      "name": "NewStore",
      "type": "event"
    },
    {
      "anonymous": false,
      "inputs": [
        {
          "indexed": false,
          "name": "currentStore",
          "type": "address"
        }
      ],
      "name": "AccessingStore",
      "type": "event"
    },
    {
      "constant": false,
      "inputs": [
        {
          "name": "newAdminUser",
          "type": "address"
        }
      ],
      "name": "createAdminUser",
      "outputs": [
        {
          "name": "",
          "type": "address"
        }
      ],
      "payable": false,
      "stateMutability": "nonpayable",
      "type": "function"
    },
    {
      "constant": true,
      "inputs": [],
      "name": "getAdminUsers",
      "outputs": [
        {
          "name": "",
          "type": "address[]"
        }
      ],
      "payable": false,
      "stateMutability": "view",
      "type": "function"
    },
    {
      "constant": true,
      "inputs": [
        {
          "name": "addressToVerify",
          "type": "address"
        }
      ],
      "name": "checkAccess",
      "outputs": [
        {
          "name": "",
          "type": "bool"
        },
        {
          "name": "",
          "type": "bool"
        },
        {
          "name": "",
          "type": "bool"
        }
      ],
      "payable": false,
      "stateMutability": "view",
      "type": "function"
    },
    {
      "constant": false,
      "inputs": [
        {
          "name": "newStoreOwnerAddress",
          "type": "address"
        }
      ],
      "name": "createStoreOwner",
      "outputs": [
        {
          "name": "",
          "type": "bool"
        }
      ],
      "payable": false,
      "stateMutability": "nonpayable",
      "type": "function"
    },
    {
      "constant": true,
      "inputs": [],
      "name": "getStoreOwners",
      "outputs": [
        {
          "name": "",
          "type": "address[]"
        }
      ],
      "payable": false,
      "stateMutability": "view",
      "type": "function"
    },
    {
      "constant": false,
      "inputs": [
        {
          "name": "storeName",
          "type": "string"
        },
        {
          "name": "storeDescription",
          "type": "string"
        }
      ],
      "name": "createStoreFront",
      "outputs": [
        {
          "name": "",
          "type": "address"
        }
      ],
      "payable": false,
      "stateMutability": "nonpayable",
      "type": "function"
    },
    {
      "constant": true,
      "inputs": [
        {
          "name": "storeOwnerAddress",
          "type": "address"
        }
      ],
      "name": "getStores",
      "outputs": [
        {
          "name": "",
          "type": "address[]"
        }
      ],
      "payable": false,
      "stateMutability": "view",
      "type": "function"
    },
    {
      "constant": true,
      "inputs": [
        {
          "name": "accountAddress",
          "type": "address"
        }
      ],
      "name": "getTokenBalance",
      "outputs": [
        {
          "name": "tokenBalance",
          "type": "uint256"
        }
      ],
      "payable": false,
      "stateMutability": "view",
      "type": "function"
    },
    {
      "constant": false,
      "inputs": [],
      "name": "closeMarketPlace",
      "outputs": [],
      "payable": false,
      "stateMutability": "nonpayable",
      "type": "function"
    }
  ],
  "bytecode": "0x608060405234801561001057600080fd5b50336000806101000a81548173ffffffffffffffffffffffffffffffffffffffff021916908373ffffffffffffffffffffffffffffffffffffffff16021790555060013390806001815401808255809150509060018203906000526020600020016000909192909190916101000a81548173ffffffffffffffffffffffffffffffffffffffff021916908373ffffffffffffffffffffffffffffffffffffffff1602179055505060016003819055506100c7610129565b604051809103906000f0801580156100e3573d6000803e3d6000fd5b50600460006101000a81548173ffffffffffffffffffffffffffffffffffffffff021916908373ffffffffffffffffffffffffffffffffffffffff16021790555061013a565b604051611508806200480f83390190565b6146c5806200014a6000396000f300608060405260043610620000c7576000357c0100000000000000000000000000000000000000000000000000000000900463ffffffff1680631fa9acf114620000cc57806329cbf2e9146200013c5780633aecd0e3146200015657806344d5099314620001b0578063466a014614620002205780634baa0f5e146200029457806361878fc414620002f257806373a296ba146200037857806375b9960e146200040857806375dae8a614620004fa57806391f4245a14620005975780639b8e7b691462000608575b600080fd5b348015620000d957600080fd5b50620000fa6004803603810190808035906020019092919050505062000679565b604051808273ffffffffffffffffffffffffffffffffffffffff1673ffffffffffffffffffffffffffffffffffffffff16815260200191505060405180910390f35b3480156200014957600080fd5b5062000154620006b8565b005b3480156200016357600080fd5b506200019a600480360381019080803573ffffffffffffffffffffffffffffffffffffffff169060200190929190505050620008ad565b6040518082815260200191505060405180910390f35b348015620001bd57600080fd5b50620001de60048036038101908080359060200190929190505050620009b1565b604051808273ffffffffffffffffffffffffffffffffffffffff1673ffffffffffffffffffffffffffffffffffffffff16815260200191505060405180910390f35b3480156200022d57600080fd5b5062000264600480360381019080803573ffffffffffffffffffffffffffffffffffffffff169060200190929190505050620009f0565b60405180841515151581526020018315151515815260200182151515158152602001935050505060405180910390f35b348015620002a157600080fd5b50620002d8600480360381019080803573ffffffffffffffffffffffffffffffffffffffff16906020019092919050505062000d17565b604051808215151515815260200191505060405180910390f35b348015620002ff57600080fd5b5062000336600480360381019080803573ffffffffffffffffffffffffffffffffffffffff16906020019092919050505062001167565b604051808273ffffffffffffffffffffffffffffffffffffffff1673ffffffffffffffffffffffffffffffffffffffff16815260200191505060405180910390f35b3480156200038557600080fd5b50620003c6600480360381019080803573ffffffffffffffffffffffffffffffffffffffff16906020019092919080359060200190929190505050620014b2565b604051808273ffffffffffffffffffffffffffffffffffffffff1673ffffffffffffffffffffffffffffffffffffffff16815260200191505060405180910390f35b3480156200041557600080fd5b50620004b8600480360381019080803590602001908201803590602001908080601f0160208091040260200160405190810160405280939291908181526020018383808284378201915050505050509192919290803590602001908201803590602001908080601f016020809104026020016040519081016040528093929190818152602001838380828437820191505050505050919291929050505062001500565b604051808273ffffffffffffffffffffffffffffffffffffffff1673ffffffffffffffffffffffffffffffffffffffff16815260200191505060405180910390f35b3480156200050757600080fd5b506200053e600480360381019080803573ffffffffffffffffffffffffffffffffffffffff16906020019092919050505062001c9d565b6040518080602001828103825283818151815260200191508051906020019060200280838360005b838110156200058357808201518184015260208101905062000566565b505050509050019250505060405180910390f35b348015620005a457600080fd5b50620005af62002030565b6040518080602001828103825283818151815260200191508051906020019060200280838360005b83811015620005f4578082015181840152602081019050620005d7565b505050509050019250505060405180910390f35b3480156200061557600080fd5b5062000620620020c0565b6040518080602001828103825283818151815260200191508051906020019060200280838360005b838110156200066557808201518184015260208101905062000648565b505050509050019250505060405180910390f35b6001818154811015156200068957fe5b906000526020600020016000915054906101000a900473ffffffffffffffffffffffffffffffffffffffff1681565b60008060009054906101000a900473ffffffffffffffffffffffffffffffffffffffff1673ffffffffffffffffffffffffffffffffffffffff163373ffffffffffffffffffffffffffffffffffffffff16141515620007a5576040517f08c379a00000000000000000000000000000000000000000000000000000000081526004018080602001828103825260328152602001807f4f6e6c792053757065722041646d696e6973747261746f722063616e20696e7681526020017f6f6b6520746869732066756e6374696f6e2e000000000000000000000000000081525060400191505060405180910390fd5b620007af62002150565b905080151562000873576040517f08c379a00000000000000000000000000000000000000000000000000000000081526004018080602001828103825260438152602001807f596f7520646f206e6f742068617665207468652073756666696369656e74206381526020017f6f6e73656e73757320746f20636c6f736520746865206d61726b657420706c6181526020017f636521000000000000000000000000000000000000000000000000000000000081525060600191505060405180910390fd5b6000809054906101000a900473ffffffffffffffffffffffffffffffffffffffff1673ffffffffffffffffffffffffffffffffffffffff16ff5b6000600460009054906101000a900473ffffffffffffffffffffffffffffffffffffffff1673ffffffffffffffffffffffffffffffffffffffff166370a08231836040518263ffffffff167c0100000000000000000000000000000000000000000000000000000000028152600401808273ffffffffffffffffffffffffffffffffffffffff1673ffffffffffffffffffffffffffffffffffffffff168152602001915050602060405180830381600087803b1580156200096d57600080fd5b505af115801562000982573d6000803e3d6000fd5b505050506040513d60208110156200099957600080fd5b81019080805190602001909291905050509050919050565b600281815481101515620009c157fe5b906000526020600020016000915054906101000a900473ffffffffffffffffffffffffffffffffffffffff1681565b60008060008060008073__Utils_________________________________63cd817f4b6001896040518363ffffffff167c010000000000000000000000000000000000000000000000000000000002815260040180806020018373ffffffffffffffffffffffffffffffffffffffff1673ffffffffffffffffffffffffffffffffffffffff168152602001828103825284818154815260200191508054801562000af057602002820191906000526020600020905b8160009054906101000a900473ffffffffffffffffffffffffffffffffffffffff1673ffffffffffffffffffffffffffffffffffffffff168152602001906001019080831162000aa5575b5050935050505060206040518083038186803b15801562000b1057600080fd5b505af415801562000b25573d6000803e3d6000fd5b505050506040513d602081101562000b3c57600080fd5b8101908080519060200190929190505050925073__Utils_________________________________63cd817f4b6002896040518363ffffffff167c010000000000000000000000000000000000000000000000000000000002815260040180806020018373ffffffffffffffffffffffffffffffffffffffff1673ffffffffffffffffffffffffffffffffffffffff168152602001828103825284818154815260200191508054801562000c4657602002820191906000526020600020905b8160009054906101000a900473ffffffffffffffffffffffffffffffffffffffff1673ffffffffffffffffffffffffffffffffffffffff168152602001906001019080831162000bfb575b5050935050505060206040518083038186803b15801562000c6657600080fd5b505af415801562000c7b573d6000803e3d6000fd5b505050506040513d602081101562000c9257600080fd5b81019080805190602001909291905050509150600090506000809054906101000a900473ffffffffffffffffffffffffffffffffffffffff1673ffffffffffffffffffffffffffffffffffffffff168773ffffffffffffffffffffffffffffffffffffffff16141562000d0457600190505b8083839550955095505050509193909250565b600073__Utils_________________________________63cd817f4b6001336040518363ffffffff167c010000000000000000000000000000000000000000000000000000000002815260040180806020018373ffffffffffffffffffffffffffffffffffffffff1673ffffffffffffffffffffffffffffffffffffffff168152602001828103825284818154815260200191508054801562000e1057602002820191906000526020600020905b8160009054906101000a900473ffffffffffffffffffffffffffffffffffffffff1673ffffffffffffffffffffffffffffffffffffffff168152602001906001019080831162000dc5575b5050935050505060206040518083038186803b15801562000e3057600080fd5b505af415801562000e45573d6000803e3d6000fd5b505050506040513d602081101562000e5c57600080fd5b8101908080519060200190929190505050151562000f08576040517f08c379a000000000000000000000000000000000000000000000000000000000815260040180806020018281038252602f8152602001807f4f6e6c7920616e2041646d696e6973747261746f722063616e20696e766f6b6581526020017f20746869732066756e6374696f6e2e000000000000000000000000000000000081525060400191505060405180910390fd5b73__Utils_________________________________63cd817f4b6002846040518363ffffffff167c010000000000000000000000000000000000000000000000000000000002815260040180806020018373ffffffffffffffffffffffffffffffffffffffff1673ffffffffffffffffffffffffffffffffffffffff168152602001828103825284818154815260200191508054801562000fff57602002820191906000526020600020905b8160009054906101000a900473ffffffffffffffffffffffffffffffffffffffff1673ffffffffffffffffffffffffffffffffffffffff168152602001906001019080831162000fb4575b5050935050505060206040518083038186803b1580156200101f57600080fd5b505af415801562001034573d6000803e3d6000fd5b505050506040513d60208110156200104b57600080fd5b8101908080519060200190929190505050151515620010f8576040517f08c379a00000000000000000000000000000000000000000000000000000000081526004018080602001828103825260348152602001807f5468652073746f7265206f776e65722077697468207468652073616d6520616481526020017f647265737320616c72656164792065786973742100000000000000000000000081525060400191505060405180910390fd5b60028290806001815401808255809150509060018203906000526020600020016000909192909190916101000a81548173ffffffffffffffffffffffffffffffffffffffff021916908373ffffffffffffffffffffffffffffffffffffffff1602179055505060019050919050565b60008060009054906101000a900473ffffffffffffffffffffffffffffffffffffffff1673ffffffffffffffffffffffffffffffffffffffff163373ffffffffffffffffffffffffffffffffffffffff1614151562001254576040517f08c379a00000000000000000000000000000000000000000000000000000000081526004018080602001828103825260328152602001807f4f6e6c792053757065722041646d696e6973747261746f722063616e20696e7681526020017f6f6b6520746869732066756e6374696f6e2e000000000000000000000000000081525060400191505060405180910390fd5b73__Utils_________________________________63cd817f4b6001846040518363ffffffff167c010000000000000000000000000000000000000000000000000000000002815260040180806020018373ffffffffffffffffffffffffffffffffffffffff1673ffffffffffffffffffffffffffffffffffffffff16815260200182810382528481815481526020019150805480156200134b57602002820191906000526020600020905b8160009054906101000a900473ffffffffffffffffffffffffffffffffffffffff1673ffffffffffffffffffffffffffffffffffffffff168152602001906001019080831162001300575b5050935050505060206040518083038186803b1580156200136b57600080fd5b505af415801562001380573d6000803e3d6000fd5b505050506040513d60208110156200139757600080fd5b810190808051906020019092919050505015151562001444576040517f08c379a000000000000000000000000000000000000000000000000000000000815260040180806020018281038252602a8152602001807f546865206164647265737320697320616c726561647920696e2074686520416481526020017f6d696e2067726f7570210000000000000000000000000000000000000000000081525060400191505060405180910390fd5b60018290806001815401808255809150509060018203906000526020600020016000909192909190916101000a81548173ffffffffffffffffffffffffffffffffffffffff021916908373ffffffffffffffffffffffffffffffffffffffff16021790555050819050919050565b600560205281600052604060002081815481101515620014ce57fe5b906000526020600020016000915091509054906101000a900473ffffffffffffffffffffffffffffffffffffffff1681565b60008073__Utils_________________________________63cd817f4b6002336040518363ffffffff167c010000000000000000000000000000000000000000000000000000000002815260040180806020018373ffffffffffffffffffffffffffffffffffffffff1673ffffffffffffffffffffffffffffffffffffffff1681526020018281038252848181548152602001915080548015620015fa57602002820191906000526020600020905b8160009054906101000a900473ffffffffffffffffffffffffffffffffffffffff1673ffffffffffffffffffffffffffffffffffffffff1681526020019060010190808311620015af575b5050935050505060206040518083038186803b1580156200161a57600080fd5b505af41580156200162f573d6000803e3d6000fd5b505050506040513d60208110156200164657600080fd5b81019080805190602001909291905050501515620016f2576040517f08c379a000000000000000000000000000000000000000000000000000000000815260040180806020018281038252602f8152602001807f4f6e6c7920616e2041646d696e6973747261746f722063616e20696e766f6b6581526020017f20746869732066756e6374696f6e2e000000000000000000000000000000000081525060400191505060405180910390fd5b600560003373ffffffffffffffffffffffffffffffffffffffff1673ffffffffffffffffffffffffffffffffffffffff168152602001908152602001600020805490509050600081141562001796576001600560003373ffffffffffffffffffffffffffffffffffffffff1673ffffffffffffffffffffffffffffffffffffffff168152602001908152602001600020816200178f919062002158565b50620017e8565b60018101600560003373ffffffffffffffffffffffffffffffffffffffff1673ffffffffffffffffffffffffffffffffffffffff16815260200190815260200160002081620017e6919062002158565b505b838360035433600460009054906101000a900473ffffffffffffffffffffffffffffffffffffffff166200181b62002187565b8080602001806020018681526020018573ffffffffffffffffffffffffffffffffffffffff1673ffffffffffffffffffffffffffffffffffffffff1681526020018473ffffffffffffffffffffffffffffffffffffffff1673ffffffffffffffffffffffffffffffffffffffff168152602001838103835288818151815260200191508051906020019080838360005b83811015620018c8578082015181840152602081019050620018ab565b50505050905090810190601f168015620018f65780820380516001836020036101000a031916815260200191505b50838103825287818151815260200191508051906020019080838360005b838110156200193157808201518184015260208101905062001914565b50505050905090810190601f1680156200195f5780820380516001836020036101000a031916815260200191505b50975050505050505050604051809103906000f08015801562001986573d6000803e3d6000fd5b50600560003373ffffffffffffffffffffffffffffffffffffffff1673ffffffffffffffffffffffffffffffffffffffff16815260200190815260200160002082815481101515620019d457fe5b9060005260206000200160006101000a81548173ffffffffffffffffffffffffffffffffffffffff021916908373ffffffffffffffffffffffffffffffffffffffff1602179055506003600081548092919060010191905055507fe75f8bd502ee84b678cb9ed4707b4516128def5e073e6d86f35b43a25c4b40d7848433600560003373ffffffffffffffffffffffffffffffffffffffff1673ffffffffffffffffffffffffffffffffffffffff1681526020019081526020016000208581548110151562001a9f57fe5b9060005260206000200160009054906101000a900473ffffffffffffffffffffffffffffffffffffffff166040518080602001806020018573ffffffffffffffffffffffffffffffffffffffff1673ffffffffffffffffffffffffffffffffffffffff1681526020018473ffffffffffffffffffffffffffffffffffffffff1673ffffffffffffffffffffffffffffffffffffffff168152602001838103835287818151815260200191508051906020019080838360005b8381101562001b7457808201518184015260208101905062001b57565b50505050905090810190601f16801562001ba25780820380516001836020036101000a031916815260200191505b50838103825286818151815260200191508051906020019080838360005b8381101562001bdd57808201518184015260208101905062001bc0565b50505050905090810190601f16801562001c0b5780820380516001836020036101000a031916815260200191505b50965050505050505060405180910390a1600560003373ffffffffffffffffffffffffffffffffffffffff1673ffffffffffffffffffffffffffffffffffffffff1681526020019081526020016000208181548110151562001c6957fe5b9060005260206000200160009054906101000a900473ffffffffffffffffffffffffffffffffffffffff1691505092915050565b60606000806060600060606000808873ffffffffffffffffffffffffffffffffffffffff1614151562001d9857600560008973ffffffffffffffffffffffffffffffffffffffff1673ffffffffffffffffffffffffffffffffffffffff16815260200190815260200160002080548060200260200160405190810160405280929190818152602001828054801562001d8b57602002820191906000526020600020905b8160009054906101000a900473ffffffffffffffffffffffffffffffffffffffff1673ffffffffffffffffffffffffffffffffffffffff168152602001906001019080831162001d40575b5050505050965062002025565b60009550600094505b60028054905085101562001e3e576005600060028781548110151562001dc357fe5b9060005260206000200160009054906101000a900473ffffffffffffffffffffffffffffffffffffffff1673ffffffffffffffffffffffffffffffffffffffff1673ffffffffffffffffffffffffffffffffffffffff1681526020019081526020016000208054905086019550848060010195505062001da1565b8560405190808252806020026020018201604052801562001e6e5781602001602082028038833980820191505090505b50935060009250600094505b60028054905085101562002021576005600060028781548110151562001e9c57fe5b9060005260206000200160009054906101000a900473ffffffffffffffffffffffffffffffffffffffff1673ffffffffffffffffffffffffffffffffffffffff1673ffffffffffffffffffffffffffffffffffffffff16815260200190815260200160002080548060200260200160405190810160405280929190818152602001828054801562001f8357602002820191906000526020600020905b8160009054906101000a900473ffffffffffffffffffffffffffffffffffffffff1673ffffffffffffffffffffffffffffffffffffffff168152602001906001019080831162001f38575b50505050509150600090505b81518110156200201357818181518110151562001fa857fe5b90602001906020020151848481518110151562001fc157fe5b9060200190602002019073ffffffffffffffffffffffffffffffffffffffff16908173ffffffffffffffffffffffffffffffffffffffff16815250508280600101935050808060010191505062001f8f565b848060010195505062001e7a565b8396505b505050505050919050565b60606002805480602002602001604051908101604052809291908181526020018280548015620020b657602002820191906000526020600020905b8160009054906101000a900473ffffffffffffffffffffffffffffffffffffffff1673ffffffffffffffffffffffffffffffffffffffff16815260200190600101908083116200206b575b5050505050905090565b606060018054806020026020016040519081016040528092919081815260200182805480156200214657602002820191906000526020600020905b8160009054906101000a900473ffffffffffffffffffffffffffffffffffffffff1673ffffffffffffffffffffffffffffffffffffffff1681526020019060010190808311620020fb575b5050505050905090565b600080905090565b815481835581811115620021825781836000526020600020918201910162002181919062002198565b5b505050565b6040516124d980620021c183390190565b620021bd91905b80821115620021b95760008160009055506001016200219f565b5090565b90560060806040523480156200001157600080fd5b50604051620024d9380380620024d98339810180604052810190808051820192919060200180518201929190602001805190602001909291908051906020019092919080519060200190929190505050816000806101000a81548173ffffffffffffffffffffffffffffffffffffffff021916908373ffffffffffffffffffffffffffffffffffffffff1602179055508460019080519060200190620000b992919062000136565b50826003819055508360029080519060200190620000d992919062000136565b506000600481905550600160058190555080600760006101000a81548173ffffffffffffffffffffffffffffffffffffffff021916908373ffffffffffffffffffffffffffffffffffffffff1602179055505050505050620001e5565b828054600181600116156101000203166002900490600052602060002090601f016020900481019282601f106200017957805160ff1916838001178555620001aa565b82800160010185558215620001aa579182015b82811115620001a95782518255916020019190600101906200018c565b5b509050620001b99190620001bd565b5090565b620001e291905b80821115620001de576000816000905550600101620001c4565b5090565b90565b6122e480620001f56000396000f3006080604052600436106100a4576000357c0100000000000000000000000000000000000000000000000000000000900463ffffffff1680630cee1725146100a65780635ee95cae146100de5780636813b53b146101235780637b2c5d131461025f5780639498be1b146102a4578063ce2d683f1461037b578063dbf5dcd9146103ff578063de0847301461042a578063f94eb1821461046c578063fe04eb2d14610551575b005b6100c460048036038101908080359060200190929190505050610687565b604051808215151515815260200191505060405180910390f35b3480156100ea57600080fd5b506101096004803603810190808035906020019092919050505061095d565b604051808215151515815260200191505060405180910390f35b34801561012f57600080fd5b5061014e60048036038101908080359060200190929190505050610b7d565b60405180806020018060200187815260200186815260200185600181111561017257fe5b60ff168152602001848152602001838103835289818151815260200191508051906020019080838360005b838110156101b857808201518184015260208101905061019d565b50505050905090810190601f1680156101e55780820380516001836020036101000a031916815260200191505b50838103825288818151815260200191508051906020019080838360005b8381101561021e578082015181840152602081019050610203565b50505050905090810190601f16801561024b5780820380516001836020036101000a031916815260200191505b509850505050505050505060405180910390f35b34801561026b57600080fd5b5061028a60048036038101908080359060200190929190505050610dad565b604051808215151515815260200191505060405180910390f35b3480156102b057600080fd5b50610365600480360381019080803590602001908201803590602001908080601f0160208091040260200160405190810160405280939291908181526020018383808284378201915050505050509192919290803590602001908201803590602001908080601f01602080910402602001604051908101604052809392919081815260200183838082843782019150505050505091929192908035906020019092919080359060200190929190505050610fcc565b6040518082815260200191505060405180910390f35b34801561038757600080fd5b506103a8600480360381019080803515159060200190929190505050611316565b6040518080602001828103825283818151815260200191508051906020019060200280838360005b838110156103eb5780820151818401526020810190506103d0565b505050509050019250505060405180910390f35b34801561040b57600080fd5b5061041461151e565b6040518082815260200191505060405180910390f35b610452600480360381019080803590602001909291908035906020019092919050505061153d565b604051808215151515815260200191505060405180910390f35b34801561047857600080fd5b5061053760048036038101908080359060200190929190803590602001908201803590602001908080601f0160208091040260200160405190810160405280939291908181526020018383808284378201915050505050509192919290803590602001908201803590602001908080601f01602080910402602001604051908101604052809392919081815260200183838082843782019150505050505091929192908035906020019092919080359060200190929190505050611c95565b604051808215151515815260200191505060405180910390f35b34801561055d57600080fd5b50610566611f2f565b604051808573ffffffffffffffffffffffffffffffffffffffff1673ffffffffffffffffffffffffffffffffffffffff1681526020018060200184815260200180602001838103835286818151815260200191508051906020019080838360005b838110156105e25780820151818401526020810190506105c7565b50505050905090810190601f16801561060f5780820380516001836020036101000a031916815260200191505b50838103825284818151815260200191508051906020019080838360005b8381101561064857808201518184015260208101905061062d565b50505050905090810190601f1680156106755780820380516001836020036101000a031916815260200191505b50965050505050505060405180910390f35b60003373ffffffffffffffffffffffffffffffffffffffff166000809054906101000a900473ffffffffffffffffffffffffffffffffffffffff1673ffffffffffffffffffffffffffffffffffffffff16141515610773576040517f08c379a000000000000000000000000000000000000000000000000000000000815260040180806020018281038252602c8152602001807f4f6e6c7920612073746f7265206f776e65722063616e20696e766f6b6520746881526020017f69732066756e6374696f6e21000000000000000000000000000000000000000081525060400191505060405180910390fd5b600082111515610811576040517f08c379a000000000000000000000000000000000000000000000000000000000815260040180806020018281038252602f8152602001807f5468652077697468647277616c20616d6f756e74206d7573742062652061207081526020017f6f736974697665206e756d62657221000000000000000000000000000000000081525060400191505060405180910390fd5b813073ffffffffffffffffffffffffffffffffffffffff1631101515156108ec576040517f08c379a000000000000000000000000000000000000000000000000000000000815260040180806020018281038252604c8152602001807f5468652063757272656e742073746f72652062616c616e636520616d6f756e7481526020017f206d7573742062652067726561746572207468616e207468652077697468647281526020017f6177616c20616d6f756e7421000000000000000000000000000000000000000081525060600191505060405180910390fd5b6000809054906101000a900473ffffffffffffffffffffffffffffffffffffffff1673ffffffffffffffffffffffffffffffffffffffff166108fc839081150290604051600060405180830381858888f19350505050158015610953573d6000803e3d6000fd5b5060019050919050565b6000803373ffffffffffffffffffffffffffffffffffffffff166000809054906101000a900473ffffffffffffffffffffffffffffffffffffffff1673ffffffffffffffffffffffffffffffffffffffff16141515610a4a576040517f08c379a000000000000000000000000000000000000000000000000000000000815260040180806020018281038252602c8152602001807f4f6e6c7920612073746f7265206f776e65722063616e20696e766f6b6520746881526020017f69732066756e6374696f6e21000000000000000000000000000000000000000081525060400191505060405180910390fd5b60018303905060006001811115610a5d57fe5b600682815481101515610a6c57fe5b906000526020600020906007020160050160009054906101000a900460ff166001811115610a9657fe5b141515610b31576040517f08c379a00000000000000000000000000000000000000000000000000000000081526004018080602001828103825260398152602001807f4f6e6c7920746865206163746976652070726f647563742063616e206265206281526020017f652072656d6f7665642066726f6d207468652073746f7265210000000000000081525060400191505060405180910390fd5b6001600682815481101515610b4257fe5b906000526020600020906007020160050160006101000a81548160ff02191690836001811115610b6e57fe5b02179055506001915050919050565b6060806000806000806000600188039050600681815481101515610b9d57fe5b9060005260206000209060070201600101600682815481101515610bbd57fe5b9060005260206000209060070201600201600683815481101515610bdd57fe5b906000526020600020906007020160030154600684815481101515610bfe57fe5b906000526020600020906007020160040154600685815481101515610c1f57fe5b906000526020600020906007020160050160009054906101000a900460ff16600686815481101515610c4d57fe5b906000526020600020906007020160060154858054600181600116156101000203166002900480601f016020809104026020016040519081016040528092919081815260200182805460018160011615610100020316600290048015610cf45780601f10610cc957610100808354040283529160200191610cf4565b820191906000526020600020905b815481529060010190602001808311610cd757829003601f168201915b50505050509550848054600181600116156101000203166002900480601f016020809104026020016040519081016040528092919081815260200182805460018160011615610100020316600290048015610d905780601f10610d6557610100808354040283529160200191610d90565b820191906000526020600020905b815481529060010190602001808311610d7357829003601f168201915b505050505094509650965096509650965096505091939550919395565b6000803373ffffffffffffffffffffffffffffffffffffffff166000809054906101000a900473ffffffffffffffffffffffffffffffffffffffff1673ffffffffffffffffffffffffffffffffffffffff16141515610e9a576040517f08c379a000000000000000000000000000000000000000000000000000000000815260040180806020018281038252602c8152602001807f4f6e6c7920612073746f7265206f776e65722063616e20696e766f6b6520746881526020017f69732066756e6374696f6e21000000000000000000000000000000000000000081525060400191505060405180910390fd5b600183039050600180811115610eac57fe5b600682815481101515610ebb57fe5b906000526020600020906007020160050160009054906101000a900460ff166001811115610ee557fe5b141515610f80576040517f08c379a000000000000000000000000000000000000000000000000000000000815260040180806020018281038252602b8152602001807f4f6e6c792074686520496e6163746976652070726f647563742063616e20626581526020017f206163746976617465642100000000000000000000000000000000000000000081525060400191505060405180910390fd5b6000600682815481101515610f9157fe5b906000526020600020906007020160050160006101000a81548160ff02191690836001811115610fbd57fe5b02179055506001915050919050565b6000803373ffffffffffffffffffffffffffffffffffffffff166000809054906101000a900473ffffffffffffffffffffffffffffffffffffffff1673ffffffffffffffffffffffffffffffffffffffff161415156110b9576040517f08c379a000000000000000000000000000000000000000000000000000000000815260040180806020018281038252602c8152602001807f4f6e6c7920612073746f7265206f776e65722063616e20696e766f6b6520746881526020017f69732066756e6374696f6e21000000000000000000000000000000000000000081525060400191505060405180910390fd5b600a905060016006818180549050019150816110d591906120a6565b5060e06040519081016040528060055481526020018781526020018681526020018581526020018481526020016000600181111561110f57fe5b815260200182815250600660045481548110151561112957fe5b906000526020600020906007020160008201518160000155602082015181600101908051906020019061115d9291906120d8565b50604082015181600201908051906020019061117a9291906120d8565b50606082015181600301556080820151816004015560a08201518160050160006101000a81548160ff021916908360018111156111b357fe5b021790555060c082015181600601559050507fc86b920148e151a78e4a627284a763302c966579a89be8494ba9562ac1f61b7b60055487878787604051808681526020018060200180602001858152602001848152602001838103835287818151815260200191508051906020019080838360005b83811015611243578082015181840152602081019050611228565b50505050905090810190601f1680156112705780820380516001836020036101000a031916815260200191505b50838103825286818151815260200191508051906020019080838360005b838110156112a957808201518184015260208101905061128e565b50505050905090810190601f1680156112d65780820380516001836020036101000a031916815260200191505b5097505050505050505060405180910390a16004600081548092919060010191905055506005600081548092919060010191905055915050949350505050565b6060600080606060008093506001151586151514156113ae57600092505b6006805490508360ff1610156113a9576000600181111561135157fe5b60068460ff1681548110151561136357fe5b906000526020600020906007020160050160009054906101000a900460ff16600181111561138d57fe5b141561139c5783806001019450505b8280600101935050611334565b6113b7565b60068054905093505b836040519080825280602002602001820160405280156113e65781602001602082028038833980820191505090505b50915060008411156115125760009050600092505b6006805490508360ff161015611511576001151586151514156114b8576000600181111561142557fe5b60068460ff1681548110151561143757fe5b906000526020600020906007020160050160009054906101000a900460ff16600181111561146157fe5b14156114b35760068360ff1681548110151561147957fe5b906000526020600020906007020160000154828260ff1681518110151561149c57fe5b906020019060200201818152505080806001019150505b611504565b60068360ff168154811015156114ca57fe5b906000526020600020906007020160000154828260ff168151811015156114ed57fe5b906020019060200201818152505080806001019150505b82806001019350506113fb565b5b81945050505050919050565b60003073ffffffffffffffffffffffffffffffffffffffff1631905090565b60008060008060018603925060068381548110151561155857fe5b906000526020600020906007020160030154850291506000600181111561157b57fe5b60068481548110151561158a57fe5b906000526020600020906007020160050160009054906101000a900460ff1660018111156115b457fe5b14151561164f576040517f08c379a00000000000000000000000000000000000000000000000000000000081526004018080602001828103825260268152602001807f4f6e6c7920746865206163746976652070726f647563742063616e206265206281526020017f6f7567687421000000000000000000000000000000000000000000000000000081525060400191505060405180910390fd5b3373ffffffffffffffffffffffffffffffffffffffff166000809054906101000a900473ffffffffffffffffffffffffffffffffffffffff1673ffffffffffffffffffffffffffffffffffffffff161415151561173a576040517f08c379a00000000000000000000000000000000000000000000000000000000081526004018080602001828103825260258152602001807f546865206f776e65722063616e6e6f742062757920697473206f776e2070726f81526020017f647563742100000000000000000000000000000000000000000000000000000081525060400191505060405180910390fd5b60068381548110151561174957fe5b90600052602060002090600702016004015485111515156117f8576040517f08c379a000000000000000000000000000000000000000000000000000000000815260040180806020018281038252603a8152602001807f5468652073746f726520646f6573206e6f74206861766520737566666963696581526020017f6e74207175616e74697479206f66207468652070726f6475637400000000000081525060400191505060405180910390fd5b3373ffffffffffffffffffffffffffffffffffffffff163134111515156118ad576040517f08c379a00000000000000000000000000000000000000000000000000000000081526004018080602001828103825260408152602001807f54686520627579657220646f6573206e6f74206861766520737566666963696581526020017f6e742062616c616e636520696e20686973202f20686572206163636f756e742181525060400191505060405180910390fd5b813414151561194a576040517f08c379a00000000000000000000000000000000000000000000000000000000081526004018080602001828103825260408152602001807f54686520737570706c6965642076616c7565206973206c65737365722074686181526020017f6e207468652061637475616c207072696365206f6620746865206974656d732181525060400191505060405180910390fd5b8460068481548110151561195a57fe5b9060005260206000209060070201600401540360068481548110151561197c57fe5b9060005260206000209060070201600401819055507f781f13430da3033909b5c9de8541109172e3f02dca16b4b18f489592e4f11af08686306000809054906101000a900473ffffffffffffffffffffffffffffffffffffffff16333373ffffffffffffffffffffffffffffffffffffffff163188604051808881526020018781526020018673ffffffffffffffffffffffffffffffffffffffff1673ffffffffffffffffffffffffffffffffffffffff1681526020018573ffffffffffffffffffffffffffffffffffffffff1673ffffffffffffffffffffffffffffffffffffffff1681526020018473ffffffffffffffffffffffffffffffffffffffff1673ffffffffffffffffffffffffffffffffffffffff16815260200183815260200182815260200197505050505050505060405180910390a13090508073ffffffffffffffffffffffffffffffffffffffff166108fc349081150290604051600060405180830381858888f19350505050158015611afd573d6000803e3d6000fd5b50600760009054906101000a900473ffffffffffffffffffffffffffffffffffffffff1673ffffffffffffffffffffffffffffffffffffffff1663bca82f976000809054906101000a900473ffffffffffffffffffffffffffffffffffffffff163360646305f5e10002600688815481101515611b7657fe5b9060005260206000209060070201600601548702811515611b9357fe5b046040518463ffffffff167c0100000000000000000000000000000000000000000000000000000000028152600401808473ffffffffffffffffffffffffffffffffffffffff1673ffffffffffffffffffffffffffffffffffffffff1681526020018373ffffffffffffffffffffffffffffffffffffffff1673ffffffffffffffffffffffffffffffffffffffff1681526020018281526020019350505050602060405180830381600087803b158015611c4c57600080fd5b505af1158015611c60573d6000803e3d6000fd5b505050506040513d6020811015611c7657600080fd5b8101908080519060200190929190505050506001935050505092915050565b6000803373ffffffffffffffffffffffffffffffffffffffff166000809054906101000a900473ffffffffffffffffffffffffffffffffffffffff1673ffffffffffffffffffffffffffffffffffffffff16141515611d82576040517f08c379a000000000000000000000000000000000000000000000000000000000815260040180806020018281038252602c8152602001807f4f6e6c7920612073746f7265206f776e65722063616e20696e766f6b6520746881526020017f69732066756e6374696f6e21000000000000000000000000000000000000000081525060400191505060405180910390fd5b6001870390506000600682815481101515611d9957fe5b90600052602060002090600702016000015414151515611e6d576040517f08c379a00000000000000000000000000000000000000000000000000000000081526004018080602001828103825260498152602001807f50726f6475637420666f722074686520676976656e2073746f7265206964206181526020017f6e642070726f6475637420696420636f6d62696e6174696f6e20646f6573206e81526020017f6f7420657869737421000000000000000000000000000000000000000000000081525060600191505060405180910390fd5b85600682815481101515611e7d57fe5b90600052602060002090600702016001019080519060200190611ea1929190612158565b5084600682815481101515611eb257fe5b90600052602060002090600702016002019080519060200190611ed6929190612158565b5083600682815481101515611ee757fe5b90600052602060002090600702016003018190555082600682815481101515611f0c57fe5b906000526020600020906007020160040181905550600191505095945050505050565b60006060600060606000809054906101000a900473ffffffffffffffffffffffffffffffffffffffff1660016003546002828054600181600116156101000203166002900480601f016020809104026020016040519081016040528092919081815260200182805460018160011615610100020316600290048015611ff55780601f10611fca57610100808354040283529160200191611ff5565b820191906000526020600020905b815481529060010190602001808311611fd857829003601f168201915b50505050509250808054600181600116156101000203166002900480601f0160208091040260200160405190810160405280929190818152602001828054600181600116156101000203166002900480156120915780601f1061206657610100808354040283529160200191612091565b820191906000526020600020905b81548152906001019060200180831161207457829003601f168201915b50505050509050935093509350935090919293565b8154818355818111156120d3576007028160070283600052602060002091820191016120d291906121d8565b5b505050565b828054600181600116156101000203166002900490600052602060002090601f016020900481019282601f1061211957805160ff1916838001178555612147565b82800160010185558215612147579182015b8281111561214657825182559160200191906001019061212b565b5b509050612154919061224b565b5090565b828054600181600116156101000203166002900490600052602060002090601f016020900481019282601f1061219957805160ff19168380011785556121c7565b828001600101855582156121c7579182015b828111156121c65782518255916020019190600101906121ab565b5b5090506121d4919061224b565b5090565b61224891905b80821115612244576000808201600090556001820160006121ff9190612270565b60028201600061220f9190612270565b600382016000905560048201600090556005820160006101000a81549060ff02191690556006820160009055506007016121de565b5090565b90565b61226d91905b80821115612269576000816000905550600101612251565b5090565b90565b50805460018160011615610100020316600290046000825580601f1061229657506122b5565b601f0160209004906000526020600020908101906122b4919061224b565b5b505600a165627a7a72305820fce7954605ab163f04fb3e8f33727f3b2f804f3fa1e82c8b252eeb70b46ce8c30029a165627a7a72305820e4fc15b39b0a2bc15f89cb8c8e83942849d22e6f7e3f750be008e200044f7c7400296080604052600060025534801561001557600080fd5b506114e3806100256000396000f3006080604052600436106100ba576000357c0100000000000000000000000000000000000000000000000000000000900463ffffffff16806306fdde03146100bf578063095ea7b31461014f57806318160ddd146101b457806323b872dd146101df578063313ce56714610264578063661884631461029557806370a08231146102fa57806395d89b4114610351578063a9059cbb146103e1578063bca82f9714610446578063d73dd623146104c7578063dd62ed3e1461052c575b600080fd5b3480156100cb57600080fd5b506100d46105a3565b6040518080602001828103825283818151815260200191508051906020019080838360005b838110156101145780820151818401526020810190506100f9565b50505050905090810190601f1680156101415780820380516001836020036101000a031916815260200191505b509250505060405180910390f35b34801561015b57600080fd5b5061019a600480360381019080803573ffffffffffffffffffffffffffffffffffffffff169060200190929190803590602001909291905050506105dc565b604051808215151515815260200191505060405180910390f35b3480156101c057600080fd5b506101c96106ce565b6040518082815260200191505060405180910390f35b3480156101eb57600080fd5b5061024a600480360381019080803573ffffffffffffffffffffffffffffffffffffffff169060200190929190803573ffffffffffffffffffffffffffffffffffffffff169060200190929190803590602001909291905050506106d8565b604051808215151515815260200191505060405180910390f35b34801561027057600080fd5b50610279610a93565b604051808260ff1660ff16815260200191505060405180910390f35b3480156102a157600080fd5b506102e0600480360381019080803573ffffffffffffffffffffffffffffffffffffffff16906020019092919080359060200190929190505050610a98565b604051808215151515815260200191505060405180910390f35b34801561030657600080fd5b5061033b600480360381019080803573ffffffffffffffffffffffffffffffffffffffff169060200190929190505050610d2a565b6040518082815260200191505060405180910390f35b34801561035d57600080fd5b50610366610d72565b6040518080602001828103825283818151815260200191508051906020019080838360005b838110156103a657808201518184015260208101905061038b565b50505050905090810190601f1680156103d35780820380516001836020036101000a031916815260200191505b509250505060405180910390f35b3480156103ed57600080fd5b5061042c600480360381019080803573ffffffffffffffffffffffffffffffffffffffff16906020019092919080359060200190929190505050610dab565b604051808215151515815260200191505060405180910390f35b34801561045257600080fd5b506104b1600480360381019080803573ffffffffffffffffffffffffffffffffffffffff169060200190929190803573ffffffffffffffffffffffffffffffffffffffff16906020019092919080359060200190929190505050610fcb565b6040518082815260200191505060405180910390f35b3480156104d357600080fd5b50610512600480360381019080803573ffffffffffffffffffffffffffffffffffffffff169060200190929190803590602001909291905050506110be565b604051808215151515815260200191505060405180910390f35b34801561053857600080fd5b5061058d600480360381019080803573ffffffffffffffffffffffffffffffffffffffff169060200190929190803573ffffffffffffffffffffffffffffffffffffffff1690602001909291905050506112ba565b6040518082815260200191505060405180910390f35b6040805190810160405280601381526020017f4f6e6c696e65204d61726b657420506c6163650000000000000000000000000081525081565b600081600160003373ffffffffffffffffffffffffffffffffffffffff1673ffffffffffffffffffffffffffffffffffffffff16815260200190815260200160002060008573ffffffffffffffffffffffffffffffffffffffff1673ffffffffffffffffffffffffffffffffffffffff168152602001908152602001600020819055508273ffffffffffffffffffffffffffffffffffffffff163373ffffffffffffffffffffffffffffffffffffffff167f8c5be1e5ebec7d5bd14f71427d1e84f3dd0314c0f7b2291e5b200ac8c7c3b925846040518082815260200191505060405180910390a36001905092915050565b6000600254905090565b60008060008573ffffffffffffffffffffffffffffffffffffffff1673ffffffffffffffffffffffffffffffffffffffff16815260200190815260200160002054821115151561072757600080fd5b600160008573ffffffffffffffffffffffffffffffffffffffff1673ffffffffffffffffffffffffffffffffffffffff16815260200190815260200160002060003373ffffffffffffffffffffffffffffffffffffffff1673ffffffffffffffffffffffffffffffffffffffff1681526020019081526020016000205482111515156107b257600080fd5b600073ffffffffffffffffffffffffffffffffffffffff168373ffffffffffffffffffffffffffffffffffffffff16141515156107ee57600080fd5b61083f826000808773ffffffffffffffffffffffffffffffffffffffff1673ffffffffffffffffffffffffffffffffffffffff1681526020019081526020016000205461134190919063ffffffff16565b6000808673ffffffffffffffffffffffffffffffffffffffff1673ffffffffffffffffffffffffffffffffffffffff168152602001908152602001600020819055506108d2826000808673ffffffffffffffffffffffffffffffffffffffff1673ffffffffffffffffffffffffffffffffffffffff1681526020019081526020016000205461135d90919063ffffffff16565b6000808573ffffffffffffffffffffffffffffffffffffffff1673ffffffffffffffffffffffffffffffffffffffff168152602001908152602001600020819055506109a382600160008773ffffffffffffffffffffffffffffffffffffffff1673ffffffffffffffffffffffffffffffffffffffff16815260200190815260200160002060003373ffffffffffffffffffffffffffffffffffffffff1673ffffffffffffffffffffffffffffffffffffffff1681526020019081526020016000205461134190919063ffffffff16565b600160008673ffffffffffffffffffffffffffffffffffffffff1673ffffffffffffffffffffffffffffffffffffffff16815260200190815260200160002060003373ffffffffffffffffffffffffffffffffffffffff1673ffffffffffffffffffffffffffffffffffffffff168152602001908152602001600020819055508273ffffffffffffffffffffffffffffffffffffffff168473ffffffffffffffffffffffffffffffffffffffff167fddf252ad1be2c89b69c2b068fc378daa952ba7f163c4a11628f55a4df523b3ef846040518082815260200191505060405180910390a3600190509392505050565b600381565b600080600160003373ffffffffffffffffffffffffffffffffffffffff1673ffffffffffffffffffffffffffffffffffffffff16815260200190815260200160002060008573ffffffffffffffffffffffffffffffffffffffff1673ffffffffffffffffffffffffffffffffffffffff1681526020019081526020016000205490508083101515610baa576000600160003373ffffffffffffffffffffffffffffffffffffffff1673ffffffffffffffffffffffffffffffffffffffff16815260200190815260200160002060008673ffffffffffffffffffffffffffffffffffffffff1673ffffffffffffffffffffffffffffffffffffffff16815260200190815260200160002081905550610c3e565b610bbd838261134190919063ffffffff16565b600160003373ffffffffffffffffffffffffffffffffffffffff1673ffffffffffffffffffffffffffffffffffffffff16815260200190815260200160002060008673ffffffffffffffffffffffffffffffffffffffff1673ffffffffffffffffffffffffffffffffffffffff168152602001908152602001600020819055505b8373ffffffffffffffffffffffffffffffffffffffff163373ffffffffffffffffffffffffffffffffffffffff167f8c5be1e5ebec7d5bd14f71427d1e84f3dd0314c0f7b2291e5b200ac8c7c3b925600160003373ffffffffffffffffffffffffffffffffffffffff1673ffffffffffffffffffffffffffffffffffffffff16815260200190815260200160002060008873ffffffffffffffffffffffffffffffffffffffff1673ffffffffffffffffffffffffffffffffffffffff168152602001908152602001600020546040518082815260200191505060405180910390a3600191505092915050565b60008060008373ffffffffffffffffffffffffffffffffffffffff1673ffffffffffffffffffffffffffffffffffffffff168152602001908152602001600020549050919050565b6040805190810160405280600381526020017f4f4d50000000000000000000000000000000000000000000000000000000000081525081565b60008060003373ffffffffffffffffffffffffffffffffffffffff1673ffffffffffffffffffffffffffffffffffffffff168152602001908152602001600020548211151515610dfa57600080fd5b600073ffffffffffffffffffffffffffffffffffffffff168373ffffffffffffffffffffffffffffffffffffffff1614151515610e3657600080fd5b610e87826000803373ffffffffffffffffffffffffffffffffffffffff1673ffffffffffffffffffffffffffffffffffffffff1681526020019081526020016000205461134190919063ffffffff16565b6000803373ffffffffffffffffffffffffffffffffffffffff1673ffffffffffffffffffffffffffffffffffffffff16815260200190815260200160002081905550610f1a826000808673ffffffffffffffffffffffffffffffffffffffff1673ffffffffffffffffffffffffffffffffffffffff1681526020019081526020016000205461135d90919063ffffffff16565b6000808573ffffffffffffffffffffffffffffffffffffffff1673ffffffffffffffffffffffffffffffffffffffff168152602001908152602001600020819055508273ffffffffffffffffffffffffffffffffffffffff163373ffffffffffffffffffffffffffffffffffffffff167fddf252ad1be2c89b69c2b068fc378daa952ba7f163c4a11628f55a4df523b3ef846040518082815260200191505060405180910390a36001905092915050565b6000610fd78383611379565b7f28304351f4cb68edab8682e94ff67c7f896c010f2b576db48f5503611d8ae6be848484604051808473ffffffffffffffffffffffffffffffffffffffff1673ffffffffffffffffffffffffffffffffffffffff1681526020018373ffffffffffffffffffffffffffffffffffffffff1673ffffffffffffffffffffffffffffffffffffffff168152602001828152602001935050505060405180910390a16000808473ffffffffffffffffffffffffffffffffffffffff1673ffffffffffffffffffffffffffffffffffffffff1681526020019081526020016000205490509392505050565b600061114f82600160003373ffffffffffffffffffffffffffffffffffffffff1673ffffffffffffffffffffffffffffffffffffffff16815260200190815260200160002060008673ffffffffffffffffffffffffffffffffffffffff1673ffffffffffffffffffffffffffffffffffffffff1681526020019081526020016000205461135d90919063ffffffff16565b600160003373ffffffffffffffffffffffffffffffffffffffff1673ffffffffffffffffffffffffffffffffffffffff16815260200190815260200160002060008573ffffffffffffffffffffffffffffffffffffffff1673ffffffffffffffffffffffffffffffffffffffff168152602001908152602001600020819055508273ffffffffffffffffffffffffffffffffffffffff163373ffffffffffffffffffffffffffffffffffffffff167f8c5be1e5ebec7d5bd14f71427d1e84f3dd0314c0f7b2291e5b200ac8c7c3b925600160003373ffffffffffffffffffffffffffffffffffffffff1673ffffffffffffffffffffffffffffffffffffffff16815260200190815260200160002060008773ffffffffffffffffffffffffffffffffffffffff1673ffffffffffffffffffffffffffffffffffffffff168152602001908152602001600020546040518082815260200191505060405180910390a36001905092915050565b6000600160008473ffffffffffffffffffffffffffffffffffffffff1673ffffffffffffffffffffffffffffffffffffffff16815260200190815260200160002060008373ffffffffffffffffffffffffffffffffffffffff1673ffffffffffffffffffffffffffffffffffffffff16815260200190815260200160002054905092915050565b600082821115151561135257600080fd5b818303905092915050565b6000818301905082811015151561137357600080fd5b92915050565b60008273ffffffffffffffffffffffffffffffffffffffff161415151561139f57600080fd5b6113b48160025461135d90919063ffffffff16565b60028190555061140b816000808573ffffffffffffffffffffffffffffffffffffffff1673ffffffffffffffffffffffffffffffffffffffff1681526020019081526020016000205461135d90919063ffffffff16565b6000808473ffffffffffffffffffffffffffffffffffffffff1673ffffffffffffffffffffffffffffffffffffffff168152602001908152602001600020819055508173ffffffffffffffffffffffffffffffffffffffff16600073ffffffffffffffffffffffffffffffffffffffff167fddf252ad1be2c89b69c2b068fc378daa952ba7f163c4a11628f55a4df523b3ef836040518082815260200191505060405180910390a350505600a165627a7a7230582027f5959b0cc9490de95c5775fd8a98abc9476d2394e154905a5b83adef8f13b80029",
  "source": "pragma solidity ^0.4.22;\n\nimport \"./Store.sol\";\nimport \"./library/Utils.sol\";\nimport \"./EIP20.sol\";\n/**\n * There are a list of stores on a central marketplace where shoppers can purchase goods posted by the store owners.\n * The central marketplace is managed by a group of administrators. Admins allow store owners to add stores\n * to the marketplace. Store owners can manage their stores inventory and funds. Shoppers can visit stores and purchase\n * goods that are in stock using cryptocurrency.\n *\n */\n\ncontract MarketPlace {\n    address superAdmin;\n    address[] public adminUsers;\n    address[] public storeOwners;\n    uint private nextStoreId;\n    EIP20 private eip20Token;\n\n    // mapping of stores of a given store owner\n    mapping (address => address[]) public storeFrontMap;\n\n    /**\n     * Initialize state variables, specifically, the Super Administrator!\n     * Also, add that address in the Admin list.\n     */\n    constructor() public {\n        superAdmin = msg.sender;\n        adminUsers.push(msg.sender);\n        nextStoreId = 1;\n        eip20Token = new EIP20();\n    }\n\n    event NewStore (\n      string storeName,\n      string storeDescription,\n      address storeOwner,\n      address storeAddress\n    );\n\n    event AccessingStore(Store currentStore);\n\n    /**\n     * Only SuperAdmin shall be able to create an Admin user\n    */\n    modifier onlySuperAdmin {\n        require( msg.sender == superAdmin, \"Only Super Administrator can invoke this function.\");\n        _;\n    }\n\n    /**\n     * Only Admin shall be allowed to create a store\n    */\n    modifier onlyAdmin {\n        require( Utils.existInTheArray(adminUsers, msg.sender), \"Only an Administrator can invoke this function.\");\n        _;\n    }\n\n    /**\n     * Only store owners shall be allowed to add stores.\n     *\n    */\n    modifier onlyStoreOwner {\n        require( Utils.existInTheArray(storeOwners, msg.sender), \"Only an Administrator can invoke this function.\");\n        _;\n    }\n\n    /**\n     * A super administrator can create one or more administrator, who will have same access, except that\n     * they cannot create another administrator\n     */\n    function createAdminUser(address newAdminUser) public onlySuperAdmin returns(address){\n        require(!Utils.existInTheArray(adminUsers, newAdminUser), \"The address is already in the Admin group!\");\n\n        adminUsers.push(newAdminUser);\n\n        return newAdminUser;\n    }\n\n    /**\n    * This function shall return all the admin address in the market place\n    */\n    function getAdminUsers() public view returns(address[]) {\n      return adminUsers;\n    }\n\n    /**\n    * This function verifies if an address has the following accesses or not\n    * - Super Admin\n    * - Admins\n    * - Store Owner\n    */\n    function checkAccess(address addressToVerify) view public returns(bool, bool, bool) {\n      bool isAdmin = Utils.existInTheArray(adminUsers, addressToVerify);\n      bool isStoreOwner = Utils.existInTheArray(storeOwners, addressToVerify);\n      bool isSuperAdmin = false;\n\n      if ( addressToVerify == superAdmin ) {\n        isSuperAdmin = true;\n      }\n\n      return (isSuperAdmin, isAdmin, isStoreOwner);\n    }\n\n    /**\n     * Any Admin shall be able to add a store owner.\n     * Of course, we need to make sure that a given address is added only once.\n    */\n    function createStoreOwner(address newStoreOwnerAddress) public onlyAdmin returns(bool){\n        require( !Utils.existInTheArray(storeOwners, newStoreOwnerAddress), \"The store owner with the same address already exist!\");\n\n        storeOwners.push(newStoreOwnerAddress);\n\n        return true;\n    }\n\n    /**\n    * This function shall return all the store owners address in the market place\n    */\n    function getStoreOwners() public view returns(address[]) {\n      return storeOwners;\n    }\n\n    /**\n     * A store owner shall be able to create one or more stores.\n     * The created store will be associated with the store owner using storeFrontMap, where the store owner's\n     * address is a key and the value is a map of storeId and Store.\n     *\n    */\n    function createStoreFront( string storeName, string storeDescription ) public onlyStoreOwner returns(address){\n        uint storeCount = storeFrontMap[msg.sender].length;\n\n        if (storeCount == 0) {\n          storeFrontMap[msg.sender].length = 1;\n        } else {\n          storeFrontMap[msg.sender].length = storeCount + 1;\n        }\n\n        storeFrontMap[msg.sender][storeCount] = address(new Store(\n                                                            storeName,\n                                                            storeDescription,\n                                                            nextStoreId,\n                                                            msg.sender,\n                                                            eip20Token ));\n\n        nextStoreId++;\n\n        emit NewStore(\n                storeName,\n                storeDescription,\n                msg.sender,\n                storeFrontMap[msg.sender][storeCount] );\n\n        return storeFrontMap[msg.sender][storeCount];\n    }\n\n    /**\n     * this function will be used for retriving all the stores of a given store owner\n     *\n     */\n    function getStores(address storeOwnerAddress) public view returns(address[]) {\n        if ( storeOwnerAddress != 0 ) {\n            return storeFrontMap[storeOwnerAddress];\n        }\n        else {\n            //\n            // The caller is looking for all the stores in the market place\n            //\n            uint totalStoreCount = 0;\n            uint storeOwnersCount;\n\n            for (storeOwnersCount = 0; storeOwnersCount < storeOwners.length; storeOwnersCount++) {\n                totalStoreCount += storeFrontMap[storeOwners[storeOwnersCount]].length;\n            }\n\n            address[] memory allStores = new address[](totalStoreCount);\n            uint tempStoreCount = 0;\n\n            for ( storeOwnersCount = 0; storeOwnersCount < storeOwners.length; storeOwnersCount++ ) {\n                address[] memory storesOfOwner = storeFrontMap[storeOwners[storeOwnersCount]];\n\n                for ( uint storeFrontCountOfOwner = 0;\n                      storeFrontCountOfOwner < storesOfOwner.length;\n                      storeFrontCountOfOwner++) {\n                  allStores[tempStoreCount] = storesOfOwner[storeFrontCountOfOwner];\n                  tempStoreCount++;\n                }\n            }\n\n            return allStores;\n        }\n    }\n\n    /**\n     * @dev This method returns the token balance of a given account.\n     * @param accountAddress is the address whose balance is being queried\n     */\n     function getTokenBalance(address accountAddress) public view returns(uint256 tokenBalance) {\n       return eip20Token.balanceOf(accountAddress);\n     }\n\n\n    /**\n     * The market place can be destructed by only the super admin, that too when we have at least 75% of the store owners\n     * agreeing to this decision.\n    */\n    function closeMarketPlace() public onlySuperAdmin {\n        bool haveConsentOfStoreOwners = getConsentForClosure();\n\n        require(haveConsentOfStoreOwners, \"You do not have the sufficient consensus to close the market place!\");\n\n        selfdestruct(superAdmin);\n    }\n\n    /**\n     * In case we want to allow the closure of the Market Place then implement this function\n     * with proper logic.\n    */\n    function getConsentForClosure() private pure returns(bool) {\n        return false;\n    }\n\n}\n",
  "sourcePath": "/Users/alokranjan/blockchain/ethereum/consensys/ethmarket/contracts/MarketPlace.sol",
  "compiler": {
    "name": "solc",
    "version": "0.4.24+commit.e67f0147.Emscripten.clang"
  },
  "schemaVersion": "2.0.1",
  "updatedAt": "2018-08-23T18:01:32.221Z"
}