{
  "contractName": "MarketPlace",
  "abi": [
    {
      "constant": true,
      "inputs": [
        {
          "name": "",
          "type": "uint256"
        }
      ],
      "name": "adminUsers",
      "outputs": [
        {
          "name": "",
          "type": "address"
        }
      ],
      "payable": false,
      "stateMutability": "view",
      "type": "function"
    },
    {
      "constant": true,
      "inputs": [
        {
          "name": "",
          "type": "uint256"
        }
      ],
      "name": "storeOwners",
      "outputs": [
        {
          "name": "",
          "type": "address"
        }
      ],
      "payable": false,
      "stateMutability": "view",
      "type": "function"
    },
    {
      "constant": true,
      "inputs": [
        {
          "name": "",
          "type": "address"
        },
        {
          "name": "",
          "type": "uint256"
        }
      ],
      "name": "storeFrontMap",
      "outputs": [
        {
          "name": "",
          "type": "address"
        }
      ],
      "payable": false,
      "stateMutability": "view",
      "type": "function"
    },
    {
      "inputs": [],
      "payable": false,
      "stateMutability": "nonpayable",
      "type": "constructor"
    },
    {
      "anonymous": false,
      "inputs": [
        {
          "indexed": false,
          "name": "storeName",
          "type": "string"
        },
        {
          "indexed": false,
          "name": "storeDescription",
          "type": "string"
        },
        {
          "indexed": false,
          "name": "storeOwner",
          "type": "address"
        },
        {
          "indexed": false,
          "name": "storeAddress",
          "type": "address"
        }
      ],
      "name": "NewStore",
      "type": "event"
    },
    {
      "constant": false,
      "inputs": [
        {
          "name": "newAdminUser",
          "type": "address"
        }
      ],
      "name": "createAdminUser",
      "outputs": [
        {
          "name": "",
          "type": "address"
        }
      ],
      "payable": false,
      "stateMutability": "nonpayable",
      "type": "function"
    },
    {
      "constant": true,
      "inputs": [
        {
          "name": "addressToVerify",
          "type": "address"
        }
      ],
      "name": "checkAdmingAccess",
      "outputs": [
        {
          "name": "",
          "type": "bool"
        }
      ],
      "payable": false,
      "stateMutability": "view",
      "type": "function"
    },
    {
      "constant": false,
      "inputs": [
        {
          "name": "newStoreOwnerAddress",
          "type": "address"
        }
      ],
      "name": "createStoreOwner",
      "outputs": [
        {
          "name": "",
          "type": "bool"
        }
      ],
      "payable": false,
      "stateMutability": "nonpayable",
      "type": "function"
    },
    {
      "constant": true,
      "inputs": [],
      "name": "getStoreOwners",
      "outputs": [
        {
          "name": "",
          "type": "address[]"
        }
      ],
      "payable": false,
      "stateMutability": "view",
      "type": "function"
    },
    {
      "constant": false,
      "inputs": [
        {
          "name": "storeName",
          "type": "string"
        },
        {
          "name": "storeDescription",
          "type": "string"
        }
      ],
      "name": "createStoreFront",
      "outputs": [
        {
          "name": "",
          "type": "address"
        }
      ],
      "payable": false,
      "stateMutability": "nonpayable",
      "type": "function"
    },
    {
      "constant": true,
      "inputs": [
        {
          "name": "storeOwnerAddress",
          "type": "address"
        }
      ],
      "name": "getStores",
      "outputs": [
        {
          "name": "",
          "type": "address[]"
        }
      ],
      "payable": false,
      "stateMutability": "view",
      "type": "function"
    },
    {
      "constant": false,
      "inputs": [],
      "name": "closeMarketPlace",
      "outputs": [],
      "payable": false,
      "stateMutability": "nonpayable",
      "type": "function"
    }
  ],
  "bytecode": "0x608060405234801561001057600080fd5b50336000806101000a81548173ffffffffffffffffffffffffffffffffffffffff021916908373ffffffffffffffffffffffffffffffffffffffff16021790555060013390806001815401808255809150509060018203906000526020600020016000909192909190916101000a81548173ffffffffffffffffffffffffffffffffffffffff021916908373ffffffffffffffffffffffffffffffffffffffff1602179055505060016003819055506137b8806100ce6000396000f3006080604052600436106100a4576000357c0100000000000000000000000000000000000000000000000000000000900463ffffffff1680631fa9acf1146100a957806329cbf2e91461011657806344d509931461012d5780634baa0f5e1461019a57806360538ba8146101f557806361878fc41461025057806373a296ba146102d357806375b9960e1461036057806375dae8a61461044f57806391f4245a146104e7575b600080fd5b3480156100b557600080fd5b506100d460048036038101908080359060200190929190505050610553565b604051808273ffffffffffffffffffffffffffffffffffffffff1673ffffffffffffffffffffffffffffffffffffffff16815260200191505060405180910390f35b34801561012257600080fd5b5061012b610591565b005b34801561013957600080fd5b5061015860048036038101908080359060200190929190505050610782565b604051808273ffffffffffffffffffffffffffffffffffffffff1673ffffffffffffffffffffffffffffffffffffffff16815260200191505060405180910390f35b3480156101a657600080fd5b506101db600480360381019080803573ffffffffffffffffffffffffffffffffffffffff1690602001909291905050506107c0565b604051808215151515815260200191505060405180910390f35b34801561020157600080fd5b50610236600480360381019080803573ffffffffffffffffffffffffffffffffffffffff169060200190929190505050610c04565b604051808215151515815260200191505060405180910390f35b34801561025c57600080fd5b50610291600480360381019080803573ffffffffffffffffffffffffffffffffffffffff169060200190929190505050610ca7565b604051808273ffffffffffffffffffffffffffffffffffffffff1673ffffffffffffffffffffffffffffffffffffffff16815260200191505060405180910390f35b3480156102df57600080fd5b5061031e600480360381019080803573ffffffffffffffffffffffffffffffffffffffff16906020019092919080359060200190929190505050610feb565b604051808273ffffffffffffffffffffffffffffffffffffffff1673ffffffffffffffffffffffffffffffffffffffff16815260200191505060405180910390f35b34801561036c57600080fd5b5061040d600480360381019080803590602001908201803590602001908080601f0160208091040260200160405190810160405280939291908181526020018383808284378201915050505050509192919290803590602001908201803590602001908080601f0160208091040260200160405190810160405280939291908181526020018383808284378201915050505050509192919290505050611038565b604051808273ffffffffffffffffffffffffffffffffffffffff1673ffffffffffffffffffffffffffffffffffffffff16815260200191505060405180910390f35b34801561045b57600080fd5b50610490600480360381019080803573ffffffffffffffffffffffffffffffffffffffff16906020019092919050505061172d565b6040518080602001828103825283818151815260200191508051906020019060200280838360005b838110156104d35780820151818401526020810190506104b8565b505050509050019250505060405180910390f35b3480156104f357600080fd5b506104fc6117fa565b6040518080602001828103825283818151815260200191508051906020019060200280838360005b8381101561053f578082015181840152602081019050610524565b505050509050019250505060405180910390f35b60018181548110151561056257fe5b906000526020600020016000915054906101000a900473ffffffffffffffffffffffffffffffffffffffff1681565b60008060009054906101000a900473ffffffffffffffffffffffffffffffffffffffff1673ffffffffffffffffffffffffffffffffffffffff163373ffffffffffffffffffffffffffffffffffffffff1614151561067d576040517f08c379a00000000000000000000000000000000000000000000000000000000081526004018080602001828103825260328152602001807f4f6e6c792053757065722041646d696e6973747261746f722063616e20696e7681526020017f6f6b6520746869732066756e6374696f6e2e000000000000000000000000000081525060400191505060405180910390fd5b610685611888565b9050801515610748576040517f08c379a00000000000000000000000000000000000000000000000000000000081526004018080602001828103825260438152602001807f596f7520646f206e6f742068617665207468652073756666696369656e74206381526020017f6f6e73656e73757320746f20636c6f736520746865206d61726b657420706c6181526020017f636521000000000000000000000000000000000000000000000000000000000081525060600191505060405180910390fd5b6000809054906101000a900473ffffffffffffffffffffffffffffffffffffffff1673ffffffffffffffffffffffffffffffffffffffff16ff5b60028181548110151561079157fe5b906000526020600020016000915054906101000a900473ffffffffffffffffffffffffffffffffffffffff1681565b600073__Utils_________________________________63cd817f4b6001336040518363ffffffff167c010000000000000000000000000000000000000000000000000000000002815260040180806020018373ffffffffffffffffffffffffffffffffffffffff1673ffffffffffffffffffffffffffffffffffffffff16815260200182810382528481815481526020019150805480156108b757602002820191906000526020600020905b8160009054906101000a900473ffffffffffffffffffffffffffffffffffffffff1673ffffffffffffffffffffffffffffffffffffffff168152602001906001019080831161086d575b5050935050505060206040518083038186803b1580156108d657600080fd5b505af41580156108ea573d6000803e3d6000fd5b505050506040513d602081101561090057600080fd5b810190808051906020019092919050505015156109ab576040517f08c379a000000000000000000000000000000000000000000000000000000000815260040180806020018281038252602f8152602001807f4f6e6c7920616e2041646d696e6973747261746f722063616e20696e766f6b6581526020017f20746869732066756e6374696f6e2e000000000000000000000000000000000081525060400191505060405180910390fd5b73__Utils_________________________________63cd817f4b6002846040518363ffffffff167c010000000000000000000000000000000000000000000000000000000002815260040180806020018373ffffffffffffffffffffffffffffffffffffffff1673ffffffffffffffffffffffffffffffffffffffff1681526020018281038252848181548152602001915080548015610aa057602002820191906000526020600020905b8160009054906101000a900473ffffffffffffffffffffffffffffffffffffffff1673ffffffffffffffffffffffffffffffffffffffff1681526020019060010190808311610a56575b5050935050505060206040518083038186803b158015610abf57600080fd5b505af4158015610ad3573d6000803e3d6000fd5b505050506040513d6020811015610ae957600080fd5b8101908080519060200190929190505050151515610b95576040517f08c379a00000000000000000000000000000000000000000000000000000000081526004018080602001828103825260348152602001807f5468652073746f7265206f776e65722077697468207468652073616d6520616481526020017f647265737320616c72656164792065786973742100000000000000000000000081525060400191505060405180910390fd5b60028290806001815401808255809150509060018203906000526020600020016000909192909190916101000a81548173ffffffffffffffffffffffffffffffffffffffff021916908373ffffffffffffffffffffffffffffffffffffffff1602179055505060019050919050565b600080600090505b600180549050811015610c9c578273ffffffffffffffffffffffffffffffffffffffff16600182815481101515610c3f57fe5b9060005260206000200160009054906101000a900473ffffffffffffffffffffffffffffffffffffffff1673ffffffffffffffffffffffffffffffffffffffff161415610c8f5760019150610ca1565b8080600101915050610c0c565b600091505b50919050565b60008060009054906101000a900473ffffffffffffffffffffffffffffffffffffffff1673ffffffffffffffffffffffffffffffffffffffff163373ffffffffffffffffffffffffffffffffffffffff16141515610d93576040517f08c379a00000000000000000000000000000000000000000000000000000000081526004018080602001828103825260328152602001807f4f6e6c792053757065722041646d696e6973747261746f722063616e20696e7681526020017f6f6b6520746869732066756e6374696f6e2e000000000000000000000000000081525060400191505060405180910390fd5b73__Utils_________________________________63cd817f4b6001846040518363ffffffff167c010000000000000000000000000000000000000000000000000000000002815260040180806020018373ffffffffffffffffffffffffffffffffffffffff1673ffffffffffffffffffffffffffffffffffffffff1681526020018281038252848181548152602001915080548015610e8857602002820191906000526020600020905b8160009054906101000a900473ffffffffffffffffffffffffffffffffffffffff1673ffffffffffffffffffffffffffffffffffffffff1681526020019060010190808311610e3e575b5050935050505060206040518083038186803b158015610ea757600080fd5b505af4158015610ebb573d6000803e3d6000fd5b505050506040513d6020811015610ed157600080fd5b8101908080519060200190929190505050151515610f7d576040517f08c379a000000000000000000000000000000000000000000000000000000000815260040180806020018281038252602a8152602001807f546865206164647265737320697320616c726561647920696e2074686520416481526020017f6d696e2067726f7570210000000000000000000000000000000000000000000081525060400191505060405180910390fd5b60018290806001815401808255809150509060018203906000526020600020016000909192909190916101000a81548173ffffffffffffffffffffffffffffffffffffffff021916908373ffffffffffffffffffffffffffffffffffffffff16021790555050819050919050565b60046020528160005260406000208181548110151561100657fe5b906000526020600020016000915091509054906101000a900473ffffffffffffffffffffffffffffffffffffffff1681565b60008073__Utils_________________________________63cd817f4b6002336040518363ffffffff167c010000000000000000000000000000000000000000000000000000000002815260040180806020018373ffffffffffffffffffffffffffffffffffffffff1673ffffffffffffffffffffffffffffffffffffffff168152602001828103825284818154815260200191508054801561113057602002820191906000526020600020905b8160009054906101000a900473ffffffffffffffffffffffffffffffffffffffff1673ffffffffffffffffffffffffffffffffffffffff16815260200190600101908083116110e6575b5050935050505060206040518083038186803b15801561114f57600080fd5b505af4158015611163573d6000803e3d6000fd5b505050506040513d602081101561117957600080fd5b81019080805190602001909291905050501515611224576040517f08c379a000000000000000000000000000000000000000000000000000000000815260040180806020018281038252602f8152602001807f4f6e6c7920616e2041646d696e6973747261746f722063616e20696e766f6b6581526020017f20746869732066756e6374696f6e2e000000000000000000000000000000000081525060400191505060405180910390fd5b600460003373ffffffffffffffffffffffffffffffffffffffff1673ffffffffffffffffffffffffffffffffffffffff16815260200190815260200160002080549050905060008114156112c4576001600460003373ffffffffffffffffffffffffffffffffffffffff1673ffffffffffffffffffffffffffffffffffffffff168152602001908152602001600020816112be9190611890565b50611314565b60018101600460003373ffffffffffffffffffffffffffffffffffffffff1673ffffffffffffffffffffffffffffffffffffffff168152602001908152602001600020816113129190611890565b505b83836003546113216118bc565b808060200180602001848152602001838103835286818151815260200191508051906020019080838360005b8381101561136857808201518184015260208101905061134d565b50505050905090810190601f1680156113955780820380516001836020036101000a031916815260200191505b50838103825285818151815260200191508051906020019080838360005b838110156113ce5780820151818401526020810190506113b3565b50505050905090810190601f1680156113fb5780820380516001836020036101000a031916815260200191505b5095505050505050604051809103906000f08015801561141f573d6000803e3d6000fd5b50600460003373ffffffffffffffffffffffffffffffffffffffff1673ffffffffffffffffffffffffffffffffffffffff1681526020019081526020016000208281548110151561146c57fe5b9060005260206000200160006101000a81548173ffffffffffffffffffffffffffffffffffffffff021916908373ffffffffffffffffffffffffffffffffffffffff1602179055506003600081548092919060010191905055507fe75f8bd502ee84b678cb9ed4707b4516128def5e073e6d86f35b43a25c4b40d7848433600460003373ffffffffffffffffffffffffffffffffffffffff1673ffffffffffffffffffffffffffffffffffffffff1681526020019081526020016000208581548110151561153657fe5b9060005260206000200160009054906101000a900473ffffffffffffffffffffffffffffffffffffffff166040518080602001806020018573ffffffffffffffffffffffffffffffffffffffff1673ffffffffffffffffffffffffffffffffffffffff1681526020018473ffffffffffffffffffffffffffffffffffffffff1673ffffffffffffffffffffffffffffffffffffffff168152602001838103835287818151815260200191508051906020019080838360005b838110156116095780820151818401526020810190506115ee565b50505050905090810190601f1680156116365780820380516001836020036101000a031916815260200191505b50838103825286818151815260200191508051906020019080838360005b8381101561166f578082015181840152602081019050611654565b50505050905090810190601f16801561169c5780820380516001836020036101000a031916815260200191505b50965050505050505060405180910390a1600460003373ffffffffffffffffffffffffffffffffffffffff1673ffffffffffffffffffffffffffffffffffffffff168152602001908152602001600020818154811015156116f957fe5b9060005260206000200160009054906101000a900473ffffffffffffffffffffffffffffffffffffffff1691505092915050565b6060600460008373ffffffffffffffffffffffffffffffffffffffff1673ffffffffffffffffffffffffffffffffffffffff1681526020019081526020016000208054806020026020016040519081016040528092919081815260200182805480156117ee57602002820191906000526020600020905b8160009054906101000a900473ffffffffffffffffffffffffffffffffffffffff1673ffffffffffffffffffffffffffffffffffffffff16815260200190600101908083116117a4575b50505050509050919050565b6060600280548060200260200160405190810160405280929190818152602001828054801561187e57602002820191906000526020600020905b8160009054906101000a900473ffffffffffffffffffffffffffffffffffffffff1673ffffffffffffffffffffffffffffffffffffffff1681526020019060010190808311611834575b5050505050905090565b600080905090565b8154818355818111156118b7578183600052602060002091820191016118b691906118cc565b5b505050565b604051611e9b806118f283390190565b6118ee91905b808211156118ea5760008160009055506001016118d2565b5090565b90560060806040523480156200001157600080fd5b5060405162001e9b38038062001e9b833981018060405281019080805182019291906020018051820192919060200180519060200190929190505050326000806101000a81548173ffffffffffffffffffffffffffffffffffffffff021916908373ffffffffffffffffffffffffffffffffffffffff1602179055508260019080519060200190620000a5929190620000d7565b50806003819055508160029080519060200190620000c5929190620000d7565b50600060048190555050505062000186565b828054600181600116156101000203166002900490600052602060002090601f016020900481019282601f106200011a57805160ff19168380011785556200014b565b828001600101855582156200014b579182015b828111156200014a5782518255916020019190600101906200012d565b5b5090506200015a91906200015e565b5090565b6200018391905b808211156200017f57600081600090555060010162000165565b5090565b90565b611d0580620001966000396000f3006080604052600436106100a4576000357c0100000000000000000000000000000000000000000000000000000000900463ffffffff1680630cee1725146100a9578063521936e6146100dd5780635287d5351461016d5780636813b53b146101a45780637284e416146102d95780637acc0b20146103695780639498be1b146104a5578063c29b2f201461057c578063de084730146105e8578063f94eb18214610612575b600080fd5b6100c7600480360381019080803590602001909291905050506106f7565b6040518082815260200191505060405180910390f35b3480156100e957600080fd5b506100f261092b565b6040518080602001828103825283818151815260200191508051906020019080838360005b83811015610132578082015181840152602081019050610117565b50505050905090810190601f16801561015f5780820380516001836020036101000a031916815260200191505b509250505060405180910390f35b34801561017957600080fd5b506101a260048036038101908080359060200190929190803590602001909291905050506109c9565b005b3480156101b057600080fd5b506101cf60048036038101908080359060200190929190505050610c21565b6040518080602001806020018681526020018581526020018460018111156101f357fe5b60ff168152602001838103835288818151815260200191508051906020019080838360005b83811015610233578082015181840152602081019050610218565b50505050905090810190601f1680156102605780820380516001836020036101000a031916815260200191505b50838103825287818151815260200191508051906020019080838360005b8381101561029957808201518184015260208101905061027e565b50505050905090810190601f1680156102c65780820380516001836020036101000a031916815260200191505b5097505050505050505060405180910390f35b3480156102e557600080fd5b506102ee610e24565b6040518080602001828103825283818151815260200191508051906020019080838360005b8381101561032e578082015181840152602081019050610313565b50505050905090810190601f16801561035b5780820380516001836020036101000a031916815260200191505b509250505060405180910390f35b34801561037557600080fd5b5061039460048036038101908080359060200190929190505050610ec2565b6040518087815260200180602001806020018681526020018581526020018460018111156103be57fe5b60ff168152602001838103835288818151815260200191508051906020019080838360005b838110156103fe5780820151818401526020810190506103e3565b50505050905090810190601f16801561042b5780820380516001836020036101000a031916815260200191505b50838103825287818151815260200191508051906020019080838360005b83811015610464578082015181840152602081019050610449565b50505050905090810190601f1680156104915780820380516001836020036101000a031916815260200191505b509850505050505050505060405180910390f35b3480156104b157600080fd5b50610566600480360381019080803590602001908201803590602001908080601f0160208091040260200160405190810160405280939291908181526020018383808284378201915050505050509192919290803590602001908201803590602001908080601f0160208091040260200160405190810160405280939291908181526020018383808284378201915050505050509192919290803590602001909291908035906020019092919050505061104a565b6040518082815260200191505060405180910390f35b34801561058857600080fd5b5061059161136c565b6040518080602001828103825283818151815260200191508051906020019060200280838360005b838110156105d45780820151818401526020810190506105b9565b505050509050019250505060405180910390f35b61061060048036038101908080359060200190929190803590602001909291905050506114ff565b005b34801561061e57600080fd5b506106dd60048036038101908080359060200190929190803590602001908201803590602001908080601f0160208091040260200160405190810160405280939291908181526020018383808284378201915050505050509192919290803590602001908201803590602001908080601f0160208091040260200160405190810160405280939291908181526020018383808284378201915050505050509192919290803590602001909291908035906020019092919050505061183d565b604051808215151515815260200191505060405180910390f35b60003373ffffffffffffffffffffffffffffffffffffffff166000809054906101000a900473ffffffffffffffffffffffffffffffffffffffff1673ffffffffffffffffffffffffffffffffffffffff161415156107e3576040517f08c379a000000000000000000000000000000000000000000000000000000000815260040180806020018281038252602c8152602001807f4f6e6c7920612073746f7265206f776e65722063616e20696e766f6b6520746881526020017f69732066756e6374696f6e21000000000000000000000000000000000000000081525060400191505060405180910390fd5b813073ffffffffffffffffffffffffffffffffffffffff1631101515156108be576040517f08c379a000000000000000000000000000000000000000000000000000000000815260040180806020018281038252604c8152602001807f5468652063757272656e742073746f72652062616c616e636520616d6f756e7481526020017f206d7573742062652067726561746572207468616e207468652077697468647281526020017f6177616c20616d6f756e7421000000000000000000000000000000000000000081525060600191505060405180910390fd5b6000809054906101000a900473ffffffffffffffffffffffffffffffffffffffff1673ffffffffffffffffffffffffffffffffffffffff166108fc839081150290604051600060405180830381858888f19350505050158015610925573d6000803e3d6000fd5b50919050565b60018054600181600116156101000203166002900480601f0160208091040260200160405190810160405280929190818152602001828054600181600116156101000203166002900480156109c15780601f10610996576101008083540402835291602001916109c1565b820191906000526020600020905b8154815290600101906020018083116109a457829003601f168201915b505050505081565b3373ffffffffffffffffffffffffffffffffffffffff166000809054906101000a900473ffffffffffffffffffffffffffffffffffffffff1673ffffffffffffffffffffffffffffffffffffffff16141515610ab3576040517f08c379a000000000000000000000000000000000000000000000000000000000815260040180806020018281038252602c8152602001807f4f6e6c7920612073746f7265206f776e65722063616e20696e766f6b6520746881526020017f69732066756e6374696f6e21000000000000000000000000000000000000000081525060400191505060405180910390fd5b60006001811115610ac057fe5b600583815481101515610acf57fe5b906000526020600020906006020160050160009054906101000a900460ff166001811115610af957fe5b141515610b94576040517f08c379a00000000000000000000000000000000000000000000000000000000081526004018080602001828103825260318152602001807f4f6e6c7920746865206163746976652070726f647563742063616e206265206d81526020017f61726b65642061732072656d6f7665642100000000000000000000000000000081525060400191505060405180910390fd5b80600583815481101515610ba457fe5b90600052602060002090600602016004015403600583815481101515610bc657fe5b9060005260206000209060060201600401819055506001600583815481101515610bec57fe5b906000526020600020906006020160050160006101000a81548160ff02191690836001811115610c1857fe5b02179055505050565b6060806000806000600586815481101515610c3857fe5b9060005260206000209060060201600101600587815481101515610c5857fe5b9060005260206000209060060201600201600588815481101515610c7857fe5b906000526020600020906006020160030154600589815481101515610c9957fe5b90600052602060002090600602016004015460058a815481101515610cba57fe5b906000526020600020906006020160050160009054906101000a900460ff16848054600181600116156101000203166002900480601f016020809104026020016040519081016040528092919081815260200182805460018160011615610100020316600290048015610d6e5780601f10610d4357610100808354040283529160200191610d6e565b820191906000526020600020905b815481529060010190602001808311610d5157829003601f168201915b50505050509450838054600181600116156101000203166002900480601f016020809104026020016040519081016040528092919081815260200182805460018160011615610100020316600290048015610e0a5780601f10610ddf57610100808354040283529160200191610e0a565b820191906000526020600020905b815481529060010190602001808311610ded57829003601f168201915b505050505093509450945094509450945091939590929450565b60028054600181600116156101000203166002900480601f016020809104026020016040519081016040528092919081815260200182805460018160011615610100020316600290048015610eba5780601f10610e8f57610100808354040283529160200191610eba565b820191906000526020600020905b815481529060010190602001808311610e9d57829003601f168201915b505050505081565b600581815481101515610ed157fe5b9060005260206000209060060201600091509050806000015490806001018054600181600116156101000203166002900480601f016020809104026020016040519081016040528092919081815260200182805460018160011615610100020316600290048015610f835780601f10610f5857610100808354040283529160200191610f83565b820191906000526020600020905b815481529060010190602001808311610f6657829003601f168201915b505050505090806002018054600181600116156101000203166002900480601f0160208091040260200160405190810160405280929190818152602001828054600181600116156101000203166002900480156110215780601f10610ff657610100808354040283529160200191611021565b820191906000526020600020905b81548152906001019060200180831161100457829003601f168201915b5050505050908060030154908060040154908060050160009054906101000a900460ff16905086565b60003373ffffffffffffffffffffffffffffffffffffffff166000809054906101000a900473ffffffffffffffffffffffffffffffffffffffff1673ffffffffffffffffffffffffffffffffffffffff16141515611136576040517f08c379a000000000000000000000000000000000000000000000000000000000815260040180806020018281038252602c8152602001807f4f6e6c7920612073746f7265206f776e65722063616e20696e766f6b6520746881526020017f69732066756e6374696f6e21000000000000000000000000000000000000000081525060400191505060405180910390fd5b600160058181805490500191508161114e9190611acf565b5060c06040519081016040528060045481526020018681526020018581526020018481526020018381526020016000600181111561118857fe5b815250600560045481548110151561119c57fe5b90600052602060002090600602016000820151816000015560208201518160010190805190602001906111d0929190611b01565b5060408201518160020190805190602001906111ed929190611b01565b50606082015181600301556080820151816004015560a08201518160050160006101000a81548160ff0219169083600181111561122657fe5b02179055509050507fc86b920148e151a78e4a627284a763302c966579a89be8494ba9562ac1f61b7b60045486868686604051808681526020018060200180602001858152602001848152602001838103835287818151815260200191508051906020019080838360005b838110156112ac578082015181840152602081019050611291565b50505050905090810190601f1680156112d95780820380516001836020036101000a031916815260200191505b50838103825286818151815260200191508051906020019080838360005b838110156113125780820151818401526020810190506112f7565b50505050905090810190601f16801561133f5780820380516001836020036101000a031916815260200191505b5097505050505050505060405180910390a160046000815480929190600101919050559050949350505050565b606060008060606000809350600092505b6005805490508360ff1610156113f2576000600181111561139a57fe5b60058460ff168154811015156113ac57fe5b906000526020600020906006020160050160009054906101000a900460ff1660018111156113d657fe5b14156113e55783806001019450505b828060010193505061137d565b8360ff166040519080825280602002602001820160405280156114245781602001602082028038833980820191505090505b50915060008460ff1611156114f55760009050600092505b6005805490508360ff1610156114f4576000600181111561145957fe5b60058460ff1681548110151561146b57fe5b906000526020600020906006020160050160009054906101000a900460ff16600181111561149557fe5b14156114e75760058360ff168154811015156114ad57fe5b906000526020600020906006020160000154828260ff168151811015156114d057fe5b906020019060200201818152505080806001019150505b828060010193505061143c565b5b8194505050505090565b6000600181111561150c57fe5b60058381548110151561151b57fe5b906000526020600020906006020160050160009054906101000a900460ff16600181111561154557fe5b1415156115e0576040517f08c379a00000000000000000000000000000000000000000000000000000000081526004018080602001828103825260268152602001807f4f6e6c7920746865206163746976652070726f647563742063616e206265206281526020017f6f7567687421000000000000000000000000000000000000000000000000000081525060400191505060405180910390fd5b3373ffffffffffffffffffffffffffffffffffffffff166000809054906101000a900473ffffffffffffffffffffffffffffffffffffffff1673ffffffffffffffffffffffffffffffffffffffff16141515156116cb576040517f08c379a00000000000000000000000000000000000000000000000000000000081526004018080602001828103825260258152602001807f546865206f776e65722063616e6e6f742062757920697473206f776e2070726f81526020017f647563742100000000000000000000000000000000000000000000000000000081525060400191505060405180910390fd5b6005828154811015156116da57fe5b9060005260206000209060060201600401548111151515611789576040517f08c379a000000000000000000000000000000000000000000000000000000000815260040180806020018281038252603a8152602001807f5468652073746f726520646f6573206e6f74206861766520737566666963696581526020017f6e74207175616e74697479206f66207468652070726f6475637400000000000081525060400191505060405180910390fd5b8060058381548110151561179957fe5b906000526020600020906006020160040154036005838154811015156117bb57fe5b9060005260206000209060060201600401819055503073ffffffffffffffffffffffffffffffffffffffff166108fc6005848154811015156117f957fe5b90600052602060002090600602016003015483029081150290604051600060405180830381858888f19350505050158015611838573d6000803e3d6000fd5b505050565b60003373ffffffffffffffffffffffffffffffffffffffff166000809054906101000a900473ffffffffffffffffffffffffffffffffffffffff1673ffffffffffffffffffffffffffffffffffffffff16141515611929576040517f08c379a000000000000000000000000000000000000000000000000000000000815260040180806020018281038252602c8152602001807f4f6e6c7920612073746f7265206f776e65722063616e20696e766f6b6520746881526020017f69732066756e6374696f6e21000000000000000000000000000000000000000081525060400191505060405180910390fd5b600060058781548110151561193a57fe5b90600052602060002090600602016000015414151515611a0e576040517f08c379a00000000000000000000000000000000000000000000000000000000081526004018080602001828103825260498152602001807f50726f6475637420666f722074686520676976656e2073746f7265206964206181526020017f6e642070726f6475637420696420636f6d62696e6174696f6e20646f6573206e81526020017f6f7420657869737421000000000000000000000000000000000000000000000081525060600191505060405180910390fd5b84600587815481101515611a1e57fe5b90600052602060002090600602016001019080519060200190611a42929190611b81565b5083600587815481101515611a5357fe5b90600052602060002090600602016002019080519060200190611a77929190611b81565b5082600587815481101515611a8857fe5b90600052602060002090600602016003018190555081600587815481101515611aad57fe5b9060005260206000209060060201600401819055506001905095945050505050565b815481835581811115611afc57600602816006028360005260206000209182019101611afb9190611c01565b5b505050565b828054600181600116156101000203166002900490600052602060002090601f016020900481019282601f10611b4257805160ff1916838001178555611b70565b82800160010185558215611b70579182015b82811115611b6f578251825591602001919060010190611b54565b5b509050611b7d9190611c6c565b5090565b828054600181600116156101000203166002900490600052602060002090601f016020900481019282601f10611bc257805160ff1916838001178555611bf0565b82800160010185558215611bf0579182015b82811115611bef578251825591602001919060010190611bd4565b5b509050611bfd9190611c6c565b5090565b611c6991905b80821115611c6557600080820160009055600182016000611c289190611c91565b600282016000611c389190611c91565b600382016000905560048201600090556005820160006101000a81549060ff021916905550600601611c07565b5090565b90565b611c8e91905b80821115611c8a576000816000905550600101611c72565b5090565b90565b50805460018160011615610100020316600290046000825580601f10611cb75750611cd6565b601f016020900490600052602060002090810190611cd59190611c6c565b5b505600a165627a7a72305820832cefebe5bf61124d2e445dd111e6f0f5bfa12de7e60095869346e5484f76c80029a165627a7a7230582006385b7c11d019f18e3db420bde21d614be164754c409f51c764e9561550ac010029",
  "source": "pragma solidity ^0.4.22;\n\nimport \"./Store.sol\";\nimport \"./library/Utils.sol\";\n\n/**\n * There are a list of stores on a central marketplace where shoppers can purchase goods posted by the store owners.\n * The central marketplace is managed by a group of administrators. Admins allow store owners to add stores\n * to the marketplace. Store owners can manage their stores inventory and funds. Shoppers can visit stores and purchase\n * goods that are in stock using cryptocurrency.\n *\n */\n\ncontract MarketPlace {\n    address superAdmin;\n    address[] public adminUsers;\n    address[] public storeOwners;\n    uint private nextStoreId;\n\n    // mapping of stores of a given store owner\n    mapping (address => address[]) public storeFrontMap;\n\n    /**\n     * Initialize state variables, specifically, the Super Administrator!\n     * Also, add that address in the Admin list.\n     */\n    constructor() public {\n        superAdmin = msg.sender;\n        adminUsers.push(msg.sender);\n        nextStoreId = 1;\n    }\n\n    event NewStore (\n      string storeName,\n      string storeDescription,\n      address storeOwner,\n      address storeAddress\n    );\n\n    /**\n     * Only SuperAdmin shall be able to create an Admin user\n    */\n    modifier onlySuperAdmin {\n        require( msg.sender == superAdmin, \"Only Super Administrator can invoke this function.\");\n        _;\n    }\n\n    /**\n     * Only Admin shall be allowed to create a store\n    */\n    modifier onlyAdmin {\n        require( Utils.existInTheArray(adminUsers, msg.sender), \"Only an Administrator can invoke this function.\");\n        _;\n    }\n\n    /**\n     * Only store owners shall be allowed to add stores.\n     *\n    */\n    modifier onlyStoreOwner {\n        require( Utils.existInTheArray(storeOwners, msg.sender), \"Only an Administrator can invoke this function.\");\n        _;\n    }\n\n    /**\n     * A super administrator can create one or more administrator, who will have same access, except that\n     * they cannot create another administrator\n     */\n    function createAdminUser(address newAdminUser) public onlySuperAdmin returns(address){\n        require(!Utils.existInTheArray(adminUsers, newAdminUser), \"The address is already in the Admin group!\");\n\n        adminUsers.push(newAdminUser);\n\n        return newAdminUser;\n    }\n\n    /**\n    * This function verifies if an address has an admin access or not.\n    */\n    function checkAdmingAccess(address addressToVerify) view public returns(bool) {\n      for (uint index = 0; index <adminUsers.length; index++) {\n        if (adminUsers[index] == addressToVerify) {\n          return true;\n        }\n      }\n\n      return false;\n    }\n\n    /**\n     * Any Admin shall be able to add a store owner.\n     * Of course, we need to make sure that a given address is added only once.\n    */\n    function createStoreOwner(address newStoreOwnerAddress) public onlyAdmin returns(bool){\n        require( !Utils.existInTheArray(storeOwners, newStoreOwnerAddress), \"The store owner with the same address already exist!\");\n\n        storeOwners.push(newStoreOwnerAddress);\n\n        return true;\n    }\n\n    /**\n    * This function shall return all the store owners address in the market place\n    */\n    function getStoreOwners() public view returns(address[]) {\n      return storeOwners;\n    }\n\n    /**\n     * A store owner shall be able to create one or more stores.\n     * The created store will be associated with the store owner using storeFrontMap, where the store owner's\n     * address is a key and the value is a map of storeId and Store.\n     *\n    */\n    function createStoreFront( string storeName, string storeDescription ) public onlyStoreOwner returns(address){\n        uint storeCount = storeFrontMap[msg.sender].length;\n\n        if (storeCount == 0) {\n          storeFrontMap[msg.sender].length = 1;\n        } else {\n          storeFrontMap[msg.sender].length = storeCount + 1;\n        }\n\n        storeFrontMap[msg.sender][storeCount] = address(new Store( storeName, storeDescription, nextStoreId ));\n        nextStoreId++;\n\n        emit NewStore(\n                storeName,\n                storeDescription,\n                msg.sender,\n                storeFrontMap[msg.sender][storeCount] );\n\n        return storeFrontMap[msg.sender][storeCount];\n    }\n\n    /**\n     * this function will be used for retriving all the stores of a given store owner\n     *\n     */\n    function getStores(address storeOwnerAddress) public view returns(address[]) {\n        return storeFrontMap[storeOwnerAddress];\n    }\n\n\n    /**\n     * The market place can be destructed by only the super admin, that too when we have at least 75% of the store owners\n     * agreeing to this decision.\n    */\n    function closeMarketPlace() public onlySuperAdmin {\n        bool haveConsentOfStoreOwners = getConsentForClosure();\n\n        require(haveConsentOfStoreOwners, \"You do not have the sufficient consensus to close the market place!\");\n\n        selfdestruct(superAdmin);\n    }\n\n    /**\n     * In case we want to allow the closure of the Market Place then implement this function\n     * with proper logic.\n    */\n    function getConsentForClosure() private pure returns(bool) {\n        return false;\n    }\n}\n",
  "sourcePath": "/Users/alokranjan/blockchain/ethereum/consensys/marketplace/contracts/MarketPlace.sol",
  "compiler": {
    "name": "solc",
    "version": "0.4.24+commit.e67f0147.Emscripten.clang"
  },
  "schemaVersion": "2.0.1",
  "updatedAt": "2018-08-12T11:48:57.555Z"
}