{
  "contractName": "MarketPlace",
  "abi": [
    {
      "constant": true,
      "inputs": [
        {
          "name": "",
          "type": "uint256"
        }
      ],
      "name": "adminUsers",
      "outputs": [
        {
          "name": "",
          "type": "address"
        }
      ],
      "payable": false,
      "stateMutability": "view",
      "type": "function"
    },
    {
      "constant": true,
      "inputs": [
        {
          "name": "",
          "type": "uint256"
        }
      ],
      "name": "storeOwners",
      "outputs": [
        {
          "name": "",
          "type": "address"
        }
      ],
      "payable": false,
      "stateMutability": "view",
      "type": "function"
    },
    {
      "constant": true,
      "inputs": [
        {
          "name": "",
          "type": "address"
        },
        {
          "name": "",
          "type": "uint256"
        }
      ],
      "name": "storeFrontMap",
      "outputs": [
        {
          "name": "",
          "type": "address"
        }
      ],
      "payable": false,
      "stateMutability": "view",
      "type": "function"
    },
    {
      "inputs": [],
      "payable": false,
      "stateMutability": "nonpayable",
      "type": "constructor"
    },
    {
      "constant": false,
      "inputs": [
        {
          "name": "newAdminUser",
          "type": "address"
        }
      ],
      "name": "createAdminUser",
      "outputs": [
        {
          "name": "",
          "type": "address"
        }
      ],
      "payable": false,
      "stateMutability": "nonpayable",
      "type": "function"
    },
    {
      "constant": true,
      "inputs": [
        {
          "name": "addressToVerify",
          "type": "address"
        }
      ],
      "name": "checkAdmingAccess",
      "outputs": [
        {
          "name": "",
          "type": "bool"
        }
      ],
      "payable": false,
      "stateMutability": "view",
      "type": "function"
    },
    {
      "constant": false,
      "inputs": [
        {
          "name": "newStoreOwnerAddress",
          "type": "address"
        }
      ],
      "name": "createStoreOwner",
      "outputs": [
        {
          "name": "",
          "type": "bool"
        }
      ],
      "payable": false,
      "stateMutability": "nonpayable",
      "type": "function"
    },
    {
      "constant": false,
      "inputs": [
        {
          "name": "storeName",
          "type": "string"
        },
        {
          "name": "storeDescription",
          "type": "string"
        }
      ],
      "name": "createStoreFront",
      "outputs": [
        {
          "name": "",
          "type": "uint256"
        }
      ],
      "payable": false,
      "stateMutability": "nonpayable",
      "type": "function"
    },
    {
      "constant": true,
      "inputs": [
        {
          "name": "storeOwnerAddress",
          "type": "address"
        }
      ],
      "name": "getStores",
      "outputs": [
        {
          "name": "",
          "type": "address[]"
        }
      ],
      "payable": false,
      "stateMutability": "view",
      "type": "function"
    },
    {
      "constant": false,
      "inputs": [],
      "name": "closeMarketPlace",
      "outputs": [],
      "payable": false,
      "stateMutability": "nonpayable",
      "type": "function"
    }
  ],
  "bytecode": "0x608060405234801561001057600080fd5b50336000806101000a81548173ffffffffffffffffffffffffffffffffffffffff021916908373ffffffffffffffffffffffffffffffffffffffff16021790555060013390806001815401808255809150509060018203906000526020600020016000909192909190916101000a81548173ffffffffffffffffffffffffffffffffffffffff021916908373ffffffffffffffffffffffffffffffffffffffff1602179055505060016003819055506125a9806100ce6000396000f300608060405260043610610099576000357c0100000000000000000000000000000000000000000000000000000000900463ffffffff1680631fa9acf11461009e57806329cbf2e91461010b57806344d50993146101225780634baa0f5e1461018f57806360538ba8146101ea57806361878fc41461024557806373a296ba146102c857806375b9960e1461035557806375dae8a614610418575b600080fd5b3480156100aa57600080fd5b506100c9600480360381019080803590602001909291905050506104b0565b604051808273ffffffffffffffffffffffffffffffffffffffff1673ffffffffffffffffffffffffffffffffffffffff16815260200191505060405180910390f35b34801561011757600080fd5b506101206104ee565b005b34801561012e57600080fd5b5061014d600480360381019080803590602001909291905050506106df565b604051808273ffffffffffffffffffffffffffffffffffffffff1673ffffffffffffffffffffffffffffffffffffffff16815260200191505060405180910390f35b34801561019b57600080fd5b506101d0600480360381019080803573ffffffffffffffffffffffffffffffffffffffff16906020019092919050505061071d565b604051808215151515815260200191505060405180910390f35b3480156101f657600080fd5b5061022b600480360381019080803573ffffffffffffffffffffffffffffffffffffffff169060200190929190505050610b61565b604051808215151515815260200191505060405180910390f35b34801561025157600080fd5b50610286600480360381019080803573ffffffffffffffffffffffffffffffffffffffff169060200190929190505050610c04565b604051808273ffffffffffffffffffffffffffffffffffffffff1673ffffffffffffffffffffffffffffffffffffffff16815260200191505060405180910390f35b3480156102d457600080fd5b50610313600480360381019080803573ffffffffffffffffffffffffffffffffffffffff16906020019092919080359060200190929190505050610f48565b604051808273ffffffffffffffffffffffffffffffffffffffff1673ffffffffffffffffffffffffffffffffffffffff16815260200191505060405180910390f35b34801561036157600080fd5b50610402600480360381019080803590602001908201803590602001908080601f0160208091040260200160405190810160405280939291908181526020018383808284378201915050505050509192919290803590602001908201803590602001908080601f0160208091040260200160405190810160405280939291908181526020018383808284378201915050505050509192919290505050610f95565b6040518082815260200191505060405180910390f35b34801561042457600080fd5b50610459600480360381019080803573ffffffffffffffffffffffffffffffffffffffff169060200190929190505050611342565b6040518080602001828103825283818151815260200191508051906020019060200280838360005b8381101561049c578082015181840152602081019050610481565b505050509050019250505060405180910390f35b6001818154811015156104bf57fe5b906000526020600020016000915054906101000a900473ffffffffffffffffffffffffffffffffffffffff1681565b60008060009054906101000a900473ffffffffffffffffffffffffffffffffffffffff1673ffffffffffffffffffffffffffffffffffffffff163373ffffffffffffffffffffffffffffffffffffffff161415156105da576040517f08c379a00000000000000000000000000000000000000000000000000000000081526004018080602001828103825260328152602001807f4f6e6c792053757065722041646d696e6973747261746f722063616e20696e7681526020017f6f6b6520746869732066756e6374696f6e2e000000000000000000000000000081525060400191505060405180910390fd5b6105e261140f565b90508015156106a5576040517f08c379a00000000000000000000000000000000000000000000000000000000081526004018080602001828103825260438152602001807f596f7520646f206e6f742068617665207468652073756666696369656e74206381526020017f6f6e73656e73757320746f20636c6f736520746865206d61726b657420706c6181526020017f636521000000000000000000000000000000000000000000000000000000000081525060600191505060405180910390fd5b6000809054906101000a900473ffffffffffffffffffffffffffffffffffffffff1673ffffffffffffffffffffffffffffffffffffffff16ff5b6002818154811015156106ee57fe5b906000526020600020016000915054906101000a900473ffffffffffffffffffffffffffffffffffffffff1681565b600073__Utils_________________________________63cd817f4b6001336040518363ffffffff167c010000000000000000000000000000000000000000000000000000000002815260040180806020018373ffffffffffffffffffffffffffffffffffffffff1673ffffffffffffffffffffffffffffffffffffffff168152602001828103825284818154815260200191508054801561081457602002820191906000526020600020905b8160009054906101000a900473ffffffffffffffffffffffffffffffffffffffff1673ffffffffffffffffffffffffffffffffffffffff16815260200190600101908083116107ca575b5050935050505060206040518083038186803b15801561083357600080fd5b505af4158015610847573d6000803e3d6000fd5b505050506040513d602081101561085d57600080fd5b81019080805190602001909291905050501515610908576040517f08c379a000000000000000000000000000000000000000000000000000000000815260040180806020018281038252602f8152602001807f4f6e6c7920616e2041646d696e6973747261746f722063616e20696e766f6b6581526020017f20746869732066756e6374696f6e2e000000000000000000000000000000000081525060400191505060405180910390fd5b73__Utils_________________________________63cd817f4b6002846040518363ffffffff167c010000000000000000000000000000000000000000000000000000000002815260040180806020018373ffffffffffffffffffffffffffffffffffffffff1673ffffffffffffffffffffffffffffffffffffffff16815260200182810382528481815481526020019150805480156109fd57602002820191906000526020600020905b8160009054906101000a900473ffffffffffffffffffffffffffffffffffffffff1673ffffffffffffffffffffffffffffffffffffffff16815260200190600101908083116109b3575b5050935050505060206040518083038186803b158015610a1c57600080fd5b505af4158015610a30573d6000803e3d6000fd5b505050506040513d6020811015610a4657600080fd5b8101908080519060200190929190505050151515610af2576040517f08c379a00000000000000000000000000000000000000000000000000000000081526004018080602001828103825260348152602001807f5468652073746f7265206f776e65722077697468207468652073616d6520616481526020017f647265737320616c72656164792065786973742100000000000000000000000081525060400191505060405180910390fd5b60028290806001815401808255809150509060018203906000526020600020016000909192909190916101000a81548173ffffffffffffffffffffffffffffffffffffffff021916908373ffffffffffffffffffffffffffffffffffffffff1602179055505060019050919050565b600080600090505b600180549050811015610bf9578273ffffffffffffffffffffffffffffffffffffffff16600182815481101515610b9c57fe5b9060005260206000200160009054906101000a900473ffffffffffffffffffffffffffffffffffffffff1673ffffffffffffffffffffffffffffffffffffffff161415610bec5760019150610bfe565b8080600101915050610b69565b600091505b50919050565b60008060009054906101000a900473ffffffffffffffffffffffffffffffffffffffff1673ffffffffffffffffffffffffffffffffffffffff163373ffffffffffffffffffffffffffffffffffffffff16141515610cf0576040517f08c379a00000000000000000000000000000000000000000000000000000000081526004018080602001828103825260328152602001807f4f6e6c792053757065722041646d696e6973747261746f722063616e20696e7681526020017f6f6b6520746869732066756e6374696f6e2e000000000000000000000000000081525060400191505060405180910390fd5b73__Utils_________________________________63cd817f4b6001846040518363ffffffff167c010000000000000000000000000000000000000000000000000000000002815260040180806020018373ffffffffffffffffffffffffffffffffffffffff1673ffffffffffffffffffffffffffffffffffffffff1681526020018281038252848181548152602001915080548015610de557602002820191906000526020600020905b8160009054906101000a900473ffffffffffffffffffffffffffffffffffffffff1673ffffffffffffffffffffffffffffffffffffffff1681526020019060010190808311610d9b575b5050935050505060206040518083038186803b158015610e0457600080fd5b505af4158015610e18573d6000803e3d6000fd5b505050506040513d6020811015610e2e57600080fd5b8101908080519060200190929190505050151515610eda576040517f08c379a000000000000000000000000000000000000000000000000000000000815260040180806020018281038252602a8152602001807f546865206164647265737320697320616c726561647920696e2074686520416481526020017f6d696e2067726f7570210000000000000000000000000000000000000000000081525060400191505060405180910390fd5b60018290806001815401808255809150509060018203906000526020600020016000909192909190916101000a81548173ffffffffffffffffffffffffffffffffffffffff021916908373ffffffffffffffffffffffffffffffffffffffff16021790555050819050919050565b600460205281600052604060002081815481101515610f6357fe5b906000526020600020016000915091509054906101000a900473ffffffffffffffffffffffffffffffffffffffff1681565b60008073__Utils_________________________________63cd817f4b6002336040518363ffffffff167c010000000000000000000000000000000000000000000000000000000002815260040180806020018373ffffffffffffffffffffffffffffffffffffffff1673ffffffffffffffffffffffffffffffffffffffff168152602001828103825284818154815260200191508054801561108d57602002820191906000526020600020905b8160009054906101000a900473ffffffffffffffffffffffffffffffffffffffff1673ffffffffffffffffffffffffffffffffffffffff1681526020019060010190808311611043575b5050935050505060206040518083038186803b1580156110ac57600080fd5b505af41580156110c0573d6000803e3d6000fd5b505050506040513d60208110156110d657600080fd5b81019080805190602001909291905050501515611181576040517f08c379a000000000000000000000000000000000000000000000000000000000815260040180806020018281038252602f8152602001807f4f6e6c7920616e2041646d696e6973747261746f722063616e20696e766f6b6581526020017f20746869732066756e6374696f6e2e000000000000000000000000000000000081525060400191505060405180910390fd5b600460003373ffffffffffffffffffffffffffffffffffffffff1673ffffffffffffffffffffffffffffffffffffffff168152602001908152602001600020905083836003546111cf611417565b808060200180602001848152602001838103835286818151815260200191508051906020019080838360005b838110156112165780820151818401526020810190506111fb565b50505050905090810190601f1680156112435780820380516001836020036101000a031916815260200191505b50838103825285818151815260200191508051906020019080838360005b8381101561127c578082015181840152602081019050611261565b50505050905090810190601f1680156112a95780820380516001836020036101000a031916815260200191505b5095505050505050604051809103906000f0801580156112cd573d6000803e3d6000fd5b508182805490508154811015156112e057fe5b9060005260206000200160006101000a81548173ffffffffffffffffffffffffffffffffffffffff021916908373ffffffffffffffffffffffffffffffffffffffff160217905550600360008154809291906001019190505591505092915050565b6060600460008373ffffffffffffffffffffffffffffffffffffffff1673ffffffffffffffffffffffffffffffffffffffff16815260200190815260200160002080548060200260200160405190810160405280929190818152602001828054801561140357602002820191906000526020600020905b8160009054906101000a900473ffffffffffffffffffffffffffffffffffffffff1673ffffffffffffffffffffffffffffffffffffffff16815260200190600101908083116113b9575b50505050509050919050565b600080905090565b6040516111568061142883390190560060806040523480156200001157600080fd5b506040516200115638038062001156833981018060405281019080805182019291906020018051820192919060200180519060200190929190505050336000806101000a81548173ffffffffffffffffffffffffffffffffffffffff021916908373ffffffffffffffffffffffffffffffffffffffff1602179055508260019080519060200190620000a5929190620000d7565b50806003819055508160029080519060200190620000c5929190620000d7565b50600160048190555050505062000186565b828054600181600116156101000203166002900490600052602060002090601f016020900481019282601f106200011a57805160ff19168380011785556200014b565b828001600101855582156200014b579182015b828111156200014a5782518255916020019190600101906200012d565b5b5090506200015a91906200015e565b5090565b6200018391905b808211156200017f57600081600090555060010162000165565b5090565b90565b610fc080620001966000396000f30060806040526004361061006d576000357c0100000000000000000000000000000000000000000000000000000000900463ffffffff1680630cee1725146100725780635287d535146100a65780639498be1b146100dd578063de084730146101b4578063f94eb182146101de575b600080fd5b610090600480360381019080803590602001909291905050506102c3565b6040518082815260200191505060405180910390f35b3480156100b257600080fd5b506100db60048036038101908080359060200190929190803590602001909291905050506104f7565b005b3480156100e957600080fd5b5061019e600480360381019080803590602001908201803590602001908080601f0160208091040260200160405190810160405280939291908181526020018383808284378201915050505050509192919290803590602001908201803590602001908080601f01602080910402602001604051908101604052809392919081815260200183838082843782019150505050505091929192908035906020019092919080359060200190929190505050610727565b6040518082815260200191505060405180910390f35b6101dc6004803603810190808035906020019092919080359060200190929190505050610903565b005b3480156101ea57600080fd5b506102a960048036038101908080359060200190929190803590602001908201803590602001908080601f0160208091040260200160405190810160405280939291908181526020018383808284378201915050505050509192919290803590602001908201803590602001908080601f01602080910402602001604051908101604052809392919081815260200183838082843782019150505050505091929192908035906020019092919080359060200190929190505050610c0f565b604051808215151515815260200191505060405180910390f35b60003373ffffffffffffffffffffffffffffffffffffffff166000809054906101000a900473ffffffffffffffffffffffffffffffffffffffff1673ffffffffffffffffffffffffffffffffffffffff161415156103af576040517f08c379a000000000000000000000000000000000000000000000000000000000815260040180806020018281038252602f8152602001807f4f6e6c7920616e2041646d696e6973747261746f722063616e20696e766f6b6581526020017f20746869732066756e6374696f6e2e000000000000000000000000000000000081525060400191505060405180910390fd5b813073ffffffffffffffffffffffffffffffffffffffff16311015151561048a576040517f08c379a00000000000000000000000000000000000000000000000000000000081526004018080602001828103825260478152602001807f5468652063757272656e742073746f726527732062616c616e6365206d75737481526020017f2062652067726561746572207468616e20746865207769746864726177616c2081526020017f616d6f756e74210000000000000000000000000000000000000000000000000081525060600191505060405180910390fd5b6000809054906101000a900473ffffffffffffffffffffffffffffffffffffffff1673ffffffffffffffffffffffffffffffffffffffff166108fc839081150290604051600060405180830381858888f193505050501580156104f1573d6000803e3d6000fd5b50919050565b3373ffffffffffffffffffffffffffffffffffffffff166000809054906101000a900473ffffffffffffffffffffffffffffffffffffffff1673ffffffffffffffffffffffffffffffffffffffff161415156105e1576040517f08c379a000000000000000000000000000000000000000000000000000000000815260040180806020018281038252602f8152602001807f4f6e6c7920616e2041646d696e6973747261746f722063616e20696e766f6b6581526020017f20746869732066756e6374696f6e2e000000000000000000000000000000000081525060400191505060405180910390fd5b600060018111156105ee57fe5b6005600084815260200190815260200160002060050160009054906101000a900460ff16600181111561061d57fe5b1415156106b8576040517f08c379a00000000000000000000000000000000000000000000000000000000081526004018080602001828103825260318152602001807f4f6e6c7920746865206163746976652070726f647563742063616e206265206d81526020017f61726b65642061732072656d6f7665642100000000000000000000000000000081525060400191505060405180910390fd5b80600560008481526020019081526020016000206004015403600560008481526020019081526020016000206004018190555060016005600084815260200190815260200160002060050160006101000a81548160ff0219169083600181111561071e57fe5b02179055505050565b60003373ffffffffffffffffffffffffffffffffffffffff166000809054906101000a900473ffffffffffffffffffffffffffffffffffffffff1673ffffffffffffffffffffffffffffffffffffffff16141515610813576040517f08c379a000000000000000000000000000000000000000000000000000000000815260040180806020018281038252602f8152602001807f4f6e6c7920616e2041646d696e6973747261746f722063616e20696e766f6b6581526020017f20746869732066756e6374696f6e2e000000000000000000000000000000000081525060400191505060405180910390fd5b60c06040519081016040528060045481526020018681526020018581526020018481526020018381526020016000600181111561084c57fe5b81525060056000600454815260200190815260200160002060008201518160000155602082015181600101908051906020019061088a929190610e6f565b5060408201518160020190805190602001906108a7929190610e6f565b50606082015181600301556080820151816004015560a08201518160050160006101000a81548160ff021916908360018111156108e057fe5b021790555090505060046000815480929190600101919050559050949350505050565b6000600181111561091057fe5b6005600084815260200190815260200160002060050160009054906101000a900460ff16600181111561093f57fe5b1415156109da576040517f08c379a00000000000000000000000000000000000000000000000000000000081526004018080602001828103825260268152602001807f4f6e6c7920746865206163746976652070726f647563742063616e206265206281526020017f6f7567687421000000000000000000000000000000000000000000000000000081525060400191505060405180910390fd5b3373ffffffffffffffffffffffffffffffffffffffff166000809054906101000a900473ffffffffffffffffffffffffffffffffffffffff1673ffffffffffffffffffffffffffffffffffffffff1614151515610ac5576040517f08c379a00000000000000000000000000000000000000000000000000000000081526004018080602001828103825260258152602001807f546865206f776e65722063616e6e6f742062757920697473206f776e2070726f81526020017f647563742100000000000000000000000000000000000000000000000000000081525060400191505060405180910390fd5b60056000838152602001908152602001600020600401548111151515610b79576040517f08c379a000000000000000000000000000000000000000000000000000000000815260040180806020018281038252603a8152602001807f5468652073746f726520646f6573206e6f74206861766520737566666963696581526020017f6e74207175616e74697479206f66207468652070726f6475637400000000000081525060400191505060405180910390fd5b8060056000848152602001908152602001600020600401540360056000848152602001908152602001600020600401819055503073ffffffffffffffffffffffffffffffffffffffff166108fc600560008581526020019081526020016000206003015483029081150290604051600060405180830381858888f19350505050158015610c0a573d6000803e3d6000fd5b505050565b60003373ffffffffffffffffffffffffffffffffffffffff166000809054906101000a900473ffffffffffffffffffffffffffffffffffffffff1673ffffffffffffffffffffffffffffffffffffffff16141515610cfb576040517f08c379a000000000000000000000000000000000000000000000000000000000815260040180806020018281038252602f8152602001807f4f6e6c7920616e2041646d696e6973747261746f722063616e20696e766f6b6581526020017f20746869732066756e6374696f6e2e000000000000000000000000000000000081525060400191505060405180910390fd5b6000600560008881526020019081526020016000206000015414151515610dd6576040517f08c379a00000000000000000000000000000000000000000000000000000000081526004018080602001828103825260498152602001807f50726f6475637420666f722074686520676976656e2073746f7265206964206181526020017f6e642070726f6475637420696420636f6d62696e6174696f6e20646f6573206e81526020017f6f7420657869737421000000000000000000000000000000000000000000000081525060600191505060405180910390fd5b84600560008881526020019081526020016000206001019080519060200190610e00929190610eef565b5083600560008881526020019081526020016000206002019080519060200190610e2b929190610eef565b508260056000888152602001908152602001600020600301819055508160056000888152602001908152602001600020600401819055506001905095945050505050565b828054600181600116156101000203166002900490600052602060002090601f016020900481019282601f10610eb057805160ff1916838001178555610ede565b82800160010185558215610ede579182015b82811115610edd578251825591602001919060010190610ec2565b5b509050610eeb9190610f6f565b5090565b828054600181600116156101000203166002900490600052602060002090601f016020900481019282601f10610f3057805160ff1916838001178555610f5e565b82800160010185558215610f5e579182015b82811115610f5d578251825591602001919060010190610f42565b5b509050610f6b9190610f6f565b5090565b610f9191905b80821115610f8d576000816000905550600101610f75565b5090565b905600a165627a7a72305820a976a213ab2d99f5c66f0ff72720c1a1b5f2ec5d74eec7a41ab320effb5f291d0029a165627a7a723058200974dc24895b63a87575452c0d904f7821133c8394df06e3a3e3f1e49caf01f70029",
  "source": "pragma solidity ^0.4.22;\n\nimport \"./Store.sol\";\nimport \"./library/Utils.sol\";\n\n/**\n * There are a list of stores on a central marketplace where shoppers can purchase goods posted by the store owners.\n * The central marketplace is managed by a group of administrators. Admins allow store owners to add stores\n * to the marketplace. Store owners can manage their store’s inventory and funds. Shoppers can visit stores and purchase\n * goods that are in stock using cryptocurrency.\n *\n */\n\ncontract MarketPlace {\n    address superAdmin;\n    address[] public adminUsers;\n    address[] public storeOwners;\n    uint private nextStoreId;\n\n    // mapping of stores of a given store owner\n    mapping (address => address[]) public storeFrontMap;\n\n    /**\n     * Initialize state variables, specifically, the Super Administrator!\n     * Also, add that address in the Admin list.\n     */\n    constructor() public {\n        superAdmin = msg.sender;\n        adminUsers.push(msg.sender);\n        nextStoreId = 1;\n    }\n\n    /**\n     * Only SuperAdmin shall be able to create an Admin user\n    */\n    modifier onlySuperAdmin {\n        require( msg.sender == superAdmin, \"Only Super Administrator can invoke this function.\");\n        _;\n    }\n\n    /**\n     * Only Admin shall be allowed to create a store\n    */\n    modifier onlyAdmin {\n        require( Utils.existInTheArray(adminUsers, msg.sender), \"Only an Administrator can invoke this function.\");\n        _;\n    }\n\n    /**\n     * Only store owners shall be allowed to add stores.\n     *\n    */\n    modifier onlyStoreOwner {\n        require( Utils.existInTheArray(storeOwners, msg.sender), \"Only an Administrator can invoke this function.\");\n        _;\n    }\n\n    /**\n     * A super administrator can create one or more administrator, who will have same access, except that\n     * they cannot create another administrator\n     */\n    function createAdminUser(address newAdminUser) public onlySuperAdmin returns(address){\n        require(!Utils.existInTheArray(adminUsers, newAdminUser), \"The address is already in the Admin group!\");\n\n        adminUsers.push(newAdminUser);\n\n        return newAdminUser;\n    }\n\n    /**\n    * This function verifies if an address has an admin access or not.\n    */\n    function checkAdmingAccess(address addressToVerify) view public returns(bool) {\n      for (uint index = 0; index <adminUsers.length; index++) {\n        if (adminUsers[index] == addressToVerify) {\n          return true;\n        }\n      }\n\n      return false;\n    }\n\n    /**\n     * Any Admin shall be able to add a store owner.\n     * Of course, we need to make sure that a given address is added only once.\n    */\n    function createStoreOwner(address newStoreOwnerAddress) public onlyAdmin returns(bool){\n        require( !Utils.existInTheArray(storeOwners, newStoreOwnerAddress), \"The store owner with the same address already exist!\");\n\n        storeOwners.push(newStoreOwnerAddress);\n\n        return true;\n    }\n\n    /**\n     * A store owner shall be able to create one or more stores.\n     * The created store will be associated with the store owner using storeFrontMap, where the store owner's\n     * address is a key and the value is a map of storeId and Store.\n     *\n    */\n    function createStoreFront( string storeName, string storeDescription ) public onlyStoreOwner returns(uint){\n\n        address[] storage stores = storeFrontMap[msg.sender];\n        stores[stores.length] = new Store( storeName, storeDescription, nextStoreId );\n\n        return nextStoreId++;\n    }\n\n    /**\n     * this function will be used for retriving all the stores of a given store owner\n     *\n     */\n    function getStores(address storeOwnerAddress) public view returns(address[]) {\n        return storeFrontMap[storeOwnerAddress];\n    }\n\n\n    /**\n     * The market place can be destructed by only the super admin, that too when we have at least 75% of the store owners\n     * agreeing to this decision.\n    */\n    function closeMarketPlace() public onlySuperAdmin {\n        bool haveConsentOfStoreOwners = getConsentForClosure();\n\n        require(haveConsentOfStoreOwners, \"You do not have the sufficient consensus to close the market place!\");\n\n        selfdestruct(superAdmin);\n    }\n\n    /**\n     * In case we want to allow the closure of the Market Place then implement this function\n     * with proper logic.\n    */\n    function getConsentForClosure() private pure returns(bool) {\n        return false;\n    }\n}\n",
  "sourcePath": "/Users/alokranjan/blockchain/ethereum/consensys/marketplace/contracts/MarketPlace.sol",
  "compiler": {
    "name": "solc",
    "version": "0.4.24+commit.e67f0147.Emscripten.clang"
  },
  "schemaVersion": "2.0.1",
  "updatedAt": "2018-08-07T12:10:08.144Z"
}