{
  "contractName": "MarketPlace",
  "abi": [
    {
      "constant": true,
      "inputs": [
        {
          "name": "",
          "type": "uint256"
        }
      ],
      "name": "adminUsers",
      "outputs": [
        {
          "name": "",
          "type": "address"
        }
      ],
      "payable": false,
      "stateMutability": "view",
      "type": "function"
    },
    {
      "constant": true,
      "inputs": [
        {
          "name": "",
          "type": "uint256"
        }
      ],
      "name": "storeOwners",
      "outputs": [
        {
          "name": "",
          "type": "address"
        }
      ],
      "payable": false,
      "stateMutability": "view",
      "type": "function"
    },
    {
      "constant": true,
      "inputs": [
        {
          "name": "",
          "type": "address"
        },
        {
          "name": "",
          "type": "uint256"
        }
      ],
      "name": "storeFrontMap",
      "outputs": [
        {
          "name": "",
          "type": "address"
        }
      ],
      "payable": false,
      "stateMutability": "view",
      "type": "function"
    },
    {
      "inputs": [],
      "payable": false,
      "stateMutability": "nonpayable",
      "type": "constructor"
    },
    {
      "anonymous": false,
      "inputs": [
        {
          "indexed": false,
          "name": "storeName",
          "type": "string"
        },
        {
          "indexed": false,
          "name": "storeDescription",
          "type": "string"
        },
        {
          "indexed": false,
          "name": "storeOwner",
          "type": "address"
        },
        {
          "indexed": false,
          "name": "storeAddress",
          "type": "address"
        }
      ],
      "name": "NewStore",
      "type": "event"
    },
    {
      "anonymous": false,
      "inputs": [
        {
          "indexed": false,
          "name": "currentStore",
          "type": "address"
        }
      ],
      "name": "AccessingStore",
      "type": "event"
    },
    {
      "constant": false,
      "inputs": [
        {
          "name": "newAdminUser",
          "type": "address"
        }
      ],
      "name": "createAdminUser",
      "outputs": [
        {
          "name": "",
          "type": "address"
        }
      ],
      "payable": false,
      "stateMutability": "nonpayable",
      "type": "function"
    },
    {
      "constant": true,
      "inputs": [],
      "name": "getAdminUsers",
      "outputs": [
        {
          "name": "",
          "type": "address[]"
        }
      ],
      "payable": false,
      "stateMutability": "view",
      "type": "function"
    },
    {
      "constant": true,
      "inputs": [
        {
          "name": "addressToVerify",
          "type": "address"
        }
      ],
      "name": "checkAccess",
      "outputs": [
        {
          "name": "",
          "type": "bool"
        },
        {
          "name": "",
          "type": "bool"
        },
        {
          "name": "",
          "type": "bool"
        }
      ],
      "payable": false,
      "stateMutability": "view",
      "type": "function"
    },
    {
      "constant": false,
      "inputs": [
        {
          "name": "newStoreOwnerAddress",
          "type": "address"
        }
      ],
      "name": "createStoreOwner",
      "outputs": [
        {
          "name": "",
          "type": "bool"
        }
      ],
      "payable": false,
      "stateMutability": "nonpayable",
      "type": "function"
    },
    {
      "constant": true,
      "inputs": [],
      "name": "getStoreOwners",
      "outputs": [
        {
          "name": "",
          "type": "address[]"
        }
      ],
      "payable": false,
      "stateMutability": "view",
      "type": "function"
    },
    {
      "constant": false,
      "inputs": [
        {
          "name": "storeName",
          "type": "string"
        },
        {
          "name": "storeDescription",
          "type": "string"
        }
      ],
      "name": "createStoreFront",
      "outputs": [
        {
          "name": "",
          "type": "address"
        }
      ],
      "payable": false,
      "stateMutability": "nonpayable",
      "type": "function"
    },
    {
      "constant": true,
      "inputs": [
        {
          "name": "storeOwnerAddress",
          "type": "address"
        }
      ],
      "name": "getStores",
      "outputs": [
        {
          "name": "",
          "type": "address[]"
        }
      ],
      "payable": false,
      "stateMutability": "view",
      "type": "function"
    },
    {
      "constant": false,
      "inputs": [
        {
          "name": "storeOwnerAddress",
          "type": "address"
        },
        {
          "name": "numberOfTokens",
          "type": "uint256"
        }
      ],
      "name": "allocateNewTokens",
      "outputs": [
        {
          "name": "",
          "type": "uint256"
        }
      ],
      "payable": false,
      "stateMutability": "nonpayable",
      "type": "function"
    },
    {
      "constant": true,
      "inputs": [
        {
          "name": "accountAddress",
          "type": "address"
        }
      ],
      "name": "getTokenBalance",
      "outputs": [
        {
          "name": "tokenBalance",
          "type": "uint256"
        }
      ],
      "payable": false,
      "stateMutability": "view",
      "type": "function"
    },
    {
      "constant": false,
      "inputs": [],
      "name": "closeMarketPlace",
      "outputs": [],
      "payable": false,
      "stateMutability": "nonpayable",
      "type": "function"
    },
    {
      "constant": false,
      "inputs": [],
      "name": "haltMarket",
      "outputs": [],
      "payable": false,
      "stateMutability": "nonpayable",
      "type": "function"
    },
    {
      "constant": false,
      "inputs": [],
      "name": "reinstateMarket",
      "outputs": [],
      "payable": false,
      "stateMutability": "nonpayable",
      "type": "function"
    }
  ],
  "bytecode": "0x608060405234801561001057600080fd5b506000805433600160a060020a031991821681178355600180548082018255938190527fb10e2d527612073b26eecdfd717e6a320cf44b4afac2b0732d9fcbe2b7fa0cf690930180549092161790556003556004805460a060020a60ff021916905561007a6100bc565b604051809103906000f080158015610096573d6000803e3d6000fd5b5060048054600160a060020a031916600160a060020a03929092169190911790556100cd565b6040516107308062003e5083390190565b613d7380620000dd6000396000f300608060405260043610620000ea5763ffffffff7c01000000000000000000000000000000000000000000000000000000006000350416631fa9acf18114620000ef57806329cbf2e914620001265780633aecd0e3146200014057806344d509931462000176578063466a014614620001915780634baa0f5e14620001d75780635f94c131146200020f57806361878fc4146200022757806373a296ba146200024b57806375b9960e146200027257806375dae8a6146200030c57806391f4245a14620003825780639b8e7b69146200039a578063cb6a0e4114620003b2578063f26835f714620003d9575b600080fd5b348015620000fc57600080fd5b506200010a600435620003f1565b60408051600160a060020a039092168252519081900360200190f35b3480156200013357600080fd5b506200013e6200041a565b005b3480156200014d57600080fd5b5062000164600160a060020a036004351662000540565b60408051918252519081900360200190f35b3480156200018357600080fd5b506200010a600435620005e2565b3480156200019e57600080fd5b50620001b5600160a060020a0360043516620005f1565b6040805193151584529115156020840152151582820152519081900360600190f35b348015620001e457600080fd5b50620001fb600160a060020a036004351662000867565b604080519115158252519081900360200190f35b3480156200021c57600080fd5b506200013e62000bf2565b3480156200023457600080fd5b506200010a600160a060020a036004351662000c7f565b3480156200025857600080fd5b506200010a600160a060020a036004351660243562000f17565b3480156200027f57600080fd5b506040805160206004803580820135601f81018490048402850184019095528484526200010a94369492936024939284019190819084018382808284375050604080516020601f89358b018035918201839004830284018301909452808352979a99988101979196509182019450925082915084018382808284375094975062000f4f9650505050505050565b3480156200031957600080fd5b5062000330600160a060020a0360043516620014e8565b60408051602080825283518183015283519192839290830191858101910280838360005b838110156200036e57818101518382015260200162000354565b505050509050019250505060405180910390f35b3480156200038f57600080fd5b5062000330620017a7565b348015620003a757600080fd5b50620003306200180c565b348015620003bf57600080fd5b5062000164600160a060020a03600435166024356200186e565b348015620003e657600080fd5b506200013e62001b5d565b60018054829081106200040057fe5b600091825260209091200154600160a060020a0316905081565b60008054600160a060020a0316331462000482576040805160e560020a62461bcd028152602060048201526032602482015260008051602062003d28833981519152604482015260008051602062003ca8833981519152606482015290519081900360840190fd5b6200048c62001c5d565b905080151562000532576040805160e560020a62461bcd02815260206004820152604360248201527f596f7520646f206e6f742068617665207468652073756666696369656e74206360448201527f6f6e73656e73757320746f20636c6f736520746865206d61726b657420706c6160648201527f6365210000000000000000000000000000000000000000000000000000000000608482015290519081900360a40190fd5b600054600160a060020a0316ff5b60048054604080517f70a08231000000000000000000000000000000000000000000000000000000008152600160a060020a03858116948201949094529051600093909216916370a082319160248082019260209290919082900301818787803b158015620005ae57600080fd5b505af1158015620005c3573d6000803e3d6000fd5b505050506040513d6020811015620005da57600080fd5b505192915050565b60028054829081106200040057fe5b600080600080600080600460149054906101000a900460ff161515156200067b576040805160e560020a62461bcd02815260206004820152604b602482015260008051602062003cc8833981519152604482015260008051602062003ce8833981519152606482015260008051602062003d08833981519152608482015290519081900360a40190fd5b6040805160e060020a63cd817f4b028152600160a060020a038916602482015260048101918252600180546044830181905273__Utils_________________________________9363cd817f4b938c92829160640190859080156200070a57602002820191906000526020600020905b8154600160a060020a03168152600190910190602001808311620006eb575b5050935050505060206040518083038186803b1580156200072a57600080fd5b505af41580156200073f573d6000803e3d6000fd5b505050506040513d60208110156200075657600080fd5b50516040805160e060020a63cd817f4b028152600160a060020a038a16602482015260048101918252600280546044830181905293965073__Utils_________________________________9363cd817f4b9391928c929182916064019085908015620007ed57602002820191906000526020600020905b8154600160a060020a03168152600190910190602001808311620007ce575b5050935050505060206040518083038186803b1580156200080d57600080fd5b505af415801562000822573d6000803e3d6000fd5b505050506040513d60208110156200083957600080fd5b5051600080549193509150600160a060020a03888116911614156200085c575060015b969195509350915050565b6040805160e060020a63cd817f4b028152336024820181905260048201928352600180546044840181905260009473__Utils_________________________________9463cd817f4b949282916064019085908015620008f157602002820191906000526020600020905b8154600160a060020a03168152600190910190602001808311620008d2575b5050935050505060206040518083038186803b1580156200091157600080fd5b505af415801562000926573d6000803e3d6000fd5b505050506040513d60208110156200093d57600080fd5b50511515620009bc576040805160e560020a62461bcd02815260206004820152602f60248201527f4f6e6c7920616e2041646d696e6973747261746f722063616e20696e766f6b6560448201527f20746869732066756e6374696f6e2e0000000000000000000000000000000000606482015290519081900360840190fd5b60045460a060020a900460ff161562000a38576040805160e560020a62461bcd02815260206004820152604b602482015260008051602062003cc8833981519152604482015260008051602062003ce8833981519152606482015260008051602062003d08833981519152608482015290519081900360a40190fd5b6040805160e060020a63cd817f4b028152600160a060020a038416602482015260048101918252600280546044830181905273__Utils_________________________________9363cd817f4b9387928291606401908590801562000ac757602002820191906000526020600020905b8154600160a060020a0316815260019091019060200180831162000aa8575b5050935050505060206040518083038186803b15801562000ae757600080fd5b505af415801562000afc573d6000803e3d6000fd5b505050506040513d602081101562000b1357600080fd5b50511562000b91576040805160e560020a62461bcd02815260206004820152603460248201527f5468652073746f7265206f776e65722077697468207468652073616d6520616460448201527f647265737320616c726561647920657869737421000000000000000000000000606482015290519081900360840190fd5b5060028054600181810183556000929092527f405787fa12a823e0f2b7631cc41b3ba8828b3321ca811111fa75cd3aa3bb5ace018054600160a060020a03841673ffffffffffffffffffffffffffffffffffffffff19909116179055919050565b600054600160a060020a0316331462000c59576040805160e560020a62461bcd028152602060048201526032602482015260008051602062003d28833981519152604482015260008051602062003ca8833981519152606482015290519081900360840190fd5b6004805474ff0000000000000000000000000000000000000000191660a060020a179055565b60008054600160a060020a0316331462000ce7576040805160e560020a62461bcd028152602060048201526032602482015260008051602062003d28833981519152604482015260008051602062003ca8833981519152606482015290519081900360840190fd5b60045460a060020a900460ff161562000d63576040805160e560020a62461bcd02815260206004820152604b602482015260008051602062003cc8833981519152604482015260008051602062003ce8833981519152606482015260008051602062003d08833981519152608482015290519081900360a40190fd5b6040805160e060020a63cd817f4b028152600160a060020a038416602482015260048101918252600180546044830181905273__Utils_________________________________9363cd817f4b9387928291606401908590801562000df257602002820191906000526020600020905b8154600160a060020a0316815260019091019060200180831162000dd3575b5050935050505060206040518083038186803b15801562000e1257600080fd5b505af415801562000e27573d6000803e3d6000fd5b505050506040513d602081101562000e3e57600080fd5b50511562000ebc576040805160e560020a62461bcd02815260206004820152602a60248201527f546865206164647265737320697320616c726561647920696e2074686520416460448201527f6d696e2067726f75702100000000000000000000000000000000000000000000606482015290519081900360840190fd5b506001805480820182556000919091527fb10e2d527612073b26eecdfd717e6a320cf44b4afac2b0732d9fcbe2b7fa0cf601805473ffffffffffffffffffffffffffffffffffffffff1916600160a060020a03831617905590565b60056020528160005260406000208181548110151562000f3357fe5b600091825260209091200154600160a060020a03169150829050565b60008073__Utils_________________________________63cd817f4b6002336040518363ffffffff167c0100000000000000000000000000000000000000000000000000000000028152600401808060200183600160a060020a0316600160a060020a0316815260200182810382528481815481526020019150805480156200100357602002820191906000526020600020905b8154600160a060020a0316815260019091019060200180831162000fe4575b5050935050505060206040518083038186803b1580156200102357600080fd5b505af415801562001038573d6000803e3d6000fd5b505050506040513d60208110156200104f57600080fd5b50511515620010ce576040805160e560020a62461bcd02815260206004820152602f60248201527f4f6e6c7920616e2041646d696e6973747261746f722063616e20696e766f6b6560448201527f20746869732066756e6374696f6e2e0000000000000000000000000000000000606482015290519081900360840190fd5b60045460a060020a900460ff16156200114a576040805160e560020a62461bcd02815260206004820152604b602482015260008051602062003cc8833981519152604482015260008051602062003ce8833981519152606482015260008051602062003d08833981519152608482015290519081900360a40190fd5b5033600090815260056020526040902054801515620011885733600090815260056020526040902060019062001181908262001c62565b50620011aa565b3360009081526005602052604090206001820190620011a8908262001c62565b505b600354600454859185913390600160a060020a0316620011c962001c8e565b60408101849052600160a060020a0380841660608301528216608082015260a08082528651908201528551819060208083019160c08401918a019080838360005b83811015620012245781810151838201526020016200120a565b50505050905090810190601f168015620012525780820380516001836020036101000a031916815260200191505b50838103825287518152875160209182019189019080838360005b83811015620012875781810151838201526020016200126d565b50505050905090810190601f168015620012b55780820380516001836020036101000a031916815260200191505b50975050505050505050604051809103906000f080158015620012dc573d6000803e3d6000fd5b50336000908152600560205260409020805483908110620012f957fe5b6000918252602080832091909101805473ffffffffffffffffffffffffffffffffffffffff1916600160a060020a0394909416939093179092556003805460010190553380825260059092526040902080547fe75f8bd502ee84b678cb9ed4707b4516128def5e073e6d86f35b43a25c4b40d79287928792869081106200137c57fe5b9060005260206000200160009054906101000a9004600160a060020a031660405180806020018060200185600160a060020a0316600160a060020a0316815260200184600160a060020a0316600160a060020a03168152602001838103835287818151815260200191508051906020019080838360005b838110156200140d578181015183820152602001620013f3565b50505050905090810190601f1680156200143b5780820380516001836020036101000a031916815260200191505b50838103825286518152865160209182019188019080838360005b838110156200147057818101518382015260200162001456565b50505050905090810190601f1680156200149e5780820380516001836020036101000a031916815260200191505b50965050505050505060405180910390a1336000908152600560205260409020805482908110620014cb57fe5b600091825260209091200154600160a060020a0316949350505050565b60606000806060600060606000600460149054906101000a900460ff1615151562001576576040805160e560020a62461bcd02815260206004820152604b602482015260008051602062003cc8833981519152604482015260008051602062003ce8833981519152606482015260008051602062003d08833981519152608482015290519081900360a40190fd5b600160a060020a03881615620015fd57600160a060020a03881660009081526005602090815260409182902080548351818402810184019094528084529091830182828015620015f057602002820191906000526020600020905b8154600160a060020a03168152600190910190602001808311620015d1575b505050505096506200179c565b60009550600094505b6002548510156200165c57600560006002878154811015156200162557fe5b6000918252602080832090910154600160a060020a0316835282019290925260400190205495909501946001949094019362001606565b8560405190808252806020026020018201604052801562001687578160200160208202803883390190505b50935060009250600094505b600254851015620017985760056000600287815481101515620016b257fe5b6000918252602080832090910154600160a060020a031683528281019390935260409182019020805482518185028101850190935280835291929091908301828280156200172a57602002820191906000526020600020905b8154600160a060020a031681526001909101906020018083116200170b575b50505050509150600090505b81518110156200178c5781818151811015156200174f57fe5b9060200190602002015184848151811015156200176857fe5b600160a060020a039092166020928302909101909101526001928301920162001736565b60019094019362001693565b8396505b505050505050919050565b606060028054806020026020016040519081016040528092919081815260200182805480156200180157602002820191906000526020600020905b8154600160a060020a03168152600190910190602001808311620017e2575b505050505090505b90565b606060018054806020026020016040519081016040528092919081815260200182805480156200180157602002820191906000526020600020908154600160a060020a03168152600190910190602001808311620017e2575050505050905090565b60008054600160a060020a03163314620018d6576040805160e560020a62461bcd028152602060048201526032602482015260008051602062003d28833981519152604482015260008051602062003ca8833981519152606482015290519081900360840190fd5b60045460a060020a900460ff161562001952576040805160e560020a62461bcd02815260206004820152604b602482015260008051602062003cc8833981519152604482015260008051602062003ce8833981519152606482015260008051602062003d08833981519152608482015290519081900360a40190fd5b6040805160e060020a63cd817f4b028152600160a060020a038516602482015260048101918252600280546044830181905273__Utils_________________________________9363cd817f4b93889282916064019085908015620019e157602002820191906000526020600020905b8154600160a060020a03168152600190910190602001808311620019c2575b5050935050505060206040518083038186803b15801562001a0157600080fd5b505af415801562001a16573d6000803e3d6000fd5b505050506040513d602081101562001a2d57600080fd5b5051151562001aac576040805160e560020a62461bcd02815260206004820152602a60248201527f5468652070726f76696465642061646472657373206973206e6f74206120737460448201527f6f7265206f776e65722100000000000000000000000000000000000000000000606482015290519081900360840190fd5b6004805460008054604080517fbca82f97000000000000000000000000000000000000000000000000000000008152600160a060020a03928316958101959095528782166024860152604485018790525192169263bca82f979260648083019360209383900390910190829087803b15801562001b2857600080fd5b505af115801562001b3d573d6000803e3d6000fd5b505050506040513d602081101562001b5457600080fd5b50519392505050565b600054600160a060020a0316331462001bc4576040805160e560020a62461bcd028152602060048201526032602482015260008051602062003d28833981519152604482015260008051602062003ca8833981519152606482015290519081900360840190fd5b60045460a060020a900460ff16151562001c3d576040805160e560020a62461bcd02815260206004820152603b602482015260008051602062003cc883398151915260448201527f64206f6e6c7920647572696e6720616e20656d657267656e6379210000000000606482015290519081900360840190fd5b6004805474ff000000000000000000000000000000000000000019169055565b600090565b81548183558181111562001c895760008381526020902062001c8991810190830162001c9f565b505050565b604051611fe78062001cc183390190565b6200180991905b8082111562001cbc576000815560010162001ca6565b5090560060806040523480156200001157600080fd5b5060405162001fe738038062001fe78339810160409081528151602080840151928401516060850151608086015160008054600160a060020a031916600160a060020a0384161790559386018051909695909501949193909290916200007e9160019190880190620000cf565b506003839055835162000099906002906020870190620000cf565b506000600455600160055560078054600160a060020a031916600160a060020a0392909216919091179055506200017492505050565b828054600181600116156101000203166002900490600052602060002090601f016020900481019282601f106200011257805160ff191683800117855562000142565b8280016001018555821562000142579182015b828111156200014257825182559160200191906001019062000125565b506200015092915062000154565b5090565b6200017191905b808211156200015057600081556001016200015b565b90565b611e6380620001846000396000f30060806040526004361061008a5763ffffffff60e060020a6000350416630cee172581146100d15780635ee95cae146100f05780636813b53b146101085780637b2c5d13146102285780639498be1b14610240578063ce2d683f146102f2578063dbf5dcd91461035c578063de08473014610371578063f94eb1821461037f578063fe04eb2d14610424575b361561009557600080fd5b6040805133815234602082015281517f1e57e3bb474320be3d2c77138f75b7c3941292d647f5f9634e33a8e94e0e069b929181900390910190a1005b6100dc600435610537565b604080519115158252519081900360200190f35b3480156100fc57600080fd5b506100dc600435610701565b34801561011457600080fd5b50610120600435610860565b60405180806020018060200187815260200186815260200185600181111561014457fe5b60ff168152602001848152602001838103835289818151815260200191508051906020019080838360005b8381101561018757818101518382015260200161016f565b50505050905090810190601f1680156101b45780820380516001836020036101000a031916815260200191505b5083810382528851815288516020918201918a019080838360005b838110156101e75781810151838201526020016101cf565b50505050905090810190601f1680156102145780820380516001836020036101000a031916815260200191505b509850505050505050505060405180910390f35b34801561023457600080fd5b506100dc600435610a70565b34801561024c57600080fd5b506040805160206004803580820135601f81018490048402850184019095528484526102e094369492936024939284019190819084018382808284375050604080516020601f89358b018035918201839004830284018301909452808352979a999881019791965091820194509250829150840183828082843750949750508435955050506020909201359150610b9b9050565b60408051918252519081900360200190f35b3480156102fe57600080fd5b5061030c6004351515610e3a565b60408051602080825283518183015283519192839290830191858101910280838360005b83811015610348578181015183820152602001610330565b505050509050019250505060405180910390f35b34801561036857600080fd5b506102e0610fe3565b6100dc600435602435610fe9565b34801561038b57600080fd5b5060408051602060046024803582810135601f81018590048502860185019096528585526100dc95833595369560449491939091019190819084018382808284375050604080516020601f89358b018035918201839004830284018301909452808352979a9998810197919650918201945092508291508401838280828437509497505084359550505060209092013591506119229050565b34801561043057600080fd5b50610439611b11565b6040518085600160a060020a0316600160a060020a031681526020018060200184815260200180602001838103835286818151815260200191508051906020019080838360005b83811015610498578181015183820152602001610480565b50505050905090810190601f1680156104c55780820380516001836020036101000a031916815260200191505b50838103825284518152845160209182019186019080838360005b838110156104f85781810151838201526020016104e0565b50505050905090810190601f1680156105255780820380516001836020036101000a031916815260200191505b50965050505050505060405180910390f35b60008054600160a060020a0316331461059c576040805160e560020a62461bcd02815260206004820152602c6024820152600080516020611df88339815191526044820152600080516020611e18833981519152606482015290519081900360840190fd5b6001821161061a576040805160e560020a62461bcd02815260206004820152602f60248201527f5468652077697468647277616c20616d6f756e74206d7573742062652061207060448201527f6f736974697665206e756d626572210000000000000000000000000000000000606482015290519081900360840190fd5b30318211156106bf576040805160e560020a62461bcd02815260206004820152604c60248201527f5468652063757272656e742073746f72652062616c616e636520616d6f756e7460448201527f206d7573742062652067726561746572207468616e207468652077697468647260648201527f6177616c20616d6f756e74210000000000000000000000000000000000000000608482015290519081900360a40190fd5b60008054604051600160a060020a039091169184156108fc02918591818181858888f193505050501580156106f8573d6000803e3d6000fd5b50600192915050565b600080548190600160a060020a03163314610768576040805160e560020a62461bcd02815260206004820152602c6024820152600080516020611df88339815191526044820152600080516020611e18833981519152606482015290519081900360840190fd5b5060001982016000600680548390811061077e57fe5b600091825260209091206005600790920201015460ff1660018111156107a057fe5b1461081b576040805160e560020a62461bcd02815260206004820152603960248201527f4f6e6c7920746865206163746976652070726f647563742063616e206265206260448201527f652072656d6f7665642066726f6d207468652073746f72652100000000000000606482015290519081900360840190fd5b600160068281548110151561082c57fe5b60009182526020909120600560079092020101805460ff19166001838181111561085257fe5b021790555060019392505050565b606080600080600080600060018803905060068181548110151561088057fe5b90600052602060002090600702016001016006828154811015156108a057fe5b90600052602060002090600702016002016006838154811015156108c057fe5b9060005260206000209060070201600301546006848154811015156108e157fe5b90600052602060002090600702016004015460068581548110151561090257fe5b60009182526020909120600560079092020101546006805460ff909216918790811061092a57fe5b600091825260209182902060066007909202010154865460408051601f6002600019610100600187161502019094169390930492830185900485028101850190915281815291928891908301828280156109c55780601f1061099a576101008083540402835291602001916109c5565b820191906000526020600020905b8154815290600101906020018083116109a857829003601f168201915b5050885460408051602060026001851615610100026000190190941693909304601f8101849004840282018401909252818152959b508a945092508401905082828015610a535780601f10610a2857610100808354040283529160200191610a53565b820191906000526020600020905b815481529060010190602001808311610a3657829003601f168201915b505050505094509650965096509650965096505091939550919395565b600080548190600160a060020a03163314610ad7576040805160e560020a62461bcd02815260206004820152602c6024820152600080516020611df88339815191526044820152600080516020611e18833981519152606482015290519081900360840190fd5b50600019820160016006805483908110610aed57fe5b600091825260209091206005600790920201015460ff166001811115610b0f57fe5b14610b8a576040805160e560020a62461bcd02815260206004820152602b60248201527f4f6e6c792074686520496e6163746976652070726f647563742063616e20626560448201527f2061637469766174656421000000000000000000000000000000000000000000606482015290519081900360840190fd5b600060068281548110151561082c57fe5b600080548190600160a060020a03163314610c02576040805160e560020a62461bcd02815260206004820152602c6024820152600080516020611df88339815191526044820152600080516020611e18833981519152606482015290519081900360840190fd5b5060068054600a91600190910190610c1a9082611c8f565b5060e060405190810160405280600554815260200187815260200186815260200185815260200184815260200160006001811115610c5457fe5b8152602001828152506006600454815481101515610c6e57fe5b9060005260206000209060070201600082015181600001556020820151816001019080519060200190610ca2929190611cc0565b5060408201518051610cbe916002840191602090910190611cc0565b50606082015160038201556080820151600482015560a082015160058201805460ff191660018381811115610cef57fe5b021790555060c082015181600601559050507fc86b920148e151a78e4a627284a763302c966579a89be8494ba9562ac1f61b7b60055487878787604051808681526020018060200180602001858152602001848152602001838103835287818151815260200191508051906020019080838360005b83811015610d7c578181015183820152602001610d64565b50505050905090810190601f168015610da95780820380516001836020036101000a031916815260200191505b50838103825286518152865160209182019188019080838360005b83811015610ddc578181015183820152602001610dc4565b50505050905090810190601f168015610e095780820380516001836020036101000a031916815260200191505b5097505050505050505060405180910390a15050600480546001908101909155600580549182019055949350505050565b6060600080828160018615151415610eb057600092505b60065460ff84161015610eab5760006006805460ff8616908110610e7157fe5b600091825260209091206005600790920201015460ff166001811115610e9357fe5b1415610ea0576001909301925b600190920191610e51565b610eb6565b60065493505b83604051908082528060200260200182016040528015610ee0578160200160208202803883390190505b5091506000841115610fda575060009150815b60065460ff84161015610fda5760018615151415610f8d5760006006805460ff8616908110610f1e57fe5b600091825260209091206005600790920201015460ff166001811115610f4057fe5b1415610f88576006805460ff8516908110610f5757fe5b906000526020600020906007020160000154828260ff16815181101515610f7a57fe5b602090810290910101526001015b610fcf565b6006805460ff8516908110610f9e57fe5b906000526020600020906007020160000154828260ff16815181101515610fc157fe5b602090810290910101526001015b600190920191610ef3565b50949350505050565b30315b90565b60008060008060008060008060018a03965060068781548110151561100a57fe5b600091825260208220600360079092020101548a029650600680548990811061102f57fe5b600091825260209091206005600790920201015460ff16600181111561105157fe5b146110cc576040805160e560020a62461bcd02815260206004820152602660248201527f4f6e6c7920746865206163746976652070726f647563742063616e206265206260448201527f6f75676874210000000000000000000000000000000000000000000000000000606482015290519081900360840190fd5b600054600160a060020a0316331415611155576040805160e560020a62461bcd02815260206004820152602560248201527f546865206f776e65722063616e6e6f742062757920697473206f776e2070726f60448201527f6475637421000000000000000000000000000000000000000000000000000000606482015290519081900360840190fd5b600680548890811061116357fe5b90600052602060002090600702016004015489111515156111f4576040805160e560020a62461bcd02815260206004820152603a60248201527f5468652073746f726520646f6573206e6f74206861766520737566666963696560448201527f6e74207175616e74697479206f66207468652070726f64756374000000000000606482015290519081900360840190fd5b3331341115611273576040805160e560020a62461bcd02815260206004820152602481018290527f54686520627579657220646f6573206e6f74206861766520737566666963696560448201527f6e742062616c616e636520696e20686973202f20686572206163636f756e7421606482015290519081900360840190fd5b8860068881548110151561128357fe5b906000526020600020906007020160040154036006888154811015156112a557fe5b600091825260208083206004600790930201919091019290925554604080518d81529283018c905233803184830152606084018a905290519092600160a060020a03929092169130917f781f13430da3033909b5c9de8541109172e3f02dca16b4b18f489592e4f11af09181900360800190a46007546000955074010000000000000000000000000000000000000000900460ff16156113b5576040805160e560020a62461bcd02815260206004820152603f60248201527f5468652062616c616e636520697320616c7265616479206265696e672074726160448201527f6e7366657272656420746f20736f6d656f6e652c2074727920616761696e2100606482015290519081900360840190fd5b6007805474ff000000000000000000000000000000000000000019167401000000000000000000000000000000000000000017908190556040805160e060020a6370a082310281523360048201529051600092600160a060020a0316916370a0823191602480830192602092919082900301818787803b15801561143857600080fd5b505af115801561144c573d6000803e3d6000fd5b505050506040513d602081101561146257600080fd5b505111156116c2576007546040805160e060020a6370a0823102815233600482015290516509184e72a00092600160a060020a0316916370a082319160248083019260209291908290030181600087803b1580156114bf57600080fd5b505af11580156114d3573d6000803e3d6000fd5b505050506040513d60208110156114e957600080fd5b505102935085841161160d57600754600080546040805160e060020a6370a08231028152336004820181905291519899508998600160a060020a03958616956323b872dd959394169286926370a082319260248083019360209383900390910190829087803b15801561155b57600080fd5b505af115801561156f573d6000803e3d6000fd5b505050506040513d602081101561158557600080fd5b50516040805160e060020a63ffffffff8716028152600160a060020a0394851660048201529290931660248301526044820152905160648083019260209291908290030181600087803b1580156115db57600080fd5b505af11580156115ef573d6000803e3d6000fd5b505050506040513d602081101561160557600080fd5b506116c29050565b600754600054879650600160a060020a03918216916323b872dd91339116611641896509184e72a00063ffffffff611c5916565b6040805160e060020a63ffffffff8716028152600160a060020a0394851660048201529290931660248301526044820152905160648083019260209291908290030181600087803b15801561169557600080fd5b505af11580156116a9573d6000803e3d6000fd5b505050506040513d60208110156116bf57600080fd5b50505b6116d2868663ffffffff611c7a16565b9250600083111561170f57604051309250829084156108fc029085906000818181858888f1935050505015801561170d573d6000803e3d6000fd5b505b600060068881548110151561172057fe5b90600052602060002090600702016006015411156118f4576006805466038d7ea4c6800091908990811061175057fe5b906000526020600020906007020160060154870281151561176d57fe5b600754600080546040805160e060020a6370a08231028152600160a060020a039283166004820152905195909404955085949216926370a082319260248083019360209383900390910190829087803b1580156117c957600080fd5b505af11580156117dd573d6000803e3d6000fd5b505050506040513d60208110156117f357600080fd5b5051106118a85760075460008054604080517f23b872dd000000000000000000000000000000000000000000000000000000008152600160a060020a03928316600482015233602482015260448101869052905191909316926323b872dd9260648083019360209390929083900390910190829087803b15801561187657600080fd5b505af115801561188a573d6000803e3d6000fd5b505050506040513d60208110156118a057600080fd5b506118f49050565b60005460408051600160a060020a039092168252336020830152818101839052517f28a4aede4fefb9418ddd6db3804da661600c815d4b9914dfc999aede0bb5582c9181900360600190a15b50506007805474ff000000000000000000000000000000000000000019169055506001979650505050505050565b600080548190600160a060020a03163314611989576040805160e560020a62461bcd02815260206004820152602c6024820152600080516020611df88339815191526044820152600080516020611e18833981519152606482015290519081900360840190fd5b60018703905060068181548110151561199e57fe5b60009182526020909120600790910201541515611a51576040805160e560020a62461bcd02815260206004820152604960248201527f50726f6475637420666f722074686520676976656e2073746f7265206964206160448201527f6e642070726f6475637420696420636f6d62696e6174696f6e20646f6573206e60648201527f6f74206578697374210000000000000000000000000000000000000000000000608482015290519081900360a40190fd5b85600682815481101515611a6157fe5b90600052602060002090600702016001019080519060200190611a85929190611cc0565b5084600682815481101515611a9657fe5b90600052602060002090600702016002019080519060200190611aba929190611cc0565b5083600682815481101515611acb57fe5b90600052602060002090600702016003018190555082600682815481101515611af057fe5b60009182526020909120600460079092020101555060019695505050505050565b60008054600354600180546040805160206002610100858716150260001901909416849004601f810182900482028301820190935282825260609688968896600160a060020a0390921695919490939192859190830182828015611bb65780601f10611b8b57610100808354040283529160200191611bb6565b820191906000526020600020905b815481529060010190602001808311611b9957829003601f168201915b5050845460408051602060026001851615610100026000190190941693909304601f810184900484028201840190925281815295985086945092508401905082828015611c445780601f10611c1957610100808354040283529160200191611c44565b820191906000526020600020905b815481529060010190602001808311611c2757829003601f168201915b50505050509050935093509350935090919293565b6000808211611c6757600080fd5b8183811515611c7257fe5b049392505050565b600082821115611c8957600080fd5b50900390565b815481835581811115611cbb57600702816007028360005260206000209182019101611cbb9190611d3e565b505050565b828054600181600116156101000203166002900490600052602060002090601f016020900481019282601f10611d0157805160ff1916838001178555611d2e565b82800160010185558215611d2e579182015b82811115611d2e578251825591602001919060010190611d13565b50611d3a929150611d96565b5090565b610fe691905b80821115611d3a576000808255611d5e6001830182611db0565b611d6c600283016000611db0565b506000600382018190556004820181905560058201805460ff191690556006820155600701611d44565b610fe691905b80821115611d3a5760008155600101611d9c565b50805460018160011615610100020316600290046000825580601f10611dd65750611df4565b601f016020900490600052602060002090810190611df49190611d96565b5056004f6e6c7920612073746f7265206f776e65722063616e20696e766f6b6520746869732066756e6374696f6e210000000000000000000000000000000000000000a165627a7a723058207e755c4b02162009cb4588be5ba79946a8dc61498dfa304adaffd9643934041900296f6b6520746869732066756e6374696f6e2e0000000000000000000000000000546869732066756e6374696f6e616c6974792063616e20626520696e766f6b6564206f6e6c7920647572696e67206120726567756c617220636f75727365206f6620627573696e657373210000000000000000000000000000000000000000004f6e6c792053757065722041646d696e6973747261746f722063616e20696e76a165627a7a723058207b0f6a1d8579c8a0eeb561d4ff0b70c5baa3876cb0c359acb84e2a717cfd01cc00296080604052600060025534801561001557600080fd5b5061070b806100256000396000f3006080604052600436106100a35763ffffffff7c010000000000000000000000000000000000000000000000000000000060003504166306fdde0381146100a8578063095ea7b31461013257806318160ddd1461016a57806323b872dd14610191578063313ce567146101bb57806370a08231146101e657806395d89b4114610207578063a9059cbb1461021c578063bca82f9714610240578063dd62ed3e1461026a575b600080fd5b3480156100b457600080fd5b506100bd610291565b6040805160208082528351818301528351919283929083019185019080838360005b838110156100f75781810151838201526020016100df565b50505050905090810190601f1680156101245780820380516001836020036101000a031916815260200191505b509250505060405180910390f35b34801561013e57600080fd5b50610156600160a060020a03600435166024356102c8565b604080519115158252519081900360200190f35b34801561017657600080fd5b5061017f610316565b60408051918252519081900360200190f35b34801561019d57600080fd5b50610156600160a060020a036004358116906024351660443561031c565b3480156101c757600080fd5b506101d0610413565b6040805160ff9092168252519081900360200190f35b3480156101f257600080fd5b5061017f600160a060020a0360043516610418565b34801561021357600080fd5b506100bd610433565b34801561022857600080fd5b50610156600160a060020a036004351660243561046a565b34801561024c57600080fd5b5061017f600160a060020a0360043581169060243516604435610570565b34801561027657600080fd5b5061017f600160a060020a03600435811690602435166105e5565b60408051808201909152601381527f4f6e6c696e65204d61726b657420506c61636500000000000000000000000000602082015281565b604080518281529051600091600160a060020a0385169133917f8c5be1e5ebec7d5bd14f71427d1e84f3dd0314c0f7b2291e5b200ac8c7c3b925919081900360200190a35060015b92915050565b60025490565b600160a060020a03831660009081526020819052604081205482111561034157600080fd5b600160a060020a038316151561035657600080fd5b600160a060020a03841660009081526020819052604090205461037f908363ffffffff61061016565b600160a060020a0380861660009081526020819052604080822093909355908516815220546103b4908363ffffffff61062516565b600160a060020a038085166000818152602081815260409182902094909455805186815290519193928816927fddf252ad1be2c89b69c2b068fc378daa952ba7f163c4a11628f55a4df523b3ef92918290030190a35060019392505050565b600381565b600160a060020a031660009081526020819052604090205490565b60408051808201909152600381527f4f4d500000000000000000000000000000000000000000000000000000000000602082015281565b3360009081526020819052604081205482111561048657600080fd5b600160a060020a038316151561049b57600080fd5b600160a060020a03831660009081526020819052604090205482810110156104c257600080fd5b336000908152602081905260409020546104e2908363ffffffff61061016565b3360009081526020819052604080822092909255600160a060020a03851681522054610514908363ffffffff61062516565b600160a060020a038416600081815260208181526040918290209390935580518581529051919233927fddf252ad1be2c89b69c2b068fc378daa952ba7f163c4a11628f55a4df523b3ef9281900390910190a350600192915050565b600061057c8383610635565b60408051600160a060020a0380871682528516602082015280820184905290517f28304351f4cb68edab8682e94ff67c7f896c010f2b576db48f5503611d8ae6be9181900360600190a15050600160a060020a0316600090815260208190526040902054919050565b600160a060020a03918216600090815260016020908152604080832093909416825291909152205490565b60008282111561061f57600080fd5b50900390565b8181018281101561031057600080fd5b600160a060020a038216151561064a57600080fd5b60025461065d908263ffffffff61062516565b600255600160a060020a038216600090815260208190526040902054610689908263ffffffff61062516565b600160a060020a0383166000818152602081815260408083209490945583518581529351929391927fddf252ad1be2c89b69c2b068fc378daa952ba7f163c4a11628f55a4df523b3ef9281900390910190a350505600a165627a7a72305820afae509884004730eedc8688ce70c7f409b0d8e3a5446039f8bece62d9e033ee0029",
  "source": "pragma solidity ^0.4.23;\n\nimport \"./Store.sol\";\nimport \"./library/Utils.sol\";\nimport \"./EIP20.sol\";\nimport \"./library/SafeMath.sol\";\n/**\n * There are a list of stores on a central marketplace where shoppers can purchase goods posted by the store owners.\n * The central marketplace is managed by a group of administrators. Admins allow store owners to add stores\n * to the marketplace. Store owners can manage their stores inventory and funds. Shoppers can visit stores and purchase\n * goods that are in stock using cryptocurrency.\n *\n */\n\ncontract MarketPlace {\n    using SafeMath for uint256;\n\n    address superAdmin;\n    address[] public adminUsers;\n    address[] public storeOwners;\n    uint private nextStoreId;\n    EIP20 private eip20Token;\n    bool private emergency;\n\n    // mapping of stores of a given store owner\n    mapping (address => address[]) public storeFrontMap;\n\n    /**\n     * Initialize state variables, specifically, the Super Administrator!\n     * Also, add that address in the Admin list.\n     */\n    constructor() public {\n        superAdmin = msg.sender;\n        adminUsers.push(msg.sender);\n        nextStoreId = 1;\n        emergency = false;\n        eip20Token = new EIP20();\n    }\n\n    event NewStore (\n      string storeName,\n      string storeDescription,\n      address storeOwner,\n      address storeAddress\n    );\n\n    event AccessingStore(Store currentStore);\n\n    /**\n     * Only SuperAdmin shall be able to create an Admin user\n    */\n    modifier onlySuperAdmin {\n        require( msg.sender == superAdmin, \"Only Super Administrator can invoke this function.\");\n        _;\n    }\n\n    /**\n    * This functionality ensure that a given call will take place only when there is an emergency situation in place.\n    */\n    modifier onlyEmergency {\n      require( emergency, \"This functionality can be invoked only during an emergency!\");\n      _;\n    }\n\n    /**\n    * This functionality ensure that a given call will take place only when there is a regular course of business taking place.\n    */\n    modifier onlyDuringRegularBusiness {\n      require( !emergency, \"This functionality can be invoked only during a regular course of business!\");\n      _;\n    }\n\n    /**\n     * Only Admin shall be allowed to create a store\n    */\n    modifier onlyAdmin {\n        require( Utils.existInTheArray(adminUsers, msg.sender), \"Only an Administrator can invoke this function.\");\n        _;\n    }\n\n    /**\n     * Only store owners shall be allowed to add stores.\n     *\n    */\n    modifier onlyStoreOwner {\n        require( Utils.existInTheArray(storeOwners, msg.sender), \"Only an Administrator can invoke this function.\");\n        _;\n    }\n\n    /**\n     * A super administrator can create one or more administrator, who will have same access, except that\n     * they cannot create another administrator\n     * @param newAdminUser - the address of the new admin user\n     */\n    function createAdminUser(address newAdminUser) public\n            onlySuperAdmin onlyDuringRegularBusiness\n            returns(address) {\n\n        require(!Utils.existInTheArray(adminUsers, newAdminUser), \"The address is already in the Admin group!\");\n\n        adminUsers.push(newAdminUser);\n\n        return newAdminUser;\n    }\n\n    /**\n    * This function shall return all the admin address in the market place\n    * @return an array of admin users\n    */\n    function getAdminUsers() public view returns(address[]) {\n      return adminUsers;\n    }\n\n    /**\n    * This function verifies if an address has the following accesses or not\n    * - Super Admin\n    * - Admins\n    * - Store Owner\n    * @param addressToVerify - the address for which the different access needs to be checked\n    * @return the access flag indicating if the address is a Super Admin or an Admin or a Store Owner\n    */\n    function checkAccess(address addressToVerify) view public\n              onlyDuringRegularBusiness\n              returns(bool, bool, bool) {\n\n      bool isAdmin = Utils.existInTheArray(adminUsers, addressToVerify);\n      bool isStoreOwner = Utils.existInTheArray(storeOwners, addressToVerify);\n      bool isSuperAdmin = false;\n\n      if ( addressToVerify == superAdmin ) {\n        isSuperAdmin = true;\n      }\n\n      return (isSuperAdmin, isAdmin, isStoreOwner);\n    }\n\n    /**\n     * @dev Any Admin shall be able to add a store owner.\n     *      Of course, we need to make sure that a given address is added only once.\n     * @param newStoreOwnerAddress the address of the new store owners\n     *\n    */\n    function createStoreOwner( address newStoreOwnerAddress) public\n              onlyAdmin onlyDuringRegularBusiness\n              returns(bool) {\n        require( !Utils.existInTheArray(storeOwners, newStoreOwnerAddress), \"The store owner with the same address already exist!\");\n\n        storeOwners.push(newStoreOwnerAddress);\n\n        return true;\n    }\n\n\n    /**\n    * This function shall return all the store owners address in the market place\n    * @return returns an array consisting of all the store owners.\n    */\n    function getStoreOwners() public view returns(address[]) {\n      return storeOwners;\n    }\n\n    /**\n     * A store owner shall be able to create one or more stores.\n     * The created store will be associated with the store owner using storeFrontMap, where the store owner's\n     * address is a key and the value is a map of storeId and Store.\n     * @param storeName - store name\n     * @param storeDescription - A brief description of the store\n    */\n    function createStoreFront(\n                string storeName,\n                string storeDescription ) public\n                onlyStoreOwner onlyDuringRegularBusiness\n                returns(address) {\n\n        uint storeCount = storeFrontMap[msg.sender].length;\n\n        if (storeCount == 0) {\n          storeFrontMap[msg.sender].length = 1;\n        } else {\n          storeFrontMap[msg.sender].length = storeCount + 1;\n        }\n\n        storeFrontMap[msg.sender][storeCount] = address(new Store(\n                                                            storeName,\n                                                            storeDescription,\n                                                            nextStoreId,\n                                                            msg.sender,\n                                                            eip20Token ));\n\n        nextStoreId++;\n\n        emit NewStore(\n                storeName,\n                storeDescription,\n                msg.sender,\n                storeFrontMap[msg.sender][storeCount] );\n\n        return storeFrontMap[msg.sender][storeCount];\n    }\n\n    /**\n     * @dev this function will be used for retriving all the stores of a given store owner\n     * @param storeOwnerAddress - the optional parameter to decide if the store is needed for a specific store owner or are we looking for all the stores\n     * @return an array consisting of the address of the stores\n     */\n    function getStores(address storeOwnerAddress) public view\n            onlyDuringRegularBusiness\n            returns(address[]) {\n\n        if ( storeOwnerAddress != 0 ) {\n            return storeFrontMap[storeOwnerAddress];\n        }\n        else {\n            //\n            // The caller is looking for all the stores in the market place\n            //\n            uint totalStoreCount = 0;\n            uint storeOwnersCount;\n\n            for (storeOwnersCount = 0; storeOwnersCount < storeOwners.length; storeOwnersCount++) {\n                totalStoreCount += storeFrontMap[storeOwners[storeOwnersCount]].length;\n            }\n\n            address[] memory allStores = new address[](totalStoreCount);\n            uint tempStoreCount = 0;\n\n            for ( storeOwnersCount = 0; storeOwnersCount < storeOwners.length; storeOwnersCount++ ) {\n                address[] memory storesOfOwner = storeFrontMap[storeOwners[storeOwnersCount]];\n\n                for ( uint storeFrontCountOfOwner = 0;\n                      storeFrontCountOfOwner < storesOfOwner.length;\n                      storeFrontCountOfOwner++) {\n                  allStores[tempStoreCount] = storesOfOwner[storeFrontCountOfOwner];\n                  tempStoreCount++;\n                }\n            }\n\n            return allStores;\n        }\n    }\n\n    /**\n     * Any Admin shall be able to allocate certain number of new tokens to a store owner.\n     * Of course, we need to make sure that a given address is indeed a store owner\n     * @param storeOwnerAddress - the store owner's address whose account will be credited with the tokens\n     * @param numberOfTokens - the number of tokens to be credited to the store storeOwners\n     * @return the increased token balance of the store owners\n    */\n    function allocateNewTokens(\n                  address storeOwnerAddress,\n                  uint256 numberOfTokens )\n                  public onlySuperAdmin onlyDuringRegularBusiness\n                  returns(uint256) {\n\n        require( Utils.existInTheArray(storeOwners, storeOwnerAddress), \"The provided address is not a store owner!\");\n        return eip20Token.issueNewTokens(superAdmin, storeOwnerAddress, numberOfTokens);\n    }\n\n    /**\n     * @dev This method returns the token balance of a given account.\n     * @param accountAddress - is the address whose balance is being queried\n     */\n     function getTokenBalance(address accountAddress) public view returns(uint256 tokenBalance) {\n       return eip20Token.balanceOf(accountAddress);\n     }\n\n    /**\n     * The market place can be destructed by only the super admin, that too when we have at least 75% of the store owners\n     * agreeing to this decision.\n    */\n    function closeMarketPlace() public onlySuperAdmin {\n        bool haveConsentOfStoreOwners = getConsentForClosure();\n\n        require(haveConsentOfStoreOwners, \"You do not have the sufficient consensus to close the market place!\");\n\n        selfdestruct(superAdmin);\n    }\n\n    /**\n     * @dev there may be situations where the operator may identify risks and he/she may like to put a holds\n     * on the key transactions in the market place. This function can be used to achieve the same.\n    */\n    function haltMarket() public onlySuperAdmin {\n      emergency = true;\n    }\n\n    /**\n     * @dev - if the Super Admin had already declared emergency then this function can be used to revoke emergency\n    */\n    function reinstateMarket() public onlySuperAdmin onlyEmergency {\n      emergency = false;\n    }\n\n\n    /**\n     * In case we want to allow the closure of the Market Place then implement this function\n     * with proper logic.\n    */\n    function getConsentForClosure() private pure returns(bool) {\n        return false;\n    }\n\n}\n",
  "sourcePath": "/Users/alokranjan/blockchain/ethereum/consensys/ethmarket/contracts/MarketPlace.sol",
  "compiler": {
    "name": "solc",
    "version": "0.4.24+commit.e67f0147.Emscripten.clang"
  },
  "schemaVersion": "2.0.1",
  "updatedAt": "2018-08-31T18:18:06.455Z"
}