{
  "contractName": "MarketPlace",
  "abi": [
    {
      "constant": true,
      "inputs": [
        {
          "name": "",
          "type": "uint256"
        }
      ],
      "name": "adminUsers",
      "outputs": [
        {
          "name": "",
          "type": "address"
        }
      ],
      "payable": false,
      "stateMutability": "view",
      "type": "function"
    },
    {
      "constant": true,
      "inputs": [
        {
          "name": "",
          "type": "uint256"
        }
      ],
      "name": "storeOwners",
      "outputs": [
        {
          "name": "",
          "type": "address"
        }
      ],
      "payable": false,
      "stateMutability": "view",
      "type": "function"
    },
    {
      "constant": true,
      "inputs": [
        {
          "name": "",
          "type": "address"
        },
        {
          "name": "",
          "type": "uint256"
        }
      ],
      "name": "storeFrontMap",
      "outputs": [
        {
          "name": "",
          "type": "address"
        }
      ],
      "payable": false,
      "stateMutability": "view",
      "type": "function"
    },
    {
      "inputs": [],
      "payable": false,
      "stateMutability": "nonpayable",
      "type": "constructor"
    },
    {
      "anonymous": false,
      "inputs": [
        {
          "indexed": false,
          "name": "storeName",
          "type": "string"
        },
        {
          "indexed": false,
          "name": "storeDescription",
          "type": "string"
        },
        {
          "indexed": false,
          "name": "storeOwner",
          "type": "address"
        },
        {
          "indexed": false,
          "name": "storeAddress",
          "type": "address"
        }
      ],
      "name": "NewStore",
      "type": "event"
    },
    {
      "anonymous": false,
      "inputs": [
        {
          "indexed": false,
          "name": "currentStore",
          "type": "address"
        }
      ],
      "name": "AccessingStore",
      "type": "event"
    },
    {
      "constant": false,
      "inputs": [
        {
          "name": "newAdminUser",
          "type": "address"
        }
      ],
      "name": "createAdminUser",
      "outputs": [
        {
          "name": "",
          "type": "address"
        }
      ],
      "payable": false,
      "stateMutability": "nonpayable",
      "type": "function"
    },
    {
      "constant": true,
      "inputs": [],
      "name": "getAdminUsers",
      "outputs": [
        {
          "name": "",
          "type": "address[]"
        }
      ],
      "payable": false,
      "stateMutability": "view",
      "type": "function"
    },
    {
      "constant": true,
      "inputs": [
        {
          "name": "addressToVerify",
          "type": "address"
        }
      ],
      "name": "checkAccess",
      "outputs": [
        {
          "name": "",
          "type": "bool"
        },
        {
          "name": "",
          "type": "bool"
        },
        {
          "name": "",
          "type": "bool"
        }
      ],
      "payable": false,
      "stateMutability": "view",
      "type": "function"
    },
    {
      "constant": false,
      "inputs": [
        {
          "name": "newStoreOwnerAddress",
          "type": "address"
        }
      ],
      "name": "createStoreOwner",
      "outputs": [
        {
          "name": "",
          "type": "bool"
        }
      ],
      "payable": false,
      "stateMutability": "nonpayable",
      "type": "function"
    },
    {
      "constant": true,
      "inputs": [],
      "name": "getStoreOwners",
      "outputs": [
        {
          "name": "",
          "type": "address[]"
        }
      ],
      "payable": false,
      "stateMutability": "view",
      "type": "function"
    },
    {
      "constant": false,
      "inputs": [
        {
          "name": "storeName",
          "type": "string"
        },
        {
          "name": "storeDescription",
          "type": "string"
        }
      ],
      "name": "createStoreFront",
      "outputs": [
        {
          "name": "",
          "type": "address"
        }
      ],
      "payable": false,
      "stateMutability": "nonpayable",
      "type": "function"
    },
    {
      "constant": true,
      "inputs": [
        {
          "name": "storeOwnerAddress",
          "type": "address"
        }
      ],
      "name": "getStores",
      "outputs": [
        {
          "name": "",
          "type": "address[]"
        }
      ],
      "payable": false,
      "stateMutability": "view",
      "type": "function"
    },
    {
      "constant": false,
      "inputs": [
        {
          "name": "storeOwnerAddress",
          "type": "address"
        },
        {
          "name": "numberOfTokens",
          "type": "uint256"
        }
      ],
      "name": "allocateNewTokens",
      "outputs": [
        {
          "name": "",
          "type": "uint256"
        }
      ],
      "payable": false,
      "stateMutability": "nonpayable",
      "type": "function"
    },
    {
      "constant": true,
      "inputs": [
        {
          "name": "accountAddress",
          "type": "address"
        }
      ],
      "name": "getTokenBalance",
      "outputs": [
        {
          "name": "tokenBalance",
          "type": "uint256"
        }
      ],
      "payable": false,
      "stateMutability": "view",
      "type": "function"
    },
    {
      "constant": false,
      "inputs": [],
      "name": "closeMarketPlace",
      "outputs": [],
      "payable": false,
      "stateMutability": "nonpayable",
      "type": "function"
    }
  ],
  "bytecode": "0x60806040523480156200001157600080fd5b50336000806101000a81548173ffffffffffffffffffffffffffffffffffffffff021916908373ffffffffffffffffffffffffffffffffffffffff16021790555060013390806001815401808255809150509060018203906000526020600020016000909192909190916101000a81548173ffffffffffffffffffffffffffffffffffffffff021916908373ffffffffffffffffffffffffffffffffffffffff160217905550506001600381905550620000ca6200012e565b604051809103906000f080158015620000e7573d6000803e3d6000fd5b50600460006101000a81548173ffffffffffffffffffffffffffffffffffffffff021916908373ffffffffffffffffffffffffffffffffffffffff1602179055506200013f565b604051610d7f806200542283390190565b6152d3806200014f6000396000f300608060405260043610620000d3576000357c0100000000000000000000000000000000000000000000000000000000900463ffffffff1680631fa9acf114620000d857806329cbf2e914620001485780633aecd0e3146200016257806344d5099314620001bc578063466a0146146200022c5780634baa0f5e14620002a057806361878fc414620002fe57806373a296ba146200038457806375b9960e146200041457806375dae8a6146200050657806391f4245a14620005a35780639b8e7b691462000614578063cb6a0e411462000685575b600080fd5b348015620000e557600080fd5b506200010660048036038101908080359060200190929190505050620006e9565b604051808273ffffffffffffffffffffffffffffffffffffffff1673ffffffffffffffffffffffffffffffffffffffff16815260200191505060405180910390f35b3480156200015557600080fd5b506200016062000728565b005b3480156200016f57600080fd5b50620001a6600480360381019080803573ffffffffffffffffffffffffffffffffffffffff1690602001909291905050506200091d565b6040518082815260200191505060405180910390f35b348015620001c957600080fd5b50620001ea6004803603810190808035906020019092919050505062000a21565b604051808273ffffffffffffffffffffffffffffffffffffffff1673ffffffffffffffffffffffffffffffffffffffff16815260200191505060405180910390f35b3480156200023957600080fd5b5062000270600480360381019080803573ffffffffffffffffffffffffffffffffffffffff16906020019092919050505062000a60565b60405180841515151581526020018315151515815260200182151515158152602001935050505060405180910390f35b348015620002ad57600080fd5b50620002e4600480360381019080803573ffffffffffffffffffffffffffffffffffffffff16906020019092919050505062000d87565b604051808215151515815260200191505060405180910390f35b3480156200030b57600080fd5b5062000342600480360381019080803573ffffffffffffffffffffffffffffffffffffffff169060200190929190505050620011d7565b604051808273ffffffffffffffffffffffffffffffffffffffff1673ffffffffffffffffffffffffffffffffffffffff16815260200191505060405180910390f35b3480156200039157600080fd5b50620003d2600480360381019080803573ffffffffffffffffffffffffffffffffffffffff1690602001909291908035906020019092919050505062001522565b604051808273ffffffffffffffffffffffffffffffffffffffff1673ffffffffffffffffffffffffffffffffffffffff16815260200191505060405180910390f35b3480156200042157600080fd5b50620004c4600480360381019080803590602001908201803590602001908080601f0160208091040260200160405190810160405280939291908181526020018383808284378201915050505050509192919290803590602001908201803590602001908080601f016020809104026020016040519081016040528093929190818152602001838380828437820191505050505050919291929050505062001570565b604051808273ffffffffffffffffffffffffffffffffffffffff1673ffffffffffffffffffffffffffffffffffffffff16815260200191505060405180910390f35b3480156200051357600080fd5b506200054a600480360381019080803573ffffffffffffffffffffffffffffffffffffffff16906020019092919050505062001d0d565b6040518080602001828103825283818151815260200191508051906020019060200280838360005b838110156200058f57808201518184015260208101905062000572565b505050509050019250505060405180910390f35b348015620005b057600080fd5b50620005bb620020a0565b6040518080602001828103825283818151815260200191508051906020019060200280838360005b8381101562000600578082015181840152602081019050620005e3565b505050509050019250505060405180910390f35b3480156200062157600080fd5b506200062c62002130565b6040518080602001828103825283818151815260200191508051906020019060200280838360005b838110156200067157808201518184015260208101905062000654565b505050509050019250505060405180910390f35b3480156200069257600080fd5b50620006d3600480360381019080803573ffffffffffffffffffffffffffffffffffffffff16906020019092919080359060200190929190505050620021c0565b6040518082815260200191505060405180910390f35b600181815481101515620006f957fe5b906000526020600020016000915054906101000a900473ffffffffffffffffffffffffffffffffffffffff1681565b60008060009054906101000a900473ffffffffffffffffffffffffffffffffffffffff1673ffffffffffffffffffffffffffffffffffffffff163373ffffffffffffffffffffffffffffffffffffffff1614151562000815576040517f08c379a00000000000000000000000000000000000000000000000000000000081526004018080602001828103825260328152602001807f4f6e6c792053757065722041646d696e6973747261746f722063616e20696e7681526020017f6f6b6520746869732066756e6374696f6e2e000000000000000000000000000081525060400191505060405180910390fd5b6200081f620025fc565b9050801515620008e3576040517f08c379a00000000000000000000000000000000000000000000000000000000081526004018080602001828103825260438152602001807f596f7520646f206e6f742068617665207468652073756666696369656e74206381526020017f6f6e73656e73757320746f20636c6f736520746865206d61726b657420706c6181526020017f636521000000000000000000000000000000000000000000000000000000000081525060600191505060405180910390fd5b6000809054906101000a900473ffffffffffffffffffffffffffffffffffffffff1673ffffffffffffffffffffffffffffffffffffffff16ff5b6000600460009054906101000a900473ffffffffffffffffffffffffffffffffffffffff1673ffffffffffffffffffffffffffffffffffffffff166370a08231836040518263ffffffff167c0100000000000000000000000000000000000000000000000000000000028152600401808273ffffffffffffffffffffffffffffffffffffffff1673ffffffffffffffffffffffffffffffffffffffff168152602001915050602060405180830381600087803b158015620009dd57600080fd5b505af1158015620009f2573d6000803e3d6000fd5b505050506040513d602081101562000a0957600080fd5b81019080805190602001909291905050509050919050565b60028181548110151562000a3157fe5b906000526020600020016000915054906101000a900473ffffffffffffffffffffffffffffffffffffffff1681565b60008060008060008073__Utils_________________________________63cd817f4b6001896040518363ffffffff167c010000000000000000000000000000000000000000000000000000000002815260040180806020018373ffffffffffffffffffffffffffffffffffffffff1673ffffffffffffffffffffffffffffffffffffffff168152602001828103825284818154815260200191508054801562000b6057602002820191906000526020600020905b8160009054906101000a900473ffffffffffffffffffffffffffffffffffffffff1673ffffffffffffffffffffffffffffffffffffffff168152602001906001019080831162000b15575b5050935050505060206040518083038186803b15801562000b8057600080fd5b505af415801562000b95573d6000803e3d6000fd5b505050506040513d602081101562000bac57600080fd5b8101908080519060200190929190505050925073__Utils_________________________________63cd817f4b6002896040518363ffffffff167c010000000000000000000000000000000000000000000000000000000002815260040180806020018373ffffffffffffffffffffffffffffffffffffffff1673ffffffffffffffffffffffffffffffffffffffff168152602001828103825284818154815260200191508054801562000cb657602002820191906000526020600020905b8160009054906101000a900473ffffffffffffffffffffffffffffffffffffffff1673ffffffffffffffffffffffffffffffffffffffff168152602001906001019080831162000c6b575b5050935050505060206040518083038186803b15801562000cd657600080fd5b505af415801562000ceb573d6000803e3d6000fd5b505050506040513d602081101562000d0257600080fd5b81019080805190602001909291905050509150600090506000809054906101000a900473ffffffffffffffffffffffffffffffffffffffff1673ffffffffffffffffffffffffffffffffffffffff168773ffffffffffffffffffffffffffffffffffffffff16141562000d7457600190505b8083839550955095505050509193909250565b600073__Utils_________________________________63cd817f4b6001336040518363ffffffff167c010000000000000000000000000000000000000000000000000000000002815260040180806020018373ffffffffffffffffffffffffffffffffffffffff1673ffffffffffffffffffffffffffffffffffffffff168152602001828103825284818154815260200191508054801562000e8057602002820191906000526020600020905b8160009054906101000a900473ffffffffffffffffffffffffffffffffffffffff1673ffffffffffffffffffffffffffffffffffffffff168152602001906001019080831162000e35575b5050935050505060206040518083038186803b15801562000ea057600080fd5b505af415801562000eb5573d6000803e3d6000fd5b505050506040513d602081101562000ecc57600080fd5b8101908080519060200190929190505050151562000f78576040517f08c379a000000000000000000000000000000000000000000000000000000000815260040180806020018281038252602f8152602001807f4f6e6c7920616e2041646d696e6973747261746f722063616e20696e766f6b6581526020017f20746869732066756e6374696f6e2e000000000000000000000000000000000081525060400191505060405180910390fd5b73__Utils_________________________________63cd817f4b6002846040518363ffffffff167c010000000000000000000000000000000000000000000000000000000002815260040180806020018373ffffffffffffffffffffffffffffffffffffffff1673ffffffffffffffffffffffffffffffffffffffff16815260200182810382528481815481526020019150805480156200106f57602002820191906000526020600020905b8160009054906101000a900473ffffffffffffffffffffffffffffffffffffffff1673ffffffffffffffffffffffffffffffffffffffff168152602001906001019080831162001024575b5050935050505060206040518083038186803b1580156200108f57600080fd5b505af4158015620010a4573d6000803e3d6000fd5b505050506040513d6020811015620010bb57600080fd5b810190808051906020019092919050505015151562001168576040517f08c379a00000000000000000000000000000000000000000000000000000000081526004018080602001828103825260348152602001807f5468652073746f7265206f776e65722077697468207468652073616d6520616481526020017f647265737320616c72656164792065786973742100000000000000000000000081525060400191505060405180910390fd5b60028290806001815401808255809150509060018203906000526020600020016000909192909190916101000a81548173ffffffffffffffffffffffffffffffffffffffff021916908373ffffffffffffffffffffffffffffffffffffffff1602179055505060019050919050565b60008060009054906101000a900473ffffffffffffffffffffffffffffffffffffffff1673ffffffffffffffffffffffffffffffffffffffff163373ffffffffffffffffffffffffffffffffffffffff16141515620012c4576040517f08c379a00000000000000000000000000000000000000000000000000000000081526004018080602001828103825260328152602001807f4f6e6c792053757065722041646d696e6973747261746f722063616e20696e7681526020017f6f6b6520746869732066756e6374696f6e2e000000000000000000000000000081525060400191505060405180910390fd5b73__Utils_________________________________63cd817f4b6001846040518363ffffffff167c010000000000000000000000000000000000000000000000000000000002815260040180806020018373ffffffffffffffffffffffffffffffffffffffff1673ffffffffffffffffffffffffffffffffffffffff1681526020018281038252848181548152602001915080548015620013bb57602002820191906000526020600020905b8160009054906101000a900473ffffffffffffffffffffffffffffffffffffffff1673ffffffffffffffffffffffffffffffffffffffff168152602001906001019080831162001370575b5050935050505060206040518083038186803b158015620013db57600080fd5b505af4158015620013f0573d6000803e3d6000fd5b505050506040513d60208110156200140757600080fd5b8101908080519060200190929190505050151515620014b4576040517f08c379a000000000000000000000000000000000000000000000000000000000815260040180806020018281038252602a8152602001807f546865206164647265737320697320616c726561647920696e2074686520416481526020017f6d696e2067726f7570210000000000000000000000000000000000000000000081525060400191505060405180910390fd5b60018290806001815401808255809150509060018203906000526020600020016000909192909190916101000a81548173ffffffffffffffffffffffffffffffffffffffff021916908373ffffffffffffffffffffffffffffffffffffffff16021790555050819050919050565b6005602052816000526040600020818154811015156200153e57fe5b906000526020600020016000915091509054906101000a900473ffffffffffffffffffffffffffffffffffffffff1681565b60008073__Utils_________________________________63cd817f4b6002336040518363ffffffff167c010000000000000000000000000000000000000000000000000000000002815260040180806020018373ffffffffffffffffffffffffffffffffffffffff1673ffffffffffffffffffffffffffffffffffffffff16815260200182810382528481815481526020019150805480156200166a57602002820191906000526020600020905b8160009054906101000a900473ffffffffffffffffffffffffffffffffffffffff1673ffffffffffffffffffffffffffffffffffffffff16815260200190600101908083116200161f575b5050935050505060206040518083038186803b1580156200168a57600080fd5b505af41580156200169f573d6000803e3d6000fd5b505050506040513d6020811015620016b657600080fd5b8101908080519060200190929190505050151562001762576040517f08c379a000000000000000000000000000000000000000000000000000000000815260040180806020018281038252602f8152602001807f4f6e6c7920616e2041646d696e6973747261746f722063616e20696e766f6b6581526020017f20746869732066756e6374696f6e2e000000000000000000000000000000000081525060400191505060405180910390fd5b600560003373ffffffffffffffffffffffffffffffffffffffff1673ffffffffffffffffffffffffffffffffffffffff168152602001908152602001600020805490509050600081141562001806576001600560003373ffffffffffffffffffffffffffffffffffffffff1673ffffffffffffffffffffffffffffffffffffffff16815260200190815260200160002081620017ff919062002604565b5062001858565b60018101600560003373ffffffffffffffffffffffffffffffffffffffff1673ffffffffffffffffffffffffffffffffffffffff1681526020019081526020016000208162001856919062002604565b505b838360035433600460009054906101000a900473ffffffffffffffffffffffffffffffffffffffff166200188b62002633565b8080602001806020018681526020018573ffffffffffffffffffffffffffffffffffffffff1673ffffffffffffffffffffffffffffffffffffffff1681526020018473ffffffffffffffffffffffffffffffffffffffff1673ffffffffffffffffffffffffffffffffffffffff168152602001838103835288818151815260200191508051906020019080838360005b83811015620019385780820151818401526020810190506200191b565b50505050905090810190601f168015620019665780820380516001836020036101000a031916815260200191505b50838103825287818151815260200191508051906020019080838360005b83811015620019a157808201518184015260208101905062001984565b50505050905090810190601f168015620019cf5780820380516001836020036101000a031916815260200191505b50975050505050505050604051809103906000f080158015620019f6573d6000803e3d6000fd5b50600560003373ffffffffffffffffffffffffffffffffffffffff1673ffffffffffffffffffffffffffffffffffffffff1681526020019081526020016000208281548110151562001a4457fe5b9060005260206000200160006101000a81548173ffffffffffffffffffffffffffffffffffffffff021916908373ffffffffffffffffffffffffffffffffffffffff1602179055506003600081548092919060010191905055507fe75f8bd502ee84b678cb9ed4707b4516128def5e073e6d86f35b43a25c4b40d7848433600560003373ffffffffffffffffffffffffffffffffffffffff1673ffffffffffffffffffffffffffffffffffffffff1681526020019081526020016000208581548110151562001b0f57fe5b9060005260206000200160009054906101000a900473ffffffffffffffffffffffffffffffffffffffff166040518080602001806020018573ffffffffffffffffffffffffffffffffffffffff1673ffffffffffffffffffffffffffffffffffffffff1681526020018473ffffffffffffffffffffffffffffffffffffffff1673ffffffffffffffffffffffffffffffffffffffff168152602001838103835287818151815260200191508051906020019080838360005b8381101562001be457808201518184015260208101905062001bc7565b50505050905090810190601f16801562001c125780820380516001836020036101000a031916815260200191505b50838103825286818151815260200191508051906020019080838360005b8381101562001c4d57808201518184015260208101905062001c30565b50505050905090810190601f16801562001c7b5780820380516001836020036101000a031916815260200191505b50965050505050505060405180910390a1600560003373ffffffffffffffffffffffffffffffffffffffff1673ffffffffffffffffffffffffffffffffffffffff1681526020019081526020016000208181548110151562001cd957fe5b9060005260206000200160009054906101000a900473ffffffffffffffffffffffffffffffffffffffff1691505092915050565b60606000806060600060606000808873ffffffffffffffffffffffffffffffffffffffff1614151562001e0857600560008973ffffffffffffffffffffffffffffffffffffffff1673ffffffffffffffffffffffffffffffffffffffff16815260200190815260200160002080548060200260200160405190810160405280929190818152602001828054801562001dfb57602002820191906000526020600020905b8160009054906101000a900473ffffffffffffffffffffffffffffffffffffffff1673ffffffffffffffffffffffffffffffffffffffff168152602001906001019080831162001db0575b5050505050965062002095565b60009550600094505b60028054905085101562001eae576005600060028781548110151562001e3357fe5b9060005260206000200160009054906101000a900473ffffffffffffffffffffffffffffffffffffffff1673ffffffffffffffffffffffffffffffffffffffff1673ffffffffffffffffffffffffffffffffffffffff1681526020019081526020016000208054905086019550848060010195505062001e11565b8560405190808252806020026020018201604052801562001ede5781602001602082028038833980820191505090505b50935060009250600094505b60028054905085101562002091576005600060028781548110151562001f0c57fe5b9060005260206000200160009054906101000a900473ffffffffffffffffffffffffffffffffffffffff1673ffffffffffffffffffffffffffffffffffffffff1673ffffffffffffffffffffffffffffffffffffffff16815260200190815260200160002080548060200260200160405190810160405280929190818152602001828054801562001ff357602002820191906000526020600020905b8160009054906101000a900473ffffffffffffffffffffffffffffffffffffffff1673ffffffffffffffffffffffffffffffffffffffff168152602001906001019080831162001fa8575b50505050509150600090505b8151811015620020835781818151811015156200201857fe5b9060200190602002015184848151811015156200203157fe5b9060200190602002019073ffffffffffffffffffffffffffffffffffffffff16908173ffffffffffffffffffffffffffffffffffffffff16815250508280600101935050808060010191505062001fff565b848060010195505062001eea565b8396505b505050505050919050565b606060028054806020026020016040519081016040528092919081815260200182805480156200212657602002820191906000526020600020905b8160009054906101000a900473ffffffffffffffffffffffffffffffffffffffff1673ffffffffffffffffffffffffffffffffffffffff1681526020019060010190808311620020db575b5050505050905090565b60606001805480602002602001604051908101604052809291908181526020018280548015620021b657602002820191906000526020600020905b8160009054906101000a900473ffffffffffffffffffffffffffffffffffffffff1673ffffffffffffffffffffffffffffffffffffffff16815260200190600101908083116200216b575b5050505050905090565b60008060009054906101000a900473ffffffffffffffffffffffffffffffffffffffff1673ffffffffffffffffffffffffffffffffffffffff163373ffffffffffffffffffffffffffffffffffffffff16141515620022ad576040517f08c379a00000000000000000000000000000000000000000000000000000000081526004018080602001828103825260328152602001807f4f6e6c792053757065722041646d696e6973747261746f722063616e20696e7681526020017f6f6b6520746869732066756e6374696f6e2e000000000000000000000000000081525060400191505060405180910390fd5b73__Utils_________________________________63cd817f4b6002856040518363ffffffff167c010000000000000000000000000000000000000000000000000000000002815260040180806020018373ffffffffffffffffffffffffffffffffffffffff1673ffffffffffffffffffffffffffffffffffffffff1681526020018281038252848181548152602001915080548015620023a457602002820191906000526020600020905b8160009054906101000a900473ffffffffffffffffffffffffffffffffffffffff1673ffffffffffffffffffffffffffffffffffffffff168152602001906001019080831162002359575b5050935050505060206040518083038186803b158015620023c457600080fd5b505af4158015620023d9573d6000803e3d6000fd5b505050506040513d6020811015620023f057600080fd5b810190808051906020019092919050505015156200249c576040517f08c379a000000000000000000000000000000000000000000000000000000000815260040180806020018281038252602a8152602001807f5468652070726f76696465642061646472657373206973206e6f74206120737481526020017f6f7265206f776e6572210000000000000000000000000000000000000000000081525060400191505060405180910390fd5b600460009054906101000a900473ffffffffffffffffffffffffffffffffffffffff1673ffffffffffffffffffffffffffffffffffffffff1663bca82f976000809054906101000a900473ffffffffffffffffffffffffffffffffffffffff1685856040518463ffffffff167c0100000000000000000000000000000000000000000000000000000000028152600401808473ffffffffffffffffffffffffffffffffffffffff1673ffffffffffffffffffffffffffffffffffffffff1681526020018373ffffffffffffffffffffffffffffffffffffffff1673ffffffffffffffffffffffffffffffffffffffff1681526020018281526020019350505050602060405180830381600087803b158015620025b757600080fd5b505af1158015620025cc573d6000803e3d6000fd5b505050506040513d6020811015620025e357600080fd5b8101908080519060200190929190505050905092915050565b600080905090565b8154818355818111156200262e578183600052602060002091820191016200262d919062002644565b5b505050565b604051612c3b806200266d83390190565b6200266991905b80821115620026655760008160009055506001016200264b565b5090565b90560060806040523480156200001157600080fd5b5060405162002c3b38038062002c3b8339810180604052810190808051820192919060200180518201929190602001805190602001909291908051906020019092919080519060200190929190505050816000806101000a81548173ffffffffffffffffffffffffffffffffffffffff021916908373ffffffffffffffffffffffffffffffffffffffff1602179055508460019080519060200190620000b992919062000136565b50826003819055508360029080519060200190620000d992919062000136565b506000600481905550600160058190555080600760006101000a81548173ffffffffffffffffffffffffffffffffffffffff021916908373ffffffffffffffffffffffffffffffffffffffff1602179055505050505050620001e5565b828054600181600116156101000203166002900490600052602060002090601f016020900481019282601f106200017957805160ff1916838001178555620001aa565b82800160010185558215620001aa579182015b82811115620001a95782518255916020019190600101906200018c565b5b509050620001b99190620001bd565b5090565b620001e291905b80821115620001de576000816000905550600101620001c4565b5090565b90565b612a4680620001f56000396000f3006080604052600436106100a4576000357c0100000000000000000000000000000000000000000000000000000000900463ffffffff1680630cee1725146100a65780635ee95cae146100de5780636813b53b146101235780637b2c5d131461025f5780639498be1b146102a4578063ce2d683f1461037b578063dbf5dcd9146103ff578063de0847301461042a578063f94eb1821461046c578063fe04eb2d14610551575b005b6100c460048036038101908080359060200190929190505050610687565b604051808215151515815260200191505060405180910390f35b3480156100ea57600080fd5b506101096004803603810190808035906020019092919050505061095d565b604051808215151515815260200191505060405180910390f35b34801561012f57600080fd5b5061014e60048036038101908080359060200190929190505050610b7d565b60405180806020018060200187815260200186815260200185600181111561017257fe5b60ff168152602001848152602001838103835289818151815260200191508051906020019080838360005b838110156101b857808201518184015260208101905061019d565b50505050905090810190601f1680156101e55780820380516001836020036101000a031916815260200191505b50838103825288818151815260200191508051906020019080838360005b8381101561021e578082015181840152602081019050610203565b50505050905090810190601f16801561024b5780820380516001836020036101000a031916815260200191505b509850505050505050505060405180910390f35b34801561026b57600080fd5b5061028a60048036038101908080359060200190929190505050610dad565b604051808215151515815260200191505060405180910390f35b3480156102b057600080fd5b50610365600480360381019080803590602001908201803590602001908080601f0160208091040260200160405190810160405280939291908181526020018383808284378201915050505050509192919290803590602001908201803590602001908080601f01602080910402602001604051908101604052809392919081815260200183838082843782019150505050505091929192908035906020019092919080359060200190929190505050610fcc565b6040518082815260200191505060405180910390f35b34801561038757600080fd5b506103a8600480360381019080803515159060200190929190505050611316565b6040518080602001828103825283818151815260200191508051906020019060200280838360005b838110156103eb5780820151818401526020810190506103d0565b505050509050019250505060405180910390f35b34801561040b57600080fd5b5061041461151e565b6040518082815260200191505060405180910390f35b610452600480360381019080803590602001909291908035906020019092919050505061153d565b604051808215151515815260200191505060405180910390f35b34801561047857600080fd5b5061053760048036038101908080359060200190929190803590602001908201803590602001908080601f0160208091040260200160405190810160405280939291908181526020018383808284378201915050505050509192919290803590602001908201803590602001908080601f016020809104026020016040519081016040528093929190818152602001838380828437820191505050505050919291929080359060200190929190803590602001909291905050506123b7565b604051808215151515815260200191505060405180910390f35b34801561055d57600080fd5b50610566612651565b604051808573ffffffffffffffffffffffffffffffffffffffff1673ffffffffffffffffffffffffffffffffffffffff1681526020018060200184815260200180602001838103835286818151815260200191508051906020019080838360005b838110156105e25780820151818401526020810190506105c7565b50505050905090810190601f16801561060f5780820380516001836020036101000a031916815260200191505b50838103825284818151815260200191508051906020019080838360005b8381101561064857808201518184015260208101905061062d565b50505050905090810190601f1680156106755780820380516001836020036101000a031916815260200191505b50965050505050505060405180910390f35b60003373ffffffffffffffffffffffffffffffffffffffff166000809054906101000a900473ffffffffffffffffffffffffffffffffffffffff1673ffffffffffffffffffffffffffffffffffffffff16141515610773576040517f08c379a000000000000000000000000000000000000000000000000000000000815260040180806020018281038252602c8152602001807f4f6e6c7920612073746f7265206f776e65722063616e20696e766f6b6520746881526020017f69732066756e6374696f6e21000000000000000000000000000000000000000081525060400191505060405180910390fd5b600082111515610811576040517f08c379a000000000000000000000000000000000000000000000000000000000815260040180806020018281038252602f8152602001807f5468652077697468647277616c20616d6f756e74206d7573742062652061207081526020017f6f736974697665206e756d62657221000000000000000000000000000000000081525060400191505060405180910390fd5b813073ffffffffffffffffffffffffffffffffffffffff1631101515156108ec576040517f08c379a000000000000000000000000000000000000000000000000000000000815260040180806020018281038252604c8152602001807f5468652063757272656e742073746f72652062616c616e636520616d6f756e7481526020017f206d7573742062652067726561746572207468616e207468652077697468647281526020017f6177616c20616d6f756e7421000000000000000000000000000000000000000081525060600191505060405180910390fd5b6000809054906101000a900473ffffffffffffffffffffffffffffffffffffffff1673ffffffffffffffffffffffffffffffffffffffff166108fc839081150290604051600060405180830381858888f19350505050158015610953573d6000803e3d6000fd5b5060019050919050565b6000803373ffffffffffffffffffffffffffffffffffffffff166000809054906101000a900473ffffffffffffffffffffffffffffffffffffffff1673ffffffffffffffffffffffffffffffffffffffff16141515610a4a576040517f08c379a000000000000000000000000000000000000000000000000000000000815260040180806020018281038252602c8152602001807f4f6e6c7920612073746f7265206f776e65722063616e20696e766f6b6520746881526020017f69732066756e6374696f6e21000000000000000000000000000000000000000081525060400191505060405180910390fd5b60018303905060006001811115610a5d57fe5b600682815481101515610a6c57fe5b906000526020600020906007020160050160009054906101000a900460ff166001811115610a9657fe5b141515610b31576040517f08c379a00000000000000000000000000000000000000000000000000000000081526004018080602001828103825260398152602001807f4f6e6c7920746865206163746976652070726f647563742063616e206265206281526020017f652072656d6f7665642066726f6d207468652073746f7265210000000000000081525060400191505060405180910390fd5b6001600682815481101515610b4257fe5b906000526020600020906007020160050160006101000a81548160ff02191690836001811115610b6e57fe5b02179055506001915050919050565b6060806000806000806000600188039050600681815481101515610b9d57fe5b9060005260206000209060070201600101600682815481101515610bbd57fe5b9060005260206000209060070201600201600683815481101515610bdd57fe5b906000526020600020906007020160030154600684815481101515610bfe57fe5b906000526020600020906007020160040154600685815481101515610c1f57fe5b906000526020600020906007020160050160009054906101000a900460ff16600686815481101515610c4d57fe5b906000526020600020906007020160060154858054600181600116156101000203166002900480601f016020809104026020016040519081016040528092919081815260200182805460018160011615610100020316600290048015610cf45780601f10610cc957610100808354040283529160200191610cf4565b820191906000526020600020905b815481529060010190602001808311610cd757829003601f168201915b50505050509550848054600181600116156101000203166002900480601f016020809104026020016040519081016040528092919081815260200182805460018160011615610100020316600290048015610d905780601f10610d6557610100808354040283529160200191610d90565b820191906000526020600020905b815481529060010190602001808311610d7357829003601f168201915b505050505094509650965096509650965096505091939550919395565b6000803373ffffffffffffffffffffffffffffffffffffffff166000809054906101000a900473ffffffffffffffffffffffffffffffffffffffff1673ffffffffffffffffffffffffffffffffffffffff16141515610e9a576040517f08c379a000000000000000000000000000000000000000000000000000000000815260040180806020018281038252602c8152602001807f4f6e6c7920612073746f7265206f776e65722063616e20696e766f6b6520746881526020017f69732066756e6374696f6e21000000000000000000000000000000000000000081525060400191505060405180910390fd5b600183039050600180811115610eac57fe5b600682815481101515610ebb57fe5b906000526020600020906007020160050160009054906101000a900460ff166001811115610ee557fe5b141515610f80576040517f08c379a000000000000000000000000000000000000000000000000000000000815260040180806020018281038252602b8152602001807f4f6e6c792074686520496e6163746976652070726f647563742063616e20626581526020017f206163746976617465642100000000000000000000000000000000000000000081525060400191505060405180910390fd5b6000600682815481101515610f9157fe5b906000526020600020906007020160050160006101000a81548160ff02191690836001811115610fbd57fe5b02179055506001915050919050565b6000803373ffffffffffffffffffffffffffffffffffffffff166000809054906101000a900473ffffffffffffffffffffffffffffffffffffffff1673ffffffffffffffffffffffffffffffffffffffff161415156110b9576040517f08c379a000000000000000000000000000000000000000000000000000000000815260040180806020018281038252602c8152602001807f4f6e6c7920612073746f7265206f776e65722063616e20696e766f6b6520746881526020017f69732066756e6374696f6e21000000000000000000000000000000000000000081525060400191505060405180910390fd5b600a905060016006818180549050019150816110d59190612808565b5060e06040519081016040528060055481526020018781526020018681526020018581526020018481526020016000600181111561110f57fe5b815260200182815250600660045481548110151561112957fe5b906000526020600020906007020160008201518160000155602082015181600101908051906020019061115d92919061283a565b50604082015181600201908051906020019061117a92919061283a565b50606082015181600301556080820151816004015560a08201518160050160006101000a81548160ff021916908360018111156111b357fe5b021790555060c082015181600601559050507fc86b920148e151a78e4a627284a763302c966579a89be8494ba9562ac1f61b7b60055487878787604051808681526020018060200180602001858152602001848152602001838103835287818151815260200191508051906020019080838360005b83811015611243578082015181840152602081019050611228565b50505050905090810190601f1680156112705780820380516001836020036101000a031916815260200191505b50838103825286818151815260200191508051906020019080838360005b838110156112a957808201518184015260208101905061128e565b50505050905090810190601f1680156112d65780820380516001836020036101000a031916815260200191505b5097505050505050505060405180910390a16004600081548092919060010191905055506005600081548092919060010191905055915050949350505050565b6060600080606060008093506001151586151514156113ae57600092505b6006805490508360ff1610156113a9576000600181111561135157fe5b60068460ff1681548110151561136357fe5b906000526020600020906007020160050160009054906101000a900460ff16600181111561138d57fe5b141561139c5783806001019450505b8280600101935050611334565b6113b7565b60068054905093505b836040519080825280602002602001820160405280156113e65781602001602082028038833980820191505090505b50915060008411156115125760009050600092505b6006805490508360ff161015611511576001151586151514156114b8576000600181111561142557fe5b60068460ff1681548110151561143757fe5b906000526020600020906007020160050160009054906101000a900460ff16600181111561146157fe5b14156114b35760068360ff1681548110151561147957fe5b906000526020600020906007020160000154828260ff1681518110151561149c57fe5b906020019060200201818152505080806001019150505b611504565b60068360ff168154811015156114ca57fe5b906000526020600020906007020160000154828260ff168151811015156114ed57fe5b906020019060200201818152505080806001019150505b82806001019350506113fb565b5b81945050505050919050565b60003073ffffffffffffffffffffffffffffffffffffffff1631905090565b60008060008060008060008060018a03965060068781548110151561155e57fe5b906000526020600020906007020160030154890295506000600181111561158157fe5b60068881548110151561159057fe5b906000526020600020906007020160050160009054906101000a900460ff1660018111156115ba57fe5b141515611655576040517f08c379a00000000000000000000000000000000000000000000000000000000081526004018080602001828103825260268152602001807f4f6e6c7920746865206163746976652070726f647563742063616e206265206281526020017f6f7567687421000000000000000000000000000000000000000000000000000081525060400191505060405180910390fd5b3373ffffffffffffffffffffffffffffffffffffffff166000809054906101000a900473ffffffffffffffffffffffffffffffffffffffff1673ffffffffffffffffffffffffffffffffffffffff1614151515611740576040517f08c379a00000000000000000000000000000000000000000000000000000000081526004018080602001828103825260258152602001807f546865206f776e65722063616e6e6f742062757920697473206f776e2070726f81526020017f647563742100000000000000000000000000000000000000000000000000000081525060400191505060405180910390fd5b60068781548110151561174f57fe5b90600052602060002090600702016004015489111515156117fe576040517f08c379a000000000000000000000000000000000000000000000000000000000815260040180806020018281038252603a8152602001807f5468652073746f726520646f6573206e6f74206861766520737566666963696581526020017f6e74207175616e74697479206f66207468652070726f6475637400000000000081525060400191505060405180910390fd5b3373ffffffffffffffffffffffffffffffffffffffff163134111515156118b3576040517f08c379a00000000000000000000000000000000000000000000000000000000081526004018080602001828103825260408152602001807f54686520627579657220646f6573206e6f74206861766520737566666963696581526020017f6e742062616c616e636520696e20686973202f20686572206163636f756e742181525060400191505060405180910390fd5b886006888154811015156118c357fe5b906000526020600020906007020160040154036006888154811015156118e557fe5b9060005260206000209060070201600401819055503373ffffffffffffffffffffffffffffffffffffffff166000809054906101000a900473ffffffffffffffffffffffffffffffffffffffff1673ffffffffffffffffffffffffffffffffffffffff163073ffffffffffffffffffffffffffffffffffffffff167f781f13430da3033909b5c9de8541109172e3f02dca16b4b18f489592e4f11af08d8d3373ffffffffffffffffffffffffffffffffffffffff16318c6040518085815260200184815260200183815260200182815260200194505050505060405180910390a4600094506000600760009054906101000a900473ffffffffffffffffffffffffffffffffffffffff1673ffffffffffffffffffffffffffffffffffffffff166370a08231336040518263ffffffff167c0100000000000000000000000000000000000000000000000000000000028152600401808273ffffffffffffffffffffffffffffffffffffffff1673ffffffffffffffffffffffffffffffffffffffff168152602001915050602060405180830381600087803b158015611a8957600080fd5b505af1158015611a9d573d6000803e3d6000fd5b505050506040513d6020811015611ab357600080fd5b81019080805190602001909291905050501115611f9d576509184e72a000600760009054906101000a900473ffffffffffffffffffffffffffffffffffffffff1673ffffffffffffffffffffffffffffffffffffffff166370a08231336040518263ffffffff167c0100000000000000000000000000000000000000000000000000000000028152600401808273ffffffffffffffffffffffffffffffffffffffff1673ffffffffffffffffffffffffffffffffffffffff168152602001915050602060405180830381600087803b158015611b8e57600080fd5b505af1158015611ba2573d6000803e3d6000fd5b505050506040513d6020811015611bb857600080fd5b81019080805190602001909291905050500293508584111515611e2a57839450600760009054906101000a900473ffffffffffffffffffffffffffffffffffffffff1673ffffffffffffffffffffffffffffffffffffffff166323b872dd336000809054906101000a900473ffffffffffffffffffffffffffffffffffffffff16600760009054906101000a900473ffffffffffffffffffffffffffffffffffffffff1673ffffffffffffffffffffffffffffffffffffffff166370a08231336040518263ffffffff167c0100000000000000000000000000000000000000000000000000000000028152600401808273ffffffffffffffffffffffffffffffffffffffff1673ffffffffffffffffffffffffffffffffffffffff168152602001915050602060405180830381600087803b158015611cf657600080fd5b505af1158015611d0a573d6000803e3d6000fd5b505050506040513d6020811015611d2057600080fd5b81019080805190602001909291905050506040518463ffffffff167c0100000000000000000000000000000000000000000000000000000000028152600401808473ffffffffffffffffffffffffffffffffffffffff1673ffffffffffffffffffffffffffffffffffffffff1681526020018373ffffffffffffffffffffffffffffffffffffffff1673ffffffffffffffffffffffffffffffffffffffff1681526020018281526020019350505050602060405180830381600087803b158015611de957600080fd5b505af1158015611dfd573d6000803e3d6000fd5b505050506040513d6020811015611e1357600080fd5b810190808051906020019092919050505050611f9c565b859450600760009054906101000a900473ffffffffffffffffffffffffffffffffffffffff1673ffffffffffffffffffffffffffffffffffffffff166323b872dd336000809054906101000a900473ffffffffffffffffffffffffffffffffffffffff16611ea76509184e72a0008b6127c890919063ffffffff16565b6040518463ffffffff167c0100000000000000000000000000000000000000000000000000000000028152600401808473ffffffffffffffffffffffffffffffffffffffff1673ffffffffffffffffffffffffffffffffffffffff1681526020018373ffffffffffffffffffffffffffffffffffffffff1673ffffffffffffffffffffffffffffffffffffffff1681526020018281526020019350505050602060405180830381600087803b158015611f5f57600080fd5b505af1158015611f73573d6000803e3d6000fd5b505050506040513d6020811015611f8957600080fd5b8101908080519060200190929190505050505b5b611fb085876127ec90919063ffffffff16565b92506000831115612006573091508173ffffffffffffffffffffffffffffffffffffffff166108fc849081150290604051600060405180830381858888f19350505050158015612004573d6000803e3d6000fd5b505b600060068881548110151561201757fe5b90600052602060002090600702016006015411156123a65760646509184e72a0000260068881548110151561204857fe5b906000526020600020906007020160060154870281151561206557fe5b04905080600760009054906101000a900473ffffffffffffffffffffffffffffffffffffffff1673ffffffffffffffffffffffffffffffffffffffff166370a082316000809054906101000a900473ffffffffffffffffffffffffffffffffffffffff166040518263ffffffff167c0100000000000000000000000000000000000000000000000000000000028152600401808273ffffffffffffffffffffffffffffffffffffffff1673ffffffffffffffffffffffffffffffffffffffff168152602001915050602060405180830381600087803b15801561214757600080fd5b505af115801561215b573d6000803e3d6000fd5b505050506040513d602081101561217157600080fd5b81019080805190602001909291905050501015156122e457600760009054906101000a900473ffffffffffffffffffffffffffffffffffffffff1673ffffffffffffffffffffffffffffffffffffffff166323b872dd6000809054906101000a900473ffffffffffffffffffffffffffffffffffffffff1633846040518463ffffffff167c0100000000000000000000000000000000000000000000000000000000028152600401808473ffffffffffffffffffffffffffffffffffffffff1673ffffffffffffffffffffffffffffffffffffffff1681526020018373ffffffffffffffffffffffffffffffffffffffff1673ffffffffffffffffffffffffffffffffffffffff1681526020018281526020019350505050602060405180830381600087803b1580156122a357600080fd5b505af11580156122b7573d6000803e3d6000fd5b505050506040513d60208110156122cd57600080fd5b8101908080519060200190929190505050506123a5565b7f28a4aede4fefb9418ddd6db3804da661600c815d4b9914dfc999aede0bb5582c6000809054906101000a900473ffffffffffffffffffffffffffffffffffffffff163383604051808473ffffffffffffffffffffffffffffffffffffffff1673ffffffffffffffffffffffffffffffffffffffff1681526020018373ffffffffffffffffffffffffffffffffffffffff1673ffffffffffffffffffffffffffffffffffffffff168152602001828152602001935050505060405180910390a15b5b600197505050505050505092915050565b6000803373ffffffffffffffffffffffffffffffffffffffff166000809054906101000a900473ffffffffffffffffffffffffffffffffffffffff1673ffffffffffffffffffffffffffffffffffffffff161415156124a4576040517f08c379a000000000000000000000000000000000000000000000000000000000815260040180806020018281038252602c8152602001807f4f6e6c7920612073746f7265206f776e65722063616e20696e766f6b6520746881526020017f69732066756e6374696f6e21000000000000000000000000000000000000000081525060400191505060405180910390fd5b60018703905060006006828154811015156124bb57fe5b9060005260206000209060070201600001541415151561258f576040517f08c379a00000000000000000000000000000000000000000000000000000000081526004018080602001828103825260498152602001807f50726f6475637420666f722074686520676976656e2073746f7265206964206181526020017f6e642070726f6475637420696420636f6d62696e6174696f6e20646f6573206e81526020017f6f7420657869737421000000000000000000000000000000000000000000000081525060600191505060405180910390fd5b8560068281548110151561259f57fe5b906000526020600020906007020160010190805190602001906125c39291906128ba565b50846006828154811015156125d457fe5b906000526020600020906007020160020190805190602001906125f89291906128ba565b508360068281548110151561260957fe5b9060005260206000209060070201600301819055508260068281548110151561262e57fe5b906000526020600020906007020160040181905550600191505095945050505050565b60006060600060606000809054906101000a900473ffffffffffffffffffffffffffffffffffffffff1660016003546002828054600181600116156101000203166002900480601f0160208091040260200160405190810160405280929190818152602001828054600181600116156101000203166002900480156127175780601f106126ec57610100808354040283529160200191612717565b820191906000526020600020905b8154815290600101906020018083116126fa57829003601f168201915b50505050509250808054600181600116156101000203166002900480601f0160208091040260200160405190810160405280929190818152602001828054600181600116156101000203166002900480156127b35780601f10612788576101008083540402835291602001916127b3565b820191906000526020600020905b81548152906001019060200180831161279657829003601f168201915b50505050509050935093509350935090919293565b600080821115156127d857600080fd5b81838115156127e357fe5b04905092915050565b60008282111515156127fd57600080fd5b818303905092915050565b81548183558181111561283557600702816007028360005260206000209182019101612834919061293a565b5b505050565b828054600181600116156101000203166002900490600052602060002090601f016020900481019282601f1061287b57805160ff19168380011785556128a9565b828001600101855582156128a9579182015b828111156128a857825182559160200191906001019061288d565b5b5090506128b691906129ad565b5090565b828054600181600116156101000203166002900490600052602060002090601f016020900481019282601f106128fb57805160ff1916838001178555612929565b82800160010185558215612929579182015b8281111561292857825182559160200191906001019061290d565b5b50905061293691906129ad565b5090565b6129aa91905b808211156129a65760008082016000905560018201600061296191906129d2565b60028201600061297191906129d2565b600382016000905560048201600090556005820160006101000a81549060ff0219169055600682016000905550600701612940565b5090565b90565b6129cf91905b808211156129cb5760008160009055506001016129b3565b5090565b90565b50805460018160011615610100020316600290046000825580601f106129f85750612a17565b601f016020900490600052602060002090810190612a1691906129ad565b5b505600a165627a7a7230582057bb10ce8aade0888006da9f7cda10a780920f283fde6fe3d707a5040f872ac90029a165627a7a72305820c0989e3b7855d646ce7ef8f7605db2aaa582331dd385e68e1c0e0a309ca10d2400296080604052600060025534801561001557600080fd5b50610d5a806100256000396000f3006080604052600436106100a4576000357c0100000000000000000000000000000000000000000000000000000000900463ffffffff16806306fdde03146100a9578063095ea7b31461013957806318160ddd1461019e57806323b872dd146101c9578063313ce5671461024e57806370a082311461027f57806395d89b41146102d6578063a9059cbb14610366578063bca82f97146103cb578063dd62ed3e1461044c575b600080fd5b3480156100b557600080fd5b506100be6104c3565b6040518080602001828103825283818151815260200191508051906020019080838360005b838110156100fe5780820151818401526020810190506100e3565b50505050905090810190601f16801561012b5780820380516001836020036101000a031916815260200191505b509250505060405180910390f35b34801561014557600080fd5b50610184600480360381019080803573ffffffffffffffffffffffffffffffffffffffff169060200190929190803590602001909291905050506104fc565b604051808215151515815260200191505060405180910390f35b3480156101aa57600080fd5b506101b361056d565b6040518082815260200191505060405180910390f35b3480156101d557600080fd5b50610234600480360381019080803573ffffffffffffffffffffffffffffffffffffffff169060200190929190803573ffffffffffffffffffffffffffffffffffffffff16906020019092919080359060200190929190505050610577565b604051808215151515815260200191505060405180910390f35b34801561025a57600080fd5b50610263610798565b604051808260ff1660ff16815260200191505060405180910390f35b34801561028b57600080fd5b506102c0600480360381019080803573ffffffffffffffffffffffffffffffffffffffff16906020019092919050505061079d565b6040518082815260200191505060405180910390f35b3480156102e257600080fd5b506102eb6107e5565b6040518080602001828103825283818151815260200191508051906020019080838360005b8381101561032b578082015181840152602081019050610310565b50505050905090810190601f1680156103585780820380516001836020036101000a031916815260200191505b509250505060405180910390f35b34801561037257600080fd5b506103b1600480360381019080803573ffffffffffffffffffffffffffffffffffffffff1690602001909291908035906020019092919050505061081e565b604051808215151515815260200191505060405180910390f35b3480156103d757600080fd5b50610436600480360381019080803573ffffffffffffffffffffffffffffffffffffffff169060200190929190803573ffffffffffffffffffffffffffffffffffffffff16906020019092919080359060200190929190505050610a3e565b6040518082815260200191505060405180910390f35b34801561045857600080fd5b506104ad600480360381019080803573ffffffffffffffffffffffffffffffffffffffff169060200190929190803573ffffffffffffffffffffffffffffffffffffffff169060200190929190505050610b31565b6040518082815260200191505060405180910390f35b6040805190810160405280601381526020017f4f6e6c696e65204d61726b657420506c6163650000000000000000000000000081525081565b60008273ffffffffffffffffffffffffffffffffffffffff163373ffffffffffffffffffffffffffffffffffffffff167f8c5be1e5ebec7d5bd14f71427d1e84f3dd0314c0f7b2291e5b200ac8c7c3b925846040518082815260200191505060405180910390a36001905092915050565b6000600254905090565b60008060008573ffffffffffffffffffffffffffffffffffffffff1673ffffffffffffffffffffffffffffffffffffffff1681526020019081526020016000205482111515156105c657600080fd5b600073ffffffffffffffffffffffffffffffffffffffff168373ffffffffffffffffffffffffffffffffffffffff161415151561060257600080fd5b610653826000808773ffffffffffffffffffffffffffffffffffffffff1673ffffffffffffffffffffffffffffffffffffffff16815260200190815260200160002054610bb890919063ffffffff16565b6000808673ffffffffffffffffffffffffffffffffffffffff1673ffffffffffffffffffffffffffffffffffffffff168152602001908152602001600020819055506106e6826000808673ffffffffffffffffffffffffffffffffffffffff1673ffffffffffffffffffffffffffffffffffffffff16815260200190815260200160002054610bd490919063ffffffff16565b6000808573ffffffffffffffffffffffffffffffffffffffff1673ffffffffffffffffffffffffffffffffffffffff168152602001908152602001600020819055508273ffffffffffffffffffffffffffffffffffffffff168473ffffffffffffffffffffffffffffffffffffffff167fddf252ad1be2c89b69c2b068fc378daa952ba7f163c4a11628f55a4df523b3ef846040518082815260200191505060405180910390a3600190509392505050565b600381565b60008060008373ffffffffffffffffffffffffffffffffffffffff1673ffffffffffffffffffffffffffffffffffffffff168152602001908152602001600020549050919050565b6040805190810160405280600381526020017f4f4d50000000000000000000000000000000000000000000000000000000000081525081565b60008060003373ffffffffffffffffffffffffffffffffffffffff1673ffffffffffffffffffffffffffffffffffffffff16815260200190815260200160002054821115151561086d57600080fd5b600073ffffffffffffffffffffffffffffffffffffffff168373ffffffffffffffffffffffffffffffffffffffff16141515156108a957600080fd5b6108fa826000803373ffffffffffffffffffffffffffffffffffffffff1673ffffffffffffffffffffffffffffffffffffffff16815260200190815260200160002054610bb890919063ffffffff16565b6000803373ffffffffffffffffffffffffffffffffffffffff1673ffffffffffffffffffffffffffffffffffffffff1681526020019081526020016000208190555061098d826000808673ffffffffffffffffffffffffffffffffffffffff1673ffffffffffffffffffffffffffffffffffffffff16815260200190815260200160002054610bd490919063ffffffff16565b6000808573ffffffffffffffffffffffffffffffffffffffff1673ffffffffffffffffffffffffffffffffffffffff168152602001908152602001600020819055508273ffffffffffffffffffffffffffffffffffffffff163373ffffffffffffffffffffffffffffffffffffffff167fddf252ad1be2c89b69c2b068fc378daa952ba7f163c4a11628f55a4df523b3ef846040518082815260200191505060405180910390a36001905092915050565b6000610a4a8383610bf0565b7f28304351f4cb68edab8682e94ff67c7f896c010f2b576db48f5503611d8ae6be848484604051808473ffffffffffffffffffffffffffffffffffffffff1673ffffffffffffffffffffffffffffffffffffffff1681526020018373ffffffffffffffffffffffffffffffffffffffff1673ffffffffffffffffffffffffffffffffffffffff168152602001828152602001935050505060405180910390a16000808473ffffffffffffffffffffffffffffffffffffffff1673ffffffffffffffffffffffffffffffffffffffff1681526020019081526020016000205490509392505050565b6000600160008473ffffffffffffffffffffffffffffffffffffffff1673ffffffffffffffffffffffffffffffffffffffff16815260200190815260200160002060008373ffffffffffffffffffffffffffffffffffffffff1673ffffffffffffffffffffffffffffffffffffffff16815260200190815260200160002054905092915050565b6000828211151515610bc957600080fd5b818303905092915050565b60008183019050828110151515610bea57600080fd5b92915050565b60008273ffffffffffffffffffffffffffffffffffffffff1614151515610c1657600080fd5b610c2b81600254610bd490919063ffffffff16565b600281905550610c82816000808573ffffffffffffffffffffffffffffffffffffffff1673ffffffffffffffffffffffffffffffffffffffff16815260200190815260200160002054610bd490919063ffffffff16565b6000808473ffffffffffffffffffffffffffffffffffffffff1673ffffffffffffffffffffffffffffffffffffffff168152602001908152602001600020819055508173ffffffffffffffffffffffffffffffffffffffff16600073ffffffffffffffffffffffffffffffffffffffff167fddf252ad1be2c89b69c2b068fc378daa952ba7f163c4a11628f55a4df523b3ef836040518082815260200191505060405180910390a350505600a165627a7a72305820e54d9847f0b184403d8373faa4c0e075c21080728360786f8f38e876adece1060029",
  "source": "pragma solidity 0.4.24;\n// produced by the Solididy File Flattener (c) David Appleton 2018\n// contact : dave@akomba.com\n// released under Apache 2.0 licence\nlibrary Utils {\n    /**\n     * Move this function into a library and call that library in this contract\n    */\n    function existInTheArray(address[] arrayOfEntities, address entity) public pure returns(bool) {\n\n        for (uint arrayIndex = 0; arrayIndex < arrayOfEntities.length; arrayIndex++) {\n            if ( arrayOfEntities[arrayIndex] == entity ) {\n                return true;\n            }\n        }\n\n        return false;\n    }\n}\n\nlibrary SafeMath {\n    function add(uint a, uint b) internal pure returns (uint c) {\n        c = a + b;\n        require(c >= a);\n    }\n    function sub(uint a, uint b) internal pure returns (uint c) {\n        require(b <= a);\n        c = a - b;\n    }\n    function mul(uint a, uint b) internal pure returns (uint c) {\n        c = a * b;\n        require(a == 0 || c / a == b);\n    }\n    function div(uint a, uint b) internal pure returns (uint c) {\n        require(b > 0);\n        c = a / b;\n    }\n}\n\ncontract EIP20Interface {\n\n  function totalSupply() public view returns (uint256);\n\n  function balanceOf(address _who) public view returns (uint256);\n\n  function allowance(address _owner, address _spender)\n    public view returns (uint256);\n\n  function transfer(address _to, uint256 _value) public returns (bool);\n\n  function approve(address _spender, uint256 _value)\n    public returns (bool);\n\n  function transferFrom(address _from, address _to, uint256 _value)\n    public returns (bool);\n\n  event Transfer(\n    address indexed from,\n    address indexed to,\n    uint256 value\n  );\n\n  event Approval(\n    address indexed owner,\n    address indexed spender,\n    uint256 value\n  );\n}\n\ncontract EIP20 is EIP20Interface {\n using SafeMath for uint256;\n\n string constant public name = \"Online Market Place\";\n string constant public symbol = \"OMP\";\n uint8 constant public decimals = 3;\n\n mapping (address => uint256) private balances;\n\n /**\n * Ideally this mapping of the mapping shall be used. However, in this contract, I don't see\n * a need yet.\n */\n mapping (address => mapping(address => uint256)) private allowed;\n\n/**\n* Initially the total supply will be zero. However, based on the store's loyalty\n* policy the store can issue a token, which will be valid across the market place.\n*/\n uint256 private totalSupply_ = 0;\n\nevent IssuedNewTokens(\n      address _senderAddress,\n      address _toAddress,\n      uint256 _amount );\n\n /**\n * @dev Total number of tokens in existence\n */\n function totalSupply() public view returns (uint256) {\n   return totalSupply_;\n }\n\n /**\n * @dev Gets the balance of the specified address.\n * @param _owner The address to query the the balance of.\n * @return An uint256 representing the amount owned by the passed address.\n */\n function balanceOf(address _owner) public view returns (uint256) {\n   return balances[_owner];\n }\n\n /**\n  * @dev Function to check the amount of tokens that an owner allowed to a spender.\n  * @param _owner address The address which owns the funds.\n  * @param _spender address The address which will spend the funds.\n  * @return A uint256 specifying the amount of tokens still available for the spender.\n  */\n function allowance(\n   address _owner,\n   address _spender\n  )\n   public\n   view\n   returns (uint256)\n {\n   return allowed[_owner][_spender];\n }\n\n /**\n * @dev Transfer token for a specified address\n * @param _to The address to transfer to.\n * @param _value The amount to be transferred.\n */\n function transfer(address _to, uint256 _value) public returns (bool) {\n   require(_value <= balances[msg.sender]);\n   require(_to != address(0));\n\n   balances[msg.sender] = balances[msg.sender].sub(_value);\n   balances[_to] = balances[_to].add(_value);\n   emit Transfer(msg.sender, _to, _value);\n   return true;\n }\n\n /**\n  * @dev Approve the passed address to spend the specified amount of tokens on behalf of msg.sender.\n  * TODO: Currently, I am not using the allowed mapping. Which means I am partially fullfilling the\n  *       ERC20 token standard.\n  *\n  * @param _spender The address which will spend the funds.\n  * @param _value The amount of tokens to be spent.\n  */\n function approve(address _spender, uint256 _value) public returns (bool) {\n   // allowed[msg.sender][_spender] = _value;\n   emit Approval(msg.sender, _spender, _value);\n   return true;\n }\n\n /**\n  * @dev Transfer tokens from one address to another\n  * @param _from address The address which you want to send tokens from\n  * @param _to address The address which you want to transfer to\n  * @param _value uint256 the amount of tokens to be transferred\n  */\n function transferFrom(\n   address _from,\n   address _to,\n   uint256 _value\n )\n   public\n   returns (bool)\n {\n   require(_value <= balances[_from]);\n   // require(_value <= allowed[_from][msg.sender]);\n   require(_to != address(0));\n\n   balances[_from] = balances[_from].sub(_value);\n   balances[_to] = balances[_to].add(_value);\n   // allowed[_from][msg.sender] = allowed[_from][msg.sender].sub(_value);\n   emit Transfer(_from, _to, _value);\n   return true;\n }\n\n /**\n * @dev this function will issue new tokens to the to address.\n * @param _senderAddress - the smart contract using this method should know that the sender is ultimately\n *      responsible for honoring all the tokens created in this system\n * @param _toAddress - this accont will be credited with certain tokens\n * @param _amount - the amount\n */\n function issueNewTokens(\n              address _senderAddress,\n              address _toAddress,\n              uint256 _amount ) public returns (uint256){\n\n    _mint(_toAddress, _amount);\n    emit IssuedNewTokens(_senderAddress, _toAddress, _amount);\n    return balances[_toAddress];\n }\n\n /**\n  *\n  * @dev Internal function that mints an amount of the token and assigns it to\n  * an account. This encapsulates the modification of balances such that the\n  * proper events are emitted.\n  * @param _account The account that will receive the created tokens.\n  * @param _amount The amount that will be created.\n  */\n function _mint(address _account, uint256 _amount) internal {\n   require(_account != 0);\n   totalSupply_ = totalSupply_.add(_amount);\n   balances[_account] = balances[_account].add(_amount);\n   emit Transfer(address(0), _account, _amount);\n }\n\n /**\n  * @dev Internal function that burns an amount of the token of a given\n  * account.\n  * @param _account The account whose tokens will be burnt.\n  * @param _amount The amount that will be burnt.\n  */\n function _burn(address _account, uint256 _amount) internal {\n   require(_account != 0);\n   require(_amount <= balances[_account]);\n\n   totalSupply_ = totalSupply_.sub(_amount);\n   balances[_account] = balances[_account].sub(_amount);\n   emit Transfer(_account, address(0), _amount);\n }\n\n}\n\ncontract Store {\n    using SafeMath for uint256;\n\n    // Onwer is the actual store owner who is creating the store.\n    address private owner;\n    string private storeName;\n    string private description;\n    uint private storeId;\n    uint private productCount;\n    uint private nextProductId;\n    Product[] private products;\n    EIP20 private eip20Token;\n\n    /**\n    * At some stage we can oraclize the token price. However, for now let's consider this\n    * for the sake of any calculation.\n    */\n    uint256 constant private tokenPriceInWei = 10000000000000;\n\n    enum ProductStatus {\n        ACTIVE,\n        REMOVED\n    }\n\n    struct Product {\n        uint productId;\n        string productName;\n        string description;\n        uint price;\n        uint quantity;\n        ProductStatus status;\n        uint256 discountPercentage;\n    }\n\n    event NewProduct(\n      uint productId,\n      string productName,\n      string description,\n      uint price,\n      uint quantity\n      );\n\n    event PurchaseOfProduct(\n        uint productId,\n        uint quantity,\n        address indexed storeAddress,\n        address indexed storeOwner,\n        address indexed buyerAddress,\n        uint senderBalance,\n        uint weiToTransfer\n      );\n\n    event TokensCouldNotBeTransferred(\n        address _tokenFrom,\n        address _tokenTo,\n        uint256 tokensToBeTransferred );\n\n    event LogAsEvent(address param1, address param2, string param3);\n    /**\n    * @dev Creates a Store Contract which holds the associated products and the balance corresponding to the\n    *      sales of such products.\n    * @param _storeName - the name of the stores\n    * @param _description - the description about the stores\n    * @param _storeId - the store id of the store, which will be unique across the market place\n    * @param _storeOwner - the actual owner of the store (will be an externally owned accounts)\n    */\n    constructor(\n            string _storeName,\n            string _description,\n            uint _storeId,\n            address _storeOwner,\n            EIP20 _eip20Token ) public {\n\n        owner = _storeOwner;\n        storeName = _storeName;\n        storeId = _storeId;\n        description = _description;\n        productCount = 0;\n        nextProductId = 1;\n        eip20Token = _eip20Token;\n    }\n\n    /**\n    * Since this contract needs to accept ether, declare an anonymous payable function.\n    */\n    function() public payable { }\n\n    /**\n     * Only (store) owners shall be allowed to add or update the store specific details - e.g. product.\n     *\n    */\n    modifier onlyOwner {\n        require( (owner == msg.sender), \"Only a store owner can invoke this function!\");\n        _;\n    }\n\n    /**\n    * A function to return the state details for a given store contract\n    * @return a list of values with the following details\n    *   - Owner Address\n    *   - Store name\n    *   - Store identifier\n    *   - Store description\n    */\n    function getStoreDetails() public view returns( address, string, uint, string ) {\n      return (owner, storeName, storeId, description);\n    }\n\n     /**\n     * A store owner will use this function to add a new product to his / her store.\n     *\n     * Whenever a new product is added, the product map will be updated to hold all the product and their details\n     * across all the store and store owners.\n     *\n     * TODO: Add expiry feature and use the Auto Deprecation pattern to expire a product. Also, implement the use case\n     *      that will prevent the shoppers from buying an expired product!\n     *\n    */\n    function addProductToTheStore(\n            string productName,\n            string productDesc,\n            uint price,\n            uint quantity ) public onlyOwner returns(uint) {\n\n            uint256 discountPercentage = 10;\n            products.length += 1;\n\n            products[productCount] = Product(\n                nextProductId,\n                productName,\n                productDesc,\n                price,\n                quantity,\n                ProductStatus.ACTIVE,\n                discountPercentage );\n\n            emit NewProduct(\n              nextProductId,\n              productName,\n              productDesc,\n              price,\n              quantity\n              );\n\n            productCount++;\n\n            return nextProductId++;\n    }\n\n    /**\n     * The update product function will be called to update the details of an existing function.\n     *\n     * In a regular course of a business, the following amounts may get updated.\n     * - quantity\n     * - productName\n     * - price\n     * - description\n     *\n     * TODO : Add an additional parameter for discountPercentage\n     *\n    */\n    function updateProduct(\n            uint productId,\n            string productName,\n            string productDesc,\n            uint price,\n            uint quantity ) public onlyOwner returns(bool) {\n        uint productIndex = productId - 1;\n        require( products[productIndex].productId != 0 , \"Product for the given store id and product id combination does not exist!\");\n\n        products[productIndex].productName = productName;\n        products[productIndex].description = productDesc;\n        products[productIndex].price = price;\n        products[productIndex].quantity = quantity;\n\n        return true;\n    }\n\n    /**\n     * A store owner can decide to remove a product from his/her store.\n     * A removed product will not be visible to shoppers!\n     *\n    */\n    function removeProduct(uint _productId ) public onlyOwner returns(bool){\n        uint productIndex = _productId - 1;\n\n        require( products[productIndex].status == ProductStatus.ACTIVE, \"Only the active product can be be removed from the store!\");\n        products[productIndex].status = ProductStatus.REMOVED;\n\n        return true;\n    }\n\n    /**\n     * A store owner can decide to remove a product from his/her store.\n     * A removed product will not be visible to shoppers!\n     *\n    */\n    function reActivateProduct(uint _productId ) public onlyOwner returns(bool){\n        uint productIndex = _productId - 1;\n\n        require( products[productIndex].status == ProductStatus.REMOVED, \"Only the Inactive product can be activated!\");\n        products[productIndex].status = ProductStatus.ACTIVE;\n\n        return true;\n    }\n\n    /**\n    * getProducts will return all the products of this store.\n    */\n    function getProducts( bool activeOnlyFlag ) public view returns( uint[] ) {\n\n      uint numOfProducts = 0;\n\n      if ( activeOnlyFlag == true) {\n        for (uint8 prodCount=0; prodCount<products.length; prodCount++) {\n            if (products[prodCount].status == ProductStatus.ACTIVE) {\n                numOfProducts++;\n            }\n        }\n      } else {\n        numOfProducts = products.length;\n      }\n\n\n      uint[] memory productIds = new uint[](numOfProducts);\n\n      if ( numOfProducts > 0 ) {\n\n        uint8 tmpCount = 0;\n\n        for (prodCount=0; prodCount<products.length; prodCount++) {\n            if ( activeOnlyFlag == true ) {\n              if (products[prodCount].status == ProductStatus.ACTIVE) {\n                productIds[tmpCount] = products[prodCount].productId;\n                tmpCount++;\n              }\n            } else {\n              productIds[tmpCount] = products[prodCount].productId;\n              tmpCount++;\n            }\n\n        }\n      }\n\n      return productIds;\n    }\n\n\n    /*\n    * For a given product identifier of the store, this method will return the product details.\n    */\n    function getProductDetails(uint _productId) public view returns(string, string, uint, uint, ProductStatus, uint256 ) {\n        uint productIndex = _productId - 1;\n\n        return ( products[productIndex].productName,\n                 products[productIndex].description,\n                 products[productIndex].price,\n                 products[productIndex].quantity,\n                 products[productIndex].status,\n                 products[productIndex].discountPercentage );\n    }\n\n    /**\n     * The shopper can buy this product using this function.\n     *   // owner.transfer( weiToTransfer );\n       // address(this).transfer( msg.value );\n       // owner.transfer( msg.value );\n    */\n    function buyProductFromStore(uint _productId, uint _quantity) public payable returns (bool){\n        uint productIndex = _productId - 1;\n        uint256 weiToTransfer = _quantity * products[productIndex].price;\n\n        require( products[productIndex].status == ProductStatus.ACTIVE, \"Only the active product can be bought!\");\n        require( owner != msg.sender, \"The owner cannot buy its own product!\");\n        require( _quantity <= products[productIndex].quantity, \"The store does not have sufficient quantity of the product\");\n        require( msg.value <= msg.sender.balance, \"The buyer does not have sufficient balance in his / her account!\");\n        // require( msg.value == weiToTransfer, \"The supplied value is lesser than the actual price of the items!\");\n\n        //Reduce the corresponding quantity from the inventory\n        products[productIndex].quantity = products[productIndex].quantity - _quantity;\n\n        emit PurchaseOfProduct(_productId, _quantity, address(this), owner, msg.sender, msg.sender.balance, weiToTransfer);\n\n        // Redeem tokens by transferring the equivalent amount of tokens to the store owners\n        uint256 discountValue = 0;\n\n        if (eip20Token.balanceOf(msg.sender) > 0) {\n          uint256 tokenValue = eip20Token.balanceOf(msg.sender) * tokenPriceInWei;\n\n          if ( tokenValue <= weiToTransfer ) {\n            // Transfer all the tokens of the shopper to the store owner and\n            // set the discounted value to be same as the token values\n            discountValue = tokenValue;\n            eip20Token.transferFrom( msg.sender, owner, eip20Token.balanceOf(msg.sender) );\n          } else {\n            discountValue = weiToTransfer;\n            eip20Token.transferFrom( msg.sender, owner, weiToTransfer.div(tokenPriceInWei) );\n          }\n        }\n\n        // Transfer fund from the shopper's acount into the store's account\n        uint256 finalAmountToBePaid = weiToTransfer.sub(discountValue);\n        if ( finalAmountToBePaid > 0 ) {\n          address myAddress = address(this);\n          myAddress.transfer( finalAmountToBePaid );\n        }\n\n        // Transfer loyalty tokens to the shoppers\n        if ( products[productIndex].discountPercentage > 0 ) {\n          uint256 tokensToBeTransferred = (weiToTransfer * products[productIndex].discountPercentage) / (tokenPriceInWei * 100);\n          if ( eip20Token.balanceOf(owner) >= tokensToBeTransferred ) {\n            eip20Token.transferFrom( owner,\n                                     msg.sender,\n                                     tokensToBeTransferred\n                                   );\n          } else {\n            // Just create an event which will indicate that certain number of tokens could not be Transferred\n            emit TokensCouldNotBeTransferred(owner, msg.sender, tokensToBeTransferred);\n          }\n\n        }\n\n\n        return true;\n    }\n\n    /**\n     * A store owner can withdraw fund from a given store\n     *\n     * BP1: Fail early and fail loud\n     *  - Fail early and fail loud pattern has been used to ensure that zero amount withdrwal doesn't take place.\n    */\n    function withdrawFund(uint withdrawAmount) public payable onlyOwner returns(bool) {\n        require(withdrawAmount > 0, \"The withdrwal amount must be a positive number!\");\n        require(address(this).balance >= withdrawAmount, \"The current store balance amount must be greater than the withdrawal amount!\");\n        owner.transfer(withdrawAmount);\n\n        return true;\n    }\n\n    /**\n    * Return the balance owned by this store\n    */\n    function getBalanceOfStore() constant public returns(uint){\n        return address(this).balance;\n    }\n\n}\n\ncontract MarketPlace {\n    using SafeMath for uint256;\n\n    address superAdmin;\n    address[] public adminUsers;\n    address[] public storeOwners;\n    uint private nextStoreId;\n    EIP20 private eip20Token;\n\n    // mapping of stores of a given store owner\n    mapping (address => address[]) public storeFrontMap;\n\n    /**\n     * Initialize state variables, specifically, the Super Administrator!\n     * Also, add that address in the Admin list.\n     */\n    constructor() public {\n        superAdmin = msg.sender;\n        adminUsers.push(msg.sender);\n        nextStoreId = 1;\n        eip20Token = new EIP20();\n    }\n\n    event NewStore (\n      string storeName,\n      string storeDescription,\n      address storeOwner,\n      address storeAddress\n    );\n\n    event AccessingStore(Store currentStore);\n\n    /**\n     * Only SuperAdmin shall be able to create an Admin user\n    */\n    modifier onlySuperAdmin {\n        require( msg.sender == superAdmin, \"Only Super Administrator can invoke this function.\");\n        _;\n    }\n\n    /**\n     * Only Admin shall be allowed to create a store\n    */\n    modifier onlyAdmin {\n        require( Utils.existInTheArray(adminUsers, msg.sender), \"Only an Administrator can invoke this function.\");\n        _;\n    }\n\n    /**\n     * Only store owners shall be allowed to add stores.\n     *\n    */\n    modifier onlyStoreOwner {\n        require( Utils.existInTheArray(storeOwners, msg.sender), \"Only an Administrator can invoke this function.\");\n        _;\n    }\n\n    /**\n     * A super administrator can create one or more administrator, who will have same access, except that\n     * they cannot create another administrator\n     */\n    function createAdminUser(address newAdminUser) public onlySuperAdmin returns(address){\n        require(!Utils.existInTheArray(adminUsers, newAdminUser), \"The address is already in the Admin group!\");\n\n        adminUsers.push(newAdminUser);\n\n        return newAdminUser;\n    }\n\n    /**\n    * This function shall return all the admin address in the market place\n    */\n    function getAdminUsers() public view returns(address[]) {\n      return adminUsers;\n    }\n\n    /**\n    * This function verifies if an address has the following accesses or not\n    * - Super Admin\n    * - Admins\n    * - Store Owner\n    */\n    function checkAccess(address addressToVerify) view public returns(bool, bool, bool) {\n      bool isAdmin = Utils.existInTheArray(adminUsers, addressToVerify);\n      bool isStoreOwner = Utils.existInTheArray(storeOwners, addressToVerify);\n      bool isSuperAdmin = false;\n\n      if ( addressToVerify == superAdmin ) {\n        isSuperAdmin = true;\n      }\n\n      return (isSuperAdmin, isAdmin, isStoreOwner);\n    }\n\n    /**\n     * Any Admin shall be able to add a store owner.\n     * Of course, we need to make sure that a given address is added only once.\n    */\n    function createStoreOwner(address newStoreOwnerAddress) public onlyAdmin returns(bool){\n        require( !Utils.existInTheArray(storeOwners, newStoreOwnerAddress), \"The store owner with the same address already exist!\");\n\n        storeOwners.push(newStoreOwnerAddress);\n\n        return true;\n    }\n\n\n    /**\n    * This function shall return all the store owners address in the market place\n    */\n    function getStoreOwners() public view returns(address[]) {\n      return storeOwners;\n    }\n\n    /**\n     * A store owner shall be able to create one or more stores.\n     * The created store will be associated with the store owner using storeFrontMap, where the store owner's\n     * address is a key and the value is a map of storeId and Store.\n     *\n    */\n    function createStoreFront( string storeName, string storeDescription ) public onlyStoreOwner returns(address){\n        uint storeCount = storeFrontMap[msg.sender].length;\n\n        if (storeCount == 0) {\n          storeFrontMap[msg.sender].length = 1;\n        } else {\n          storeFrontMap[msg.sender].length = storeCount + 1;\n        }\n\n        storeFrontMap[msg.sender][storeCount] = address(new Store(\n                                                            storeName,\n                                                            storeDescription,\n                                                            nextStoreId,\n                                                            msg.sender,\n                                                            eip20Token ));\n\n        nextStoreId++;\n\n        emit NewStore(\n                storeName,\n                storeDescription,\n                msg.sender,\n                storeFrontMap[msg.sender][storeCount] );\n\n        return storeFrontMap[msg.sender][storeCount];\n    }\n\n    /**\n     * this function will be used for retriving all the stores of a given store owner\n     *\n     */\n    function getStores(address storeOwnerAddress) public view returns(address[]) {\n        if ( storeOwnerAddress != 0 ) {\n            return storeFrontMap[storeOwnerAddress];\n        }\n        else {\n            //\n            // The caller is looking for all the stores in the market place\n            //\n            uint totalStoreCount = 0;\n            uint storeOwnersCount;\n\n            for (storeOwnersCount = 0; storeOwnersCount < storeOwners.length; storeOwnersCount++) {\n                totalStoreCount += storeFrontMap[storeOwners[storeOwnersCount]].length;\n            }\n\n            address[] memory allStores = new address[](totalStoreCount);\n            uint tempStoreCount = 0;\n\n            for ( storeOwnersCount = 0; storeOwnersCount < storeOwners.length; storeOwnersCount++ ) {\n                address[] memory storesOfOwner = storeFrontMap[storeOwners[storeOwnersCount]];\n\n                for ( uint storeFrontCountOfOwner = 0;\n                      storeFrontCountOfOwner < storesOfOwner.length;\n                      storeFrontCountOfOwner++) {\n                  allStores[tempStoreCount] = storesOfOwner[storeFrontCountOfOwner];\n                  tempStoreCount++;\n                }\n            }\n\n            return allStores;\n        }\n    }\n\n    /**\n     * Any Admin shall be able to allocate certain number of new tokens to a store owner.\n     * Of course, we need to make sure that a given address is indeed a store owner\n    */\n    function allocateNewTokens(address storeOwnerAddress, uint256 numberOfTokens) public onlySuperAdmin returns(uint256){\n        require( Utils.existInTheArray(storeOwners, storeOwnerAddress), \"The provided address is not a store owner!\");\n        return eip20Token.issueNewTokens(superAdmin, storeOwnerAddress, numberOfTokens);\n    }\n\n    /**\n     * @dev This method returns the token balance of a given account.\n     * @param accountAddress is the address whose balance is being queried\n     */\n     function getTokenBalance(address accountAddress) public view returns(uint256 tokenBalance) {\n       return eip20Token.balanceOf(accountAddress);\n     }\n\n    /**\n     * The market place can be destructed by only the super admin, that too when we have at least 75% of the store owners\n     * agreeing to this decision.\n    */\n    function closeMarketPlace() public onlySuperAdmin {\n        bool haveConsentOfStoreOwners = getConsentForClosure();\n\n        require(haveConsentOfStoreOwners, \"You do not have the sufficient consensus to close the market place!\");\n\n        selfdestruct(superAdmin);\n    }\n\n    /**\n     * In case we want to allow the closure of the Market Place then implement this function\n     * with proper logic.\n    */\n    function getConsentForClosure() private pure returns(bool) {\n        return false;\n    }\n\n}\n",
  "sourcePath": "/Users/alokranjan/blockchain/ethereum/consensys/ethmarket/contracts/MarketPlace_Consolidated.sol.sol",
  "compiler": {
    "name": "solc",
    "version": "0.4.24+commit.e67f0147.Emscripten.clang"
  },
  "schemaVersion": "2.0.1",
  "updatedAt": "2018-08-27T10:27:50.695Z"
}