{
  "contractName": "MarketPlace",
  "abi": [
    {
      "constant": true,
      "inputs": [
        {
          "name": "",
          "type": "uint256"
        }
      ],
      "name": "adminUsers",
      "outputs": [
        {
          "name": "",
          "type": "address"
        }
      ],
      "payable": false,
      "stateMutability": "view",
      "type": "function"
    },
    {
      "constant": true,
      "inputs": [
        {
          "name": "",
          "type": "uint256"
        }
      ],
      "name": "storeOwners",
      "outputs": [
        {
          "name": "",
          "type": "address"
        }
      ],
      "payable": false,
      "stateMutability": "view",
      "type": "function"
    },
    {
      "constant": true,
      "inputs": [
        {
          "name": "",
          "type": "address"
        },
        {
          "name": "",
          "type": "uint256"
        }
      ],
      "name": "storeFrontMap",
      "outputs": [
        {
          "name": "",
          "type": "address"
        }
      ],
      "payable": false,
      "stateMutability": "view",
      "type": "function"
    },
    {
      "inputs": [],
      "payable": false,
      "stateMutability": "nonpayable",
      "type": "constructor"
    },
    {
      "anonymous": false,
      "inputs": [
        {
          "indexed": false,
          "name": "storeName",
          "type": "string"
        },
        {
          "indexed": false,
          "name": "storeDescription",
          "type": "string"
        },
        {
          "indexed": false,
          "name": "storeOwner",
          "type": "address"
        },
        {
          "indexed": false,
          "name": "storeAddress",
          "type": "address"
        }
      ],
      "name": "NewStore",
      "type": "event"
    },
    {
      "anonymous": false,
      "inputs": [
        {
          "indexed": false,
          "name": "currentStore",
          "type": "address"
        }
      ],
      "name": "AccessingStore",
      "type": "event"
    },
    {
      "constant": false,
      "inputs": [
        {
          "name": "newAdminUser",
          "type": "address"
        }
      ],
      "name": "createAdminUser",
      "outputs": [
        {
          "name": "",
          "type": "address"
        }
      ],
      "payable": false,
      "stateMutability": "nonpayable",
      "type": "function"
    },
    {
      "constant": true,
      "inputs": [],
      "name": "getAdminUsers",
      "outputs": [
        {
          "name": "",
          "type": "address[]"
        }
      ],
      "payable": false,
      "stateMutability": "view",
      "type": "function"
    },
    {
      "constant": true,
      "inputs": [
        {
          "name": "addressToVerify",
          "type": "address"
        }
      ],
      "name": "checkAccess",
      "outputs": [
        {
          "name": "",
          "type": "bool"
        },
        {
          "name": "",
          "type": "bool"
        },
        {
          "name": "",
          "type": "bool"
        }
      ],
      "payable": false,
      "stateMutability": "view",
      "type": "function"
    },
    {
      "constant": false,
      "inputs": [
        {
          "name": "newStoreOwnerAddress",
          "type": "address"
        }
      ],
      "name": "createStoreOwner",
      "outputs": [
        {
          "name": "",
          "type": "bool"
        }
      ],
      "payable": false,
      "stateMutability": "nonpayable",
      "type": "function"
    },
    {
      "constant": true,
      "inputs": [],
      "name": "getStoreOwners",
      "outputs": [
        {
          "name": "",
          "type": "address[]"
        }
      ],
      "payable": false,
      "stateMutability": "view",
      "type": "function"
    },
    {
      "constant": false,
      "inputs": [
        {
          "name": "storeName",
          "type": "string"
        },
        {
          "name": "storeDescription",
          "type": "string"
        }
      ],
      "name": "createStoreFront",
      "outputs": [
        {
          "name": "",
          "type": "address"
        }
      ],
      "payable": false,
      "stateMutability": "nonpayable",
      "type": "function"
    },
    {
      "constant": true,
      "inputs": [
        {
          "name": "storeOwnerAddress",
          "type": "address"
        }
      ],
      "name": "getStores",
      "outputs": [
        {
          "name": "",
          "type": "address[]"
        }
      ],
      "payable": false,
      "stateMutability": "view",
      "type": "function"
    },
    {
      "constant": false,
      "inputs": [],
      "name": "closeMarketPlace",
      "outputs": [],
      "payable": false,
      "stateMutability": "nonpayable",
      "type": "function"
    }
  ],
  "bytecode": "0x608060405234801561001057600080fd5b50336000806101000a81548173ffffffffffffffffffffffffffffffffffffffff021916908373ffffffffffffffffffffffffffffffffffffffff16021790555060013390806001815401808255809150509060018203906000526020600020016000909192909190916101000a81548173ffffffffffffffffffffffffffffffffffffffff021916908373ffffffffffffffffffffffffffffffffffffffff160217905550506001600381905550614788806100ce6000396000f300608060405260043610620000bb576000357c0100000000000000000000000000000000000000000000000000000000900463ffffffff1680631fa9acf114620000c057806329cbf2e9146200013057806344d50993146200014a578063466a014614620001ba5780634baa0f5e146200022e57806361878fc4146200028c57806373a296ba146200031257806375b9960e14620003a257806375dae8a6146200049457806391f4245a14620005315780639b8e7b6914620005a2575b600080fd5b348015620000cd57600080fd5b50620000ee6004803603810190808035906020019092919050505062000613565b604051808273ffffffffffffffffffffffffffffffffffffffff1673ffffffffffffffffffffffffffffffffffffffff16815260200191505060405180910390f35b3480156200013d57600080fd5b506200014862000652565b005b3480156200015757600080fd5b50620001786004803603810190808035906020019092919050505062000847565b604051808273ffffffffffffffffffffffffffffffffffffffff1673ffffffffffffffffffffffffffffffffffffffff16815260200191505060405180910390f35b348015620001c757600080fd5b50620001fe600480360381019080803573ffffffffffffffffffffffffffffffffffffffff16906020019092919050505062000886565b60405180841515151581526020018315151515815260200182151515158152602001935050505060405180910390f35b3480156200023b57600080fd5b5062000272600480360381019080803573ffffffffffffffffffffffffffffffffffffffff16906020019092919050505062000bad565b604051808215151515815260200191505060405180910390f35b3480156200029957600080fd5b50620002d0600480360381019080803573ffffffffffffffffffffffffffffffffffffffff16906020019092919050505062000ffd565b604051808273ffffffffffffffffffffffffffffffffffffffff1673ffffffffffffffffffffffffffffffffffffffff16815260200191505060405180910390f35b3480156200031f57600080fd5b5062000360600480360381019080803573ffffffffffffffffffffffffffffffffffffffff1690602001909291908035906020019092919050505062001348565b604051808273ffffffffffffffffffffffffffffffffffffffff1673ffffffffffffffffffffffffffffffffffffffff16815260200191505060405180910390f35b348015620003af57600080fd5b5062000452600480360381019080803590602001908201803590602001908080601f0160208091040260200160405190810160405280939291908181526020018383808284378201915050505050509192919290803590602001908201803590602001908080601f016020809104026020016040519081016040528093929190818152602001838380828437820191505050505050919291929050505062001396565b604051808273ffffffffffffffffffffffffffffffffffffffff1673ffffffffffffffffffffffffffffffffffffffff16815260200191505060405180910390f35b348015620004a157600080fd5b50620004d8600480360381019080803573ffffffffffffffffffffffffffffffffffffffff16906020019092919050505062001add565b6040518080602001828103825283818151815260200191508051906020019060200280838360005b838110156200051d57808201518184015260208101905062000500565b505050509050019250505060405180910390f35b3480156200053e57600080fd5b506200054962001e70565b6040518080602001828103825283818151815260200191508051906020019060200280838360005b838110156200058e57808201518184015260208101905062000571565b505050509050019250505060405180910390f35b348015620005af57600080fd5b50620005ba62001f00565b6040518080602001828103825283818151815260200191508051906020019060200280838360005b83811015620005ff578082015181840152602081019050620005e2565b505050509050019250505060405180910390f35b6001818154811015156200062357fe5b906000526020600020016000915054906101000a900473ffffffffffffffffffffffffffffffffffffffff1681565b60008060009054906101000a900473ffffffffffffffffffffffffffffffffffffffff1673ffffffffffffffffffffffffffffffffffffffff163373ffffffffffffffffffffffffffffffffffffffff161415156200073f576040517f08c379a00000000000000000000000000000000000000000000000000000000081526004018080602001828103825260328152602001807f4f6e6c792053757065722041646d696e6973747261746f722063616e20696e7681526020017f6f6b6520746869732066756e6374696f6e2e000000000000000000000000000081525060400191505060405180910390fd5b6200074962001f90565b90508015156200080d576040517f08c379a00000000000000000000000000000000000000000000000000000000081526004018080602001828103825260438152602001807f596f7520646f206e6f742068617665207468652073756666696369656e74206381526020017f6f6e73656e73757320746f20636c6f736520746865206d61726b657420706c6181526020017f636521000000000000000000000000000000000000000000000000000000000081525060600191505060405180910390fd5b6000809054906101000a900473ffffffffffffffffffffffffffffffffffffffff1673ffffffffffffffffffffffffffffffffffffffff16ff5b6002818154811015156200085757fe5b906000526020600020016000915054906101000a900473ffffffffffffffffffffffffffffffffffffffff1681565b60008060008060008073__Utils_________________________________63cd817f4b6001896040518363ffffffff167c010000000000000000000000000000000000000000000000000000000002815260040180806020018373ffffffffffffffffffffffffffffffffffffffff1673ffffffffffffffffffffffffffffffffffffffff16815260200182810382528481815481526020019150805480156200098657602002820191906000526020600020905b8160009054906101000a900473ffffffffffffffffffffffffffffffffffffffff1673ffffffffffffffffffffffffffffffffffffffff16815260200190600101908083116200093b575b5050935050505060206040518083038186803b158015620009a657600080fd5b505af4158015620009bb573d6000803e3d6000fd5b505050506040513d6020811015620009d257600080fd5b8101908080519060200190929190505050925073__Utils_________________________________63cd817f4b6002896040518363ffffffff167c010000000000000000000000000000000000000000000000000000000002815260040180806020018373ffffffffffffffffffffffffffffffffffffffff1673ffffffffffffffffffffffffffffffffffffffff168152602001828103825284818154815260200191508054801562000adc57602002820191906000526020600020905b8160009054906101000a900473ffffffffffffffffffffffffffffffffffffffff1673ffffffffffffffffffffffffffffffffffffffff168152602001906001019080831162000a91575b5050935050505060206040518083038186803b15801562000afc57600080fd5b505af415801562000b11573d6000803e3d6000fd5b505050506040513d602081101562000b2857600080fd5b81019080805190602001909291905050509150600090506000809054906101000a900473ffffffffffffffffffffffffffffffffffffffff1673ffffffffffffffffffffffffffffffffffffffff168773ffffffffffffffffffffffffffffffffffffffff16141562000b9a57600190505b8083839550955095505050509193909250565b600073__Utils_________________________________63cd817f4b6001336040518363ffffffff167c010000000000000000000000000000000000000000000000000000000002815260040180806020018373ffffffffffffffffffffffffffffffffffffffff1673ffffffffffffffffffffffffffffffffffffffff168152602001828103825284818154815260200191508054801562000ca657602002820191906000526020600020905b8160009054906101000a900473ffffffffffffffffffffffffffffffffffffffff1673ffffffffffffffffffffffffffffffffffffffff168152602001906001019080831162000c5b575b5050935050505060206040518083038186803b15801562000cc657600080fd5b505af415801562000cdb573d6000803e3d6000fd5b505050506040513d602081101562000cf257600080fd5b8101908080519060200190929190505050151562000d9e576040517f08c379a000000000000000000000000000000000000000000000000000000000815260040180806020018281038252602f8152602001807f4f6e6c7920616e2041646d696e6973747261746f722063616e20696e766f6b6581526020017f20746869732066756e6374696f6e2e000000000000000000000000000000000081525060400191505060405180910390fd5b73__Utils_________________________________63cd817f4b6002846040518363ffffffff167c010000000000000000000000000000000000000000000000000000000002815260040180806020018373ffffffffffffffffffffffffffffffffffffffff1673ffffffffffffffffffffffffffffffffffffffff168152602001828103825284818154815260200191508054801562000e9557602002820191906000526020600020905b8160009054906101000a900473ffffffffffffffffffffffffffffffffffffffff1673ffffffffffffffffffffffffffffffffffffffff168152602001906001019080831162000e4a575b5050935050505060206040518083038186803b15801562000eb557600080fd5b505af415801562000eca573d6000803e3d6000fd5b505050506040513d602081101562000ee157600080fd5b810190808051906020019092919050505015151562000f8e576040517f08c379a00000000000000000000000000000000000000000000000000000000081526004018080602001828103825260348152602001807f5468652073746f7265206f776e65722077697468207468652073616d6520616481526020017f647265737320616c72656164792065786973742100000000000000000000000081525060400191505060405180910390fd5b60028290806001815401808255809150509060018203906000526020600020016000909192909190916101000a81548173ffffffffffffffffffffffffffffffffffffffff021916908373ffffffffffffffffffffffffffffffffffffffff1602179055505060019050919050565b60008060009054906101000a900473ffffffffffffffffffffffffffffffffffffffff1673ffffffffffffffffffffffffffffffffffffffff163373ffffffffffffffffffffffffffffffffffffffff16141515620010ea576040517f08c379a00000000000000000000000000000000000000000000000000000000081526004018080602001828103825260328152602001807f4f6e6c792053757065722041646d696e6973747261746f722063616e20696e7681526020017f6f6b6520746869732066756e6374696f6e2e000000000000000000000000000081525060400191505060405180910390fd5b73__Utils_________________________________63cd817f4b6001846040518363ffffffff167c010000000000000000000000000000000000000000000000000000000002815260040180806020018373ffffffffffffffffffffffffffffffffffffffff1673ffffffffffffffffffffffffffffffffffffffff1681526020018281038252848181548152602001915080548015620011e157602002820191906000526020600020905b8160009054906101000a900473ffffffffffffffffffffffffffffffffffffffff1673ffffffffffffffffffffffffffffffffffffffff168152602001906001019080831162001196575b5050935050505060206040518083038186803b1580156200120157600080fd5b505af415801562001216573d6000803e3d6000fd5b505050506040513d60208110156200122d57600080fd5b8101908080519060200190929190505050151515620012da576040517f08c379a000000000000000000000000000000000000000000000000000000000815260040180806020018281038252602a8152602001807f546865206164647265737320697320616c726561647920696e2074686520416481526020017f6d696e2067726f7570210000000000000000000000000000000000000000000081525060400191505060405180910390fd5b60018290806001815401808255809150509060018203906000526020600020016000909192909190916101000a81548173ffffffffffffffffffffffffffffffffffffffff021916908373ffffffffffffffffffffffffffffffffffffffff16021790555050819050919050565b6004602052816000526040600020818154811015156200136457fe5b906000526020600020016000915091509054906101000a900473ffffffffffffffffffffffffffffffffffffffff1681565b60008073__Utils_________________________________63cd817f4b6002336040518363ffffffff167c010000000000000000000000000000000000000000000000000000000002815260040180806020018373ffffffffffffffffffffffffffffffffffffffff1673ffffffffffffffffffffffffffffffffffffffff16815260200182810382528481815481526020019150805480156200149057602002820191906000526020600020905b8160009054906101000a900473ffffffffffffffffffffffffffffffffffffffff1673ffffffffffffffffffffffffffffffffffffffff168152602001906001019080831162001445575b5050935050505060206040518083038186803b158015620014b057600080fd5b505af4158015620014c5573d6000803e3d6000fd5b505050506040513d6020811015620014dc57600080fd5b8101908080519060200190929190505050151562001588576040517f08c379a000000000000000000000000000000000000000000000000000000000815260040180806020018281038252602f8152602001807f4f6e6c7920616e2041646d696e6973747261746f722063616e20696e766f6b6581526020017f20746869732066756e6374696f6e2e000000000000000000000000000000000081525060400191505060405180910390fd5b600460003373ffffffffffffffffffffffffffffffffffffffff1673ffffffffffffffffffffffffffffffffffffffff16815260200190815260200160002080549050905060008114156200162c576001600460003373ffffffffffffffffffffffffffffffffffffffff1673ffffffffffffffffffffffffffffffffffffffff1681526020019081526020016000208162001625919062001f98565b506200167e565b60018101600460003373ffffffffffffffffffffffffffffffffffffffff1673ffffffffffffffffffffffffffffffffffffffff168152602001908152602001600020816200167c919062001f98565b505b8383600354336200168e62001fc7565b8080602001806020018581526020018473ffffffffffffffffffffffffffffffffffffffff1673ffffffffffffffffffffffffffffffffffffffff168152602001838103835287818151815260200191508051906020019080838360005b8381101562001709578082015181840152602081019050620016ec565b50505050905090810190601f168015620017375780820380516001836020036101000a031916815260200191505b50838103825286818151815260200191508051906020019080838360005b838110156200177257808201518184015260208101905062001755565b50505050905090810190601f168015620017a05780820380516001836020036101000a031916815260200191505b509650505050505050604051809103906000f080158015620017c6573d6000803e3d6000fd5b50600460003373ffffffffffffffffffffffffffffffffffffffff1673ffffffffffffffffffffffffffffffffffffffff168152602001908152602001600020828154811015156200181457fe5b9060005260206000200160006101000a81548173ffffffffffffffffffffffffffffffffffffffff021916908373ffffffffffffffffffffffffffffffffffffffff1602179055506003600081548092919060010191905055507fe75f8bd502ee84b678cb9ed4707b4516128def5e073e6d86f35b43a25c4b40d7848433600460003373ffffffffffffffffffffffffffffffffffffffff1673ffffffffffffffffffffffffffffffffffffffff16815260200190815260200160002085815481101515620018df57fe5b9060005260206000200160009054906101000a900473ffffffffffffffffffffffffffffffffffffffff166040518080602001806020018573ffffffffffffffffffffffffffffffffffffffff1673ffffffffffffffffffffffffffffffffffffffff1681526020018473ffffffffffffffffffffffffffffffffffffffff1673ffffffffffffffffffffffffffffffffffffffff168152602001838103835287818151815260200191508051906020019080838360005b83811015620019b457808201518184015260208101905062001997565b50505050905090810190601f168015620019e25780820380516001836020036101000a031916815260200191505b50838103825286818151815260200191508051906020019080838360005b8381101562001a1d57808201518184015260208101905062001a00565b50505050905090810190601f16801562001a4b5780820380516001836020036101000a031916815260200191505b50965050505050505060405180910390a1600460003373ffffffffffffffffffffffffffffffffffffffff1673ffffffffffffffffffffffffffffffffffffffff1681526020019081526020016000208181548110151562001aa957fe5b9060005260206000200160009054906101000a900473ffffffffffffffffffffffffffffffffffffffff1691505092915050565b60606000806060600060606000808873ffffffffffffffffffffffffffffffffffffffff1614151562001bd857600460008973ffffffffffffffffffffffffffffffffffffffff1673ffffffffffffffffffffffffffffffffffffffff16815260200190815260200160002080548060200260200160405190810160405280929190818152602001828054801562001bcb57602002820191906000526020600020905b8160009054906101000a900473ffffffffffffffffffffffffffffffffffffffff1673ffffffffffffffffffffffffffffffffffffffff168152602001906001019080831162001b80575b5050505050965062001e65565b60009550600094505b60028054905085101562001c7e576004600060028781548110151562001c0357fe5b9060005260206000200160009054906101000a900473ffffffffffffffffffffffffffffffffffffffff1673ffffffffffffffffffffffffffffffffffffffff1673ffffffffffffffffffffffffffffffffffffffff1681526020019081526020016000208054905086019550848060010195505062001be1565b8560405190808252806020026020018201604052801562001cae5781602001602082028038833980820191505090505b50935060009250600094505b60028054905085101562001e61576004600060028781548110151562001cdc57fe5b9060005260206000200160009054906101000a900473ffffffffffffffffffffffffffffffffffffffff1673ffffffffffffffffffffffffffffffffffffffff1673ffffffffffffffffffffffffffffffffffffffff16815260200190815260200160002080548060200260200160405190810160405280929190818152602001828054801562001dc357602002820191906000526020600020905b8160009054906101000a900473ffffffffffffffffffffffffffffffffffffffff1673ffffffffffffffffffffffffffffffffffffffff168152602001906001019080831162001d78575b50505050509150600090505b815181101562001e5357818181518110151562001de857fe5b90602001906020020151848481518110151562001e0157fe5b9060200190602002019073ffffffffffffffffffffffffffffffffffffffff16908173ffffffffffffffffffffffffffffffffffffffff16815250508280600101935050808060010191505062001dcf565b848060010195505062001cba565b8396505b505050505050919050565b6060600280548060200260200160405190810160405280929190818152602001828054801562001ef657602002820191906000526020600020905b8160009054906101000a900473ffffffffffffffffffffffffffffffffffffffff1673ffffffffffffffffffffffffffffffffffffffff168152602001906001019080831162001eab575b5050505050905090565b6060600180548060200260200160405190810160405280929190818152602001828054801562001f8657602002820191906000526020600020905b8160009054906101000a900473ffffffffffffffffffffffffffffffffffffffff1673ffffffffffffffffffffffffffffffffffffffff168152602001906001019080831162001f3b575b5050505050905090565b600080905090565b81548183558181111562001fc25781836000526020600020918201910162001fc1919062001fd8565b5b505050565b60405161275c806200200183390190565b62001ffd91905b8082111562001ff957600081600090555060010162001fdf565b5090565b90560060806040523480156200001157600080fd5b506040516200275c3803806200275c83398101806040528101908080518201929190602001805182019291906020018051906020019092919080519060200190929190505050806000806101000a81548173ffffffffffffffffffffffffffffffffffffffff021916908373ffffffffffffffffffffffffffffffffffffffff1602179055508360019080519060200190620000af929190620000ea565b50816003819055508260029080519060200190620000cf929190620000ea565b50600060048190555060016005819055505050505062000199565b828054600181600116156101000203166002900490600052602060002090601f016020900481019282601f106200012d57805160ff19168380011785556200015e565b828001600101855582156200015e579182015b828111156200015d57825182559160200191906001019062000140565b5b5090506200016d919062000171565b5090565b6200019691905b808211156200019257600081600090555060010162000178565b5090565b90565b6125b380620001a96000396000f3006080604052600436106100c5576000357c0100000000000000000000000000000000000000000000000000000000900463ffffffff1680630cee1725146100c7578063521936e6146100ff5780635ee95cae1461018f5780636813b53b146101d45780637284e416146103095780637acc0b20146103995780637b2c5d13146104d55780639498be1b1461051a578063ce2d683f146105f1578063dbf5dcd914610675578063de084730146106a0578063f94eb182146106e2578063fe04eb2d146107c7575b005b6100e5600480360381019080803590602001909291905050506108fd565b604051808215151515815260200191505060405180910390f35b34801561010b57600080fd5b50610114610b35565b6040518080602001828103825283818151815260200191508051906020019080838360005b83811015610154578082015181840152602081019050610139565b50505050905090810190601f1680156101815780820380516001836020036101000a031916815260200191505b509250505060405180910390f35b34801561019b57600080fd5b506101ba60048036038101908080359060200190929190505050610bd3565b604051808215151515815260200191505060405180910390f35b3480156101e057600080fd5b506101ff60048036038101908080359060200190929190505050610df3565b60405180806020018060200186815260200185815260200184600181111561022357fe5b60ff168152602001838103835288818151815260200191508051906020019080838360005b83811015610263578082015181840152602081019050610248565b50505050905090810190601f1680156102905780820380516001836020036101000a031916815260200191505b50838103825287818151815260200191508051906020019080838360005b838110156102c95780820151818401526020810190506102ae565b50505050905090810190601f1680156102f65780820380516001836020036101000a031916815260200191505b5097505050505050505060405180910390f35b34801561031557600080fd5b5061031e610ffe565b6040518080602001828103825283818151815260200191508051906020019080838360005b8381101561035e578082015181840152602081019050610343565b50505050905090810190601f16801561038b5780820380516001836020036101000a031916815260200191505b509250505060405180910390f35b3480156103a557600080fd5b506103c46004803603810190808035906020019092919050505061109c565b6040518087815260200180602001806020018681526020018581526020018460018111156103ee57fe5b60ff168152602001838103835288818151815260200191508051906020019080838360005b8381101561042e578082015181840152602081019050610413565b50505050905090810190601f16801561045b5780820380516001836020036101000a031916815260200191505b50838103825287818151815260200191508051906020019080838360005b83811015610494578082015181840152602081019050610479565b50505050905090810190601f1680156104c15780820380516001836020036101000a031916815260200191505b509850505050505050505060405180910390f35b3480156104e157600080fd5b5061050060048036038101908080359060200190929190505050611224565b604051808215151515815260200191505060405180910390f35b34801561052657600080fd5b506105db600480360381019080803590602001908201803590602001908080601f0160208091040260200160405190810160405280939291908181526020018383808284378201915050505050509192919290803590602001908201803590602001908080601f01602080910402602001604051908101604052809392919081815260200183838082843782019150505050505091929192908035906020019092919080359060200190929190505050611443565b6040518082815260200191505060405180910390f35b3480156105fd57600080fd5b5061061e600480360381019080803515159060200190929190505050611777565b6040518080602001828103825283818151815260200191508051906020019060200280838360005b83811015610661578082015181840152602081019050610646565b505050509050019250505060405180910390f35b34801561068157600080fd5b5061068a61197f565b6040518082815260200191505060405180910390f35b6106c8600480360381019080803590602001909291908035906020019092919050505061199e565b604051808215151515815260200191505060405180910390f35b3480156106ee57600080fd5b506107ad60048036038101908080359060200190929190803590602001908201803590602001908080601f0160208091040260200160405190810160405280939291908181526020018383808284378201915050505050509192919290803590602001908201803590602001908080601f01602080910402602001604051908101604052809392919081815260200183838082843782019150505050505091929192908035906020019092919080359060200190929190505050611f6c565b604051808215151515815260200191505060405180910390f35b3480156107d357600080fd5b506107dc612206565b604051808573ffffffffffffffffffffffffffffffffffffffff1673ffffffffffffffffffffffffffffffffffffffff1681526020018060200184815260200180602001838103835286818151815260200191508051906020019080838360005b8381101561085857808201518184015260208101905061083d565b50505050905090810190601f1680156108855780820380516001836020036101000a031916815260200191505b50838103825284818151815260200191508051906020019080838360005b838110156108be5780820151818401526020810190506108a3565b50505050905090810190601f1680156108eb5780820380516001836020036101000a031916815260200191505b50965050505050505060405180910390f35b60003373ffffffffffffffffffffffffffffffffffffffff166000809054906101000a900473ffffffffffffffffffffffffffffffffffffffff1673ffffffffffffffffffffffffffffffffffffffff161415156109e9576040517f08c379a000000000000000000000000000000000000000000000000000000000815260040180806020018281038252602c8152602001807f4f6e6c7920612073746f7265206f776e65722063616e20696e766f6b6520746881526020017f69732066756e6374696f6e21000000000000000000000000000000000000000081525060400191505060405180910390fd5b813073ffffffffffffffffffffffffffffffffffffffff163110151515610ac4576040517f08c379a000000000000000000000000000000000000000000000000000000000815260040180806020018281038252604c8152602001807f5468652063757272656e742073746f72652062616c616e636520616d6f756e7481526020017f206d7573742062652067726561746572207468616e207468652077697468647281526020017f6177616c20616d6f756e7421000000000000000000000000000000000000000081525060600191505060405180910390fd5b6000809054906101000a900473ffffffffffffffffffffffffffffffffffffffff1673ffffffffffffffffffffffffffffffffffffffff166108fc839081150290604051600060405180830381858888f19350505050158015610b2b573d6000803e3d6000fd5b5060019050919050565b60018054600181600116156101000203166002900480601f016020809104026020016040519081016040528092919081815260200182805460018160011615610100020316600290048015610bcb5780601f10610ba057610100808354040283529160200191610bcb565b820191906000526020600020905b815481529060010190602001808311610bae57829003601f168201915b505050505081565b6000803373ffffffffffffffffffffffffffffffffffffffff166000809054906101000a900473ffffffffffffffffffffffffffffffffffffffff1673ffffffffffffffffffffffffffffffffffffffff16141515610cc0576040517f08c379a000000000000000000000000000000000000000000000000000000000815260040180806020018281038252602c8152602001807f4f6e6c7920612073746f7265206f776e65722063616e20696e766f6b6520746881526020017f69732066756e6374696f6e21000000000000000000000000000000000000000081525060400191505060405180910390fd5b60018303905060006001811115610cd357fe5b600682815481101515610ce257fe5b906000526020600020906006020160050160009054906101000a900460ff166001811115610d0c57fe5b141515610da7576040517f08c379a00000000000000000000000000000000000000000000000000000000081526004018080602001828103825260398152602001807f4f6e6c7920746865206163746976652070726f647563742063616e206265206281526020017f652072656d6f7665642066726f6d207468652073746f7265210000000000000081525060400191505060405180910390fd5b6001600682815481101515610db857fe5b906000526020600020906006020160050160006101000a81548160ff02191690836001811115610de457fe5b02179055506001915050919050565b606080600080600080600187039050600681815481101515610e1157fe5b9060005260206000209060060201600101600682815481101515610e3157fe5b9060005260206000209060060201600201600683815481101515610e5157fe5b906000526020600020906006020160030154600684815481101515610e7257fe5b906000526020600020906006020160040154600685815481101515610e9357fe5b906000526020600020906006020160050160009054906101000a900460ff16848054600181600116156101000203166002900480601f016020809104026020016040519081016040528092919081815260200182805460018160011615610100020316600290048015610f475780601f10610f1c57610100808354040283529160200191610f47565b820191906000526020600020905b815481529060010190602001808311610f2a57829003601f168201915b50505050509450838054600181600116156101000203166002900480601f016020809104026020016040519081016040528092919081815260200182805460018160011615610100020316600290048015610fe35780601f10610fb857610100808354040283529160200191610fe3565b820191906000526020600020905b815481529060010190602001808311610fc657829003601f168201915b50505050509350955095509550955095505091939590929450565b60028054600181600116156101000203166002900480601f0160208091040260200160405190810160405280929190818152602001828054600181600116156101000203166002900480156110945780601f1061106957610100808354040283529160200191611094565b820191906000526020600020905b81548152906001019060200180831161107757829003601f168201915b505050505081565b6006818154811015156110ab57fe5b9060005260206000209060060201600091509050806000015490806001018054600181600116156101000203166002900480601f01602080910402602001604051908101604052809291908181526020018280546001816001161561010002031660029004801561115d5780601f106111325761010080835404028352916020019161115d565b820191906000526020600020905b81548152906001019060200180831161114057829003601f168201915b505050505090806002018054600181600116156101000203166002900480601f0160208091040260200160405190810160405280929190818152602001828054600181600116156101000203166002900480156111fb5780601f106111d0576101008083540402835291602001916111fb565b820191906000526020600020905b8154815290600101906020018083116111de57829003601f168201915b5050505050908060030154908060040154908060050160009054906101000a900460ff16905086565b6000803373ffffffffffffffffffffffffffffffffffffffff166000809054906101000a900473ffffffffffffffffffffffffffffffffffffffff1673ffffffffffffffffffffffffffffffffffffffff16141515611311576040517f08c379a000000000000000000000000000000000000000000000000000000000815260040180806020018281038252602c8152602001807f4f6e6c7920612073746f7265206f776e65722063616e20696e766f6b6520746881526020017f69732066756e6374696f6e21000000000000000000000000000000000000000081525060400191505060405180910390fd5b60018303905060018081111561132357fe5b60068281548110151561133257fe5b906000526020600020906006020160050160009054906101000a900460ff16600181111561135c57fe5b1415156113f7576040517f08c379a000000000000000000000000000000000000000000000000000000000815260040180806020018281038252602b8152602001807f4f6e6c792074686520496e6163746976652070726f647563742063616e20626581526020017f206163746976617465642100000000000000000000000000000000000000000081525060400191505060405180910390fd5b600060068281548110151561140857fe5b906000526020600020906006020160050160006101000a81548160ff0219169083600181111561143457fe5b02179055506001915050919050565b60003373ffffffffffffffffffffffffffffffffffffffff166000809054906101000a900473ffffffffffffffffffffffffffffffffffffffff1673ffffffffffffffffffffffffffffffffffffffff1614151561152f576040517f08c379a000000000000000000000000000000000000000000000000000000000815260040180806020018281038252602c8152602001807f4f6e6c7920612073746f7265206f776e65722063616e20696e766f6b6520746881526020017f69732066756e6374696f6e21000000000000000000000000000000000000000081525060400191505060405180910390fd5b6001600681818054905001915081611547919061237d565b5060c06040519081016040528060055481526020018681526020018581526020018481526020018381526020016000600181111561158157fe5b815250600660045481548110151561159557fe5b90600052602060002090600602016000820151816000015560208201518160010190805190602001906115c99291906123af565b5060408201518160020190805190602001906115e69291906123af565b50606082015181600301556080820151816004015560a08201518160050160006101000a81548160ff0219169083600181111561161f57fe5b02179055509050507fc86b920148e151a78e4a627284a763302c966579a89be8494ba9562ac1f61b7b60055486868686604051808681526020018060200180602001858152602001848152602001838103835287818151815260200191508051906020019080838360005b838110156116a557808201518184015260208101905061168a565b50505050905090810190601f1680156116d25780820380516001836020036101000a031916815260200191505b50838103825286818151815260200191508051906020019080838360005b8381101561170b5780820151818401526020810190506116f0565b50505050905090810190601f1680156117385780820380516001836020036101000a031916815260200191505b5097505050505050505060405180910390a160046000815480929190600101919050555060056000815480929190600101919050559050949350505050565b60606000806060600080935060011515861515141561180f57600092505b6006805490508360ff16101561180a57600060018111156117b257fe5b60068460ff168154811015156117c457fe5b906000526020600020906006020160050160009054906101000a900460ff1660018111156117ee57fe5b14156117fd5783806001019450505b8280600101935050611795565b611818565b60068054905093505b836040519080825280602002602001820160405280156118475781602001602082028038833980820191505090505b50915060008411156119735760009050600092505b6006805490508360ff16101561197257600115158615151415611919576000600181111561188657fe5b60068460ff1681548110151561189857fe5b906000526020600020906006020160050160009054906101000a900460ff1660018111156118c257fe5b14156119145760068360ff168154811015156118da57fe5b906000526020600020906006020160000154828260ff168151811015156118fd57fe5b906020019060200201818152505080806001019150505b611965565b60068360ff1681548110151561192b57fe5b906000526020600020906006020160000154828260ff1681518110151561194e57fe5b906020019060200201818152505080806001019150505b828060010193505061185c565b5b81945050505050919050565b60003073ffffffffffffffffffffffffffffffffffffffff1631905090565b6000806000806001860392506006838154811015156119b957fe5b90600052602060002090600602016003015485029150600060018111156119dc57fe5b6006848154811015156119eb57fe5b906000526020600020906006020160050160009054906101000a900460ff166001811115611a1557fe5b141515611ab0576040517f08c379a00000000000000000000000000000000000000000000000000000000081526004018080602001828103825260268152602001807f4f6e6c7920746865206163746976652070726f647563742063616e206265206281526020017f6f7567687421000000000000000000000000000000000000000000000000000081525060400191505060405180910390fd5b3373ffffffffffffffffffffffffffffffffffffffff166000809054906101000a900473ffffffffffffffffffffffffffffffffffffffff1673ffffffffffffffffffffffffffffffffffffffff1614151515611b9b576040517f08c379a00000000000000000000000000000000000000000000000000000000081526004018080602001828103825260258152602001807f546865206f776e65722063616e6e6f742062757920697473206f776e2070726f81526020017f647563742100000000000000000000000000000000000000000000000000000081525060400191505060405180910390fd5b600683815481101515611baa57fe5b9060005260206000209060060201600401548511151515611c59576040517f08c379a000000000000000000000000000000000000000000000000000000000815260040180806020018281038252603a8152602001807f5468652073746f726520646f6573206e6f74206861766520737566666963696581526020017f6e74207175616e74697479206f66207468652070726f6475637400000000000081525060400191505060405180910390fd5b3373ffffffffffffffffffffffffffffffffffffffff16313411151515611d0e576040517f08c379a00000000000000000000000000000000000000000000000000000000081526004018080602001828103825260408152602001807f54686520627579657220646f6573206e6f74206861766520737566666963696581526020017f6e742062616c616e636520696e20686973202f20686572206163636f756e742181525060400191505060405180910390fd5b8134141515611dab576040517f08c379a00000000000000000000000000000000000000000000000000000000081526004018080602001828103825260408152602001807f54686520737570706c6965642076616c7565206973206c65737365722074686181526020017f6e207468652061637475616c207072696365206f6620746865206974656d732181525060400191505060405180910390fd5b84600684815481101515611dbb57fe5b90600052602060002090600602016004015403600684815481101515611ddd57fe5b9060005260206000209060060201600401819055507f781f13430da3033909b5c9de8541109172e3f02dca16b4b18f489592e4f11af08686306000809054906101000a900473ffffffffffffffffffffffffffffffffffffffff16333373ffffffffffffffffffffffffffffffffffffffff163188604051808881526020018781526020018673ffffffffffffffffffffffffffffffffffffffff1673ffffffffffffffffffffffffffffffffffffffff1681526020018573ffffffffffffffffffffffffffffffffffffffff1673ffffffffffffffffffffffffffffffffffffffff1681526020018473ffffffffffffffffffffffffffffffffffffffff1673ffffffffffffffffffffffffffffffffffffffff16815260200183815260200182815260200197505050505050505060405180910390a13090508073ffffffffffffffffffffffffffffffffffffffff166108fc349081150290604051600060405180830381858888f19350505050158015611f5e573d6000803e3d6000fd5b506001935050505092915050565b6000803373ffffffffffffffffffffffffffffffffffffffff166000809054906101000a900473ffffffffffffffffffffffffffffffffffffffff1673ffffffffffffffffffffffffffffffffffffffff16141515612059576040517f08c379a000000000000000000000000000000000000000000000000000000000815260040180806020018281038252602c8152602001807f4f6e6c7920612073746f7265206f776e65722063616e20696e766f6b6520746881526020017f69732066756e6374696f6e21000000000000000000000000000000000000000081525060400191505060405180910390fd5b600187039050600060068281548110151561207057fe5b90600052602060002090600602016000015414151515612144576040517f08c379a00000000000000000000000000000000000000000000000000000000081526004018080602001828103825260498152602001807f50726f6475637420666f722074686520676976656e2073746f7265206964206181526020017f6e642070726f6475637420696420636f6d62696e6174696f6e20646f6573206e81526020017f6f7420657869737421000000000000000000000000000000000000000000000081525060600191505060405180910390fd5b8560068281548110151561215457fe5b9060005260206000209060060201600101908051906020019061217892919061242f565b508460068281548110151561218957fe5b906000526020600020906006020160020190805190602001906121ad92919061242f565b50836006828154811015156121be57fe5b906000526020600020906006020160030181905550826006828154811015156121e357fe5b906000526020600020906006020160040181905550600191505095945050505050565b60006060600060606000809054906101000a900473ffffffffffffffffffffffffffffffffffffffff1660016003546002828054600181600116156101000203166002900480601f0160208091040260200160405190810160405280929190818152602001828054600181600116156101000203166002900480156122cc5780601f106122a1576101008083540402835291602001916122cc565b820191906000526020600020905b8154815290600101906020018083116122af57829003601f168201915b50505050509250808054600181600116156101000203166002900480601f0160208091040260200160405190810160405280929190818152602001828054600181600116156101000203166002900480156123685780601f1061233d57610100808354040283529160200191612368565b820191906000526020600020905b81548152906001019060200180831161234b57829003601f168201915b50505050509050935093509350935090919293565b8154818355818111156123aa576006028160060283600052602060002091820191016123a991906124af565b5b505050565b828054600181600116156101000203166002900490600052602060002090601f016020900481019282601f106123f057805160ff191683800117855561241e565b8280016001018555821561241e579182015b8281111561241d578251825591602001919060010190612402565b5b50905061242b919061251a565b5090565b828054600181600116156101000203166002900490600052602060002090601f016020900481019282601f1061247057805160ff191683800117855561249e565b8280016001018555821561249e579182015b8281111561249d578251825591602001919060010190612482565b5b5090506124ab919061251a565b5090565b61251791905b80821115612513576000808201600090556001820160006124d6919061253f565b6002820160006124e6919061253f565b600382016000905560048201600090556005820160006101000a81549060ff0219169055506006016124b5565b5090565b90565b61253c91905b80821115612538576000816000905550600101612520565b5090565b90565b50805460018160011615610100020316600290046000825580601f106125655750612584565b601f016020900490600052602060002090810190612583919061251a565b5b505600a165627a7a723058208d79778a8286c9549a355756eefd04fe0e607bb8a79a564a855e8e5a0af312040029a165627a7a723058202ca167a62ed0000002a1ffa5303670a09dedcefd3fe48b740f089977c67d3d840029",
  "source": "pragma solidity ^0.4.22;\n\nimport \"./Store.sol\";\nimport \"./library/Utils.sol\";\n\n/**\n * There are a list of stores on a central marketplace where shoppers can purchase goods posted by the store owners.\n * The central marketplace is managed by a group of administrators. Admins allow store owners to add stores\n * to the marketplace. Store owners can manage their stores inventory and funds. Shoppers can visit stores and purchase\n * goods that are in stock using cryptocurrency.\n *\n */\n\ncontract MarketPlace {\n    address superAdmin;\n    address[] public adminUsers;\n    address[] public storeOwners;\n    uint private nextStoreId;\n\n    // mapping of stores of a given store owner\n    mapping (address => address[]) public storeFrontMap;\n\n    /**\n     * Initialize state variables, specifically, the Super Administrator!\n     * Also, add that address in the Admin list.\n     */\n    constructor() public {\n        superAdmin = msg.sender;\n        adminUsers.push(msg.sender);\n        nextStoreId = 1;\n    }\n\n    event NewStore (\n      string storeName,\n      string storeDescription,\n      address storeOwner,\n      address storeAddress\n    );\n\n    event AccessingStore(Store currentStore);\n\n    /**\n     * Only SuperAdmin shall be able to create an Admin user\n    */\n    modifier onlySuperAdmin {\n        require( msg.sender == superAdmin, \"Only Super Administrator can invoke this function.\");\n        _;\n    }\n\n    /**\n     * Only Admin shall be allowed to create a store\n    */\n    modifier onlyAdmin {\n        require( Utils.existInTheArray(adminUsers, msg.sender), \"Only an Administrator can invoke this function.\");\n        _;\n    }\n\n    /**\n     * Only store owners shall be allowed to add stores.\n     *\n    */\n    modifier onlyStoreOwner {\n        require( Utils.existInTheArray(storeOwners, msg.sender), \"Only an Administrator can invoke this function.\");\n        _;\n    }\n\n    /**\n     * A super administrator can create one or more administrator, who will have same access, except that\n     * they cannot create another administrator\n     */\n    function createAdminUser(address newAdminUser) public onlySuperAdmin returns(address){\n        require(!Utils.existInTheArray(adminUsers, newAdminUser), \"The address is already in the Admin group!\");\n\n        adminUsers.push(newAdminUser);\n\n        return newAdminUser;\n    }\n\n    /**\n    * This function shall return all the admin address in the market place\n    */\n    function getAdminUsers() public view returns(address[]) {\n      return adminUsers;\n    }\n\n    /**\n    * This function verifies if an address has the following accesses or not\n    * - Super Admin\n    * - Admins\n    * - Store Owner\n    */\n    function checkAccess(address addressToVerify) view public returns(bool, bool, bool) {\n      bool isAdmin = Utils.existInTheArray(adminUsers, addressToVerify);\n      bool isStoreOwner = Utils.existInTheArray(storeOwners, addressToVerify);\n      bool isSuperAdmin = false;\n\n      if ( addressToVerify == superAdmin ) {\n        isSuperAdmin = true;\n      }\n\n      return (isSuperAdmin, isAdmin, isStoreOwner);\n    }\n\n    /**\n     * Any Admin shall be able to add a store owner.\n     * Of course, we need to make sure that a given address is added only once.\n    */\n    function createStoreOwner(address newStoreOwnerAddress) public onlyAdmin returns(bool){\n        require( !Utils.existInTheArray(storeOwners, newStoreOwnerAddress), \"The store owner with the same address already exist!\");\n\n        storeOwners.push(newStoreOwnerAddress);\n\n        return true;\n    }\n\n    /**\n    * This function shall return all the store owners address in the market place\n    */\n    function getStoreOwners() public view returns(address[]) {\n      return storeOwners;\n    }\n\n    /**\n     * A store owner shall be able to create one or more stores.\n     * The created store will be associated with the store owner using storeFrontMap, where the store owner's\n     * address is a key and the value is a map of storeId and Store.\n     *\n    */\n    function createStoreFront( string storeName, string storeDescription ) public onlyStoreOwner returns(address){\n        uint storeCount = storeFrontMap[msg.sender].length;\n\n        if (storeCount == 0) {\n          storeFrontMap[msg.sender].length = 1;\n        } else {\n          storeFrontMap[msg.sender].length = storeCount + 1;\n        }\n\n        storeFrontMap[msg.sender][storeCount] = address(new Store( storeName, storeDescription, nextStoreId, msg.sender ));\n        nextStoreId++;\n\n        emit NewStore(\n                storeName,\n                storeDescription,\n                msg.sender,\n                storeFrontMap[msg.sender][storeCount] );\n\n        return storeFrontMap[msg.sender][storeCount];\n    }\n\n    /**\n     * this function will be used for retriving all the stores of a given store owner\n     *\n     */\n    function getStores(address storeOwnerAddress) public view returns(address[]) {\n        if ( storeOwnerAddress != 0 ) {\n            return storeFrontMap[storeOwnerAddress];\n        }\n        else {\n            //\n            // The caller is looking for all the stores in the market place\n            //\n            uint totalStoreCount = 0;\n            uint storeOwnersCount;\n\n            for (storeOwnersCount = 0; storeOwnersCount < storeOwners.length; storeOwnersCount++) {\n                totalStoreCount += storeFrontMap[storeOwners[storeOwnersCount]].length;\n            }\n\n            address[] memory allStores = new address[](totalStoreCount);\n            uint tempStoreCount = 0;\n\n            for ( storeOwnersCount = 0; storeOwnersCount < storeOwners.length; storeOwnersCount++ ) {\n                address[] memory storesOfOwner = storeFrontMap[storeOwners[storeOwnersCount]];\n\n                for ( uint storeFrontCountOfOwner = 0;\n                      storeFrontCountOfOwner < storesOfOwner.length;\n                      storeFrontCountOfOwner++) {\n                  allStores[tempStoreCount] = storesOfOwner[storeFrontCountOfOwner];\n                  tempStoreCount++;\n                }\n            }\n\n            return allStores;\n        }\n    }\n\n\n    /**\n     * The market place can be destructed by only the super admin, that too when we have at least 75% of the store owners\n     * agreeing to this decision.\n    */\n    function closeMarketPlace() public onlySuperAdmin {\n        bool haveConsentOfStoreOwners = getConsentForClosure();\n\n        require(haveConsentOfStoreOwners, \"You do not have the sufficient consensus to close the market place!\");\n\n        selfdestruct(superAdmin);\n    }\n\n    /**\n     * In case we want to allow the closure of the Market Place then implement this function\n     * with proper logic.\n    */\n    function getConsentForClosure() private pure returns(bool) {\n        return false;\n    }\n}\n",
  "sourcePath": "/Users/alokranjan/blockchain/ethereum/consensys/marketplace/contracts/MarketPlace.sol",
  "compiler": {
    "name": "solc",
    "version": "0.4.24+commit.e67f0147.Emscripten.clang"
  },
  "schemaVersion": "2.0.1",
  "updatedAt": "2018-08-19T09:42:57.092Z"
}