{
  "contractName": "Store",
  "abi": [
    {
      "inputs": [
        {
          "name": "_storeName",
          "type": "string"
        },
        {
          "name": "_description",
          "type": "string"
        },
        {
          "name": "_storeId",
          "type": "uint256"
        },
        {
          "name": "_storeOwner",
          "type": "address"
        },
        {
          "name": "_eip20Token",
          "type": "address"
        }
      ],
      "payable": false,
      "stateMutability": "nonpayable",
      "type": "constructor"
    },
    {
      "payable": true,
      "stateMutability": "payable",
      "type": "fallback"
    },
    {
      "anonymous": false,
      "inputs": [
        {
          "indexed": false,
          "name": "productId",
          "type": "uint256"
        },
        {
          "indexed": false,
          "name": "productName",
          "type": "string"
        },
        {
          "indexed": false,
          "name": "description",
          "type": "string"
        },
        {
          "indexed": false,
          "name": "price",
          "type": "uint256"
        },
        {
          "indexed": false,
          "name": "quantity",
          "type": "uint256"
        }
      ],
      "name": "NewProduct",
      "type": "event"
    },
    {
      "anonymous": false,
      "inputs": [
        {
          "indexed": false,
          "name": "productId",
          "type": "uint256"
        },
        {
          "indexed": false,
          "name": "quantity",
          "type": "uint256"
        },
        {
          "indexed": true,
          "name": "storeAddress",
          "type": "address"
        },
        {
          "indexed": true,
          "name": "storeOwner",
          "type": "address"
        },
        {
          "indexed": true,
          "name": "buyerAddress",
          "type": "address"
        },
        {
          "indexed": false,
          "name": "senderBalance",
          "type": "uint256"
        },
        {
          "indexed": false,
          "name": "weiToTransfer",
          "type": "uint256"
        }
      ],
      "name": "PurchaseOfProduct",
      "type": "event"
    },
    {
      "anonymous": false,
      "inputs": [
        {
          "indexed": false,
          "name": "_tokenFrom",
          "type": "address"
        },
        {
          "indexed": false,
          "name": "_tokenTo",
          "type": "address"
        },
        {
          "indexed": false,
          "name": "tokensToBeTransferred",
          "type": "uint256"
        }
      ],
      "name": "TokensCouldNotBeTransferred",
      "type": "event"
    },
    {
      "anonymous": false,
      "inputs": [
        {
          "indexed": false,
          "name": "senderAddress",
          "type": "address"
        },
        {
          "indexed": false,
          "name": "amount",
          "type": "uint256"
        }
      ],
      "name": "EtherReceived",
      "type": "event"
    },
    {
      "constant": true,
      "inputs": [],
      "name": "getStoreDetails",
      "outputs": [
        {
          "name": "",
          "type": "address"
        },
        {
          "name": "",
          "type": "string"
        },
        {
          "name": "",
          "type": "uint256"
        },
        {
          "name": "",
          "type": "string"
        }
      ],
      "payable": false,
      "stateMutability": "view",
      "type": "function"
    },
    {
      "constant": false,
      "inputs": [
        {
          "name": "productName",
          "type": "string"
        },
        {
          "name": "productDesc",
          "type": "string"
        },
        {
          "name": "price",
          "type": "uint256"
        },
        {
          "name": "quantity",
          "type": "uint256"
        }
      ],
      "name": "addProductToTheStore",
      "outputs": [
        {
          "name": "",
          "type": "uint256"
        }
      ],
      "payable": false,
      "stateMutability": "nonpayable",
      "type": "function"
    },
    {
      "constant": false,
      "inputs": [
        {
          "name": "productId",
          "type": "uint256"
        },
        {
          "name": "productName",
          "type": "string"
        },
        {
          "name": "productDesc",
          "type": "string"
        },
        {
          "name": "price",
          "type": "uint256"
        },
        {
          "name": "quantity",
          "type": "uint256"
        }
      ],
      "name": "updateProduct",
      "outputs": [
        {
          "name": "",
          "type": "bool"
        }
      ],
      "payable": false,
      "stateMutability": "nonpayable",
      "type": "function"
    },
    {
      "constant": false,
      "inputs": [
        {
          "name": "_productId",
          "type": "uint256"
        }
      ],
      "name": "removeProduct",
      "outputs": [
        {
          "name": "",
          "type": "bool"
        }
      ],
      "payable": false,
      "stateMutability": "nonpayable",
      "type": "function"
    },
    {
      "constant": false,
      "inputs": [
        {
          "name": "_productId",
          "type": "uint256"
        }
      ],
      "name": "reActivateProduct",
      "outputs": [
        {
          "name": "",
          "type": "bool"
        }
      ],
      "payable": false,
      "stateMutability": "nonpayable",
      "type": "function"
    },
    {
      "constant": true,
      "inputs": [
        {
          "name": "activeOnlyFlag",
          "type": "bool"
        }
      ],
      "name": "getProducts",
      "outputs": [
        {
          "name": "",
          "type": "uint256[]"
        }
      ],
      "payable": false,
      "stateMutability": "view",
      "type": "function"
    },
    {
      "constant": true,
      "inputs": [
        {
          "name": "_productId",
          "type": "uint256"
        }
      ],
      "name": "getProductDetails",
      "outputs": [
        {
          "name": "",
          "type": "string"
        },
        {
          "name": "",
          "type": "string"
        },
        {
          "name": "",
          "type": "uint256"
        },
        {
          "name": "",
          "type": "uint256"
        },
        {
          "name": "",
          "type": "uint8"
        },
        {
          "name": "",
          "type": "uint256"
        }
      ],
      "payable": false,
      "stateMutability": "view",
      "type": "function"
    },
    {
      "constant": false,
      "inputs": [
        {
          "name": "_productId",
          "type": "uint256"
        },
        {
          "name": "_quantity",
          "type": "uint256"
        }
      ],
      "name": "buyProductFromStore",
      "outputs": [
        {
          "name": "",
          "type": "bool"
        }
      ],
      "payable": true,
      "stateMutability": "payable",
      "type": "function"
    },
    {
      "constant": false,
      "inputs": [
        {
          "name": "withdrawAmount",
          "type": "uint256"
        }
      ],
      "name": "withdrawFund",
      "outputs": [
        {
          "name": "",
          "type": "bool"
        }
      ],
      "payable": true,
      "stateMutability": "payable",
      "type": "function"
    },
    {
      "constant": true,
      "inputs": [],
      "name": "getBalanceOfStore",
      "outputs": [
        {
          "name": "",
          "type": "uint256"
        }
      ],
      "payable": false,
      "stateMutability": "view",
      "type": "function"
    }
  ],
  "bytecode": "0x60806040523480156200001157600080fd5b5060405162002cb838038062002cb88339810180604052810190808051820192919060200180518201929190602001805190602001909291908051906020019092919080519060200190929190505050816000806101000a81548173ffffffffffffffffffffffffffffffffffffffff021916908373ffffffffffffffffffffffffffffffffffffffff1602179055508460019080519060200190620000b992919062000136565b50826003819055508360029080519060200190620000d992919062000136565b506000600481905550600160058190555080600760006101000a81548173ffffffffffffffffffffffffffffffffffffffff021916908373ffffffffffffffffffffffffffffffffffffffff1602179055505050505050620001e5565b828054600181600116156101000203166002900490600052602060002090601f016020900481019282601f106200017957805160ff1916838001178555620001aa565b82800160010185558215620001aa579182015b82811115620001a95782518255916020019190600101906200018c565b5b509050620001b99190620001bd565b5090565b620001e291905b80821115620001de576000816000905550600101620001c4565b5090565b90565b612ac380620001f56000396000f3006080604052600436106100a4576000357c0100000000000000000000000000000000000000000000000000000000900463ffffffff1680630cee1725146101235780635ee95cae1461015b5780636813b53b146101a05780637b2c5d13146102dc5780639498be1b14610321578063ce2d683f146103f8578063dbf5dcd91461047c578063de084730146104a7578063f94eb182146104e9578063fe04eb2d146105ce575b6000803690501415156100b657600080fd5b7f1e57e3bb474320be3d2c77138f75b7c3941292d647f5f9634e33a8e94e0e069b3334604051808373ffffffffffffffffffffffffffffffffffffffff1673ffffffffffffffffffffffffffffffffffffffff1681526020018281526020019250505060405180910390a1005b61014160048036038101908080359060200190929190505050610704565b604051808215151515815260200191505060405180910390f35b34801561016757600080fd5b50610186600480360381019080803590602001909291905050506109da565b604051808215151515815260200191505060405180910390f35b3480156101ac57600080fd5b506101cb60048036038101908080359060200190929190505050610bfa565b6040518080602001806020018781526020018681526020018560018111156101ef57fe5b60ff168152602001848152602001838103835289818151815260200191508051906020019080838360005b8381101561023557808201518184015260208101905061021a565b50505050905090810190601f1680156102625780820380516001836020036101000a031916815260200191505b50838103825288818151815260200191508051906020019080838360005b8381101561029b578082015181840152602081019050610280565b50505050905090810190601f1680156102c85780820380516001836020036101000a031916815260200191505b509850505050505050505060405180910390f35b3480156102e857600080fd5b5061030760048036038101908080359060200190929190505050610e2a565b604051808215151515815260200191505060405180910390f35b34801561032d57600080fd5b506103e2600480360381019080803590602001908201803590602001908080601f0160208091040260200160405190810160405280939291908181526020018383808284378201915050505050509192919290803590602001908201803590602001908080601f01602080910402602001604051908101604052809392919081815260200183838082843782019150505050505091929192908035906020019092919080359060200190929190505050611049565b6040518082815260200191505060405180910390f35b34801561040457600080fd5b50610425600480360381019080803515159060200190929190505050611393565b6040518080602001828103825283818151815260200191508051906020019060200280838360005b8381101561046857808201518184015260208101905061044d565b505050509050019250505060405180910390f35b34801561048857600080fd5b5061049161159b565b6040518082815260200191505060405180910390f35b6104cf60048036038101908080359060200190929190803590602001909291905050506115ba565b604051808215151515815260200191505060405180910390f35b3480156104f557600080fd5b506105b460048036038101908080359060200190929190803590602001908201803590602001908080601f0160208091040260200160405190810160405280939291908181526020018383808284378201915050505050509192919290803590602001908201803590602001908080601f01602080910402602001604051908101604052809392919081815260200183838082843782019150505050505091929192908035906020019092919080359060200190929190505050612434565b604051808215151515815260200191505060405180910390f35b3480156105da57600080fd5b506105e36126ce565b604051808573ffffffffffffffffffffffffffffffffffffffff1673ffffffffffffffffffffffffffffffffffffffff1681526020018060200184815260200180602001838103835286818151815260200191508051906020019080838360005b8381101561065f578082015181840152602081019050610644565b50505050905090810190601f16801561068c5780820380516001836020036101000a031916815260200191505b50838103825284818151815260200191508051906020019080838360005b838110156106c55780820151818401526020810190506106aa565b50505050905090810190601f1680156106f25780820380516001836020036101000a031916815260200191505b50965050505050505060405180910390f35b60003373ffffffffffffffffffffffffffffffffffffffff166000809054906101000a900473ffffffffffffffffffffffffffffffffffffffff1673ffffffffffffffffffffffffffffffffffffffff161415156107f0576040517f08c379a000000000000000000000000000000000000000000000000000000000815260040180806020018281038252602c8152602001807f4f6e6c7920612073746f7265206f776e65722063616e20696e766f6b6520746881526020017f69732066756e6374696f6e21000000000000000000000000000000000000000081525060400191505060405180910390fd5b60018211151561088e576040517f08c379a000000000000000000000000000000000000000000000000000000000815260040180806020018281038252602f8152602001807f5468652077697468647277616c20616d6f756e74206d7573742062652061207081526020017f6f736974697665206e756d62657221000000000000000000000000000000000081525060400191505060405180910390fd5b813073ffffffffffffffffffffffffffffffffffffffff163110151515610969576040517f08c379a000000000000000000000000000000000000000000000000000000000815260040180806020018281038252604c8152602001807f5468652063757272656e742073746f72652062616c616e636520616d6f756e7481526020017f206d7573742062652067726561746572207468616e207468652077697468647281526020017f6177616c20616d6f756e7421000000000000000000000000000000000000000081525060600191505060405180910390fd5b6000809054906101000a900473ffffffffffffffffffffffffffffffffffffffff1673ffffffffffffffffffffffffffffffffffffffff166108fc839081150290604051600060405180830381858888f193505050501580156109d0573d6000803e3d6000fd5b5060019050919050565b6000803373ffffffffffffffffffffffffffffffffffffffff166000809054906101000a900473ffffffffffffffffffffffffffffffffffffffff1673ffffffffffffffffffffffffffffffffffffffff16141515610ac7576040517f08c379a000000000000000000000000000000000000000000000000000000000815260040180806020018281038252602c8152602001807f4f6e6c7920612073746f7265206f776e65722063616e20696e766f6b6520746881526020017f69732066756e6374696f6e21000000000000000000000000000000000000000081525060400191505060405180910390fd5b60018303905060006001811115610ada57fe5b600682815481101515610ae957fe5b906000526020600020906007020160050160009054906101000a900460ff166001811115610b1357fe5b141515610bae576040517f08c379a00000000000000000000000000000000000000000000000000000000081526004018080602001828103825260398152602001807f4f6e6c7920746865206163746976652070726f647563742063616e206265206281526020017f652072656d6f7665642066726f6d207468652073746f7265210000000000000081525060400191505060405180910390fd5b6001600682815481101515610bbf57fe5b906000526020600020906007020160050160006101000a81548160ff02191690836001811115610beb57fe5b02179055506001915050919050565b6060806000806000806000600188039050600681815481101515610c1a57fe5b9060005260206000209060070201600101600682815481101515610c3a57fe5b9060005260206000209060070201600201600683815481101515610c5a57fe5b906000526020600020906007020160030154600684815481101515610c7b57fe5b906000526020600020906007020160040154600685815481101515610c9c57fe5b906000526020600020906007020160050160009054906101000a900460ff16600686815481101515610cca57fe5b906000526020600020906007020160060154858054600181600116156101000203166002900480601f016020809104026020016040519081016040528092919081815260200182805460018160011615610100020316600290048015610d715780601f10610d4657610100808354040283529160200191610d71565b820191906000526020600020905b815481529060010190602001808311610d5457829003601f168201915b50505050509550848054600181600116156101000203166002900480601f016020809104026020016040519081016040528092919081815260200182805460018160011615610100020316600290048015610e0d5780601f10610de257610100808354040283529160200191610e0d565b820191906000526020600020905b815481529060010190602001808311610df057829003601f168201915b505050505094509650965096509650965096505091939550919395565b6000803373ffffffffffffffffffffffffffffffffffffffff166000809054906101000a900473ffffffffffffffffffffffffffffffffffffffff1673ffffffffffffffffffffffffffffffffffffffff16141515610f17576040517f08c379a000000000000000000000000000000000000000000000000000000000815260040180806020018281038252602c8152602001807f4f6e6c7920612073746f7265206f776e65722063616e20696e766f6b6520746881526020017f69732066756e6374696f6e21000000000000000000000000000000000000000081525060400191505060405180910390fd5b600183039050600180811115610f2957fe5b600682815481101515610f3857fe5b906000526020600020906007020160050160009054906101000a900460ff166001811115610f6257fe5b141515610ffd576040517f08c379a000000000000000000000000000000000000000000000000000000000815260040180806020018281038252602b8152602001807f4f6e6c792074686520496e6163746976652070726f647563742063616e20626581526020017f206163746976617465642100000000000000000000000000000000000000000081525060400191505060405180910390fd5b600060068281548110151561100e57fe5b906000526020600020906007020160050160006101000a81548160ff0219169083600181111561103a57fe5b02179055506001915050919050565b6000803373ffffffffffffffffffffffffffffffffffffffff166000809054906101000a900473ffffffffffffffffffffffffffffffffffffffff1673ffffffffffffffffffffffffffffffffffffffff16141515611136576040517f08c379a000000000000000000000000000000000000000000000000000000000815260040180806020018281038252602c8152602001807f4f6e6c7920612073746f7265206f776e65722063616e20696e766f6b6520746881526020017f69732066756e6374696f6e21000000000000000000000000000000000000000081525060400191505060405180910390fd5b600a905060016006818180549050019150816111529190612885565b5060e06040519081016040528060055481526020018781526020018681526020018581526020018481526020016000600181111561118c57fe5b81526020018281525060066004548154811015156111a657fe5b90600052602060002090600702016000820151816000015560208201518160010190805190602001906111da9291906128b7565b5060408201518160020190805190602001906111f79291906128b7565b50606082015181600301556080820151816004015560a08201518160050160006101000a81548160ff0219169083600181111561123057fe5b021790555060c082015181600601559050507fc86b920148e151a78e4a627284a763302c966579a89be8494ba9562ac1f61b7b60055487878787604051808681526020018060200180602001858152602001848152602001838103835287818151815260200191508051906020019080838360005b838110156112c05780820151818401526020810190506112a5565b50505050905090810190601f1680156112ed5780820380516001836020036101000a031916815260200191505b50838103825286818151815260200191508051906020019080838360005b8381101561132657808201518184015260208101905061130b565b50505050905090810190601f1680156113535780820380516001836020036101000a031916815260200191505b5097505050505050505060405180910390a16004600081548092919060010191905055506005600081548092919060010191905055915050949350505050565b60606000806060600080935060011515861515141561142b57600092505b6006805490508360ff16101561142657600060018111156113ce57fe5b60068460ff168154811015156113e057fe5b906000526020600020906007020160050160009054906101000a900460ff16600181111561140a57fe5b14156114195783806001019450505b82806001019350506113b1565b611434565b60068054905093505b836040519080825280602002602001820160405280156114635781602001602082028038833980820191505090505b509150600084111561158f5760009050600092505b6006805490508360ff16101561158e5760011515861515141561153557600060018111156114a257fe5b60068460ff168154811015156114b457fe5b906000526020600020906007020160050160009054906101000a900460ff1660018111156114de57fe5b14156115305760068360ff168154811015156114f657fe5b906000526020600020906007020160000154828260ff1681518110151561151957fe5b906020019060200201818152505080806001019150505b611581565b60068360ff1681548110151561154757fe5b906000526020600020906007020160000154828260ff1681518110151561156a57fe5b906020019060200201818152505080806001019150505b8280600101935050611478565b5b81945050505050919050565b60003073ffffffffffffffffffffffffffffffffffffffff1631905090565b60008060008060008060008060018a0396506006878154811015156115db57fe5b90600052602060002090600702016003015489029550600060018111156115fe57fe5b60068881548110151561160d57fe5b906000526020600020906007020160050160009054906101000a900460ff16600181111561163757fe5b1415156116d2576040517f08c379a00000000000000000000000000000000000000000000000000000000081526004018080602001828103825260268152602001807f4f6e6c7920746865206163746976652070726f647563742063616e206265206281526020017f6f7567687421000000000000000000000000000000000000000000000000000081525060400191505060405180910390fd5b3373ffffffffffffffffffffffffffffffffffffffff166000809054906101000a900473ffffffffffffffffffffffffffffffffffffffff1673ffffffffffffffffffffffffffffffffffffffff16141515156117bd576040517f08c379a00000000000000000000000000000000000000000000000000000000081526004018080602001828103825260258152602001807f546865206f776e65722063616e6e6f742062757920697473206f776e2070726f81526020017f647563742100000000000000000000000000000000000000000000000000000081525060400191505060405180910390fd5b6006878154811015156117cc57fe5b906000526020600020906007020160040154891115151561187b576040517f08c379a000000000000000000000000000000000000000000000000000000000815260040180806020018281038252603a8152602001807f5468652073746f726520646f6573206e6f74206861766520737566666963696581526020017f6e74207175616e74697479206f66207468652070726f6475637400000000000081525060400191505060405180910390fd5b3373ffffffffffffffffffffffffffffffffffffffff16313411151515611930576040517f08c379a00000000000000000000000000000000000000000000000000000000081526004018080602001828103825260408152602001807f54686520627579657220646f6573206e6f74206861766520737566666963696581526020017f6e742062616c616e636520696e20686973202f20686572206163636f756e742181525060400191505060405180910390fd5b8860068881548110151561194057fe5b9060005260206000209060070201600401540360068881548110151561196257fe5b9060005260206000209060070201600401819055503373ffffffffffffffffffffffffffffffffffffffff166000809054906101000a900473ffffffffffffffffffffffffffffffffffffffff1673ffffffffffffffffffffffffffffffffffffffff163073ffffffffffffffffffffffffffffffffffffffff167f781f13430da3033909b5c9de8541109172e3f02dca16b4b18f489592e4f11af08d8d3373ffffffffffffffffffffffffffffffffffffffff16318c6040518085815260200184815260200183815260200182815260200194505050505060405180910390a4600094506000600760009054906101000a900473ffffffffffffffffffffffffffffffffffffffff1673ffffffffffffffffffffffffffffffffffffffff166370a08231336040518263ffffffff167c0100000000000000000000000000000000000000000000000000000000028152600401808273ffffffffffffffffffffffffffffffffffffffff1673ffffffffffffffffffffffffffffffffffffffff168152602001915050602060405180830381600087803b158015611b0657600080fd5b505af1158015611b1a573d6000803e3d6000fd5b505050506040513d6020811015611b3057600080fd5b8101908080519060200190929190505050111561201a576509184e72a000600760009054906101000a900473ffffffffffffffffffffffffffffffffffffffff1673ffffffffffffffffffffffffffffffffffffffff166370a08231336040518263ffffffff167c0100000000000000000000000000000000000000000000000000000000028152600401808273ffffffffffffffffffffffffffffffffffffffff1673ffffffffffffffffffffffffffffffffffffffff168152602001915050602060405180830381600087803b158015611c0b57600080fd5b505af1158015611c1f573d6000803e3d6000fd5b505050506040513d6020811015611c3557600080fd5b81019080805190602001909291905050500293508584111515611ea757839450600760009054906101000a900473ffffffffffffffffffffffffffffffffffffffff1673ffffffffffffffffffffffffffffffffffffffff166323b872dd336000809054906101000a900473ffffffffffffffffffffffffffffffffffffffff16600760009054906101000a900473ffffffffffffffffffffffffffffffffffffffff1673ffffffffffffffffffffffffffffffffffffffff166370a08231336040518263ffffffff167c0100000000000000000000000000000000000000000000000000000000028152600401808273ffffffffffffffffffffffffffffffffffffffff1673ffffffffffffffffffffffffffffffffffffffff168152602001915050602060405180830381600087803b158015611d7357600080fd5b505af1158015611d87573d6000803e3d6000fd5b505050506040513d6020811015611d9d57600080fd5b81019080805190602001909291905050506040518463ffffffff167c0100000000000000000000000000000000000000000000000000000000028152600401808473ffffffffffffffffffffffffffffffffffffffff1673ffffffffffffffffffffffffffffffffffffffff1681526020018373ffffffffffffffffffffffffffffffffffffffff1673ffffffffffffffffffffffffffffffffffffffff1681526020018281526020019350505050602060405180830381600087803b158015611e6657600080fd5b505af1158015611e7a573d6000803e3d6000fd5b505050506040513d6020811015611e9057600080fd5b810190808051906020019092919050505050612019565b859450600760009054906101000a900473ffffffffffffffffffffffffffffffffffffffff1673ffffffffffffffffffffffffffffffffffffffff166323b872dd336000809054906101000a900473ffffffffffffffffffffffffffffffffffffffff16611f246509184e72a0008b61284590919063ffffffff16565b6040518463ffffffff167c0100000000000000000000000000000000000000000000000000000000028152600401808473ffffffffffffffffffffffffffffffffffffffff1673ffffffffffffffffffffffffffffffffffffffff1681526020018373ffffffffffffffffffffffffffffffffffffffff1673ffffffffffffffffffffffffffffffffffffffff1681526020018281526020019350505050602060405180830381600087803b158015611fdc57600080fd5b505af1158015611ff0573d6000803e3d6000fd5b505050506040513d602081101561200657600080fd5b8101908080519060200190929190505050505b5b61202d858761286990919063ffffffff16565b92506000831115612083573091508173ffffffffffffffffffffffffffffffffffffffff166108fc849081150290604051600060405180830381858888f19350505050158015612081573d6000803e3d6000fd5b505b600060068881548110151561209457fe5b90600052602060002090600702016006015411156124235760646509184e72a000026006888154811015156120c557fe5b90600052602060002090600702016006015487028115156120e257fe5b04905080600760009054906101000a900473ffffffffffffffffffffffffffffffffffffffff1673ffffffffffffffffffffffffffffffffffffffff166370a082316000809054906101000a900473ffffffffffffffffffffffffffffffffffffffff166040518263ffffffff167c0100000000000000000000000000000000000000000000000000000000028152600401808273ffffffffffffffffffffffffffffffffffffffff1673ffffffffffffffffffffffffffffffffffffffff168152602001915050602060405180830381600087803b1580156121c457600080fd5b505af11580156121d8573d6000803e3d6000fd5b505050506040513d60208110156121ee57600080fd5b810190808051906020019092919050505010151561236157600760009054906101000a900473ffffffffffffffffffffffffffffffffffffffff1673ffffffffffffffffffffffffffffffffffffffff166323b872dd6000809054906101000a900473ffffffffffffffffffffffffffffffffffffffff1633846040518463ffffffff167c0100000000000000000000000000000000000000000000000000000000028152600401808473ffffffffffffffffffffffffffffffffffffffff1673ffffffffffffffffffffffffffffffffffffffff1681526020018373ffffffffffffffffffffffffffffffffffffffff1673ffffffffffffffffffffffffffffffffffffffff1681526020018281526020019350505050602060405180830381600087803b15801561232057600080fd5b505af1158015612334573d6000803e3d6000fd5b505050506040513d602081101561234a57600080fd5b810190808051906020019092919050505050612422565b7f28a4aede4fefb9418ddd6db3804da661600c815d4b9914dfc999aede0bb5582c6000809054906101000a900473ffffffffffffffffffffffffffffffffffffffff163383604051808473ffffffffffffffffffffffffffffffffffffffff1673ffffffffffffffffffffffffffffffffffffffff1681526020018373ffffffffffffffffffffffffffffffffffffffff1673ffffffffffffffffffffffffffffffffffffffff168152602001828152602001935050505060405180910390a15b5b600197505050505050505092915050565b6000803373ffffffffffffffffffffffffffffffffffffffff166000809054906101000a900473ffffffffffffffffffffffffffffffffffffffff1673ffffffffffffffffffffffffffffffffffffffff16141515612521576040517f08c379a000000000000000000000000000000000000000000000000000000000815260040180806020018281038252602c8152602001807f4f6e6c7920612073746f7265206f776e65722063616e20696e766f6b6520746881526020017f69732066756e6374696f6e21000000000000000000000000000000000000000081525060400191505060405180910390fd5b600187039050600060068281548110151561253857fe5b9060005260206000209060070201600001541415151561260c576040517f08c379a00000000000000000000000000000000000000000000000000000000081526004018080602001828103825260498152602001807f50726f6475637420666f722074686520676976656e2073746f7265206964206181526020017f6e642070726f6475637420696420636f6d62696e6174696f6e20646f6573206e81526020017f6f7420657869737421000000000000000000000000000000000000000000000081525060600191505060405180910390fd5b8560068281548110151561261c57fe5b90600052602060002090600702016001019080519060200190612640929190612937565b508460068281548110151561265157fe5b90600052602060002090600702016002019080519060200190612675929190612937565b508360068281548110151561268657fe5b906000526020600020906007020160030181905550826006828154811015156126ab57fe5b906000526020600020906007020160040181905550600191505095945050505050565b60006060600060606000809054906101000a900473ffffffffffffffffffffffffffffffffffffffff1660016003546002828054600181600116156101000203166002900480601f0160208091040260200160405190810160405280929190818152602001828054600181600116156101000203166002900480156127945780601f1061276957610100808354040283529160200191612794565b820191906000526020600020905b81548152906001019060200180831161277757829003601f168201915b50505050509250808054600181600116156101000203166002900480601f0160208091040260200160405190810160405280929190818152602001828054600181600116156101000203166002900480156128305780601f1061280557610100808354040283529160200191612830565b820191906000526020600020905b81548152906001019060200180831161281357829003601f168201915b50505050509050935093509350935090919293565b6000808211151561285557600080fd5b818381151561286057fe5b04905092915050565b600082821115151561287a57600080fd5b818303905092915050565b8154818355818111156128b2576007028160070283600052602060002091820191016128b191906129b7565b5b505050565b828054600181600116156101000203166002900490600052602060002090601f016020900481019282601f106128f857805160ff1916838001178555612926565b82800160010185558215612926579182015b8281111561292557825182559160200191906001019061290a565b5b5090506129339190612a2a565b5090565b828054600181600116156101000203166002900490600052602060002090601f016020900481019282601f1061297857805160ff19168380011785556129a6565b828001600101855582156129a6579182015b828111156129a557825182559160200191906001019061298a565b5b5090506129b39190612a2a565b5090565b612a2791905b80821115612a23576000808201600090556001820160006129de9190612a4f565b6002820160006129ee9190612a4f565b600382016000905560048201600090556005820160006101000a81549060ff02191690556006820160009055506007016129bd565b5090565b90565b612a4c91905b80821115612a48576000816000905550600101612a30565b5090565b90565b50805460018160011615610100020316600290046000825580601f10612a755750612a94565b601f016020900490600052602060002090810190612a939190612a2a565b5b505600a165627a7a7230582077412a3493e28b97ddcc1675e1328d63eda4fd4274a5edb6857c5473ee3453b90029",
  "source": "pragma solidity 0.4.24;\n\nimport \"./EIP20.sol\";\n\n/**\n * This contract will create all the functionalities related to a store.\n *\n * For example\n * - Adding a product\n * - updating a product\n * - customer being able to view the list of stores\n * - store owner being able to see the stores\n * - customer being able to view the products in a given Store\n *\n * BP2: Restricting Access:\n *  - Restrict other contracts access to the state by making all the state variables private.\n*/\ncontract Store {\n    using SafeMath for uint256;\n\n    // Onwer is the actual store owner who is creating the store.\n    address private owner;\n    string private storeName;\n    string private description;\n    uint private storeId;\n    uint private productCount;\n    uint private nextProductId;\n    Product[] private products;\n    EIP20 private eip20Token;\n\n    /**\n    * At some stage we can oraclize the token price. However, for now let's consider this\n    * for the sake of any calculation.\n    */\n    uint256 constant private tokenPriceInWei = 10000000000000;\n\n    enum ProductStatus {\n        ACTIVE,\n        REMOVED\n    }\n\n    struct Product {\n        uint productId;\n        string productName;\n        string description;\n        uint price;\n        uint quantity;\n        ProductStatus status;\n        uint256 discountPercentage;\n    }\n\n    event NewProduct(\n      uint productId,\n      string productName,\n      string description,\n      uint price,\n      uint quantity\n      );\n\n    event PurchaseOfProduct(\n        uint productId,\n        uint quantity,\n        address indexed storeAddress,\n        address indexed storeOwner,\n        address indexed buyerAddress,\n        uint senderBalance,\n        uint weiToTransfer\n      );\n\n    event TokensCouldNotBeTransferred(\n        address _tokenFrom,\n        address _tokenTo,\n        uint256 tokensToBeTransferred );\n\n    event EtherReceived(address senderAddress, uint256 amount);\n    /**\n    * @dev Creates a Store Contract which holds the associated products and the balance corresponding to the\n    *      sales of such products.\n    * @param _storeName - the name of the stores\n    * @param _description - the description about the stores\n    * @param _storeId - the store id of the store, which will be unique across the market place\n    * @param _storeOwner - the actual owner of the store (will be an externally owned accounts)\n    */\n    constructor(\n            string _storeName,\n            string _description,\n            uint _storeId,\n            address _storeOwner,\n            EIP20 _eip20Token ) public {\n\n        owner = _storeOwner;\n        storeName = _storeName;\n        storeId = _storeId;\n        description = _description;\n        productCount = 0;\n        nextProductId = 1;\n        eip20Token = _eip20Token;\n    }\n\n    /**\n    * Since this contract needs to accept ether, declare an anonymous payable function.\n    * Also, this fall back is only intended for accepting the ether. Hence, there shall not be any message transferred\n    * during this call.\n    */\n    function() public payable {\n      require(msg.data.length == 0);\n      emit EtherReceived(msg.sender, msg.value);\n    }\n\n    /**\n     * Only (store) owners shall be allowed to add or update the store specific details - e.g. product.\n     *\n    */\n    modifier onlyOwner {\n        require( (owner == msg.sender), \"Only a store owner can invoke this function!\");\n        _;\n    }\n\n    /**\n    * A function to return the state details for a given store contract\n    * @return a list of values with the following details\n    *   - Owner Address\n    *   - Store name\n    *   - Store identifier\n    *   - Store description\n    */\n    function getStoreDetails() public view returns( address, string, uint, string ) {\n      return (owner, storeName, storeId, description);\n    }\n\n     /**\n     * A store owner will use this function to add a new product to his / her store.\n     *\n     * Whenever a new product is added, the product map will be updated to hold all the product and their details\n     * across all the store and store owners.\n     *\n     * TODO: Add expiry feature and use the Auto Deprecation pattern to expire a product. Also, implement the use case\n     *      that will prevent the shoppers from buying an expired product!\n     * @param productName - The name of the products\n     * @param productDesc - A brief description about the product\n     * @param price - the listed price of the product\n     * @param quantity - the initial quantity of the product\n    */\n    function addProductToTheStore(\n            string productName,\n            string productDesc,\n            uint price,\n            uint quantity ) public onlyOwner returns(uint) {\n\n            uint256 discountPercentage = 10;\n            products.length += 1;\n\n            products[productCount] = Product(\n                nextProductId,\n                productName,\n                productDesc,\n                price,\n                quantity,\n                ProductStatus.ACTIVE,\n                discountPercentage );\n\n            emit NewProduct(\n              nextProductId,\n              productName,\n              productDesc,\n              price,\n              quantity\n              );\n\n            productCount++;\n\n            return nextProductId++;\n    }\n\n    /**\n     * The update product function will be called to update the details of an existing function.\n     *\n     * In a regular course of a business, the following amounts may get updated.\n     * - quantity\n     * - productName\n     * - price\n     * - description\n     *\n     * TODO : Add an additional parameter for discountPercentage\n     *\n    */\n    function updateProduct(\n            uint productId,\n            string productName,\n            string productDesc,\n            uint price,\n            uint quantity ) public onlyOwner returns(bool) {\n        uint productIndex = productId - 1;\n        require( products[productIndex].productId != 0 , \"Product for the given store id and product id combination does not exist!\");\n\n        products[productIndex].productName = productName;\n        products[productIndex].description = productDesc;\n        products[productIndex].price = price;\n        products[productIndex].quantity = quantity;\n\n        return true;\n    }\n\n    /**\n     * A store owner can decide to remove a product from his/her store.\n     * A removed product will not be visible to shoppers!\n     *\n     * @param _productId is the product identifier of the product that we intend to remove\n    */\n    function removeProduct(uint _productId ) public onlyOwner returns(bool){\n        uint productIndex = _productId - 1;\n\n        require( products[productIndex].status == ProductStatus.ACTIVE, \"Only the active product can be be removed from the store!\");\n        products[productIndex].status = ProductStatus.REMOVED;\n\n        return true;\n    }\n\n    /**\n     * A store owner can decide to remove a product from his/her store.\n     * A removed product will not be visible to shoppers!\n     * @param _productId is the product identifier of the product that we intend to reactivate\n    */\n    function reActivateProduct(uint _productId ) public onlyOwner returns(bool){\n        uint productIndex = _productId - 1;\n\n        require( products[productIndex].status == ProductStatus.REMOVED, \"Only the Inactive product can be activated!\");\n        products[productIndex].status = ProductStatus.ACTIVE;\n\n        return true;\n    }\n\n    /**\n    * @dev getProducts will return all the products of this store.\n    * @param activeOnlyFlag is an optional flag to indicate of only the active products of the store are desired.\n    * @return an array consisting of the product Ids\n    */\n    function getProducts( bool activeOnlyFlag ) public view returns( uint[] ) {\n\n      uint numOfProducts = 0;\n\n      if ( activeOnlyFlag == true) {\n        for (uint8 prodCount=0; prodCount<products.length; prodCount++) {\n            if (products[prodCount].status == ProductStatus.ACTIVE) {\n                numOfProducts++;\n            }\n        }\n      } else {\n        numOfProducts = products.length;\n      }\n\n\n      uint[] memory productIds = new uint[](numOfProducts);\n\n      if ( numOfProducts > 0 ) {\n\n        uint8 tmpCount = 0;\n\n        for (prodCount=0; prodCount<products.length; prodCount++) {\n            if ( activeOnlyFlag == true ) {\n              if (products[prodCount].status == ProductStatus.ACTIVE) {\n                productIds[tmpCount] = products[prodCount].productId;\n                tmpCount++;\n              }\n            } else {\n              productIds[tmpCount] = products[prodCount].productId;\n              tmpCount++;\n            }\n\n        }\n      }\n\n      return productIds;\n    }\n\n\n    /*\n    * @dev For a given product identifier of the store, this method will return the product details.\n    * @param _productId - the product Id for which the details are needed\n    * @return a list of arguments showing values in the following orders\n    *   1. Product Name\n    *   2. Product description\n    *   3. price\n    *   4. Current quantity\n    *   5. Status of the product\n    *   6. Discount percentage available on this product\n    */\n    function getProductDetails(uint _productId) public view returns(string, string, uint, uint, ProductStatus, uint256 ) {\n        uint productIndex = _productId - 1;\n\n        return ( products[productIndex].productName,\n                 products[productIndex].description,\n                 products[productIndex].price,\n                 products[productIndex].quantity,\n                 products[productIndex].status,\n                 products[productIndex].discountPercentage );\n    }\n\n    /**\n     * @dev The shopper can buy this product using this function.\n     * @param _productId - product indetifier\n     * @param _quantity - number of units of the product to be Purchased\n    */\n    function buyProductFromStore(uint _productId, uint _quantity) public payable returns (bool){\n        uint productIndex = _productId - 1;\n        uint256 weiToTransfer = _quantity * products[productIndex].price;\n\n        require( products[productIndex].status == ProductStatus.ACTIVE, \"Only the active product can be bought!\");\n        require( owner != msg.sender, \"The owner cannot buy its own product!\");\n        require( _quantity <= products[productIndex].quantity, \"The store does not have sufficient quantity of the product\");\n        require( msg.value <= msg.sender.balance, \"The buyer does not have sufficient balance in his / her account!\");\n        // require( msg.value == weiToTransfer, \"The supplied value is lesser than the actual price of the items!\");\n\n\n        //Reduce the corresponding quantity from the inventory\n        products[productIndex].quantity = products[productIndex].quantity - _quantity;\n\n        emit PurchaseOfProduct(_productId, _quantity, address(this), owner, msg.sender, msg.sender.balance, weiToTransfer);\n\n        // Redeem tokens by transferring the equivalent amount of tokens to the store owners\n        uint256 discountValue = 0;\n\n        if (eip20Token.balanceOf(msg.sender) > 0) {\n          uint256 tokenValue = eip20Token.balanceOf(msg.sender) * tokenPriceInWei;\n\n          if ( tokenValue <= weiToTransfer ) {\n            // Transfer all the tokens of the shopper to the store owner and\n            // set the discounted value to be same as the token values\n            discountValue = tokenValue;\n            eip20Token.transferFrom( msg.sender, owner, eip20Token.balanceOf(msg.sender) );\n          } else {\n            discountValue = weiToTransfer;\n            eip20Token.transferFrom( msg.sender, owner, weiToTransfer.div(tokenPriceInWei) );\n          }\n        }\n\n        // Transfer fund from the shopper's acount into the store's account\n        uint256 finalAmountToBePaid = weiToTransfer.sub(discountValue);\n        if ( finalAmountToBePaid > 0 ) {\n          address myAddress = address(this);\n          myAddress.transfer( finalAmountToBePaid );\n        }\n\n        // Transfer loyalty tokens to the shoppers\n        if ( products[productIndex].discountPercentage > 0 ) {\n          uint256 tokensToBeTransferred = (weiToTransfer * products[productIndex].discountPercentage) / (tokenPriceInWei * 100);\n          if ( eip20Token.balanceOf(owner) >= tokensToBeTransferred ) {\n            eip20Token.transferFrom( owner,\n                                     msg.sender,\n                                     tokensToBeTransferred\n                                   );\n          } else {\n            // Just create an event which will indicate that certain number of tokens could not be Transferred\n            emit TokensCouldNotBeTransferred(owner, msg.sender, tokensToBeTransferred);\n          }\n\n        }\n\n        return true;\n    }\n\n    /**\n     * @dev A store owner can withdraw fund from a given store\n     *\n     * BP1: Fail early and fail loud\n     *  - Fail early and fail loud pattern has been used to ensure that zero amount withdrwal doesn't take place.\n     * @param withdrawAmount - the amount to be withdrawn from the stor's contract accounts\n    */\n    function withdrawFund(uint withdrawAmount) public payable onlyOwner returns(bool) {\n        require(withdrawAmount > 1, \"The withdrwal amount must be a positive number!\");\n        require(address(this).balance >= withdrawAmount, \"The current store balance amount must be greater than the withdrawal amount!\");\n        owner.transfer(withdrawAmount);\n\n        return true;\n    }\n\n    /**\n    * Return the balance owned by this store\n    */\n    function getBalanceOfStore() constant public returns(uint){\n        return address(this).balance;\n    }\n\n}\n",
  "sourcePath": "/Users/alokranjan/blockchain/ethereum/consensys/ethmarket/contracts/Store.sol",
  "compiler": {
    "name": "solc",
    "version": "0.4.24+commit.e67f0147.Emscripten.clang"
  },
  "schemaVersion": "2.0.1",
  "updatedAt": "2018-08-27T05:28:54.133Z"
}