{
  "contractName": "Store",
  "abi": [
    {
      "constant": true,
      "inputs": [],
      "name": "storeName",
      "outputs": [
        {
          "name": "",
          "type": "string"
        }
      ],
      "payable": false,
      "stateMutability": "view",
      "type": "function"
    },
    {
      "constant": true,
      "inputs": [],
      "name": "description",
      "outputs": [
        {
          "name": "",
          "type": "string"
        }
      ],
      "payable": false,
      "stateMutability": "view",
      "type": "function"
    },
    {
      "constant": true,
      "inputs": [
        {
          "name": "",
          "type": "uint256"
        }
      ],
      "name": "products",
      "outputs": [
        {
          "name": "productId",
          "type": "uint256"
        },
        {
          "name": "productName",
          "type": "string"
        },
        {
          "name": "description",
          "type": "string"
        },
        {
          "name": "price",
          "type": "uint256"
        },
        {
          "name": "quantity",
          "type": "uint256"
        },
        {
          "name": "status",
          "type": "uint8"
        }
      ],
      "payable": false,
      "stateMutability": "view",
      "type": "function"
    },
    {
      "inputs": [
        {
          "name": "_storeName",
          "type": "string"
        },
        {
          "name": "_description",
          "type": "string"
        },
        {
          "name": "_storeId",
          "type": "uint256"
        }
      ],
      "payable": false,
      "stateMutability": "nonpayable",
      "type": "constructor"
    },
    {
      "anonymous": false,
      "inputs": [
        {
          "indexed": false,
          "name": "productId",
          "type": "uint256"
        },
        {
          "indexed": false,
          "name": "productName",
          "type": "string"
        },
        {
          "indexed": false,
          "name": "description",
          "type": "string"
        },
        {
          "indexed": false,
          "name": "price",
          "type": "uint256"
        },
        {
          "indexed": false,
          "name": "quantity",
          "type": "uint256"
        }
      ],
      "name": "NewProduct",
      "type": "event"
    },
    {
      "anonymous": false,
      "inputs": [
        {
          "indexed": false,
          "name": "productId",
          "type": "uint256"
        },
        {
          "indexed": false,
          "name": "quantity",
          "type": "uint256"
        },
        {
          "indexed": false,
          "name": "storeAddress",
          "type": "address"
        },
        {
          "indexed": false,
          "name": "buyerAddress",
          "type": "address"
        }
      ],
      "name": "PurchaseOfProduct",
      "type": "event"
    },
    {
      "anonymous": false,
      "inputs": [
        {
          "indexed": false,
          "name": "param1",
          "type": "address"
        },
        {
          "indexed": false,
          "name": "param2",
          "type": "address"
        },
        {
          "indexed": false,
          "name": "param3",
          "type": "string"
        }
      ],
      "name": "LogAsEvent",
      "type": "event"
    },
    {
      "constant": true,
      "inputs": [],
      "name": "getStoreDetails",
      "outputs": [
        {
          "name": "",
          "type": "address"
        },
        {
          "name": "",
          "type": "string"
        },
        {
          "name": "",
          "type": "uint256"
        },
        {
          "name": "",
          "type": "string"
        }
      ],
      "payable": false,
      "stateMutability": "view",
      "type": "function"
    },
    {
      "constant": false,
      "inputs": [
        {
          "name": "productName",
          "type": "string"
        },
        {
          "name": "productDesc",
          "type": "string"
        },
        {
          "name": "price",
          "type": "uint256"
        },
        {
          "name": "quantity",
          "type": "uint256"
        }
      ],
      "name": "addProductToTheStore",
      "outputs": [
        {
          "name": "",
          "type": "uint256"
        }
      ],
      "payable": false,
      "stateMutability": "nonpayable",
      "type": "function"
    },
    {
      "constant": false,
      "inputs": [
        {
          "name": "productId",
          "type": "uint256"
        },
        {
          "name": "productName",
          "type": "string"
        },
        {
          "name": "productDesc",
          "type": "string"
        },
        {
          "name": "price",
          "type": "uint256"
        },
        {
          "name": "quantity",
          "type": "uint256"
        }
      ],
      "name": "updateProduct",
      "outputs": [
        {
          "name": "",
          "type": "bool"
        }
      ],
      "payable": false,
      "stateMutability": "nonpayable",
      "type": "function"
    },
    {
      "constant": false,
      "inputs": [
        {
          "name": "productId",
          "type": "uint256"
        },
        {
          "name": "quantity",
          "type": "uint256"
        }
      ],
      "name": "removeProduct",
      "outputs": [],
      "payable": false,
      "stateMutability": "nonpayable",
      "type": "function"
    },
    {
      "constant": true,
      "inputs": [],
      "name": "getProducts",
      "outputs": [
        {
          "name": "",
          "type": "uint256[]"
        }
      ],
      "payable": false,
      "stateMutability": "view",
      "type": "function"
    },
    {
      "constant": true,
      "inputs": [
        {
          "name": "productId",
          "type": "uint256"
        }
      ],
      "name": "getProductDetails",
      "outputs": [
        {
          "name": "",
          "type": "string"
        },
        {
          "name": "",
          "type": "string"
        },
        {
          "name": "",
          "type": "uint256"
        },
        {
          "name": "",
          "type": "uint256"
        },
        {
          "name": "",
          "type": "uint8"
        }
      ],
      "payable": false,
      "stateMutability": "view",
      "type": "function"
    },
    {
      "constant": false,
      "inputs": [
        {
          "name": "_productId",
          "type": "uint256"
        },
        {
          "name": "_quantity",
          "type": "uint256"
        }
      ],
      "name": "buyProductFromStore",
      "outputs": [],
      "payable": true,
      "stateMutability": "payable",
      "type": "function"
    },
    {
      "constant": false,
      "inputs": [
        {
          "name": "withdrawAmount",
          "type": "uint256"
        }
      ],
      "name": "withdrawFund",
      "outputs": [
        {
          "name": "",
          "type": "uint256"
        }
      ],
      "payable": true,
      "stateMutability": "payable",
      "type": "function"
    }
  ],
  "bytecode": "0x60806040523480156200001157600080fd5b506040516200219138038062002191833981018060405281019080805182019291906020018051820192919060200180519060200190929190505050326000806101000a81548173ffffffffffffffffffffffffffffffffffffffff021916908373ffffffffffffffffffffffffffffffffffffffff1602179055508260019080519060200190620000a5929190620000d7565b50806003819055508160029080519060200190620000c5929190620000d7565b50600060048190555050505062000186565b828054600181600116156101000203166002900490600052602060002090601f016020900481019282601f106200011a57805160ff19168380011785556200014b565b828001600101855582156200014b579182015b828111156200014a5782518255916020019190600101906200012d565b5b5090506200015a91906200015e565b5090565b6200018391905b808211156200017f57600081600090555060010162000165565b5090565b90565b611ffb80620001966000396000f3006080604052600436106100af576000357c0100000000000000000000000000000000000000000000000000000000900463ffffffff1680630cee1725146100b4578063521936e6146100e85780635287d535146101785780636813b53b146101af5780637284e416146102e45780637acc0b20146103745780639498be1b146104b0578063c29b2f2014610587578063de084730146105f3578063f94eb1821461061d578063fe04eb2d14610702575b600080fd5b6100d260048036038101908080359060200190929190505050610838565b6040518082815260200191505060405180910390f35b3480156100f457600080fd5b506100fd610a6c565b6040518080602001828103825283818151815260200191508051906020019080838360005b8381101561013d578082015181840152602081019050610122565b50505050905090810190601f16801561016a5780820380516001836020036101000a031916815260200191505b509250505060405180910390f35b34801561018457600080fd5b506101ad6004803603810190808035906020019092919080359060200190929190505050610b0a565b005b3480156101bb57600080fd5b506101da60048036038101908080359060200190929190505050610d62565b6040518080602001806020018681526020018581526020018460018111156101fe57fe5b60ff168152602001838103835288818151815260200191508051906020019080838360005b8381101561023e578082015181840152602081019050610223565b50505050905090810190601f16801561026b5780820380516001836020036101000a031916815260200191505b50838103825287818151815260200191508051906020019080838360005b838110156102a4578082015181840152602081019050610289565b50505050905090810190601f1680156102d15780820380516001836020036101000a031916815260200191505b5097505050505050505060405180910390f35b3480156102f057600080fd5b506102f9610f65565b6040518080602001828103825283818151815260200191508051906020019080838360005b8381101561033957808201518184015260208101905061031e565b50505050905090810190601f1680156103665780820380516001836020036101000a031916815260200191505b509250505060405180910390f35b34801561038057600080fd5b5061039f60048036038101908080359060200190929190505050611003565b6040518087815260200180602001806020018681526020018581526020018460018111156103c957fe5b60ff168152602001838103835288818151815260200191508051906020019080838360005b838110156104095780820151818401526020810190506103ee565b50505050905090810190601f1680156104365780820380516001836020036101000a031916815260200191505b50838103825287818151815260200191508051906020019080838360005b8381101561046f578082015181840152602081019050610454565b50505050905090810190601f16801561049c5780820380516001836020036101000a031916815260200191505b509850505050505050505060405180910390f35b3480156104bc57600080fd5b50610571600480360381019080803590602001908201803590602001908080601f0160208091040260200160405190810160405280939291908181526020018383808284378201915050505050509192919290803590602001908201803590602001908080601f0160208091040260200160405190810160405280939291908181526020018383808284378201915050505050509192919290803590602001909291908035906020019092919050505061118b565b6040518082815260200191505060405180910390f35b34801561059357600080fd5b5061059c6114ad565b6040518080602001828103825283818151815260200191508051906020019060200280838360005b838110156105df5780820151818401526020810190506105c4565b505050509050019250505060405180910390f35b61061b6004803603810190808035906020019092919080359060200190929190505050611640565b005b34801561062957600080fd5b506106e860048036038101908080359060200190929190803590602001908201803590602001908080601f0160208091040260200160405190810160405280939291908181526020018383808284378201915050505050509192919290803590602001908201803590602001908080601f016020809104026020016040519081016040528093929190818152602001838380828437820191505050505050919291929080359060200190929190803590602001909291905050506119bc565b604051808215151515815260200191505060405180910390f35b34801561070e57600080fd5b50610717611c4e565b604051808573ffffffffffffffffffffffffffffffffffffffff1673ffffffffffffffffffffffffffffffffffffffff1681526020018060200184815260200180602001838103835286818151815260200191508051906020019080838360005b83811015610793578082015181840152602081019050610778565b50505050905090810190601f1680156107c05780820380516001836020036101000a031916815260200191505b50838103825284818151815260200191508051906020019080838360005b838110156107f95780820151818401526020810190506107de565b50505050905090810190601f1680156108265780820380516001836020036101000a031916815260200191505b50965050505050505060405180910390f35b60003373ffffffffffffffffffffffffffffffffffffffff166000809054906101000a900473ffffffffffffffffffffffffffffffffffffffff1673ffffffffffffffffffffffffffffffffffffffff16141515610924576040517f08c379a000000000000000000000000000000000000000000000000000000000815260040180806020018281038252602c8152602001807f4f6e6c7920612073746f7265206f776e65722063616e20696e766f6b6520746881526020017f69732066756e6374696f6e21000000000000000000000000000000000000000081525060400191505060405180910390fd5b813073ffffffffffffffffffffffffffffffffffffffff1631101515156109ff576040517f08c379a000000000000000000000000000000000000000000000000000000000815260040180806020018281038252604c8152602001807f5468652063757272656e742073746f72652062616c616e636520616d6f756e7481526020017f206d7573742062652067726561746572207468616e207468652077697468647281526020017f6177616c20616d6f756e7421000000000000000000000000000000000000000081525060600191505060405180910390fd5b6000809054906101000a900473ffffffffffffffffffffffffffffffffffffffff1673ffffffffffffffffffffffffffffffffffffffff166108fc839081150290604051600060405180830381858888f19350505050158015610a66573d6000803e3d6000fd5b50919050565b60018054600181600116156101000203166002900480601f016020809104026020016040519081016040528092919081815260200182805460018160011615610100020316600290048015610b025780601f10610ad757610100808354040283529160200191610b02565b820191906000526020600020905b815481529060010190602001808311610ae557829003601f168201915b505050505081565b3373ffffffffffffffffffffffffffffffffffffffff166000809054906101000a900473ffffffffffffffffffffffffffffffffffffffff1673ffffffffffffffffffffffffffffffffffffffff16141515610bf4576040517f08c379a000000000000000000000000000000000000000000000000000000000815260040180806020018281038252602c8152602001807f4f6e6c7920612073746f7265206f776e65722063616e20696e766f6b6520746881526020017f69732066756e6374696f6e21000000000000000000000000000000000000000081525060400191505060405180910390fd5b60006001811115610c0157fe5b600583815481101515610c1057fe5b906000526020600020906006020160050160009054906101000a900460ff166001811115610c3a57fe5b141515610cd5576040517f08c379a00000000000000000000000000000000000000000000000000000000081526004018080602001828103825260318152602001807f4f6e6c7920746865206163746976652070726f647563742063616e206265206d81526020017f61726b65642061732072656d6f7665642100000000000000000000000000000081525060400191505060405180910390fd5b80600583815481101515610ce557fe5b90600052602060002090600602016004015403600583815481101515610d0757fe5b9060005260206000209060060201600401819055506001600583815481101515610d2d57fe5b906000526020600020906006020160050160006101000a81548160ff02191690836001811115610d5957fe5b02179055505050565b6060806000806000600586815481101515610d7957fe5b9060005260206000209060060201600101600587815481101515610d9957fe5b9060005260206000209060060201600201600588815481101515610db957fe5b906000526020600020906006020160030154600589815481101515610dda57fe5b90600052602060002090600602016004015460058a815481101515610dfb57fe5b906000526020600020906006020160050160009054906101000a900460ff16848054600181600116156101000203166002900480601f016020809104026020016040519081016040528092919081815260200182805460018160011615610100020316600290048015610eaf5780601f10610e8457610100808354040283529160200191610eaf565b820191906000526020600020905b815481529060010190602001808311610e9257829003601f168201915b50505050509450838054600181600116156101000203166002900480601f016020809104026020016040519081016040528092919081815260200182805460018160011615610100020316600290048015610f4b5780601f10610f2057610100808354040283529160200191610f4b565b820191906000526020600020905b815481529060010190602001808311610f2e57829003601f168201915b505050505093509450945094509450945091939590929450565b60028054600181600116156101000203166002900480601f016020809104026020016040519081016040528092919081815260200182805460018160011615610100020316600290048015610ffb5780601f10610fd057610100808354040283529160200191610ffb565b820191906000526020600020905b815481529060010190602001808311610fde57829003601f168201915b505050505081565b60058181548110151561101257fe5b9060005260206000209060060201600091509050806000015490806001018054600181600116156101000203166002900480601f0160208091040260200160405190810160405280929190818152602001828054600181600116156101000203166002900480156110c45780601f10611099576101008083540402835291602001916110c4565b820191906000526020600020905b8154815290600101906020018083116110a757829003601f168201915b505050505090806002018054600181600116156101000203166002900480601f0160208091040260200160405190810160405280929190818152602001828054600181600116156101000203166002900480156111625780601f1061113757610100808354040283529160200191611162565b820191906000526020600020905b81548152906001019060200180831161114557829003601f168201915b5050505050908060030154908060040154908060050160009054906101000a900460ff16905086565b60003373ffffffffffffffffffffffffffffffffffffffff166000809054906101000a900473ffffffffffffffffffffffffffffffffffffffff1673ffffffffffffffffffffffffffffffffffffffff16141515611277576040517f08c379a000000000000000000000000000000000000000000000000000000000815260040180806020018281038252602c8152602001807f4f6e6c7920612073746f7265206f776e65722063616e20696e766f6b6520746881526020017f69732066756e6374696f6e21000000000000000000000000000000000000000081525060400191505060405180910390fd5b600160058181805490500191508161128f9190611dc5565b5060c0604051908101604052806004548152602001868152602001858152602001848152602001838152602001600060018111156112c957fe5b81525060056004548154811015156112dd57fe5b9060005260206000209060060201600082015181600001556020820151816001019080519060200190611311929190611df7565b50604082015181600201908051906020019061132e929190611df7565b50606082015181600301556080820151816004015560a08201518160050160006101000a81548160ff0219169083600181111561136757fe5b02179055509050507fc86b920148e151a78e4a627284a763302c966579a89be8494ba9562ac1f61b7b60045486868686604051808681526020018060200180602001858152602001848152602001838103835287818151815260200191508051906020019080838360005b838110156113ed5780820151818401526020810190506113d2565b50505050905090810190601f16801561141a5780820380516001836020036101000a031916815260200191505b50838103825286818151815260200191508051906020019080838360005b83811015611453578082015181840152602081019050611438565b50505050905090810190601f1680156114805780820380516001836020036101000a031916815260200191505b5097505050505050505060405180910390a160046000815480929190600101919050559050949350505050565b606060008060606000809350600092505b6005805490508360ff16101561153357600060018111156114db57fe5b60058460ff168154811015156114ed57fe5b906000526020600020906006020160050160009054906101000a900460ff16600181111561151757fe5b14156115265783806001019450505b82806001019350506114be565b8360ff166040519080825280602002602001820160405280156115655781602001602082028038833980820191505090505b50915060008460ff1611156116365760009050600092505b6005805490508360ff161015611635576000600181111561159a57fe5b60058460ff168154811015156115ac57fe5b906000526020600020906006020160050160009054906101000a900460ff1660018111156115d657fe5b14156116285760058360ff168154811015156115ee57fe5b906000526020600020906006020160000154828260ff1681518110151561161157fe5b906020019060200201818152505080806001019150505b828060010193505061157d565b5b8194505050505090565b6000600181111561164d57fe5b60058381548110151561165c57fe5b906000526020600020906006020160050160009054906101000a900460ff16600181111561168657fe5b141515611721576040517f08c379a00000000000000000000000000000000000000000000000000000000081526004018080602001828103825260268152602001807f4f6e6c7920746865206163746976652070726f647563742063616e206265206281526020017f6f7567687421000000000000000000000000000000000000000000000000000081525060400191505060405180910390fd5b3373ffffffffffffffffffffffffffffffffffffffff166000809054906101000a900473ffffffffffffffffffffffffffffffffffffffff1673ffffffffffffffffffffffffffffffffffffffff161415151561180c576040517f08c379a00000000000000000000000000000000000000000000000000000000081526004018080602001828103825260258152602001807f546865206f776e65722063616e6e6f742062757920697473206f776e2070726f81526020017f647563742100000000000000000000000000000000000000000000000000000081525060400191505060405180910390fd5b60058281548110151561181b57fe5b90600052602060002090600602016004015481111515156118ca576040517f08c379a000000000000000000000000000000000000000000000000000000000815260040180806020018281038252603a8152602001807f5468652073746f726520646f6573206e6f74206861766520737566666963696581526020017f6e74207175616e74697479206f66207468652070726f6475637400000000000081525060400191505060405180910390fd5b806005838154811015156118da57fe5b906000526020600020906006020160040154036005838154811015156118fc57fe5b9060005260206000209060060201600401819055507f70f1427d099e30fdd6c011f95de5df492fe8ffd3484850ddd6ec1c004e48616b82823033604051808581526020018481526020018373ffffffffffffffffffffffffffffffffffffffff1673ffffffffffffffffffffffffffffffffffffffff1681526020018273ffffffffffffffffffffffffffffffffffffffff1673ffffffffffffffffffffffffffffffffffffffff16815260200194505050505060405180910390a15050565b60003373ffffffffffffffffffffffffffffffffffffffff166000809054906101000a900473ffffffffffffffffffffffffffffffffffffffff1673ffffffffffffffffffffffffffffffffffffffff16141515611aa8576040517f08c379a000000000000000000000000000000000000000000000000000000000815260040180806020018281038252602c8152602001807f4f6e6c7920612073746f7265206f776e65722063616e20696e766f6b6520746881526020017f69732066756e6374696f6e21000000000000000000000000000000000000000081525060400191505060405180910390fd5b6000600587815481101515611ab957fe5b90600052602060002090600602016000015414151515611b8d576040517f08c379a00000000000000000000000000000000000000000000000000000000081526004018080602001828103825260498152602001807f50726f6475637420666f722074686520676976656e2073746f7265206964206181526020017f6e642070726f6475637420696420636f6d62696e6174696f6e20646f6573206e81526020017f6f7420657869737421000000000000000000000000000000000000000000000081525060600191505060405180910390fd5b84600587815481101515611b9d57fe5b90600052602060002090600602016001019080519060200190611bc1929190611e77565b5083600587815481101515611bd257fe5b90600052602060002090600602016002019080519060200190611bf6929190611e77565b5082600587815481101515611c0757fe5b90600052602060002090600602016003018190555081600587815481101515611c2c57fe5b9060005260206000209060060201600401819055506001905095945050505050565b60006060600060606000809054906101000a900473ffffffffffffffffffffffffffffffffffffffff1660016003546002828054600181600116156101000203166002900480601f016020809104026020016040519081016040528092919081815260200182805460018160011615610100020316600290048015611d145780601f10611ce957610100808354040283529160200191611d14565b820191906000526020600020905b815481529060010190602001808311611cf757829003601f168201915b50505050509250808054600181600116156101000203166002900480601f016020809104026020016040519081016040528092919081815260200182805460018160011615610100020316600290048015611db05780601f10611d8557610100808354040283529160200191611db0565b820191906000526020600020905b815481529060010190602001808311611d9357829003601f168201915b50505050509050935093509350935090919293565b815481835581811115611df257600602816006028360005260206000209182019101611df19190611ef7565b5b505050565b828054600181600116156101000203166002900490600052602060002090601f016020900481019282601f10611e3857805160ff1916838001178555611e66565b82800160010185558215611e66579182015b82811115611e65578251825591602001919060010190611e4a565b5b509050611e739190611f62565b5090565b828054600181600116156101000203166002900490600052602060002090601f016020900481019282601f10611eb857805160ff1916838001178555611ee6565b82800160010185558215611ee6579182015b82811115611ee5578251825591602001919060010190611eca565b5b509050611ef39190611f62565b5090565b611f5f91905b80821115611f5b57600080820160009055600182016000611f1e9190611f87565b600282016000611f2e9190611f87565b600382016000905560048201600090556005820160006101000a81549060ff021916905550600601611efd565b5090565b90565b611f8491905b80821115611f80576000816000905550600101611f68565b5090565b90565b50805460018160011615610100020316600290046000825580601f10611fad5750611fcc565b601f016020900490600052602060002090810190611fcb9190611f62565b5b505600a165627a7a72305820d841f47c22d736cf54ef01d444cf929b266ebe67bbc4a987697bc1b9c4d95a240029",
  "source": "pragma solidity ^0.4.22;\n\n/**\n * This contract will create all the functionalities related to a store.\n *\n * For example\n * - Adding a product\n * - updating a product\n * - customer being able to view the list of stores\n * - store owner being able to see the stores\n * - customer being able to view the products in a given Store\n *\n*/\ncontract Store {\n    // Onwer is the actual store owner who is creating the store.\n    address private owner;\n\n    string public storeName;\n    string public description;\n    uint private storeId;\n    uint private nextProductId;\n    Product[] public products;\n\n    enum ProductStatus {\n        ACTIVE,\n        REMOVED\n    }\n\n    struct Product {\n        uint productId;\n        string productName;\n        string description;\n        uint price;\n        uint quantity;\n        ProductStatus status;\n    }\n\n    event NewProduct(\n      uint productId,\n      string productName,\n      string description,\n      uint price,\n      uint quantity\n      );\n\n    event PurchaseOfProduct(\n        uint productId,\n        uint quantity,\n        address storeAddress,\n        address buyerAddress\n      );\n\n    event LogAsEvent(address param1, address param2, string param3);\n\n    constructor(\n            string _storeName,\n            string _description,\n            uint _storeId ) public {\n\n        owner = tx.origin;\n        storeName = _storeName;\n        storeId = _storeId;\n        description = _description;\n        nextProductId = 0;\n\n        // emit LogAsEvent(msg.sender, owner, \"Constructor\");\n    }\n\n    /**\n     * Only (store) owners shall be allowed to add or update the store specific details - e.g. product.\n     *\n    */\n    modifier onlyOwner {\n        require( (owner == msg.sender), \"Only a store owner can invoke this function!\");\n        _;\n    }\n\n    /**\n    * A function to return the state details for a given store contract\n    */\n    function getStoreDetails() public view returns( address, string, uint, string ) {\n      return (owner, storeName, storeId, description);\n    }\n\n     /**\n     * A store owner will use this function to add a new product to his / her store.\n     *\n     * Whenever a new product is added, the product map will be updated to hold all the product and their details\n     * across all the store and store owners.\n     *\n    */\n    function addProductToTheStore(\n            string productName,\n            string productDesc,\n            uint price,\n            uint quantity ) public onlyOwner returns(uint) {\n\n            products.length += 1;\n            products[nextProductId] = Product(\n                nextProductId,\n                productName,\n                productDesc,\n                price,\n                quantity,\n                ProductStatus.ACTIVE );\n\n            emit NewProduct(\n              nextProductId,\n              productName,\n              productDesc,\n              price,\n              quantity\n              );\n\n            return nextProductId++;\n    }\n\n    /**\n     * The update product function will be called to update the details of an existing function.\n     *\n     * In a regular course of a business, the following amounts may get updated.\n     * - quantity\n     * - productName\n     * - price\n     * - description\n     *\n    */\n    function updateProduct(\n            uint productId,\n            string productName,\n            string productDesc,\n            uint price,\n            uint quantity ) public onlyOwner returns(bool) {\n\n        require( products[productId].productId != 0 , \"Product for the given store id and product id combination does not exist!\");\n\n        products[productId].productName = productName;\n        products[productId].description = productDesc;\n        products[productId].price = price;\n        products[productId].quantity = quantity;\n\n        return true;\n    }\n\n    /**\n     * A store owner can decide to remove a product from his/her store.\n     * A removed product will not be visible to shoppers!\n     *\n    */\n    function removeProduct(uint productId, uint quantity) public onlyOwner {\n\n        require( products[productId].status == ProductStatus.ACTIVE, \"Only the active product can be marked as removed!\");\n\n        products[productId].quantity = products[productId].quantity - quantity;\n        products[productId].status = ProductStatus.REMOVED;\n    }\n\n    /**\n    * getProducts will return all the products of this store.\n    */\n    function getProducts() public view returns( uint[] ) {\n\n      uint8 activeProdCount = 0;\n\n      for (uint8 prodCount=0; prodCount<products.length; prodCount++) {\n          if (products[prodCount].status == ProductStatus.ACTIVE) {\n              activeProdCount++;\n          }\n      }\n\n      uint[] memory activeProductIds = new uint[](activeProdCount);\n\n      if (activeProdCount > 0) {\n\n        uint8 tmpCount = 0;\n\n        for (prodCount=0; prodCount<products.length; prodCount++) {\n            if (products[prodCount].status == ProductStatus.ACTIVE) {\n              activeProductIds[tmpCount] = products[prodCount].productId;\n              tmpCount++;\n            }\n        }\n      }\n\n\n      return activeProductIds;\n    }\n\n    /*\n    * For a given product identifier of the store, this method will return the product details.\n    */\n    function getProductDetails(uint productId) public view returns(string, string, uint, uint, ProductStatus) {\n\n        return ( products[productId].productName,\n                 products[productId].description,\n                 products[productId].price,\n                 products[productId].quantity,\n                 products[productId].status );\n    }\n\n    /**\n     * The shopper can buy this product using this function.\n     *\n    */\n    function buyProductFromStore(uint _productId, uint _quantity) public payable {\n\n        require( products[_productId].status == ProductStatus.ACTIVE, \"Only the active product can be bought!\");\n        require( owner != msg.sender, \"The owner cannot buy its own product!\");\n        require( _quantity <= products[_productId].quantity, \"The store does not have sufficient quantity of the product\");\n\n        //Reduce the corresponding quantity from the inventory\n        products[_productId].quantity = products[_productId].quantity - _quantity;\n\n        emit PurchaseOfProduct(_productId, _quantity, address(this), msg.sender);\n\n        /*\n        // Transfer fund from the shopper's acount into the store's account\n        address(this).transfer( _quantity * products[_productId].price );\n        */\n    }\n\n    /**\n     * A store owner can withdraw fund from a given store\n    */\n    function withdrawFund(uint withdrawAmount) public payable onlyOwner returns(uint) {\n        require(address(this).balance >= withdrawAmount, \"The current store balance amount must be greater than the withdrawal amount!\");\n        owner.transfer(withdrawAmount);\n    }\n\n}\n",
  "sourcePath": "/Users/alokranjan/blockchain/ethereum/consensys/marketplace/contracts/Store.sol",
  "compiler": {
    "name": "solc",
    "version": "0.4.24+commit.e67f0147.Emscripten.clang"
  },
  "schemaVersion": "2.0.1",
  "updatedAt": "2018-08-15T17:34:24.929Z"
}