{
  "contractName": "Store",
  "abi": [
    {
      "constant": true,
      "inputs": [],
      "name": "storeName",
      "outputs": [
        {
          "name": "",
          "type": "string"
        }
      ],
      "payable": false,
      "stateMutability": "view",
      "type": "function"
    },
    {
      "constant": true,
      "inputs": [],
      "name": "description",
      "outputs": [
        {
          "name": "",
          "type": "string"
        }
      ],
      "payable": false,
      "stateMutability": "view",
      "type": "function"
    },
    {
      "constant": true,
      "inputs": [
        {
          "name": "",
          "type": "uint256"
        }
      ],
      "name": "products",
      "outputs": [
        {
          "name": "productId",
          "type": "uint256"
        },
        {
          "name": "productName",
          "type": "string"
        },
        {
          "name": "description",
          "type": "string"
        },
        {
          "name": "price",
          "type": "uint256"
        },
        {
          "name": "quantity",
          "type": "uint256"
        },
        {
          "name": "status",
          "type": "uint8"
        }
      ],
      "payable": false,
      "stateMutability": "view",
      "type": "function"
    },
    {
      "inputs": [
        {
          "name": "_storeName",
          "type": "string"
        },
        {
          "name": "_description",
          "type": "string"
        },
        {
          "name": "_storeId",
          "type": "uint256"
        }
      ],
      "payable": false,
      "stateMutability": "nonpayable",
      "type": "constructor"
    },
    {
      "anonymous": false,
      "inputs": [
        {
          "indexed": false,
          "name": "productId",
          "type": "uint256"
        },
        {
          "indexed": false,
          "name": "productName",
          "type": "string"
        },
        {
          "indexed": false,
          "name": "description",
          "type": "string"
        },
        {
          "indexed": false,
          "name": "price",
          "type": "uint256"
        },
        {
          "indexed": false,
          "name": "quantity",
          "type": "uint256"
        }
      ],
      "name": "NewProduct",
      "type": "event"
    },
    {
      "anonymous": false,
      "inputs": [
        {
          "indexed": false,
          "name": "param1",
          "type": "address"
        },
        {
          "indexed": false,
          "name": "param2",
          "type": "address"
        },
        {
          "indexed": false,
          "name": "param3",
          "type": "string"
        }
      ],
      "name": "LogAsEvent",
      "type": "event"
    },
    {
      "constant": false,
      "inputs": [
        {
          "name": "productName",
          "type": "string"
        },
        {
          "name": "productDesc",
          "type": "string"
        },
        {
          "name": "price",
          "type": "uint256"
        },
        {
          "name": "quantity",
          "type": "uint256"
        }
      ],
      "name": "addProductToTheStore",
      "outputs": [
        {
          "name": "",
          "type": "uint256"
        }
      ],
      "payable": false,
      "stateMutability": "nonpayable",
      "type": "function"
    },
    {
      "constant": false,
      "inputs": [
        {
          "name": "productId",
          "type": "uint256"
        },
        {
          "name": "productName",
          "type": "string"
        },
        {
          "name": "productDesc",
          "type": "string"
        },
        {
          "name": "price",
          "type": "uint256"
        },
        {
          "name": "quantity",
          "type": "uint256"
        }
      ],
      "name": "updateProduct",
      "outputs": [
        {
          "name": "",
          "type": "bool"
        }
      ],
      "payable": false,
      "stateMutability": "nonpayable",
      "type": "function"
    },
    {
      "constant": false,
      "inputs": [
        {
          "name": "productId",
          "type": "uint256"
        },
        {
          "name": "quantity",
          "type": "uint256"
        }
      ],
      "name": "removeProduct",
      "outputs": [],
      "payable": false,
      "stateMutability": "nonpayable",
      "type": "function"
    },
    {
      "constant": true,
      "inputs": [],
      "name": "getProducts",
      "outputs": [
        {
          "name": "",
          "type": "uint256[]"
        }
      ],
      "payable": false,
      "stateMutability": "view",
      "type": "function"
    },
    {
      "constant": true,
      "inputs": [
        {
          "name": "productId",
          "type": "uint256"
        }
      ],
      "name": "getProductDetails",
      "outputs": [
        {
          "name": "",
          "type": "string"
        },
        {
          "name": "",
          "type": "string"
        },
        {
          "name": "",
          "type": "uint256"
        },
        {
          "name": "",
          "type": "uint256"
        },
        {
          "name": "",
          "type": "uint8"
        }
      ],
      "payable": false,
      "stateMutability": "view",
      "type": "function"
    },
    {
      "constant": false,
      "inputs": [
        {
          "name": "_productId",
          "type": "uint256"
        },
        {
          "name": "_quantity",
          "type": "uint256"
        }
      ],
      "name": "buyProductFromStore",
      "outputs": [],
      "payable": true,
      "stateMutability": "payable",
      "type": "function"
    },
    {
      "constant": false,
      "inputs": [
        {
          "name": "withdrawAmount",
          "type": "uint256"
        }
      ],
      "name": "withdrawFund",
      "outputs": [
        {
          "name": "",
          "type": "uint256"
        }
      ],
      "payable": true,
      "stateMutability": "payable",
      "type": "function"
    }
  ],
  "bytecode": "0x60806040523480156200001157600080fd5b5060405162001e9b38038062001e9b833981018060405281019080805182019291906020018051820192919060200180519060200190929190505050326000806101000a81548173ffffffffffffffffffffffffffffffffffffffff021916908373ffffffffffffffffffffffffffffffffffffffff1602179055508260019080519060200190620000a5929190620000d7565b50806003819055508160029080519060200190620000c5929190620000d7565b50600060048190555050505062000186565b828054600181600116156101000203166002900490600052602060002090601f016020900481019282601f106200011a57805160ff19168380011785556200014b565b828001600101855582156200014b579182015b828111156200014a5782518255916020019190600101906200012d565b5b5090506200015a91906200015e565b5090565b6200018391905b808211156200017f57600081600090555060010162000165565b5090565b90565b611d0580620001966000396000f3006080604052600436106100a4576000357c0100000000000000000000000000000000000000000000000000000000900463ffffffff1680630cee1725146100a9578063521936e6146100dd5780635287d5351461016d5780636813b53b146101a45780637284e416146102d95780637acc0b20146103695780639498be1b146104a5578063c29b2f201461057c578063de084730146105e8578063f94eb18214610612575b600080fd5b6100c7600480360381019080803590602001909291905050506106f7565b6040518082815260200191505060405180910390f35b3480156100e957600080fd5b506100f261092b565b6040518080602001828103825283818151815260200191508051906020019080838360005b83811015610132578082015181840152602081019050610117565b50505050905090810190601f16801561015f5780820380516001836020036101000a031916815260200191505b509250505060405180910390f35b34801561017957600080fd5b506101a260048036038101908080359060200190929190803590602001909291905050506109c9565b005b3480156101b057600080fd5b506101cf60048036038101908080359060200190929190505050610c21565b6040518080602001806020018681526020018581526020018460018111156101f357fe5b60ff168152602001838103835288818151815260200191508051906020019080838360005b83811015610233578082015181840152602081019050610218565b50505050905090810190601f1680156102605780820380516001836020036101000a031916815260200191505b50838103825287818151815260200191508051906020019080838360005b8381101561029957808201518184015260208101905061027e565b50505050905090810190601f1680156102c65780820380516001836020036101000a031916815260200191505b5097505050505050505060405180910390f35b3480156102e557600080fd5b506102ee610e24565b6040518080602001828103825283818151815260200191508051906020019080838360005b8381101561032e578082015181840152602081019050610313565b50505050905090810190601f16801561035b5780820380516001836020036101000a031916815260200191505b509250505060405180910390f35b34801561037557600080fd5b5061039460048036038101908080359060200190929190505050610ec2565b6040518087815260200180602001806020018681526020018581526020018460018111156103be57fe5b60ff168152602001838103835288818151815260200191508051906020019080838360005b838110156103fe5780820151818401526020810190506103e3565b50505050905090810190601f16801561042b5780820380516001836020036101000a031916815260200191505b50838103825287818151815260200191508051906020019080838360005b83811015610464578082015181840152602081019050610449565b50505050905090810190601f1680156104915780820380516001836020036101000a031916815260200191505b509850505050505050505060405180910390f35b3480156104b157600080fd5b50610566600480360381019080803590602001908201803590602001908080601f0160208091040260200160405190810160405280939291908181526020018383808284378201915050505050509192919290803590602001908201803590602001908080601f0160208091040260200160405190810160405280939291908181526020018383808284378201915050505050509192919290803590602001909291908035906020019092919050505061104a565b6040518082815260200191505060405180910390f35b34801561058857600080fd5b5061059161136c565b6040518080602001828103825283818151815260200191508051906020019060200280838360005b838110156105d45780820151818401526020810190506105b9565b505050509050019250505060405180910390f35b61061060048036038101908080359060200190929190803590602001909291905050506114ff565b005b34801561061e57600080fd5b506106dd60048036038101908080359060200190929190803590602001908201803590602001908080601f0160208091040260200160405190810160405280939291908181526020018383808284378201915050505050509192919290803590602001908201803590602001908080601f0160208091040260200160405190810160405280939291908181526020018383808284378201915050505050509192919290803590602001909291908035906020019092919050505061183d565b604051808215151515815260200191505060405180910390f35b60003373ffffffffffffffffffffffffffffffffffffffff166000809054906101000a900473ffffffffffffffffffffffffffffffffffffffff1673ffffffffffffffffffffffffffffffffffffffff161415156107e3576040517f08c379a000000000000000000000000000000000000000000000000000000000815260040180806020018281038252602c8152602001807f4f6e6c7920612073746f7265206f776e65722063616e20696e766f6b6520746881526020017f69732066756e6374696f6e21000000000000000000000000000000000000000081525060400191505060405180910390fd5b813073ffffffffffffffffffffffffffffffffffffffff1631101515156108be576040517f08c379a000000000000000000000000000000000000000000000000000000000815260040180806020018281038252604c8152602001807f5468652063757272656e742073746f72652062616c616e636520616d6f756e7481526020017f206d7573742062652067726561746572207468616e207468652077697468647281526020017f6177616c20616d6f756e7421000000000000000000000000000000000000000081525060600191505060405180910390fd5b6000809054906101000a900473ffffffffffffffffffffffffffffffffffffffff1673ffffffffffffffffffffffffffffffffffffffff166108fc839081150290604051600060405180830381858888f19350505050158015610925573d6000803e3d6000fd5b50919050565b60018054600181600116156101000203166002900480601f0160208091040260200160405190810160405280929190818152602001828054600181600116156101000203166002900480156109c15780601f10610996576101008083540402835291602001916109c1565b820191906000526020600020905b8154815290600101906020018083116109a457829003601f168201915b505050505081565b3373ffffffffffffffffffffffffffffffffffffffff166000809054906101000a900473ffffffffffffffffffffffffffffffffffffffff1673ffffffffffffffffffffffffffffffffffffffff16141515610ab3576040517f08c379a000000000000000000000000000000000000000000000000000000000815260040180806020018281038252602c8152602001807f4f6e6c7920612073746f7265206f776e65722063616e20696e766f6b6520746881526020017f69732066756e6374696f6e21000000000000000000000000000000000000000081525060400191505060405180910390fd5b60006001811115610ac057fe5b600583815481101515610acf57fe5b906000526020600020906006020160050160009054906101000a900460ff166001811115610af957fe5b141515610b94576040517f08c379a00000000000000000000000000000000000000000000000000000000081526004018080602001828103825260318152602001807f4f6e6c7920746865206163746976652070726f647563742063616e206265206d81526020017f61726b65642061732072656d6f7665642100000000000000000000000000000081525060400191505060405180910390fd5b80600583815481101515610ba457fe5b90600052602060002090600602016004015403600583815481101515610bc657fe5b9060005260206000209060060201600401819055506001600583815481101515610bec57fe5b906000526020600020906006020160050160006101000a81548160ff02191690836001811115610c1857fe5b02179055505050565b6060806000806000600586815481101515610c3857fe5b9060005260206000209060060201600101600587815481101515610c5857fe5b9060005260206000209060060201600201600588815481101515610c7857fe5b906000526020600020906006020160030154600589815481101515610c9957fe5b90600052602060002090600602016004015460058a815481101515610cba57fe5b906000526020600020906006020160050160009054906101000a900460ff16848054600181600116156101000203166002900480601f016020809104026020016040519081016040528092919081815260200182805460018160011615610100020316600290048015610d6e5780601f10610d4357610100808354040283529160200191610d6e565b820191906000526020600020905b815481529060010190602001808311610d5157829003601f168201915b50505050509450838054600181600116156101000203166002900480601f016020809104026020016040519081016040528092919081815260200182805460018160011615610100020316600290048015610e0a5780601f10610ddf57610100808354040283529160200191610e0a565b820191906000526020600020905b815481529060010190602001808311610ded57829003601f168201915b505050505093509450945094509450945091939590929450565b60028054600181600116156101000203166002900480601f016020809104026020016040519081016040528092919081815260200182805460018160011615610100020316600290048015610eba5780601f10610e8f57610100808354040283529160200191610eba565b820191906000526020600020905b815481529060010190602001808311610e9d57829003601f168201915b505050505081565b600581815481101515610ed157fe5b9060005260206000209060060201600091509050806000015490806001018054600181600116156101000203166002900480601f016020809104026020016040519081016040528092919081815260200182805460018160011615610100020316600290048015610f835780601f10610f5857610100808354040283529160200191610f83565b820191906000526020600020905b815481529060010190602001808311610f6657829003601f168201915b505050505090806002018054600181600116156101000203166002900480601f0160208091040260200160405190810160405280929190818152602001828054600181600116156101000203166002900480156110215780601f10610ff657610100808354040283529160200191611021565b820191906000526020600020905b81548152906001019060200180831161100457829003601f168201915b5050505050908060030154908060040154908060050160009054906101000a900460ff16905086565b60003373ffffffffffffffffffffffffffffffffffffffff166000809054906101000a900473ffffffffffffffffffffffffffffffffffffffff1673ffffffffffffffffffffffffffffffffffffffff16141515611136576040517f08c379a000000000000000000000000000000000000000000000000000000000815260040180806020018281038252602c8152602001807f4f6e6c7920612073746f7265206f776e65722063616e20696e766f6b6520746881526020017f69732066756e6374696f6e21000000000000000000000000000000000000000081525060400191505060405180910390fd5b600160058181805490500191508161114e9190611acf565b5060c06040519081016040528060045481526020018681526020018581526020018481526020018381526020016000600181111561118857fe5b815250600560045481548110151561119c57fe5b90600052602060002090600602016000820151816000015560208201518160010190805190602001906111d0929190611b01565b5060408201518160020190805190602001906111ed929190611b01565b50606082015181600301556080820151816004015560a08201518160050160006101000a81548160ff0219169083600181111561122657fe5b02179055509050507fc86b920148e151a78e4a627284a763302c966579a89be8494ba9562ac1f61b7b60045486868686604051808681526020018060200180602001858152602001848152602001838103835287818151815260200191508051906020019080838360005b838110156112ac578082015181840152602081019050611291565b50505050905090810190601f1680156112d95780820380516001836020036101000a031916815260200191505b50838103825286818151815260200191508051906020019080838360005b838110156113125780820151818401526020810190506112f7565b50505050905090810190601f16801561133f5780820380516001836020036101000a031916815260200191505b5097505050505050505060405180910390a160046000815480929190600101919050559050949350505050565b606060008060606000809350600092505b6005805490508360ff1610156113f2576000600181111561139a57fe5b60058460ff168154811015156113ac57fe5b906000526020600020906006020160050160009054906101000a900460ff1660018111156113d657fe5b14156113e55783806001019450505b828060010193505061137d565b8360ff166040519080825280602002602001820160405280156114245781602001602082028038833980820191505090505b50915060008460ff1611156114f55760009050600092505b6005805490508360ff1610156114f4576000600181111561145957fe5b60058460ff1681548110151561146b57fe5b906000526020600020906006020160050160009054906101000a900460ff16600181111561149557fe5b14156114e75760058360ff168154811015156114ad57fe5b906000526020600020906006020160000154828260ff168151811015156114d057fe5b906020019060200201818152505080806001019150505b828060010193505061143c565b5b8194505050505090565b6000600181111561150c57fe5b60058381548110151561151b57fe5b906000526020600020906006020160050160009054906101000a900460ff16600181111561154557fe5b1415156115e0576040517f08c379a00000000000000000000000000000000000000000000000000000000081526004018080602001828103825260268152602001807f4f6e6c7920746865206163746976652070726f647563742063616e206265206281526020017f6f7567687421000000000000000000000000000000000000000000000000000081525060400191505060405180910390fd5b3373ffffffffffffffffffffffffffffffffffffffff166000809054906101000a900473ffffffffffffffffffffffffffffffffffffffff1673ffffffffffffffffffffffffffffffffffffffff16141515156116cb576040517f08c379a00000000000000000000000000000000000000000000000000000000081526004018080602001828103825260258152602001807f546865206f776e65722063616e6e6f742062757920697473206f776e2070726f81526020017f647563742100000000000000000000000000000000000000000000000000000081525060400191505060405180910390fd5b6005828154811015156116da57fe5b9060005260206000209060060201600401548111151515611789576040517f08c379a000000000000000000000000000000000000000000000000000000000815260040180806020018281038252603a8152602001807f5468652073746f726520646f6573206e6f74206861766520737566666963696581526020017f6e74207175616e74697479206f66207468652070726f6475637400000000000081525060400191505060405180910390fd5b8060058381548110151561179957fe5b906000526020600020906006020160040154036005838154811015156117bb57fe5b9060005260206000209060060201600401819055503073ffffffffffffffffffffffffffffffffffffffff166108fc6005848154811015156117f957fe5b90600052602060002090600602016003015483029081150290604051600060405180830381858888f19350505050158015611838573d6000803e3d6000fd5b505050565b60003373ffffffffffffffffffffffffffffffffffffffff166000809054906101000a900473ffffffffffffffffffffffffffffffffffffffff1673ffffffffffffffffffffffffffffffffffffffff16141515611929576040517f08c379a000000000000000000000000000000000000000000000000000000000815260040180806020018281038252602c8152602001807f4f6e6c7920612073746f7265206f776e65722063616e20696e766f6b6520746881526020017f69732066756e6374696f6e21000000000000000000000000000000000000000081525060400191505060405180910390fd5b600060058781548110151561193a57fe5b90600052602060002090600602016000015414151515611a0e576040517f08c379a00000000000000000000000000000000000000000000000000000000081526004018080602001828103825260498152602001807f50726f6475637420666f722074686520676976656e2073746f7265206964206181526020017f6e642070726f6475637420696420636f6d62696e6174696f6e20646f6573206e81526020017f6f7420657869737421000000000000000000000000000000000000000000000081525060600191505060405180910390fd5b84600587815481101515611a1e57fe5b90600052602060002090600602016001019080519060200190611a42929190611b81565b5083600587815481101515611a5357fe5b90600052602060002090600602016002019080519060200190611a77929190611b81565b5082600587815481101515611a8857fe5b90600052602060002090600602016003018190555081600587815481101515611aad57fe5b9060005260206000209060060201600401819055506001905095945050505050565b815481835581811115611afc57600602816006028360005260206000209182019101611afb9190611c01565b5b505050565b828054600181600116156101000203166002900490600052602060002090601f016020900481019282601f10611b4257805160ff1916838001178555611b70565b82800160010185558215611b70579182015b82811115611b6f578251825591602001919060010190611b54565b5b509050611b7d9190611c6c565b5090565b828054600181600116156101000203166002900490600052602060002090601f016020900481019282601f10611bc257805160ff1916838001178555611bf0565b82800160010185558215611bf0579182015b82811115611bef578251825591602001919060010190611bd4565b5b509050611bfd9190611c6c565b5090565b611c6991905b80821115611c6557600080820160009055600182016000611c289190611c91565b600282016000611c389190611c91565b600382016000905560048201600090556005820160006101000a81549060ff021916905550600601611c07565b5090565b90565b611c8e91905b80821115611c8a576000816000905550600101611c72565b5090565b90565b50805460018160011615610100020316600290046000825580601f10611cb75750611cd6565b601f016020900490600052602060002090810190611cd59190611c6c565b5b505600a165627a7a72305820832cefebe5bf61124d2e445dd111e6f0f5bfa12de7e60095869346e5484f76c80029",
  "source": "pragma solidity ^0.4.22;\n\n/**\n * This contract will create all the functionalities related to a store.\n *\n * For example\n * - Adding a product\n * - updating a product\n * - customer being able to view the list of stores\n * - store owner being able to see the stores\n * - customer being able to view the products in a given Store\n *\n*/\ncontract Store {\n    // Onwer is the actual store owner who is creating the store.\n    address private owner;\n\n    string public storeName;\n    string public description;\n    uint private storeId;\n    uint private nextProductId;\n    Product[] public products;\n\n    enum ProductStatus {\n        ACTIVE,\n        REMOVED\n    }\n\n    struct Product {\n        uint productId;\n        string productName;\n        string description;\n        uint price;\n        uint quantity;\n        ProductStatus status;\n    }\n\n    event NewProduct(\n      uint productId,\n      string productName,\n      string description,\n      uint price,\n      uint quantity\n      );\n\n    event LogAsEvent(address param1, address param2, string param3);\n\n    constructor(\n            string _storeName,\n            string _description,\n            uint _storeId ) public {\n\n        owner = tx.origin;\n        storeName = _storeName;\n        storeId = _storeId;\n        description = _description;\n        nextProductId = 0;\n\n        // emit LogAsEvent(msg.sender, owner, \"Constructor\");\n    }\n\n    /**\n     * Only (store) owners shall be allowed to add or update the store specific details - e.g. product.\n     *\n    */\n    modifier onlyOwner {\n        require( (owner == msg.sender), \"Only a store owner can invoke this function!\");\n        _;\n    }\n\n     /**\n     * A store owner will use this function to add a new product to his / her store.\n     *\n     * Whenever a new product is added, the product map will be updated to hold all the product and their details\n     * across all the store and store owners.\n     *\n    */\n    function addProductToTheStore(\n            string productName,\n            string productDesc,\n            uint price,\n            uint quantity ) public onlyOwner returns(uint) {\n\n            products.length += 1;\n            products[nextProductId] = Product(\n                nextProductId,\n                productName,\n                productDesc,\n                price,\n                quantity,\n                ProductStatus.ACTIVE );\n\n            emit NewProduct(\n              nextProductId,\n              productName,\n              productDesc,\n              price,\n              quantity\n              );\n\n              /*\n              emit LogAsEvent(\n                  msg.sender,\n                  owner,\n                  \"Manually check if they are same or not!\"\n              );\n              */\n\n            return nextProductId++;\n    }\n\n    /**\n     * The update product function will be called to update the details of an existing function.\n     *\n     * In a regular course of a business, the following amounts may get updated.\n     * - quantity\n     * - productName\n     * - price\n     * - description\n     *\n    */\n    function updateProduct(\n            uint productId,\n            string productName,\n            string productDesc,\n            uint price,\n            uint quantity ) public onlyOwner returns(bool) {\n\n        require( products[productId].productId != 0 , \"Product for the given store id and product id combination does not exist!\");\n\n        products[productId].productName = productName;\n        products[productId].description = productDesc;\n        products[productId].price = price;\n        products[productId].quantity = quantity;\n\n        return true;\n    }\n\n    /**\n     * A store owner can decide to remove a product from his/her store.\n     * A removed product will not be visible to shoppers!\n     *\n    */\n    function removeProduct(uint productId, uint quantity) public onlyOwner {\n\n        require( products[productId].status == ProductStatus.ACTIVE, \"Only the active product can be marked as removed!\");\n\n        products[productId].quantity = products[productId].quantity - quantity;\n        products[productId].status = ProductStatus.REMOVED;\n    }\n\n    /**\n    * getProducts will return all the products of this store.\n    */\n    function getProducts() public view returns( uint[] ) {\n\n      uint8 activeProdCount = 0;\n\n      for (uint8 prodCount=0; prodCount<products.length; prodCount++) {\n          if (products[prodCount].status == ProductStatus.ACTIVE) {\n              activeProdCount++;\n          }\n      }\n\n      uint[] memory activeProductIds = new uint[](activeProdCount);\n\n      if (activeProdCount > 0) {\n\n        uint8 tmpCount = 0;\n\n        for (prodCount=0; prodCount<products.length; prodCount++) {\n            if (products[prodCount].status == ProductStatus.ACTIVE) {\n              activeProductIds[tmpCount] = products[prodCount].productId;\n              tmpCount++;\n            }\n        }\n      }\n\n\n      return activeProductIds;\n    }\n\n    /*\n    * For a given product identifier of the store, this method will return the product details.\n    */\n    function getProductDetails(uint productId) public view returns(string, string, uint, uint, ProductStatus) {\n\n        return ( products[productId].productName,\n                 products[productId].description,\n                 products[productId].price,\n                 products[productId].quantity,\n                 products[productId].status );\n    }\n\n    /**\n     * The shopper can buy this product using this function.\n     *\n    */\n    function buyProductFromStore(uint _productId, uint _quantity) public payable {\n\n        require( products[_productId].status == ProductStatus.ACTIVE, \"Only the active product can be bought!\");\n        require( owner != msg.sender, \"The owner cannot buy its own product!\");\n        require( _quantity <= products[_productId].quantity, \"The store does not have sufficient quantity of the product\");\n\n        //Reduce the corresponding quantity from the inventory\n        products[_productId].quantity = products[_productId].quantity - _quantity;\n\n        // Transfer fund from the shopper's acount into the store's account\n        address(this).transfer( _quantity * products[_productId].price );\n    }\n\n    /**\n     * A store owner can withdraw fund from a given store\n    */\n    function withdrawFund(uint withdrawAmount) public payable onlyOwner returns(uint) {\n        require(address(this).balance >= withdrawAmount, \"The current store balance amount must be greater than the withdrawal amount!\");\n        owner.transfer(withdrawAmount);\n    }\n\n}\n",
  "sourcePath": "/Users/alokranjan/blockchain/ethereum/consensys/marketplace/contracts/Store.sol",
  "compiler": {
    "name": "solc",
    "version": "0.4.24+commit.e67f0147.Emscripten.clang"
  },
  "schemaVersion": "2.0.1",
  "updatedAt": "2018-08-12T11:48:57.364Z"
}