{
  "contractName": "Store",
  "abi": [
    {
      "inputs": [
        {
          "name": "_storeName",
          "type": "string"
        },
        {
          "name": "_description",
          "type": "string"
        },
        {
          "name": "_storeId",
          "type": "uint256"
        },
        {
          "name": "_storeOwner",
          "type": "address"
        },
        {
          "name": "_eip20Token",
          "type": "address"
        }
      ],
      "payable": false,
      "stateMutability": "nonpayable",
      "type": "constructor"
    },
    {
      "payable": true,
      "stateMutability": "payable",
      "type": "fallback"
    },
    {
      "anonymous": false,
      "inputs": [
        {
          "indexed": false,
          "name": "productId",
          "type": "uint256"
        },
        {
          "indexed": false,
          "name": "productName",
          "type": "string"
        },
        {
          "indexed": false,
          "name": "description",
          "type": "string"
        },
        {
          "indexed": false,
          "name": "price",
          "type": "uint256"
        },
        {
          "indexed": false,
          "name": "quantity",
          "type": "uint256"
        }
      ],
      "name": "NewProduct",
      "type": "event"
    },
    {
      "anonymous": false,
      "inputs": [
        {
          "indexed": false,
          "name": "productId",
          "type": "uint256"
        },
        {
          "indexed": false,
          "name": "quantity",
          "type": "uint256"
        },
        {
          "indexed": false,
          "name": "storeAddress",
          "type": "address"
        },
        {
          "indexed": false,
          "name": "storeOwner",
          "type": "address"
        },
        {
          "indexed": false,
          "name": "buyerAddress",
          "type": "address"
        },
        {
          "indexed": false,
          "name": "senderBalance",
          "type": "uint256"
        },
        {
          "indexed": false,
          "name": "weiToTransfer",
          "type": "uint256"
        }
      ],
      "name": "PurchaseOfProduct",
      "type": "event"
    },
    {
      "anonymous": false,
      "inputs": [
        {
          "indexed": false,
          "name": "param1",
          "type": "address"
        },
        {
          "indexed": false,
          "name": "param2",
          "type": "address"
        },
        {
          "indexed": false,
          "name": "param3",
          "type": "string"
        }
      ],
      "name": "LogAsEvent",
      "type": "event"
    },
    {
      "constant": true,
      "inputs": [],
      "name": "getStoreDetails",
      "outputs": [
        {
          "name": "",
          "type": "address"
        },
        {
          "name": "",
          "type": "string"
        },
        {
          "name": "",
          "type": "uint256"
        },
        {
          "name": "",
          "type": "string"
        }
      ],
      "payable": false,
      "stateMutability": "view",
      "type": "function"
    },
    {
      "constant": false,
      "inputs": [
        {
          "name": "productName",
          "type": "string"
        },
        {
          "name": "productDesc",
          "type": "string"
        },
        {
          "name": "price",
          "type": "uint256"
        },
        {
          "name": "quantity",
          "type": "uint256"
        }
      ],
      "name": "addProductToTheStore",
      "outputs": [
        {
          "name": "",
          "type": "uint256"
        }
      ],
      "payable": false,
      "stateMutability": "nonpayable",
      "type": "function"
    },
    {
      "constant": false,
      "inputs": [
        {
          "name": "productId",
          "type": "uint256"
        },
        {
          "name": "productName",
          "type": "string"
        },
        {
          "name": "productDesc",
          "type": "string"
        },
        {
          "name": "price",
          "type": "uint256"
        },
        {
          "name": "quantity",
          "type": "uint256"
        }
      ],
      "name": "updateProduct",
      "outputs": [
        {
          "name": "",
          "type": "bool"
        }
      ],
      "payable": false,
      "stateMutability": "nonpayable",
      "type": "function"
    },
    {
      "constant": false,
      "inputs": [
        {
          "name": "_productId",
          "type": "uint256"
        }
      ],
      "name": "removeProduct",
      "outputs": [
        {
          "name": "",
          "type": "bool"
        }
      ],
      "payable": false,
      "stateMutability": "nonpayable",
      "type": "function"
    },
    {
      "constant": false,
      "inputs": [
        {
          "name": "_productId",
          "type": "uint256"
        }
      ],
      "name": "reActivateProduct",
      "outputs": [
        {
          "name": "",
          "type": "bool"
        }
      ],
      "payable": false,
      "stateMutability": "nonpayable",
      "type": "function"
    },
    {
      "constant": true,
      "inputs": [
        {
          "name": "activeOnlyFlag",
          "type": "bool"
        }
      ],
      "name": "getProducts",
      "outputs": [
        {
          "name": "",
          "type": "uint256[]"
        }
      ],
      "payable": false,
      "stateMutability": "view",
      "type": "function"
    },
    {
      "constant": true,
      "inputs": [
        {
          "name": "_productId",
          "type": "uint256"
        }
      ],
      "name": "getProductDetails",
      "outputs": [
        {
          "name": "",
          "type": "string"
        },
        {
          "name": "",
          "type": "string"
        },
        {
          "name": "",
          "type": "uint256"
        },
        {
          "name": "",
          "type": "uint256"
        },
        {
          "name": "",
          "type": "uint8"
        },
        {
          "name": "",
          "type": "uint256"
        }
      ],
      "payable": false,
      "stateMutability": "view",
      "type": "function"
    },
    {
      "constant": false,
      "inputs": [
        {
          "name": "_productId",
          "type": "uint256"
        },
        {
          "name": "_quantity",
          "type": "uint256"
        }
      ],
      "name": "buyProductFromStore",
      "outputs": [
        {
          "name": "",
          "type": "bool"
        }
      ],
      "payable": true,
      "stateMutability": "payable",
      "type": "function"
    },
    {
      "constant": false,
      "inputs": [
        {
          "name": "withdrawAmount",
          "type": "uint256"
        }
      ],
      "name": "withdrawFund",
      "outputs": [
        {
          "name": "",
          "type": "bool"
        }
      ],
      "payable": true,
      "stateMutability": "payable",
      "type": "function"
    },
    {
      "constant": true,
      "inputs": [],
      "name": "getBalanceOfStore",
      "outputs": [
        {
          "name": "",
          "type": "uint256"
        }
      ],
      "payable": false,
      "stateMutability": "view",
      "type": "function"
    }
  ],
  "bytecode": "0x60806040523480156200001157600080fd5b50604051620024d9380380620024d98339810180604052810190808051820192919060200180518201929190602001805190602001909291908051906020019092919080519060200190929190505050816000806101000a81548173ffffffffffffffffffffffffffffffffffffffff021916908373ffffffffffffffffffffffffffffffffffffffff1602179055508460019080519060200190620000b992919062000136565b50826003819055508360029080519060200190620000d992919062000136565b506000600481905550600160058190555080600760006101000a81548173ffffffffffffffffffffffffffffffffffffffff021916908373ffffffffffffffffffffffffffffffffffffffff1602179055505050505050620001e5565b828054600181600116156101000203166002900490600052602060002090601f016020900481019282601f106200017957805160ff1916838001178555620001aa565b82800160010185558215620001aa579182015b82811115620001a95782518255916020019190600101906200018c565b5b509050620001b99190620001bd565b5090565b620001e291905b80821115620001de576000816000905550600101620001c4565b5090565b90565b6122e480620001f56000396000f3006080604052600436106100a4576000357c0100000000000000000000000000000000000000000000000000000000900463ffffffff1680630cee1725146100a65780635ee95cae146100de5780636813b53b146101235780637b2c5d131461025f5780639498be1b146102a4578063ce2d683f1461037b578063dbf5dcd9146103ff578063de0847301461042a578063f94eb1821461046c578063fe04eb2d14610551575b005b6100c460048036038101908080359060200190929190505050610687565b604051808215151515815260200191505060405180910390f35b3480156100ea57600080fd5b506101096004803603810190808035906020019092919050505061095d565b604051808215151515815260200191505060405180910390f35b34801561012f57600080fd5b5061014e60048036038101908080359060200190929190505050610b7d565b60405180806020018060200187815260200186815260200185600181111561017257fe5b60ff168152602001848152602001838103835289818151815260200191508051906020019080838360005b838110156101b857808201518184015260208101905061019d565b50505050905090810190601f1680156101e55780820380516001836020036101000a031916815260200191505b50838103825288818151815260200191508051906020019080838360005b8381101561021e578082015181840152602081019050610203565b50505050905090810190601f16801561024b5780820380516001836020036101000a031916815260200191505b509850505050505050505060405180910390f35b34801561026b57600080fd5b5061028a60048036038101908080359060200190929190505050610dad565b604051808215151515815260200191505060405180910390f35b3480156102b057600080fd5b50610365600480360381019080803590602001908201803590602001908080601f0160208091040260200160405190810160405280939291908181526020018383808284378201915050505050509192919290803590602001908201803590602001908080601f01602080910402602001604051908101604052809392919081815260200183838082843782019150505050505091929192908035906020019092919080359060200190929190505050610fcc565b6040518082815260200191505060405180910390f35b34801561038757600080fd5b506103a8600480360381019080803515159060200190929190505050611316565b6040518080602001828103825283818151815260200191508051906020019060200280838360005b838110156103eb5780820151818401526020810190506103d0565b505050509050019250505060405180910390f35b34801561040b57600080fd5b5061041461151e565b6040518082815260200191505060405180910390f35b610452600480360381019080803590602001909291908035906020019092919050505061153d565b604051808215151515815260200191505060405180910390f35b34801561047857600080fd5b5061053760048036038101908080359060200190929190803590602001908201803590602001908080601f0160208091040260200160405190810160405280939291908181526020018383808284378201915050505050509192919290803590602001908201803590602001908080601f01602080910402602001604051908101604052809392919081815260200183838082843782019150505050505091929192908035906020019092919080359060200190929190505050611c95565b604051808215151515815260200191505060405180910390f35b34801561055d57600080fd5b50610566611f2f565b604051808573ffffffffffffffffffffffffffffffffffffffff1673ffffffffffffffffffffffffffffffffffffffff1681526020018060200184815260200180602001838103835286818151815260200191508051906020019080838360005b838110156105e25780820151818401526020810190506105c7565b50505050905090810190601f16801561060f5780820380516001836020036101000a031916815260200191505b50838103825284818151815260200191508051906020019080838360005b8381101561064857808201518184015260208101905061062d565b50505050905090810190601f1680156106755780820380516001836020036101000a031916815260200191505b50965050505050505060405180910390f35b60003373ffffffffffffffffffffffffffffffffffffffff166000809054906101000a900473ffffffffffffffffffffffffffffffffffffffff1673ffffffffffffffffffffffffffffffffffffffff16141515610773576040517f08c379a000000000000000000000000000000000000000000000000000000000815260040180806020018281038252602c8152602001807f4f6e6c7920612073746f7265206f776e65722063616e20696e766f6b6520746881526020017f69732066756e6374696f6e21000000000000000000000000000000000000000081525060400191505060405180910390fd5b600082111515610811576040517f08c379a000000000000000000000000000000000000000000000000000000000815260040180806020018281038252602f8152602001807f5468652077697468647277616c20616d6f756e74206d7573742062652061207081526020017f6f736974697665206e756d62657221000000000000000000000000000000000081525060400191505060405180910390fd5b813073ffffffffffffffffffffffffffffffffffffffff1631101515156108ec576040517f08c379a000000000000000000000000000000000000000000000000000000000815260040180806020018281038252604c8152602001807f5468652063757272656e742073746f72652062616c616e636520616d6f756e7481526020017f206d7573742062652067726561746572207468616e207468652077697468647281526020017f6177616c20616d6f756e7421000000000000000000000000000000000000000081525060600191505060405180910390fd5b6000809054906101000a900473ffffffffffffffffffffffffffffffffffffffff1673ffffffffffffffffffffffffffffffffffffffff166108fc839081150290604051600060405180830381858888f19350505050158015610953573d6000803e3d6000fd5b5060019050919050565b6000803373ffffffffffffffffffffffffffffffffffffffff166000809054906101000a900473ffffffffffffffffffffffffffffffffffffffff1673ffffffffffffffffffffffffffffffffffffffff16141515610a4a576040517f08c379a000000000000000000000000000000000000000000000000000000000815260040180806020018281038252602c8152602001807f4f6e6c7920612073746f7265206f776e65722063616e20696e766f6b6520746881526020017f69732066756e6374696f6e21000000000000000000000000000000000000000081525060400191505060405180910390fd5b60018303905060006001811115610a5d57fe5b600682815481101515610a6c57fe5b906000526020600020906007020160050160009054906101000a900460ff166001811115610a9657fe5b141515610b31576040517f08c379a00000000000000000000000000000000000000000000000000000000081526004018080602001828103825260398152602001807f4f6e6c7920746865206163746976652070726f647563742063616e206265206281526020017f652072656d6f7665642066726f6d207468652073746f7265210000000000000081525060400191505060405180910390fd5b6001600682815481101515610b4257fe5b906000526020600020906007020160050160006101000a81548160ff02191690836001811115610b6e57fe5b02179055506001915050919050565b6060806000806000806000600188039050600681815481101515610b9d57fe5b9060005260206000209060070201600101600682815481101515610bbd57fe5b9060005260206000209060070201600201600683815481101515610bdd57fe5b906000526020600020906007020160030154600684815481101515610bfe57fe5b906000526020600020906007020160040154600685815481101515610c1f57fe5b906000526020600020906007020160050160009054906101000a900460ff16600686815481101515610c4d57fe5b906000526020600020906007020160060154858054600181600116156101000203166002900480601f016020809104026020016040519081016040528092919081815260200182805460018160011615610100020316600290048015610cf45780601f10610cc957610100808354040283529160200191610cf4565b820191906000526020600020905b815481529060010190602001808311610cd757829003601f168201915b50505050509550848054600181600116156101000203166002900480601f016020809104026020016040519081016040528092919081815260200182805460018160011615610100020316600290048015610d905780601f10610d6557610100808354040283529160200191610d90565b820191906000526020600020905b815481529060010190602001808311610d7357829003601f168201915b505050505094509650965096509650965096505091939550919395565b6000803373ffffffffffffffffffffffffffffffffffffffff166000809054906101000a900473ffffffffffffffffffffffffffffffffffffffff1673ffffffffffffffffffffffffffffffffffffffff16141515610e9a576040517f08c379a000000000000000000000000000000000000000000000000000000000815260040180806020018281038252602c8152602001807f4f6e6c7920612073746f7265206f776e65722063616e20696e766f6b6520746881526020017f69732066756e6374696f6e21000000000000000000000000000000000000000081525060400191505060405180910390fd5b600183039050600180811115610eac57fe5b600682815481101515610ebb57fe5b906000526020600020906007020160050160009054906101000a900460ff166001811115610ee557fe5b141515610f80576040517f08c379a000000000000000000000000000000000000000000000000000000000815260040180806020018281038252602b8152602001807f4f6e6c792074686520496e6163746976652070726f647563742063616e20626581526020017f206163746976617465642100000000000000000000000000000000000000000081525060400191505060405180910390fd5b6000600682815481101515610f9157fe5b906000526020600020906007020160050160006101000a81548160ff02191690836001811115610fbd57fe5b02179055506001915050919050565b6000803373ffffffffffffffffffffffffffffffffffffffff166000809054906101000a900473ffffffffffffffffffffffffffffffffffffffff1673ffffffffffffffffffffffffffffffffffffffff161415156110b9576040517f08c379a000000000000000000000000000000000000000000000000000000000815260040180806020018281038252602c8152602001807f4f6e6c7920612073746f7265206f776e65722063616e20696e766f6b6520746881526020017f69732066756e6374696f6e21000000000000000000000000000000000000000081525060400191505060405180910390fd5b600a905060016006818180549050019150816110d591906120a6565b5060e06040519081016040528060055481526020018781526020018681526020018581526020018481526020016000600181111561110f57fe5b815260200182815250600660045481548110151561112957fe5b906000526020600020906007020160008201518160000155602082015181600101908051906020019061115d9291906120d8565b50604082015181600201908051906020019061117a9291906120d8565b50606082015181600301556080820151816004015560a08201518160050160006101000a81548160ff021916908360018111156111b357fe5b021790555060c082015181600601559050507fc86b920148e151a78e4a627284a763302c966579a89be8494ba9562ac1f61b7b60055487878787604051808681526020018060200180602001858152602001848152602001838103835287818151815260200191508051906020019080838360005b83811015611243578082015181840152602081019050611228565b50505050905090810190601f1680156112705780820380516001836020036101000a031916815260200191505b50838103825286818151815260200191508051906020019080838360005b838110156112a957808201518184015260208101905061128e565b50505050905090810190601f1680156112d65780820380516001836020036101000a031916815260200191505b5097505050505050505060405180910390a16004600081548092919060010191905055506005600081548092919060010191905055915050949350505050565b6060600080606060008093506001151586151514156113ae57600092505b6006805490508360ff1610156113a9576000600181111561135157fe5b60068460ff1681548110151561136357fe5b906000526020600020906007020160050160009054906101000a900460ff16600181111561138d57fe5b141561139c5783806001019450505b8280600101935050611334565b6113b7565b60068054905093505b836040519080825280602002602001820160405280156113e65781602001602082028038833980820191505090505b50915060008411156115125760009050600092505b6006805490508360ff161015611511576001151586151514156114b8576000600181111561142557fe5b60068460ff1681548110151561143757fe5b906000526020600020906007020160050160009054906101000a900460ff16600181111561146157fe5b14156114b35760068360ff1681548110151561147957fe5b906000526020600020906007020160000154828260ff1681518110151561149c57fe5b906020019060200201818152505080806001019150505b611504565b60068360ff168154811015156114ca57fe5b906000526020600020906007020160000154828260ff168151811015156114ed57fe5b906020019060200201818152505080806001019150505b82806001019350506113fb565b5b81945050505050919050565b60003073ffffffffffffffffffffffffffffffffffffffff1631905090565b60008060008060018603925060068381548110151561155857fe5b906000526020600020906007020160030154850291506000600181111561157b57fe5b60068481548110151561158a57fe5b906000526020600020906007020160050160009054906101000a900460ff1660018111156115b457fe5b14151561164f576040517f08c379a00000000000000000000000000000000000000000000000000000000081526004018080602001828103825260268152602001807f4f6e6c7920746865206163746976652070726f647563742063616e206265206281526020017f6f7567687421000000000000000000000000000000000000000000000000000081525060400191505060405180910390fd5b3373ffffffffffffffffffffffffffffffffffffffff166000809054906101000a900473ffffffffffffffffffffffffffffffffffffffff1673ffffffffffffffffffffffffffffffffffffffff161415151561173a576040517f08c379a00000000000000000000000000000000000000000000000000000000081526004018080602001828103825260258152602001807f546865206f776e65722063616e6e6f742062757920697473206f776e2070726f81526020017f647563742100000000000000000000000000000000000000000000000000000081525060400191505060405180910390fd5b60068381548110151561174957fe5b90600052602060002090600702016004015485111515156117f8576040517f08c379a000000000000000000000000000000000000000000000000000000000815260040180806020018281038252603a8152602001807f5468652073746f726520646f6573206e6f74206861766520737566666963696581526020017f6e74207175616e74697479206f66207468652070726f6475637400000000000081525060400191505060405180910390fd5b3373ffffffffffffffffffffffffffffffffffffffff163134111515156118ad576040517f08c379a00000000000000000000000000000000000000000000000000000000081526004018080602001828103825260408152602001807f54686520627579657220646f6573206e6f74206861766520737566666963696581526020017f6e742062616c616e636520696e20686973202f20686572206163636f756e742181525060400191505060405180910390fd5b813414151561194a576040517f08c379a00000000000000000000000000000000000000000000000000000000081526004018080602001828103825260408152602001807f54686520737570706c6965642076616c7565206973206c65737365722074686181526020017f6e207468652061637475616c207072696365206f6620746865206974656d732181525060400191505060405180910390fd5b8460068481548110151561195a57fe5b9060005260206000209060070201600401540360068481548110151561197c57fe5b9060005260206000209060070201600401819055507f781f13430da3033909b5c9de8541109172e3f02dca16b4b18f489592e4f11af08686306000809054906101000a900473ffffffffffffffffffffffffffffffffffffffff16333373ffffffffffffffffffffffffffffffffffffffff163188604051808881526020018781526020018673ffffffffffffffffffffffffffffffffffffffff1673ffffffffffffffffffffffffffffffffffffffff1681526020018573ffffffffffffffffffffffffffffffffffffffff1673ffffffffffffffffffffffffffffffffffffffff1681526020018473ffffffffffffffffffffffffffffffffffffffff1673ffffffffffffffffffffffffffffffffffffffff16815260200183815260200182815260200197505050505050505060405180910390a13090508073ffffffffffffffffffffffffffffffffffffffff166108fc349081150290604051600060405180830381858888f19350505050158015611afd573d6000803e3d6000fd5b50600760009054906101000a900473ffffffffffffffffffffffffffffffffffffffff1673ffffffffffffffffffffffffffffffffffffffff1663bca82f976000809054906101000a900473ffffffffffffffffffffffffffffffffffffffff163360646305f5e10002600688815481101515611b7657fe5b9060005260206000209060070201600601548702811515611b9357fe5b046040518463ffffffff167c0100000000000000000000000000000000000000000000000000000000028152600401808473ffffffffffffffffffffffffffffffffffffffff1673ffffffffffffffffffffffffffffffffffffffff1681526020018373ffffffffffffffffffffffffffffffffffffffff1673ffffffffffffffffffffffffffffffffffffffff1681526020018281526020019350505050602060405180830381600087803b158015611c4c57600080fd5b505af1158015611c60573d6000803e3d6000fd5b505050506040513d6020811015611c7657600080fd5b8101908080519060200190929190505050506001935050505092915050565b6000803373ffffffffffffffffffffffffffffffffffffffff166000809054906101000a900473ffffffffffffffffffffffffffffffffffffffff1673ffffffffffffffffffffffffffffffffffffffff16141515611d82576040517f08c379a000000000000000000000000000000000000000000000000000000000815260040180806020018281038252602c8152602001807f4f6e6c7920612073746f7265206f776e65722063616e20696e766f6b6520746881526020017f69732066756e6374696f6e21000000000000000000000000000000000000000081525060400191505060405180910390fd5b6001870390506000600682815481101515611d9957fe5b90600052602060002090600702016000015414151515611e6d576040517f08c379a00000000000000000000000000000000000000000000000000000000081526004018080602001828103825260498152602001807f50726f6475637420666f722074686520676976656e2073746f7265206964206181526020017f6e642070726f6475637420696420636f6d62696e6174696f6e20646f6573206e81526020017f6f7420657869737421000000000000000000000000000000000000000000000081525060600191505060405180910390fd5b85600682815481101515611e7d57fe5b90600052602060002090600702016001019080519060200190611ea1929190612158565b5084600682815481101515611eb257fe5b90600052602060002090600702016002019080519060200190611ed6929190612158565b5083600682815481101515611ee757fe5b90600052602060002090600702016003018190555082600682815481101515611f0c57fe5b906000526020600020906007020160040181905550600191505095945050505050565b60006060600060606000809054906101000a900473ffffffffffffffffffffffffffffffffffffffff1660016003546002828054600181600116156101000203166002900480601f016020809104026020016040519081016040528092919081815260200182805460018160011615610100020316600290048015611ff55780601f10611fca57610100808354040283529160200191611ff5565b820191906000526020600020905b815481529060010190602001808311611fd857829003601f168201915b50505050509250808054600181600116156101000203166002900480601f0160208091040260200160405190810160405280929190818152602001828054600181600116156101000203166002900480156120915780601f1061206657610100808354040283529160200191612091565b820191906000526020600020905b81548152906001019060200180831161207457829003601f168201915b50505050509050935093509350935090919293565b8154818355818111156120d3576007028160070283600052602060002091820191016120d291906121d8565b5b505050565b828054600181600116156101000203166002900490600052602060002090601f016020900481019282601f1061211957805160ff1916838001178555612147565b82800160010185558215612147579182015b8281111561214657825182559160200191906001019061212b565b5b509050612154919061224b565b5090565b828054600181600116156101000203166002900490600052602060002090601f016020900481019282601f1061219957805160ff19168380011785556121c7565b828001600101855582156121c7579182015b828111156121c65782518255916020019190600101906121ab565b5b5090506121d4919061224b565b5090565b61224891905b80821115612244576000808201600090556001820160006121ff9190612270565b60028201600061220f9190612270565b600382016000905560048201600090556005820160006101000a81549060ff02191690556006820160009055506007016121de565b5090565b90565b61226d91905b80821115612269576000816000905550600101612251565b5090565b90565b50805460018160011615610100020316600290046000825580601f1061229657506122b5565b601f0160209004906000526020600020908101906122b4919061224b565b5b505600a165627a7a72305820fce7954605ab163f04fb3e8f33727f3b2f804f3fa1e82c8b252eeb70b46ce8c30029",
  "source": "pragma solidity ^0.4.22;\n\nimport \"./EIP20.sol\";\n\n/**\n * This contract will create all the functionalities related to a store.\n *\n * For example\n * - Adding a product\n * - updating a product\n * - customer being able to view the list of stores\n * - store owner being able to see the stores\n * - customer being able to view the products in a given Store\n *\n * BP2: Restricting Access:\n *  - Restrict other contracts access to the state by making all the state variables private.\n*/\ncontract Store {\n    // Onwer is the actual store owner who is creating the store.\n    address private owner;\n    string private storeName;\n    string private description;\n    uint private storeId;\n    uint private productCount;\n    uint private nextProductId;\n    Product[] private products;\n    EIP20 private eip20Token;\n\n    /**\n    * At some stage we can oraclize the token price. However, for now let's consider this\n    * for the sake of any calculation.\n    */\n    uint256 constant private tokenPriceInWei = 100000000;\n\n    enum ProductStatus {\n        ACTIVE,\n        REMOVED\n    }\n\n    struct Product {\n        uint productId;\n        string productName;\n        string description;\n        uint price;\n        uint quantity;\n        ProductStatus status;\n        uint256 discountPercentage;\n    }\n\n    event NewProduct(\n      uint productId,\n      string productName,\n      string description,\n      uint price,\n      uint quantity\n      );\n\n    event PurchaseOfProduct(\n        uint productId,\n        uint quantity,\n        address storeAddress,\n        address storeOwner,\n        address buyerAddress,\n        uint senderBalance,\n        uint weiToTransfer\n      );\n\n    event LogAsEvent(address param1, address param2, string param3);\n    /**\n    * @dev Creates a Store Contract which holds the associated products and the balance corresponding to the\n    *      sales of such products.\n    * @param _storeName - the name of the stores\n    * @param _description - the description about the stores\n    * @param _storeId - the store id of the store, which will be unique across the market place\n    * @param _storeOwner - the actual owner of the store (will be an externally owned accounts)\n    */\n    constructor(\n            string _storeName,\n            string _description,\n            uint _storeId,\n            address _storeOwner,\n            EIP20 _eip20Token ) public {\n\n        owner = _storeOwner;\n        storeName = _storeName;\n        storeId = _storeId;\n        description = _description;\n        productCount = 0;\n        nextProductId = 1;\n        eip20Token = _eip20Token;\n    }\n\n    /**\n    * Since this contract needs to accept ether, declare an anonymous payable function.\n    */\n    function() public payable { }\n\n    /**\n     * Only (store) owners shall be allowed to add or update the store specific details - e.g. product.\n     *\n    */\n    modifier onlyOwner {\n        require( (owner == msg.sender), \"Only a store owner can invoke this function!\");\n        _;\n    }\n\n    /**\n    * A function to return the state details for a given store contract\n    * @return a list of values with the following details\n    *   - Owner Address\n    *   - Store name\n    *   - Store identifier\n    *   - Store description\n    */\n    function getStoreDetails() public view returns( address, string, uint, string ) {\n      return (owner, storeName, storeId, description);\n    }\n\n     /**\n     * A store owner will use this function to add a new product to his / her store.\n     *\n     * Whenever a new product is added, the product map will be updated to hold all the product and their details\n     * across all the store and store owners.\n     *\n     * TODO: Add expiry feature and use the Auto Deprecation pattern to expire a product. Also, implement the use case\n     *      that will prevent the shoppers from buying an expired product!\n     *\n    */\n    function addProductToTheStore(\n            string productName,\n            string productDesc,\n            uint price,\n            uint quantity ) public onlyOwner returns(uint) {\n\n            uint256 discountPercentage = 10;\n            products.length += 1;\n\n            products[productCount] = Product(\n                nextProductId,\n                productName,\n                productDesc,\n                price,\n                quantity,\n                ProductStatus.ACTIVE,\n                discountPercentage );\n\n            emit NewProduct(\n              nextProductId,\n              productName,\n              productDesc,\n              price,\n              quantity\n              );\n\n            productCount++;\n\n            return nextProductId++;\n    }\n\n    /**\n     * The update product function will be called to update the details of an existing function.\n     *\n     * In a regular course of a business, the following amounts may get updated.\n     * - quantity\n     * - productName\n     * - price\n     * - description\n     *\n     * TODO : Add an additional parameter for discountPercentage\n     *\n    */\n    function updateProduct(\n            uint productId,\n            string productName,\n            string productDesc,\n            uint price,\n            uint quantity ) public onlyOwner returns(bool) {\n        uint productIndex = productId - 1;\n        require( products[productIndex].productId != 0 , \"Product for the given store id and product id combination does not exist!\");\n\n        products[productIndex].productName = productName;\n        products[productIndex].description = productDesc;\n        products[productIndex].price = price;\n        products[productIndex].quantity = quantity;\n\n        return true;\n    }\n\n    /**\n     * A store owner can decide to remove a product from his/her store.\n     * A removed product will not be visible to shoppers!\n     *\n    */\n    function removeProduct(uint _productId ) public onlyOwner returns(bool){\n        uint productIndex = _productId - 1;\n\n        require( products[productIndex].status == ProductStatus.ACTIVE, \"Only the active product can be be removed from the store!\");\n        products[productIndex].status = ProductStatus.REMOVED;\n\n        return true;\n    }\n\n    /**\n     * A store owner can decide to remove a product from his/her store.\n     * A removed product will not be visible to shoppers!\n     *\n    */\n    function reActivateProduct(uint _productId ) public onlyOwner returns(bool){\n        uint productIndex = _productId - 1;\n\n        require( products[productIndex].status == ProductStatus.REMOVED, \"Only the Inactive product can be activated!\");\n        products[productIndex].status = ProductStatus.ACTIVE;\n\n        return true;\n    }\n\n    /**\n    * getProducts will return all the products of this store.\n    */\n    function getProducts( bool activeOnlyFlag ) public view returns( uint[] ) {\n\n      uint numOfProducts = 0;\n\n      if ( activeOnlyFlag == true) {\n        for (uint8 prodCount=0; prodCount<products.length; prodCount++) {\n            if (products[prodCount].status == ProductStatus.ACTIVE) {\n                numOfProducts++;\n            }\n        }\n      } else {\n        numOfProducts = products.length;\n      }\n\n\n      uint[] memory productIds = new uint[](numOfProducts);\n\n      if ( numOfProducts > 0 ) {\n\n        uint8 tmpCount = 0;\n\n        for (prodCount=0; prodCount<products.length; prodCount++) {\n            if ( activeOnlyFlag == true ) {\n              if (products[prodCount].status == ProductStatus.ACTIVE) {\n                productIds[tmpCount] = products[prodCount].productId;\n                tmpCount++;\n              }\n            } else {\n              productIds[tmpCount] = products[prodCount].productId;\n              tmpCount++;\n            }\n\n        }\n      }\n\n      return productIds;\n    }\n\n\n    /*\n    * For a given product identifier of the store, this method will return the product details.\n    */\n    function getProductDetails(uint _productId) public view returns(string, string, uint, uint, ProductStatus, uint256 ) {\n        uint productIndex = _productId - 1;\n\n        return ( products[productIndex].productName,\n                 products[productIndex].description,\n                 products[productIndex].price,\n                 products[productIndex].quantity,\n                 products[productIndex].status,\n                 products[productIndex].discountPercentage );\n    }\n\n    /**\n     * The shopper can buy this product using this function.\n     *   // owner.transfer( weiToTransfer );\n       // address(this).transfer( msg.value );\n       // owner.transfer( msg.value );\n    */\n    function buyProductFromStore(uint _productId, uint _quantity) public payable returns (bool){\n        uint productIndex = _productId - 1;\n        uint256 weiToTransfer = _quantity * products[productIndex].price;\n\n        require( products[productIndex].status == ProductStatus.ACTIVE, \"Only the active product can be bought!\");\n        require( owner != msg.sender, \"The owner cannot buy its own product!\");\n        require( _quantity <= products[productIndex].quantity, \"The store does not have sufficient quantity of the product\");\n        require( msg.value <= msg.sender.balance, \"The buyer does not have sufficient balance in his / her account!\");\n        require( msg.value == weiToTransfer, \"The supplied value is lesser than the actual price of the items!\");\n\n        //Reduce the corresponding quantity from the inventory\n        products[productIndex].quantity = products[productIndex].quantity - _quantity;\n\n        emit PurchaseOfProduct(_productId, _quantity, address(this), owner, msg.sender, msg.sender.balance, weiToTransfer);\n\n        // Transfer fund from the shopper's acount into the store's account\n        address myAddress = address(this);\n        myAddress.transfer( msg.value );\n\n        // Issue loyalty tokens\n        // EIP20 eip20Token = EIP20();\n        eip20Token.issueNewTokens( owner,\n                                   msg.sender,\n                                   (weiToTransfer * products[productIndex].discountPercentage) / (tokenPriceInWei * 100)\n                                );\n\n        return true;\n    }\n\n    /**\n     * A store owner can withdraw fund from a given store\n     *\n     * BP1: Fail early and fail loud\n     *  - Fail early and fail loud pattern has been used to ensure that zero amount withdrwal doesn't take place.\n    */\n    function withdrawFund(uint withdrawAmount) public payable onlyOwner returns(bool) {\n        require(withdrawAmount > 0, \"The withdrwal amount must be a positive number!\");\n        require(address(this).balance >= withdrawAmount, \"The current store balance amount must be greater than the withdrawal amount!\");\n        owner.transfer(withdrawAmount);\n\n        return true;\n    }\n\n    /**\n    * Return the balance owned by this store\n    */\n    function getBalanceOfStore() constant public returns(uint){\n        return address(this).balance;\n    }\n\n}\n",
  "sourcePath": "/Users/alokranjan/blockchain/ethereum/consensys/ethmarket/contracts/Store.sol",
  "compiler": {
    "name": "solc",
    "version": "0.4.24+commit.e67f0147.Emscripten.clang"
  },
  "schemaVersion": "2.0.1",
  "updatedAt": "2018-08-23T18:01:31.563Z"
}