{
  "contractName": "Store",
  "abi": [
    {
      "inputs": [
        {
          "name": "_storeName",
          "type": "string"
        },
        {
          "name": "_description",
          "type": "string"
        },
        {
          "name": "_storeId",
          "type": "uint256"
        }
      ],
      "payable": false,
      "stateMutability": "nonpayable",
      "type": "constructor"
    },
    {
      "constant": false,
      "inputs": [
        {
          "name": "productName",
          "type": "string"
        },
        {
          "name": "productDesc",
          "type": "string"
        },
        {
          "name": "price",
          "type": "uint256"
        },
        {
          "name": "quantity",
          "type": "uint256"
        }
      ],
      "name": "addProductToTheStore",
      "outputs": [
        {
          "name": "",
          "type": "uint256"
        }
      ],
      "payable": false,
      "stateMutability": "nonpayable",
      "type": "function"
    },
    {
      "constant": false,
      "inputs": [
        {
          "name": "productId",
          "type": "uint256"
        },
        {
          "name": "productName",
          "type": "string"
        },
        {
          "name": "productDesc",
          "type": "string"
        },
        {
          "name": "price",
          "type": "uint256"
        },
        {
          "name": "quantity",
          "type": "uint256"
        }
      ],
      "name": "updateProduct",
      "outputs": [
        {
          "name": "",
          "type": "bool"
        }
      ],
      "payable": false,
      "stateMutability": "nonpayable",
      "type": "function"
    },
    {
      "constant": false,
      "inputs": [
        {
          "name": "productId",
          "type": "uint256"
        },
        {
          "name": "quantity",
          "type": "uint256"
        }
      ],
      "name": "removeProduct",
      "outputs": [],
      "payable": false,
      "stateMutability": "nonpayable",
      "type": "function"
    },
    {
      "constant": false,
      "inputs": [
        {
          "name": "_productId",
          "type": "uint256"
        },
        {
          "name": "_quantity",
          "type": "uint256"
        }
      ],
      "name": "buyProductFromStore",
      "outputs": [],
      "payable": true,
      "stateMutability": "payable",
      "type": "function"
    },
    {
      "constant": false,
      "inputs": [
        {
          "name": "withdrawAmount",
          "type": "uint256"
        }
      ],
      "name": "withdrawFund",
      "outputs": [
        {
          "name": "",
          "type": "uint256"
        }
      ],
      "payable": true,
      "stateMutability": "payable",
      "type": "function"
    }
  ],
  "bytecode": "0x60806040523480156200001157600080fd5b506040516200115638038062001156833981018060405281019080805182019291906020018051820192919060200180519060200190929190505050336000806101000a81548173ffffffffffffffffffffffffffffffffffffffff021916908373ffffffffffffffffffffffffffffffffffffffff1602179055508260019080519060200190620000a5929190620000d7565b50806003819055508160029080519060200190620000c5929190620000d7565b50600160048190555050505062000186565b828054600181600116156101000203166002900490600052602060002090601f016020900481019282601f106200011a57805160ff19168380011785556200014b565b828001600101855582156200014b579182015b828111156200014a5782518255916020019190600101906200012d565b5b5090506200015a91906200015e565b5090565b6200018391905b808211156200017f57600081600090555060010162000165565b5090565b90565b610fc080620001966000396000f30060806040526004361061006d576000357c0100000000000000000000000000000000000000000000000000000000900463ffffffff1680630cee1725146100725780635287d535146100a65780639498be1b146100dd578063de084730146101b4578063f94eb182146101de575b600080fd5b610090600480360381019080803590602001909291905050506102c3565b6040518082815260200191505060405180910390f35b3480156100b257600080fd5b506100db60048036038101908080359060200190929190803590602001909291905050506104f7565b005b3480156100e957600080fd5b5061019e600480360381019080803590602001908201803590602001908080601f0160208091040260200160405190810160405280939291908181526020018383808284378201915050505050509192919290803590602001908201803590602001908080601f01602080910402602001604051908101604052809392919081815260200183838082843782019150505050505091929192908035906020019092919080359060200190929190505050610727565b6040518082815260200191505060405180910390f35b6101dc6004803603810190808035906020019092919080359060200190929190505050610903565b005b3480156101ea57600080fd5b506102a960048036038101908080359060200190929190803590602001908201803590602001908080601f0160208091040260200160405190810160405280939291908181526020018383808284378201915050505050509192919290803590602001908201803590602001908080601f01602080910402602001604051908101604052809392919081815260200183838082843782019150505050505091929192908035906020019092919080359060200190929190505050610c0f565b604051808215151515815260200191505060405180910390f35b60003373ffffffffffffffffffffffffffffffffffffffff166000809054906101000a900473ffffffffffffffffffffffffffffffffffffffff1673ffffffffffffffffffffffffffffffffffffffff161415156103af576040517f08c379a000000000000000000000000000000000000000000000000000000000815260040180806020018281038252602f8152602001807f4f6e6c7920616e2041646d696e6973747261746f722063616e20696e766f6b6581526020017f20746869732066756e6374696f6e2e000000000000000000000000000000000081525060400191505060405180910390fd5b813073ffffffffffffffffffffffffffffffffffffffff16311015151561048a576040517f08c379a00000000000000000000000000000000000000000000000000000000081526004018080602001828103825260478152602001807f5468652063757272656e742073746f726527732062616c616e6365206d75737481526020017f2062652067726561746572207468616e20746865207769746864726177616c2081526020017f616d6f756e74210000000000000000000000000000000000000000000000000081525060600191505060405180910390fd5b6000809054906101000a900473ffffffffffffffffffffffffffffffffffffffff1673ffffffffffffffffffffffffffffffffffffffff166108fc839081150290604051600060405180830381858888f193505050501580156104f1573d6000803e3d6000fd5b50919050565b3373ffffffffffffffffffffffffffffffffffffffff166000809054906101000a900473ffffffffffffffffffffffffffffffffffffffff1673ffffffffffffffffffffffffffffffffffffffff161415156105e1576040517f08c379a000000000000000000000000000000000000000000000000000000000815260040180806020018281038252602f8152602001807f4f6e6c7920616e2041646d696e6973747261746f722063616e20696e766f6b6581526020017f20746869732066756e6374696f6e2e000000000000000000000000000000000081525060400191505060405180910390fd5b600060018111156105ee57fe5b6005600084815260200190815260200160002060050160009054906101000a900460ff16600181111561061d57fe5b1415156106b8576040517f08c379a00000000000000000000000000000000000000000000000000000000081526004018080602001828103825260318152602001807f4f6e6c7920746865206163746976652070726f647563742063616e206265206d81526020017f61726b65642061732072656d6f7665642100000000000000000000000000000081525060400191505060405180910390fd5b80600560008481526020019081526020016000206004015403600560008481526020019081526020016000206004018190555060016005600084815260200190815260200160002060050160006101000a81548160ff0219169083600181111561071e57fe5b02179055505050565b60003373ffffffffffffffffffffffffffffffffffffffff166000809054906101000a900473ffffffffffffffffffffffffffffffffffffffff1673ffffffffffffffffffffffffffffffffffffffff16141515610813576040517f08c379a000000000000000000000000000000000000000000000000000000000815260040180806020018281038252602f8152602001807f4f6e6c7920616e2041646d696e6973747261746f722063616e20696e766f6b6581526020017f20746869732066756e6374696f6e2e000000000000000000000000000000000081525060400191505060405180910390fd5b60c06040519081016040528060045481526020018681526020018581526020018481526020018381526020016000600181111561084c57fe5b81525060056000600454815260200190815260200160002060008201518160000155602082015181600101908051906020019061088a929190610e6f565b5060408201518160020190805190602001906108a7929190610e6f565b50606082015181600301556080820151816004015560a08201518160050160006101000a81548160ff021916908360018111156108e057fe5b021790555090505060046000815480929190600101919050559050949350505050565b6000600181111561091057fe5b6005600084815260200190815260200160002060050160009054906101000a900460ff16600181111561093f57fe5b1415156109da576040517f08c379a00000000000000000000000000000000000000000000000000000000081526004018080602001828103825260268152602001807f4f6e6c7920746865206163746976652070726f647563742063616e206265206281526020017f6f7567687421000000000000000000000000000000000000000000000000000081525060400191505060405180910390fd5b3373ffffffffffffffffffffffffffffffffffffffff166000809054906101000a900473ffffffffffffffffffffffffffffffffffffffff1673ffffffffffffffffffffffffffffffffffffffff1614151515610ac5576040517f08c379a00000000000000000000000000000000000000000000000000000000081526004018080602001828103825260258152602001807f546865206f776e65722063616e6e6f742062757920697473206f776e2070726f81526020017f647563742100000000000000000000000000000000000000000000000000000081525060400191505060405180910390fd5b60056000838152602001908152602001600020600401548111151515610b79576040517f08c379a000000000000000000000000000000000000000000000000000000000815260040180806020018281038252603a8152602001807f5468652073746f726520646f6573206e6f74206861766520737566666963696581526020017f6e74207175616e74697479206f66207468652070726f6475637400000000000081525060400191505060405180910390fd5b8060056000848152602001908152602001600020600401540360056000848152602001908152602001600020600401819055503073ffffffffffffffffffffffffffffffffffffffff166108fc600560008581526020019081526020016000206003015483029081150290604051600060405180830381858888f19350505050158015610c0a573d6000803e3d6000fd5b505050565b60003373ffffffffffffffffffffffffffffffffffffffff166000809054906101000a900473ffffffffffffffffffffffffffffffffffffffff1673ffffffffffffffffffffffffffffffffffffffff16141515610cfb576040517f08c379a000000000000000000000000000000000000000000000000000000000815260040180806020018281038252602f8152602001807f4f6e6c7920616e2041646d696e6973747261746f722063616e20696e766f6b6581526020017f20746869732066756e6374696f6e2e000000000000000000000000000000000081525060400191505060405180910390fd5b6000600560008881526020019081526020016000206000015414151515610dd6576040517f08c379a00000000000000000000000000000000000000000000000000000000081526004018080602001828103825260498152602001807f50726f6475637420666f722074686520676976656e2073746f7265206964206181526020017f6e642070726f6475637420696420636f6d62696e6174696f6e20646f6573206e81526020017f6f7420657869737421000000000000000000000000000000000000000000000081525060600191505060405180910390fd5b84600560008881526020019081526020016000206001019080519060200190610e00929190610eef565b5083600560008881526020019081526020016000206002019080519060200190610e2b929190610eef565b508260056000888152602001908152602001600020600301819055508160056000888152602001908152602001600020600401819055506001905095945050505050565b828054600181600116156101000203166002900490600052602060002090601f016020900481019282601f10610eb057805160ff1916838001178555610ede565b82800160010185558215610ede579182015b82811115610edd578251825591602001919060010190610ec2565b5b509050610eeb9190610f6f565b5090565b828054600181600116156101000203166002900490600052602060002090601f016020900481019282601f10610f3057805160ff1916838001178555610f5e565b82800160010185558215610f5e579182015b82811115610f5d578251825591602001919060010190610f42565b5b509050610f6b9190610f6f565b5090565b610f9191905b80821115610f8d576000816000905550600101610f75565b5090565b905600a165627a7a72305820a976a213ab2d99f5c66f0ff72720c1a1b5f2ec5d74eec7a41ab320effb5f291d0029",
  "source": "pragma solidity ^0.4.22;\n\n/**\n * This contract will create all the functionalities related to a store.\n *\n * For example\n * - Adding a product\n * - updating a product\n * - customer being able to view the list of stores\n * - store owner being able to see the stores\n * - customer being able to view the products in a given Store\n *\n*/\ncontract Store {\n    // Onwer is the actual store owner who is creating the store.\n    address owner;\n\n    string storeName;\n    string description;\n    uint storeId;\n    uint nextProductId;\n\n    mapping (uint => Product) products;\n\n    enum ProductStatus {\n        ACTIVE,\n        REMOVED\n    }\n\n    struct Product {\n        uint productId;\n        string productName;\n        string description;\n        uint price;\n        uint quantity;\n        ProductStatus status;\n    }\n\n    constructor(\n            string _storeName,\n            string _description,\n            uint _storeId ) public {\n\n        owner = msg.sender;\n        storeName = _storeName;\n        storeId = _storeId;\n        description = _description;\n        nextProductId = 1;\n    }\n\n    /**\n     * Only (store) owners shall be allowed to add or update the store specific details - e.g. product.\n     *\n    */\n    modifier onlyOwner {\n        require( (owner == msg.sender), \"Only an Administrator can invoke this function.\");\n        _;\n    }\n\n     /**\n     * A store owner will use this function to add a new product to his / her store.\n     *\n     * Whenever a new product is added, the product map will be updated to hold all the product and their details\n     * across all the store and store owners.\n     *\n    */\n    function addProductToTheStore(\n            string productName,\n            string productDesc,\n            uint price,\n            uint quantity ) public onlyOwner returns(uint) {\n\n        products[nextProductId] = Product(\n            nextProductId,\n            productName,\n            productDesc,\n            price,\n            quantity,\n            ProductStatus.ACTIVE );\n\n        return nextProductId++;\n    }\n\n    /**\n     * The update product function will be called to update the details of an existing function.\n     *\n     * In a regular course of a business, the following amounts may get updated.\n     * - quantity\n     * - productName\n     * - price\n     * - description\n     *\n    */\n    function updateProduct(\n            uint productId,\n            string productName,\n            string productDesc,\n            uint price,\n            uint quantity ) public onlyOwner returns(bool) {\n\n        require( products[productId].productId != 0 , \"Product for the given store id and product id combination does not exist!\");\n\n        products[productId].productName = productName;\n        products[productId].description = productDesc;\n        products[productId].price = price;\n        products[productId].quantity = quantity;\n\n        return true;\n    }\n\n    /**\n     * A store owner can decide to remove a product from his/her store.\n     * A removed product will not be visible to shoppers!\n     *\n    */\n    function removeProduct(uint productId, uint quantity) public onlyOwner {\n\n        require( products[productId].status == ProductStatus.ACTIVE, \"Only the active product can be marked as removed!\");\n\n        products[productId].quantity = products[productId].quantity - quantity;\n        products[productId].status = ProductStatus.REMOVED;\n    }\n\n\n    /**\n     * The shopper can buy this product using this function.\n     *\n    */\n    function buyProductFromStore(uint _productId, uint _quantity) public payable {\n\n        require( products[_productId].status == ProductStatus.ACTIVE, \"Only the active product can be bought!\");\n        require( owner != msg.sender, \"The owner cannot buy its own product!\");\n        require( _quantity <= products[_productId].quantity, \"The store does not have sufficient quantity of the product\");\n\n        //Reduce the corresponding quantity from the inventory\n        products[_productId].quantity = products[_productId].quantity - _quantity;\n\n        // Transfer fund from the shopper's acount into the store's account\n        address(this).transfer( _quantity * products[_productId].price );\n    }\n\n    /**\n     * A store owner can withdraw fund from a given store\n    */\n    function withdrawFund(uint withdrawAmount) public payable onlyOwner returns(uint) {\n        require(address(this).balance >= withdrawAmount, \"The current store's balance must be greater than the withdrawal amount!\");\n        owner.transfer(withdrawAmount);\n    }\n\n}\n",
  "sourcePath": "/Users/alokranjan/blockchain/ethereum/consensys/marketplace/contracts/Store.sol",
  "compiler": {
    "name": "solc",
    "version": "0.4.24+commit.e67f0147.Emscripten.clang"
  },
  "schemaVersion": "2.0.1",
  "updatedAt": "2018-08-08T14:58:51.220Z"
}