{
  "contractName": "Utils",
  "abi": [
    {
      "constant": true,
      "inputs": [
        {
          "name": "arrayOfEntities",
          "type": "address[]"
        },
        {
          "name": "entity",
          "type": "address"
        }
      ],
      "name": "existInTheArray",
      "outputs": [
        {
          "name": "",
          "type": "bool"
        }
      ],
      "payable": false,
      "stateMutability": "pure",
      "type": "function"
    }
  ],
  "bytecode": "0x610198610030600b82828239805160001a6073146000811461002057610022565bfe5b5030600052607381538281f3007300000000000000000000000000000000000000003014608060405260043610610058576000357c0100000000000000000000000000000000000000000000000000000000900463ffffffff168063cd817f4b1461005d575b600080fd5b6100d460048036038101908080359060200190820180359060200190808060200260200160405190810160405280939291908181526020018383602002808284378201915050505050509192919290803573ffffffffffffffffffffffffffffffffffffffff1690602001909291905050506100ee565b604051808215151515815260200191505060405180910390f35b600080600090505b8351811015610160578273ffffffffffffffffffffffffffffffffffffffff16848281518110151561012457fe5b9060200190602002015173ffffffffffffffffffffffffffffffffffffffff1614156101535760019150610165565b80806001019150506100f6565b600091505b50929150505600a165627a7a72305820d32b4b9237caf8d0dba96b9b8a6a18d404a52b268a34643f871f806e76b593e00029",
  "source": "pragma solidity ^0.4.22;\n\nlibrary Utils {\n    /**\n     * Move this function into a library and call that library in this contract\n     * @param arrayOfEntities contains the array consisting of addresses against which the look up will take Place\n     * @param entity which is being looked upon for existence\n     * @return a boolean value, indicating if the entity was found in the array or not\n    */\n    function existInTheArray(address[] arrayOfEntities, address entity) public pure returns(bool) {\n\n        for (uint arrayIndex = 0; arrayIndex < arrayOfEntities.length; arrayIndex++) {\n            if ( arrayOfEntities[arrayIndex] == entity ) {\n                return true;\n            }\n        }\n\n        return false;\n    }\n}\n",
  "sourcePath": "/Users/alokranjan/blockchain/ethereum/consensys/ethmarket/contracts/library/Utils.sol",
  "compiler": {
    "name": "solc",
    "version": "0.4.24+commit.e67f0147.Emscripten.clang"
  },
  "schemaVersion": "2.0.1",
  "updatedAt": "2018-08-26T17:57:09.379Z"
}