{
  "contractName": "Utils",
  "abi": [
    {
      "constant": true,
      "inputs": [
        {
          "name": "arrayOfEntities",
          "type": "address[]"
        },
        {
          "name": "entity",
          "type": "address"
        }
      ],
      "name": "existInTheArray",
      "outputs": [
        {
          "name": "",
          "type": "bool"
        }
      ],
      "payable": false,
      "stateMutability": "pure",
      "type": "function"
    }
  ],
  "bytecode": "0x610171610030600b82828239805160001a6073146000811461002057610022565bfe5b5030600052607381538281f30073000000000000000000000000000000000000000030146080604052600436106100575763ffffffff7c0100000000000000000000000000000000000000000000000000000000600035041663cd817f4b811461005c575b600080fd5b604080516020600480358082013583810280860185019096528085526100bc953695939460249493850192918291850190849080828437509497505050923573ffffffffffffffffffffffffffffffffffffffff1693506100d092505050565b604080519115158252519081900360200190f35b6000805b8351811015610139578273ffffffffffffffffffffffffffffffffffffffff16848281518110151561010257fe5b9060200190602002015173ffffffffffffffffffffffffffffffffffffffff161415610131576001915061013e565b6001016100d4565b600091505b50929150505600a165627a7a7230582062aa483017976985731b12694ec87bb7ae22eae69eff60047f5c660a61b1b1410029",
  "source": "pragma solidity ^0.4.23;\n\nlibrary Utils {\n    /**\n     * Move this function into a library and call that library in this contract\n     * @param arrayOfEntities contains the array consisting of addresses against which the look up will take Place\n     * @param entity which is being looked upon for existence\n     * @return a boolean value, indicating if the entity was found in the array or not\n    */\n    function existInTheArray(address[] arrayOfEntities, address entity) public pure returns(bool) {\n\n        for (uint arrayIndex = 0; arrayIndex < arrayOfEntities.length; arrayIndex++) {\n            if ( arrayOfEntities[arrayIndex] == entity ) {\n                return true;\n            }\n        }\n\n        return false;\n    }\n}\n",
  "sourcePath": "/Users/alokranjan/blockchain/ethereum/consensys/ethmarket/contracts/library/Utils.sol",
  "compiler": {
    "name": "solc",
    "version": "0.4.24+commit.e67f0147.Emscripten.clang"
  },
  "schemaVersion": "2.0.1",
  "updatedAt": "2018-08-31T18:18:06.441Z"
}